{
  "address": "0xdA69FD338DbdA8F1b96E367f33d8259c7c260d07",
  "abi": [
    {
      "inputs": [
        {
          "internalType": "address",
          "name": "_dispatcherFactory",
          "type": "address"
        },
        {
          "internalType": "address",
          "name": "_votingPower",
          "type": "address"
        },
        {
          "internalType": "uint32",
          "name": "_globalMaxContributionPct",
          "type": "uint32"
        },
        {
          "internalType": "uint32",
          "name": "_dispatcherMaxContributionPct",
          "type": "uint32"
        },
        {
          "internalType": "uint256",
          "name": "_requiredVotingPower",
          "type": "uint256"
        },
        {
          "internalType": "address",
          "name": "_bouncerAdmin",
          "type": "address"
        },
        {
          "internalType": "address",
          "name": "_roleAdmin",
          "type": "address"
        }
      ],
      "stateMutability": "nonpayable",
      "type": "constructor"
    },
    {
      "anonymous": false,
      "inputs": [
        {
          "indexed": true,
          "internalType": "address",
          "name": "dispatcher",
          "type": "address"
        },
        {
          "indexed": true,
          "internalType": "address",
          "name": "sender",
          "type": "address"
        },
        {
          "indexed": true,
          "internalType": "address",
          "name": "account",
          "type": "address"
        },
        {
          "indexed": false,
          "internalType": "uint256",
          "name": "amount",
          "type": "uint256"
        }
      ],
      "name": "BankrollProvided",
      "type": "event"
    },
    {
      "anonymous": false,
      "inputs": [
        {
          "indexed": true,
          "internalType": "address",
          "name": "dispatcher",
          "type": "address"
        },
        {
          "indexed": true,
          "internalType": "address",
          "name": "sender",
          "type": "address"
        },
        {
          "indexed": true,
          "internalType": "address",
          "name": "account",
          "type": "address"
        },
        {
          "indexed": false,
          "internalType": "uint256",
          "name": "amount",
          "type": "uint256"
        }
      ],
      "name": "BankrollRemoved",
      "type": "event"
    },
    {
      "anonymous": false,
      "inputs": [
        {
          "indexed": true,
          "internalType": "address",
          "name": "oldAddress",
          "type": "address"
        },
        {
          "indexed": true,
          "internalType": "address",
          "name": "newAddress",
          "type": "address"
        }
      ],
      "name": "DispatcherFactoryChanged",
      "type": "event"
    },
    {
      "anonymous": false,
      "inputs": [
        {
          "indexed": false,
          "internalType": "uint32",
          "name": "oldPct",
          "type": "uint32"
        },
        {
          "indexed": false,
          "internalType": "uint32",
          "name": "newPct",
          "type": "uint32"
        }
      ],
      "name": "DispatcherMaxChanged",
      "type": "event"
    },
    {
      "anonymous": false,
      "inputs": [
        {
          "indexed": false,
          "internalType": "uint32",
          "name": "oldPct",
          "type": "uint32"
        },
        {
          "indexed": false,
          "internalType": "uint32",
          "name": "newPct",
          "type": "uint32"
        }
      ],
      "name": "GlobalMaxChanged",
      "type": "event"
    },
    {
      "anonymous": false,
      "inputs": [
        {
          "indexed": false,
          "internalType": "uint256",
          "name": "oldVotingPower",
          "type": "uint256"
        },
        {
          "indexed": false,
          "internalType": "uint256",
          "name": "newVotingPower",
          "type": "uint256"
        }
      ],
      "name": "RequiredVotingPowerChanged",
      "type": "event"
    },
    {
      "anonymous": false,
      "inputs": [
        {
          "indexed": true,
          "internalType": "bytes32",
          "name": "role",
          "type": "bytes32"
        },
        {
          "indexed": true,
          "internalType": "bytes32",
          "name": "previousAdminRole",
          "type": "bytes32"
        },
        {
          "indexed": true,
          "internalType": "bytes32",
          "name": "newAdminRole",
          "type": "bytes32"
        }
      ],
      "name": "RoleAdminChanged",
      "type": "event"
    },
    {
      "anonymous": false,
      "inputs": [
        {
          "indexed": true,
          "internalType": "bytes32",
          "name": "role",
          "type": "bytes32"
        },
        {
          "indexed": true,
          "internalType": "address",
          "name": "account",
          "type": "address"
        },
        {
          "indexed": true,
          "internalType": "address",
          "name": "sender",
          "type": "address"
        }
      ],
      "name": "RoleGranted",
      "type": "event"
    },
    {
      "anonymous": false,
      "inputs": [
        {
          "indexed": true,
          "internalType": "bytes32",
          "name": "role",
          "type": "bytes32"
        },
        {
          "indexed": true,
          "internalType": "address",
          "name": "account",
          "type": "address"
        },
        {
          "indexed": true,
          "internalType": "address",
          "name": "sender",
          "type": "address"
        }
      ],
      "name": "RoleRevoked",
      "type": "event"
    },
    {
      "anonymous": false,
      "inputs": [
        {
          "indexed": true,
          "internalType": "address",
          "name": "oldAddress",
          "type": "address"
        },
        {
          "indexed": true,
          "internalType": "address",
          "name": "newAddress",
          "type": "address"
        }
      ],
      "name": "VotingPowerChanged",
      "type": "event"
    },
    {
      "inputs": [],
      "name": "BOUNCER_ADMIN_ROLE",
      "outputs": [
        {
          "internalType": "bytes32",
          "name": "",
          "type": "bytes32"
        }
      ],
      "stateMutability": "view",
      "type": "function"
    },
    {
      "inputs": [],
      "name": "DEFAULT_ADMIN_ROLE",
      "outputs": [
        {
          "internalType": "bytes32",
          "name": "",
          "type": "bytes32"
        }
      ],
      "stateMutability": "view",
      "type": "function"
    },
    {
      "inputs": [
        {
          "internalType": "address",
          "name": "account",
          "type": "address"
        },
        {
          "internalType": "address",
          "name": "dispatcher",
          "type": "address"
        }
      ],
      "name": "amountAvailableToBankroll",
      "outputs": [
        {
          "internalType": "uint256",
          "name": "amount",
          "type": "uint256"
        }
      ],
      "stateMutability": "view",
      "type": "function"
    },
    {
      "inputs": [
        {
          "internalType": "address",
          "name": "account",
          "type": "address"
        }
      ],
      "name": "amountAvailableToDeposit",
      "outputs": [
        {
          "internalType": "uint256",
          "name": "amount",
          "type": "uint256"
        }
      ],
      "stateMutability": "view",
      "type": "function"
    },
    {
      "inputs": [
        {
          "internalType": "address",
          "name": "",
          "type": "address"
        }
      ],
      "name": "amountDeposited",
      "outputs": [
        {
          "internalType": "uint256",
          "name": "",
          "type": "uint256"
        }
      ],
      "stateMutability": "view",
      "type": "function"
    },
    {
      "inputs": [
        {
          "internalType": "contract IDispatcher",
          "name": "dispatcher",
          "type": "address"
        }
      ],
      "name": "bankrollAvailable",
      "outputs": [
        {
          "internalType": "uint256",
          "name": "amount",
          "type": "uint256"
        }
      ],
      "stateMutability": "view",
      "type": "function"
    },
    {
      "inputs": [
        {
          "internalType": "address",
          "name": "account",
          "type": "address"
        },
        {
          "internalType": "address",
          "name": "dispatcher",
          "type": "address"
        }
      ],
      "name": "bankrollBalances",
      "outputs": [
        {
          "internalType": "uint256[7]",
          "name": "balances",
          "type": "uint256[7]"
        }
      ],
      "stateMutability": "view",
      "type": "function"
    },
    {
      "inputs": [
        {
          "internalType": "contract IDispatcher",
          "name": "dispatcher",
          "type": "address"
        }
      ],
      "name": "bankrollProvided",
      "outputs": [
        {
          "internalType": "uint256",
          "name": "amount",
          "type": "uint256"
        }
      ],
      "stateMutability": "view",
      "type": "function"
    },
    {
      "inputs": [
        {
          "internalType": "address",
          "name": "",
          "type": "address"
        },
        {
          "internalType": "address",
          "name": "",
          "type": "address"
        }
      ],
      "name": "bankrollProvidedETH",
      "outputs": [
        {
          "internalType": "uint256",
          "name": "",
          "type": "uint256"
        }
      ],
      "stateMutability": "view",
      "type": "function"
    },
    {
      "inputs": [
        {
          "internalType": "contract IDispatcher",
          "name": "dispatcher",
          "type": "address"
        }
      ],
      "name": "bankrollRequested",
      "outputs": [
        {
          "internalType": "uint256",
          "name": "amount",
          "type": "uint256"
        }
      ],
      "stateMutability": "view",
      "type": "function"
    },
    {
      "inputs": [],
      "name": "dispatcherFactory",
      "outputs": [
        {
          "internalType": "contract IDispatcherFactory",
          "name": "",
          "type": "address"
        }
      ],
      "stateMutability": "view",
      "type": "function"
    },
    {
      "inputs": [],
      "name": "dispatcherMaxContributionPct",
      "outputs": [
        {
          "internalType": "uint32",
          "name": "",
          "type": "uint32"
        }
      ],
      "stateMutability": "view",
      "type": "function"
    },
    {
      "inputs": [],
      "name": "dispatchersWithBankrollAvailable",
      "outputs": [
        {
          "internalType": "address[]",
          "name": "dispatchers",
          "type": "address[]"
        }
      ],
      "stateMutability": "view",
      "type": "function"
    },
    {
      "inputs": [
        {
          "internalType": "bytes32",
          "name": "role",
          "type": "bytes32"
        }
      ],
      "name": "getRoleAdmin",
      "outputs": [
        {
          "internalType": "bytes32",
          "name": "",
          "type": "bytes32"
        }
      ],
      "stateMutability": "view",
      "type": "function"
    },
    {
      "inputs": [
        {
          "internalType": "bytes32",
          "name": "role",
          "type": "bytes32"
        },
        {
          "internalType": "uint256",
          "name": "index",
          "type": "uint256"
        }
      ],
      "name": "getRoleMember",
      "outputs": [
        {
          "internalType": "address",
          "name": "",
          "type": "address"
        }
      ],
      "stateMutability": "view",
      "type": "function"
    },
    {
      "inputs": [
        {
          "internalType": "bytes32",
          "name": "role",
          "type": "bytes32"
        }
      ],
      "name": "getRoleMemberCount",
      "outputs": [
        {
          "internalType": "uint256",
          "name": "",
          "type": "uint256"
        }
      ],
      "stateMutability": "view",
      "type": "function"
    },
    {
      "inputs": [],
      "name": "globalMaxContributionPct",
      "outputs": [
        {
          "internalType": "uint32",
          "name": "",
          "type": "uint32"
        }
      ],
      "stateMutability": "view",
      "type": "function"
    },
    {
      "inputs": [
        {
          "internalType": "bytes32",
          "name": "role",
          "type": "bytes32"
        },
        {
          "internalType": "address",
          "name": "account",
          "type": "address"
        }
      ],
      "name": "grantRole",
      "outputs": [],
      "stateMutability": "nonpayable",
      "type": "function"
    },
    {
      "inputs": [
        {
          "internalType": "bytes32",
          "name": "role",
          "type": "bytes32"
        },
        {
          "internalType": "address",
          "name": "account",
          "type": "address"
        }
      ],
      "name": "hasRole",
      "outputs": [
        {
          "internalType": "bool",
          "name": "",
          "type": "bool"
        }
      ],
      "stateMutability": "view",
      "type": "function"
    },
    {
      "inputs": [
        {
          "internalType": "contract IDispatcher",
          "name": "dispatcher",
          "type": "address"
        }
      ],
      "name": "maxBankrollPerAccount",
      "outputs": [
        {
          "internalType": "uint256",
          "name": "amount",
          "type": "uint256"
        }
      ],
      "stateMutability": "view",
      "type": "function"
    },
    {
      "inputs": [],
      "name": "maxDepositPerAccount",
      "outputs": [
        {
          "internalType": "uint256",
          "name": "amount",
          "type": "uint256"
        }
      ],
      "stateMutability": "view",
      "type": "function"
    },
    {
      "inputs": [
        {
          "internalType": "address",
          "name": "dispatcher",
          "type": "address"
        }
      ],
      "name": "provideETHBankroll",
      "outputs": [],
      "stateMutability": "payable",
      "type": "function"
    },
    {
      "inputs": [
        {
          "internalType": "address",
          "name": "dispatcher",
          "type": "address"
        },
        {
          "internalType": "uint256",
          "name": "amount",
          "type": "uint256"
        }
      ],
      "name": "removeETHBankroll",
      "outputs": [],
      "stateMutability": "nonpayable",
      "type": "function"
    },
    {
      "inputs": [
        {
          "internalType": "bytes32",
          "name": "role",
          "type": "bytes32"
        },
        {
          "internalType": "address",
          "name": "account",
          "type": "address"
        }
      ],
      "name": "renounceRole",
      "outputs": [],
      "stateMutability": "nonpayable",
      "type": "function"
    },
    {
      "inputs": [],
      "name": "requiredVotingPower",
      "outputs": [
        {
          "internalType": "uint256",
          "name": "",
          "type": "uint256"
        }
      ],
      "stateMutability": "view",
      "type": "function"
    },
    {
      "inputs": [
        {
          "internalType": "bytes32",
          "name": "role",
          "type": "bytes32"
        },
        {
          "internalType": "address",
          "name": "account",
          "type": "address"
        }
      ],
      "name": "revokeRole",
      "outputs": [],
      "stateMutability": "nonpayable",
      "type": "function"
    },
    {
      "inputs": [
        {
          "internalType": "address",
          "name": "factoryAddress",
          "type": "address"
        }
      ],
      "name": "setDispatcherFactory",
      "outputs": [],
      "stateMutability": "nonpayable",
      "type": "function"
    },
    {
      "inputs": [
        {
          "internalType": "uint32",
          "name": "newPct",
          "type": "uint32"
        }
      ],
      "name": "setDispatcherMaxContributionPct",
      "outputs": [],
      "stateMutability": "nonpayable",
      "type": "function"
    },
    {
      "inputs": [
        {
          "internalType": "uint32",
          "name": "newPct",
          "type": "uint32"
        }
      ],
      "name": "setGlobalMaxContributionPct",
      "outputs": [],
      "stateMutability": "nonpayable",
      "type": "function"
    },
    {
      "inputs": [
        {
          "internalType": "uint256",
          "name": "newVotingPower",
          "type": "uint256"
        }
      ],
      "name": "setRequiredVotingPower",
      "outputs": [],
      "stateMutability": "nonpayable",
      "type": "function"
    },
    {
      "inputs": [
        {
          "internalType": "address",
          "name": "votingPowerAddress",
          "type": "address"
        }
      ],
      "name": "setVotingPower",
      "outputs": [],
      "stateMutability": "nonpayable",
      "type": "function"
    },
    {
      "inputs": [],
      "name": "totalAmountDeposited",
      "outputs": [
        {
          "internalType": "uint256",
          "name": "",
          "type": "uint256"
        }
      ],
      "stateMutability": "view",
      "type": "function"
    },
    {
      "inputs": [],
      "name": "totalBankrollAvailable",
      "outputs": [
        {
          "internalType": "uint256",
          "name": "amount",
          "type": "uint256"
        }
      ],
      "stateMutability": "view",
      "type": "function"
    },
    {
      "inputs": [],
      "name": "totalBankrollRequested",
      "outputs": [
        {
          "internalType": "uint256",
          "name": "amount",
          "type": "uint256"
        }
      ],
      "stateMutability": "view",
      "type": "function"
    },
    {
      "inputs": [
        {
          "internalType": "address",
          "name": "account",
          "type": "address"
        }
      ],
      "name": "votingPower",
      "outputs": [
        {
          "internalType": "uint256",
          "name": "amount",
          "type": "uint256"
        }
      ],
      "stateMutability": "view",
      "type": "function"
    },
    {
      "inputs": [],
      "name": "votingPowerContract",
      "outputs": [
        {
          "internalType": "contract IVotingPower",
          "name": "",
          "type": "address"
        }
      ],
      "stateMutability": "view",
      "type": "function"
    }
  ],
  "transactionHash": "0x19eb5587f728f456cdabd6340b50b91755436c67b36eb196ca86de30cb9251de",
  "args": [
    "0xF055f787562216881e6e04207769F43E220e5546",
    "0x6EE7Ed1e03948954D548745F56c60072683d1257",
    "300000",
    "600000",
    "10000000000000000000000",
    "0x5b0aC3279dBf84Bb8DA59Be1EcaB118198f022E5",
    "0x864AD15351C4a50E12F767B1a7D993aE47493E55"
  ],
  "solcInputHash": "1d35c69beba9a247f982c61f9171089f",
  "bytecode": "0x60806040523480156200001157600080fd5b50604051620026e3380380620026e383398101604081905262000034916200022b565b600180546001600160a01b03808a166001600160a01b0319928316179092556002805463ffffffff888116600160c01b0263ffffffff60c01b19918b16600160a01b0263ffffffff60a01b19968d1693909516929092179490941692909217929092161790556003839055620000cb7f0f38c9a95b3e46f81ca9bc843f8e4f96937802cabd5509bc53c899dec1fa769b83620000e5565b620000d8600082620000e5565b50505050505050620002b6565b620000f18282620000f5565b5050565b6000828152602081815260409091206200011a918390620019756200016e821b17901c565b15620000f1576200012a6200018e565b6001600160a01b0316816001600160a01b0316837f2f8788117e7eff1d82e926ec794901d17c78024a50270940304540a733656f0d60405160405180910390a45050565b600062000185836001600160a01b03841662000192565b90505b92915050565b3390565b6000620001a08383620001e1565b620001d85750815460018181018455600084815260208082209093018490558454848252828601909352604090209190915562000188565b50600062000188565b60009081526001919091016020526040902054151590565b80516001600160a01b03811681146200021157600080fd5b919050565b805163ffffffff811681146200021157600080fd5b600080600080600080600060e0888a03121562000246578283fd5b6200025188620001f9565b96506200026160208901620001f9565b9550620002716040890162000216565b9450620002816060890162000216565b9350608088015192506200029860a08901620001f9565b9150620002a860c08901620001f9565b905092959891949750929550565b61241d80620002c66000396000f3fe60806040526004361061024f5760003560e01c80638d2c487811610138578063ca15c873116100b0578063d7f6a9351161007f578063e6ec4c2611610064578063e6ec4c261461062f578063e6f3e6671461064f578063f4f0e1ae1461067c5761024f565b8063d7f6a935146105fa578063e61f97451461061a5761024f565b8063ca15c87314610585578063d120166c146105a5578063d547741f146105c5578063d7daa485146105e55761024f565b8063a62ef2d311610107578063b6dd7ef6116100ec578063b6dd7ef614610525578063c07473f614610545578063c9c00e18146105655761024f565b8063a62ef2d3146104f0578063b2333d73146105055761024f565b80638d2c48781461047b5780639010d07c1461048e57806391d14854146104ae578063a217fddf146104db5761024f565b806352a177e5116101cb578063657eda101161019a5780636c0394151161017f5780636c0394151461042657806374854ca214610446578063748d4af01461045b5761024f565b8063657eda10146103e457806365bcdac7146104065761024f565b806352a177e51461036f5780635688f7891461038f5780635ccd3d7f146103a45780636389b5ae146103c45761024f565b80632f2ff15d1161022257806336568abe1161020757806336568abe146103185780633e70d65d1461033857806344f163951461034d5761024f565b80632f2ff15d146102e157806333c8c9d1146103035761024f565b806302ce06f8146102545780630d155d261461028a5780631f6917161461029f578063248a9ca3146102c1575b600080fd5b34801561026057600080fd5b5061027461026f366004611ec7565b61069c565b604051610281919061212b565b60405180910390f35b34801561029657600080fd5b506102746106b9565b3480156102ab57600080fd5b506102b46106bf565b604051610281919061208e565b3480156102cd57600080fd5b506102746102dc366004611ff2565b6106ce565b3480156102ed57600080fd5b506103016102fc36600461200a565b6106e6565b005b34801561030f57600080fd5b5061027461074d565b34801561032457600080fd5b5061030161033336600461200a565b6108bc565b34801561034457600080fd5b506102b461091d565b34801561035957600080fd5b5061036261092c565b60405161028191906122b2565b34801561037b57600080fd5b5061027461038a366004611eab565b610954565b34801561039b57600080fd5b506102746109a4565b3480156103b057600080fd5b506103016103bf366004612067565b6109e2565b3480156103d057600080fd5b506102746103df366004611eab565b610acb565b3480156103f057600080fd5b506103f9610b3e565b60405161028191906120a2565b34801561041257600080fd5b50610301610421366004611eff565b610dc8565b34801561043257600080fd5b50610274610441366004611eab565b611032565b34801561045257600080fd5b5061036261106d565b34801561046757600080fd5b50610301610476366004611eab565b611091565b610301610489366004611eab565b61114b565b34801561049a57600080fd5b506102b46104a936600461202e565b6112ac565b3480156104ba57600080fd5b506104ce6104c936600461200a565b6112cb565b6040516102819190612120565b3480156104e757600080fd5b506102746112e3565b3480156104fc57600080fd5b506102746112e8565b34801561051157600080fd5b50610301610520366004612067565b611452565b34801561053157600080fd5b50610274610540366004611ec7565b611536565b34801561055157600080fd5b50610274610560366004611eab565b611612565b34801561057157600080fd5b50610274610580366004611eab565b611674565b34801561059157600080fd5b506102746105a0366004611ff2565b611691565b3480156105b157600080fd5b506103016105c0366004611eab565b6116a8565b3480156105d157600080fd5b506103016105e036600461200a565b611762565b3480156105f157600080fd5b506102746117bb565b34801561060657600080fd5b50610274610615366004611eab565b6117df565b34801561062657600080fd5b50610274611843565b34801561063b57600080fd5b5061030161064a366004611ff2565b611849565b34801561065b57600080fd5b5061066f61066a366004611ec7565b6118cf565b60405161028191906120ef565b34801561068857600080fd5b50610274610697366004611eab565b611963565b600660209081526000928352604080842090915290825290205481565b60045481565b6001546001600160a01b031681565b6000818152602081905260409020600201545b919050565b600082815260208190526040902060020154610704906104c961198a565b61073f5760405162461bcd60e51b815260040180806020018281038252602f815260200180612339602f913960400191505060405180910390fd5b610749828261198e565b5050565b60006060600160009054906101000a90046001600160a01b03166001600160a01b031663f31306b26040518163ffffffff1660e01b815260040160006040518083038186803b15801561079f57600080fd5b505afa1580156107b3573d6000803e3d6000fd5b505050506040513d6000823e601f3d9081017fffffffffffffffffffffffffffffffffffffffffffffffffffffffffffffffe01682016040526107f99190810190611f2a565b905060005b81518110156108b757600082828151811061081557fe5b60200260200101519050806001600160a01b031663c2d4f8c0306040518263ffffffff1660e01b815260040161084b919061208e565b60206040518083038186803b15801561086357600080fd5b505afa158015610877573d6000803e3d6000fd5b505050506040513d601f19601f8201168201806040525081019061089b9190611fd2565b156108ae576108a981611674565b840193505b506001016107fe565b505090565b6108c461198a565b6001600160a01b0316816001600160a01b0316146109135760405162461bcd60e51b815260040180806020018281038252602f8152602001806123b9602f913960400191505060405180910390fd5b61074982826119f7565b6002546001600160a01b031681565b6002547801000000000000000000000000000000000000000000000000900463ffffffff1681565b60025460009061099e90620f424090610998907801000000000000000000000000000000000000000000000000900463ffffffff1661099286610acb565b90611a60565b90611ab9565b92915050565b6002546000906109dd90620f4240906109989074010000000000000000000000000000000000000000900463ffffffff166109926112e8565b905090565b610a0c7f0f38c9a95b3e46f81ca9bc843f8e4f96937802cabd5509bc53c899dec1fa769b336112cb565b610a315760405162461bcd60e51b8152600401610a28906121a2565b60405180910390fd5b7fd85e49bb2d3dba8e8bdee1d5feee79f8877cfdbd92061e41206f87eda668d44e600260149054906101000a900463ffffffff1682604051610a749291906122c3565b60405180910390a16002805463ffffffff90921674010000000000000000000000000000000000000000027fffffffffffffffff00000000ffffffffffffffffffffffffffffffffffffffff909216919091179055565b6000816001600160a01b031663148e250d6040518163ffffffff1660e01b815260040160206040518083038186803b158015610b0657600080fd5b505afa158015610b1a573d6000803e3d6000fd5b505050506040513d601f19601f8201168201806040525081019061099e919061204f565b606080600160009054906101000a90046001600160a01b03166001600160a01b031663f31306b26040518163ffffffff1660e01b815260040160006040518083038186803b158015610b8f57600080fd5b505afa158015610ba3573d6000803e3d6000fd5b505050506040513d6000823e601f3d9081017fffffffffffffffffffffffffffffffffffffffffffffffffffffffffffffffe0168201604052610be99190810190611f2a565b90506060815167ffffffffffffffff81118015610c0557600080fd5b50604051908082528060200260200182016040528015610c2f578160200160208202803683370190505b5090506000805b8351811015610d31576000848281518110610c4d57fe5b60200260200101519050806001600160a01b031663c2d4f8c0306040518263ffffffff1660e01b8152600401610c83919061208e565b60206040518083038186803b158015610c9b57600080fd5b505afa158015610caf573d6000803e3d6000fd5b505050506040513d601f19601f82011682018060405250810190610cd39190611fd2565b15610d28576000610ce382611674565b1115610d2857848281518110610cf557fe5b6020026020010151848481518110610d0957fe5b6001600160a01b03909216602092830291909101909101526001909201915b50600101610c36565b508067ffffffffffffffff81118015610d4957600080fd5b50604051908082528060200260200182016040528015610d73578160200160208202803683370190505b50935060005b81811015610dc157828181518110610d8d57fe5b6020026020010151858281518110610da157fe5b6001600160a01b0390921660209283029190910190910152600101610d79565b5050505090565b3260009081526006602090815260408083206001600160a01b0386168452909152902054811115610e0b5760405162461bcd60e51b8152600401610a289061216b565b32600090815260056020526040902054811115610e3a5760405162461bcd60e51b8152600401610a289061226d565b806004541015610e5c5760405162461bcd60e51b8152600401610a2890612134565b3260009081526006602090815260408083206001600160a01b0386168452909152902054610e8a9082611afb565b3260008181526006602090815260408083206001600160a01b038816845282528083209490945591815260059091522054610ec59082611afb565b32600090815260056020526040902055600454610ee29082611afb565b60049081556040517f3dee36010000000000000000000000000000000000000000000000000000000081526001600160a01b03841691633dee360191610f2a9185910161212b565b600060405180830381600087803b158015610f4457600080fd5b505af1158015610f58573d6000803e3d6000fd5b505050506000336001600160a01b031682604051610f759061208b565b60006040518083038185875af1925050503d8060008114610fb2576040519150601f19603f3d011682016040523d82523d6000602084013e610fb7565b606091505b5050905080610fd85760405162461bcd60e51b8152600401610a28906121ff565b326001600160a01b0316336001600160a01b0316846001600160a01b03167fd1c6673cc8a108ac64be6e98d553f8911b86feb39469bab455b3667e48702b0985604051611025919061212b565b60405180910390a4505050565b6000816001600160a01b03166315770f926040518163ffffffff1660e01b815260040160206040518083038186803b158015610b0657600080fd5b60025474010000000000000000000000000000000000000000900463ffffffff1681565b6110bb7f0f38c9a95b3e46f81ca9bc843f8e4f96937802cabd5509bc53c899dec1fa769b336112cb565b6110d75760405162461bcd60e51b8152600401610a28906121a2565b6001546040516001600160a01b038084169216907f100be422750b26ed68cc2d48487c0dc36c48cd549dce64b3154ff1c557a5cfda90600090a3600180547fffffffffffffffffffffffff0000000000000000000000000000000000000000166001600160a01b0392909216919091179055565b346111563283611536565b10156111745760405162461bcd60e51b8152600401610a2890612236565b3260009081526006602090815260408083206001600160a01b03851684529091529020546111a29034611b3d565b3260008181526006602090815260408083206001600160a01b0387168452825280832094909455918152600590915220546111dd9034611b3d565b326000908152600560205260409020556004546111fa9034611b3d565b600481905550806001600160a01b031663ac19e898346040518263ffffffff1660e01b81526004016000604051808303818588803b15801561123b57600080fd5b505af115801561124f573d6000803e3d6000fd5b5050505050326001600160a01b0316336001600160a01b0316826001600160a01b03167fdb6360c3a9b69a11c63dea726562c794fd99028ee07f53f758bf7511ced9910a346040516112a1919061212b565b60405180910390a450565b60008281526020819052604081206112c49083611b97565b9392505050565b60008281526020819052604081206112c49083611ba3565b600081565b60006060600160009054906101000a90046001600160a01b03166001600160a01b031663f31306b26040518163ffffffff1660e01b815260040160006040518083038186803b15801561133a57600080fd5b505afa15801561134e573d6000803e3d6000fd5b505050506040513d6000823e601f3d9081017fffffffffffffffffffffffffffffffffffffffffffffffffffffffffffffffe01682016040526113949190810190611f2a565b905060005b81518110156108b75760008282815181106113b057fe5b60200260200101519050806001600160a01b031663c2d4f8c0306040518263ffffffff1660e01b81526004016113e6919061208e565b60206040518083038186803b1580156113fe57600080fd5b505afa158015611412573d6000803e3d6000fd5b505050506040513d601f19601f820116820180604052508101906114369190611fd2565b156114495761144481610acb565b840193505b50600101611399565b61147c7f0f38c9a95b3e46f81ca9bc843f8e4f96937802cabd5509bc53c899dec1fa769b336112cb565b6114985760405162461bcd60e51b8152600401610a28906121a2565b7fd3db75a6788ef7ddfbc07f1d0e9daf04b8c94d2bda034ae6d5dba8113a160e75600260189054906101000a900463ffffffff16826040516114db9291906122c3565b60405180910390a16002805463ffffffff9092167801000000000000000000000000000000000000000000000000027fffffffff00000000ffffffffffffffffffffffffffffffffffffffffffffffff909216919091179055565b600060035461154484611612565b10156115525750600061099e565b600061155d846117df565b90508061156e57600091505061099e565b600061157984611674565b90508061158b5760009250505061099e565b600061159685610954565b6001600160a01b038088166000908152600660209081526040808320938a16835292905220549091508082116115d357600094505050505061099e565b60006115df8383611afb565b905083851061160457838111156115f657836115f8565b805b9550505050505061099e565b848111156115f657846115f8565b6002546040517f70a082310000000000000000000000000000000000000000000000000000000081526000916001600160a01b0316906370a082319061165c90859060040161208e565b60206040518083038186803b158015610b0657600080fd5b600061099e61168283611032565b61168b84610acb565b90611afb565b600081815260208190526040812061099e90611bb8565b6116d27f0f38c9a95b3e46f81ca9bc843f8e4f96937802cabd5509bc53c899dec1fa769b336112cb565b6116ee5760405162461bcd60e51b8152600401610a28906121a2565b6002546040516001600160a01b038084169216907f3711f8e3726b8750f42b9e8500711fef90f81ff40faa301baf2d14302b8fddb090600090a3600280547fffffffffffffffffffffffff0000000000000000000000000000000000000000166001600160a01b0392909216919091179055565b600082815260208190526040902060020154611780906104c961198a565b6109135760405162461bcd60e51b81526004018080602001828103825260308152602001806123686030913960400191505060405180910390fd5b7f0f38c9a95b3e46f81ca9bc843f8e4f96937802cabd5509bc53c899dec1fa769b81565b60006003546117ed83611612565b10156117fb575060006106e1565b6001600160a01b0382166000908152600560205260408120549061181d6109a4565b9050818111611831576000925050506106e1565b61183b8183611afb565b949350505050565b60035481565b6118737f0f38c9a95b3e46f81ca9bc843f8e4f96937802cabd5509bc53c899dec1fa769b336112cb565b61188f5760405162461bcd60e51b8152600401610a28906121a2565b7fe18a48fdafe80edf1e3097aa58b7ccb9d4b51ebbce4529ebd29f6bcfe662dde7600354826040516118c29291906122a4565b60405180910390a1600355565b6118d7611e82565b6118e082611674565b815260035460208201526118f383611612565b60408201526119006109a4565b60608201526001600160a01b038316600090815260056020526040902054608082015261192c82610954565b60a08201526001600160a01b039283166000908152600660209081526040808320949095168252929092529190205460c082015290565b60056020526000908152604090205481565b60006112c4836001600160a01b038416611bc3565b3390565b60008281526020819052604090206119a69082611975565b15610749576119b361198a565b6001600160a01b0316816001600160a01b0316837f2f8788117e7eff1d82e926ec794901d17c78024a50270940304540a733656f0d60405160405180910390a45050565b6000828152602081905260409020611a0f9082611c0d565b1561074957611a1c61198a565b6001600160a01b0316816001600160a01b0316837ff6391f5c32d9c69d2a47ea670b442974b53935d1edc7fd64eb21e047a839171b60405160405180910390a45050565b600082611a6f5750600061099e565b82820282848281611a7c57fe5b04146112c45760405162461bcd60e51b81526004018080602001828103825260218152602001806123986021913960400191505060405180910390fd5b60006112c483836040518060400160405280601a81526020017f536166654d6174683a206469766973696f6e206279207a65726f000000000000815250611c22565b60006112c483836040518060400160405280601f81526020017f536166654d6174683a207375627472616374696f6e20756e646572666c6f7700815250611cc4565b6000828201838110156112c4576040805162461bcd60e51b815260206004820152601b60248201527f536166654d6174683a206164646974696f6e206f766572666c6f770000000000604482015290519081900360640190fd5b60006112c48383611d1e565b60006112c4836001600160a01b038416611d82565b600061099e82611d9a565b6000611bcf8383611d82565b611c055750815460018181018455600084815260208082209093018490558454848252828601909352604090209190915561099e565b50600061099e565b60006112c4836001600160a01b038416611d9e565b60008183611cae5760405162461bcd60e51b81526004018080602001828103825283818151815260200191508051906020019080838360005b83811015611c73578181015183820152602001611c5b565b50505050905090810190601f168015611ca05780820380516001836020036101000a031916815260200191505b509250505060405180910390fd5b506000838581611cba57fe5b0495945050505050565b60008184841115611d165760405162461bcd60e51b8152602060048201818152835160248401528351909283926044909101919085019080838360008315611c73578181015183820152602001611c5b565b505050900390565b81546000908210611d605760405162461bcd60e51b81526004018080602001828103825260228152602001806123176022913960400191505060405180910390fd5b826000018281548110611d6f57fe5b9060005260206000200154905092915050565b60009081526001919091016020526040902054151590565b5490565b60008181526001830160205260408120548015611e785783547fffffffffffffffffffffffffffffffffffffffffffffffffffffffffffffffff8083019190810190600090879083908110611def57fe5b9060005260206000200154905080876000018481548110611e0c57fe5b600091825260208083209091019290925582815260018981019092526040902090840190558654879080611e3c57fe5b6001900381819060005260206000200160009055905586600101600087815260200190815260200160002060009055600194505050505061099e565b600091505061099e565b6040518060e001604052806007906020820280368337509192915050565b80516106e1816122fe565b600060208284031215611ebc578081fd5b81356112c4816122fe565b60008060408385031215611ed9578081fd5b8235611ee4816122fe565b91506020830135611ef4816122fe565b809150509250929050565b60008060408385031215611f11578182fd5b8235611f1c816122fe565b946020939093013593505050565b60006020808385031215611f3c578182fd5b825167ffffffffffffffff80821115611f53578384fd5b818501915085601f830112611f66578384fd5b815181811115611f7257fe5b8381029150611f828483016122da565b8181528481019084860184860187018a1015611f9c578788fd5b8795505b83861015611fc557611fb181611ea0565b835260019590950194918601918601611fa0565b5098975050505050505050565b600060208284031215611fe3578081fd5b815180151581146112c4578182fd5b600060208284031215612003578081fd5b5035919050565b6000806040838503121561201c578182fd5b823591506020830135611ef4816122fe565b60008060408385031215612040578182fd5b50508035926020909101359150565b600060208284031215612060578081fd5b5051919050565b600060208284031215612078578081fd5b813563ffffffff811681146112c4578182fd5b90565b6001600160a01b0391909116815260200190565b6020808252825182820181905260009190848201906040850190845b818110156120e35783516001600160a01b0316835292840192918401916001016120be565b50909695505050505050565b60e08101818360005b60078110156121175781518352602092830192909101906001016120f8565b50505092915050565b901515815260200190565b90815260200190565b60208082526014908201527f616d6f756e74206578636565647320746f74616c000000000000000000000000604082015260600190565b60208082526017908201527f616d6f756e7420657863656564732062616e6b726f6c6c000000000000000000604082015260600190565b60208082526028908201527f43616c6c6572206d757374206861766520424f554e4345525f41444d494e5f5260408201527f4f4c4520726f6c65000000000000000000000000000000000000000000000000606082015260800190565b6020808252600f908201527f5472616e73666572206661696c65640000000000000000000000000000000000604082015260600190565b60208082526012908201527f616d6f756e742065786365656473206d61780000000000000000000000000000604082015260600190565b60208082526016908201527f616d6f756e742065786365656473206465706f73697400000000000000000000604082015260600190565b918252602082015260400190565b63ffffffff91909116815260200190565b63ffffffff92831681529116602082015260400190565b60405181810167ffffffffffffffff811182821017156122f657fe5b604052919050565b6001600160a01b038116811461231357600080fd5b5056fe456e756d657261626c655365743a20696e646578206f7574206f6620626f756e6473416363657373436f6e74726f6c3a2073656e646572206d75737420626520616e2061646d696e20746f206772616e74416363657373436f6e74726f6c3a2073656e646572206d75737420626520616e2061646d696e20746f207265766f6b65536166654d6174683a206d756c7469706c69636174696f6e206f766572666c6f77416363657373436f6e74726f6c3a2063616e206f6e6c792072656e6f756e636520726f6c657320666f722073656c66a2646970667358221220fc32d1bfdb64033725cfb13d65e41a1f00109e56227798eb851cea4e91ec1bb264736f6c63430007040033",
  "devdoc": {
    "details": "Used as an interface to provide bankroll to Dispatchers on the Archer network",
    "kind": "dev",
    "methods": {
      "amountAvailableToBankroll(address,address)": {
        "returns": {
          "amount": "Bankroll available to account for given Dispatcher"
        }
      },
      "amountAvailableToDeposit(address)": {
        "returns": {
          "amount": "Bankroll available to account"
        }
      },
      "bankrollAvailable(address)": {
        "returns": {
          "amount": "Bankroll available for Dispatcher"
        }
      },
      "bankrollBalances(address,address)": {
        "returns": {
          "balances": " 1) dispatcher bankroll available  2) min voting power  3) user voting power  4) network deposit max  5) account amount deposited  6) max bankroll per account for dispatcher  7) bankroll already provided by user to this dispatcher"
        }
      },
      "bankrollProvided(address)": {
        "returns": {
          "amount": "Bankroll provided to Dispatcher"
        }
      },
      "bankrollRequested(address)": {
        "returns": {
          "amount": "Bankroll requested by Dispatcher"
        }
      },
      "constructor": {
        "params": {
          "_bouncerAdmin": "Admin of Bouncer contract",
          "_dispatcherFactory": "Dispatcher Factory address",
          "_dispatcherMaxContributionPct": "Per Dispatcher cap on % of bankroll any one account can provide",
          "_globalMaxContributionPct": "Global cap on % of bankroll any one account can provide",
          "_requiredVotingPower": "Amount of voting power required for account to provide bankroll",
          "_roleAdmin": "Admin of Bouncer admin role",
          "_votingPower": "VotingPower address"
        }
      },
      "dispatchersWithBankrollAvailable()": {
        "returns": {
          "dispatchers": "Array of dispatchers that have bankroll requests available"
        }
      },
      "getRoleAdmin(bytes32)": {
        "details": "Returns the admin role that controls `role`. See {grantRole} and {revokeRole}. To change a role's admin, use {_setRoleAdmin}."
      },
      "getRoleMember(bytes32,uint256)": {
        "details": "Returns one of the accounts that have `role`. `index` must be a value between 0 and {getRoleMemberCount}, non-inclusive. Role bearers are not sorted in any particular way, and their ordering may change at any point. WARNING: When using {getRoleMember} and {getRoleMemberCount}, make sure you perform all queries on the same block. See the following https://forum.openzeppelin.com/t/iterating-over-elements-on-enumerableset-in-openzeppelin-contracts/2296[forum post] for more information."
      },
      "getRoleMemberCount(bytes32)": {
        "details": "Returns the number of accounts that have `role`. Can be used together with {getRoleMember} to enumerate all bearers of a role."
      },
      "grantRole(bytes32,address)": {
        "details": "Grants `role` to `account`. If `account` had not been already granted `role`, emits a {RoleGranted} event. Requirements: - the caller must have ``role``'s admin role."
      },
      "hasRole(bytes32,address)": {
        "details": "Returns `true` if `account` has been granted `role`."
      },
      "maxBankrollPerAccount(address)": {
        "returns": {
          "amount": "Max bankroll per account"
        }
      },
      "maxDepositPerAccount()": {
        "returns": {
          "amount": "Max deposit amount"
        }
      },
      "provideETHBankroll(address)": {
        "params": {
          "dispatcher": "Dispatcher address"
        }
      },
      "removeETHBankroll(address,uint256)": {
        "params": {
          "amount": "Amount of bankroll to remove",
          "dispatcher": "Dispatcher address"
        }
      },
      "renounceRole(bytes32,address)": {
        "details": "Revokes `role` from the calling account. Roles are often managed via {grantRole} and {revokeRole}: this function's purpose is to provide a mechanism for accounts to lose their privileges if they are compromised (such as when a trusted device is misplaced). If the calling account had been granted `role`, emits a {RoleRevoked} event. Requirements: - the caller must be `account`."
      },
      "revokeRole(bytes32,address)": {
        "details": "Revokes `role` from `account`. If `account` had been granted `role`, emits a {RoleRevoked} event. Requirements: - the caller must have ``role``'s admin role."
      },
      "setDispatcherFactory(address)": {
        "details": "Only Bouncer admin can call",
        "params": {
          "factoryAddress": "Dispatcher Factory address"
        }
      },
      "setDispatcherMaxContributionPct(uint32)": {
        "details": "Only Bouncer admin can call",
        "params": {
          "newPct": "new per Dispatcher cap %"
        }
      },
      "setGlobalMaxContributionPct(uint32)": {
        "details": "Only Bouncer admin can call",
        "params": {
          "newPct": "new global cap %"
        }
      },
      "setRequiredVotingPower(uint256)": {
        "details": "Only Bouncer admin can call",
        "params": {
          "newVotingPower": "minimum voting power"
        }
      },
      "setVotingPower(address)": {
        "details": "Only Bouncer admin can call",
        "params": {
          "votingPowerAddress": "VotingPower address"
        }
      },
      "totalBankrollAvailable()": {
        "returns": {
          "amount": "Total bankroll available for deposit"
        }
      },
      "totalBankrollRequested()": {
        "returns": {
          "amount": "Total bankroll requested"
        }
      },
      "votingPower(address)": {
        "params": {
          "account": "Address of account"
        },
        "returns": {
          "amount": "Amount of voting power"
        }
      }
    },
    "title": "Bouncer",
    "version": 1
  },
  "userdoc": {
    "events": {
      "BankrollProvided(address,address,address,uint256)": {
        "notice": "Event emitted when bankroll is provided to a dispatcher"
      },
      "BankrollRemoved(address,address,address,uint256)": {
        "notice": "Event emitted when bankroll is removed from a dispatcher"
      },
      "DispatcherFactoryChanged(address,address)": {
        "notice": "Event emitted when Dispatcher Factory contract address is changed"
      },
      "DispatcherMaxChanged(uint32,uint32)": {
        "notice": "Event emitted when per dispatcher cap is changed"
      },
      "GlobalMaxChanged(uint32,uint32)": {
        "notice": "Event emitted when global cap is changed"
      },
      "RequiredVotingPowerChanged(uint256,uint256)": {
        "notice": "Event emitted when required voting power to bankroll network is changed"
      },
      "VotingPowerChanged(address,address)": {
        "notice": "Event emitted when Voting Power contract address is changed"
      }
    },
    "kind": "user",
    "methods": {
      "BOUNCER_ADMIN_ROLE()": {
        "notice": "Admin role to manage Bouncer"
      },
      "amountAvailableToBankroll(address,address)": {
        "notice": "Amount of remaining bankroll account can provide to given Dispatcher"
      },
      "amountAvailableToDeposit(address)": {
        "notice": "Total amount of remaining bankroll account can provide to network"
      },
      "amountDeposited(address)": {
        "notice": "Mapping of Dispatcher address > bankroll provided"
      },
      "bankrollAvailable(address)": {
        "notice": "Amount of bankroll available to provide to given Dispatcher"
      },
      "bankrollBalances(address,address)": {
        "notice": "Gets all balances relevant to determining whether a given user can bankroll a dispatcher"
      },
      "bankrollProvided(address)": {
        "notice": "Amount of bankroll provided to given Dispatcher"
      },
      "bankrollProvidedETH(address,address)": {
        "notice": "Mapping of account > Dispatcher > bankroll provided"
      },
      "bankrollRequested(address)": {
        "notice": "Total amount of bankroll requested by the given Dispatcher"
      },
      "constructor": {
        "notice": "Construct a new Bouncer contract"
      },
      "dispatcherFactory()": {
        "notice": "Dispatcher Factory"
      },
      "dispatcherMaxContributionPct()": {
        "notice": "Per Dispatcher cap on % of bankroll any one entity can provide (measured in bips: 10,000 bips = 1% of bankroll requested by the Dispatcher)"
      },
      "dispatchersWithBankrollAvailable()": {
        "notice": "All of the Dispatchers on the network that have bankroll available that has not yet been provided"
      },
      "globalMaxContributionPct()": {
        "notice": "Global cap on % of network bankroll any one entity can provide (measured in bips: 10,000 bips = 1% of bankroll requested by the network)"
      },
      "maxBankrollPerAccount(address)": {
        "notice": "Max amount of bankroll any one account can provide to given Dispatcher"
      },
      "maxDepositPerAccount()": {
        "notice": "Maximum amount of bankroll any one account can provide to the network as a whole"
      },
      "provideETHBankroll(address)": {
        "notice": "Provide ETH bankroll to Dispatcher"
      },
      "removeETHBankroll(address,uint256)": {
        "notice": "Remove ETH bankroll from Dispatcher"
      },
      "requiredVotingPower()": {
        "notice": "Amount of voting power required to bankroll on the network"
      },
      "setDispatcherFactory(address)": {
        "notice": "Set Dispatcher Factory address"
      },
      "setDispatcherMaxContributionPct(uint32)": {
        "notice": "Set per Dispatcher max % of bankroll any one account can provide"
      },
      "setGlobalMaxContributionPct(uint32)": {
        "notice": "Set global max % of network bankroll any one account can provide"
      },
      "setRequiredVotingPower(uint256)": {
        "notice": "Set voting power required by users to provide bankroll"
      },
      "setVotingPower(address)": {
        "notice": "Set VotingPower address"
      },
      "totalAmountDeposited()": {
        "notice": "Total amount of bankroll provided to the network via this contract"
      },
      "totalBankrollAvailable()": {
        "notice": "Total amount of bankroll requested by all of the Dispatchers on the network that has not yet been provided"
      },
      "totalBankrollRequested()": {
        "notice": "Total amount of bankroll requested by all of the Dispatchers on the network"
      },
      "votingPower(address)": {
        "notice": "Amount of voting power a given account has currently"
      },
      "votingPowerContract()": {
        "notice": "Voting Power Contract"
      }
    },
    "version": 1
  },
  "storageLayout": {
    "storage": [
      {
        "astId": 3012,
        "contract": "contracts/Bouncer.sol:Bouncer",
        "label": "_roles",
        "offset": 0,
        "slot": "0",
        "type": "t_mapping(t_bytes32,t_struct(RoleData)3008_storage)"
      },
      {
        "astId": 16,
        "contract": "contracts/Bouncer.sol:Bouncer",
        "label": "dispatcherFactory",
        "offset": 0,
        "slot": "1",
        "type": "t_contract(IDispatcherFactory)2853"
      },
      {
        "astId": 19,
        "contract": "contracts/Bouncer.sol:Bouncer",
        "label": "votingPowerContract",
        "offset": 0,
        "slot": "2",
        "type": "t_contract(IVotingPower)2989"
      },
      {
        "astId": 22,
        "contract": "contracts/Bouncer.sol:Bouncer",
        "label": "globalMaxContributionPct",
        "offset": 20,
        "slot": "2",
        "type": "t_uint32"
      },
      {
        "astId": 25,
        "contract": "contracts/Bouncer.sol:Bouncer",
        "label": "dispatcherMaxContributionPct",
        "offset": 24,
        "slot": "2",
        "type": "t_uint32"
      },
      {
        "astId": 28,
        "contract": "contracts/Bouncer.sol:Bouncer",
        "label": "requiredVotingPower",
        "offset": 0,
        "slot": "3",
        "type": "t_uint256"
      },
      {
        "astId": 31,
        "contract": "contracts/Bouncer.sol:Bouncer",
        "label": "totalAmountDeposited",
        "offset": 0,
        "slot": "4",
        "type": "t_uint256"
      },
      {
        "astId": 36,
        "contract": "contracts/Bouncer.sol:Bouncer",
        "label": "amountDeposited",
        "offset": 0,
        "slot": "5",
        "type": "t_mapping(t_address,t_uint256)"
      },
      {
        "astId": 43,
        "contract": "contracts/Bouncer.sol:Bouncer",
        "label": "bankrollProvidedETH",
        "offset": 0,
        "slot": "6",
        "type": "t_mapping(t_address,t_mapping(t_address,t_uint256))"
      }
    ],
    "types": {
      "t_address": {
        "encoding": "inplace",
        "label": "address",
        "numberOfBytes": "20"
      },
      "t_array(t_bytes32)dyn_storage": {
        "base": "t_bytes32",
        "encoding": "dynamic_array",
        "label": "bytes32[]",
        "numberOfBytes": "32"
      },
      "t_bytes32": {
        "encoding": "inplace",
        "label": "bytes32",
        "numberOfBytes": "32"
      },
      "t_contract(IDispatcherFactory)2853": {
        "encoding": "inplace",
        "label": "contract IDispatcherFactory",
        "numberOfBytes": "20"
      },
      "t_contract(IVotingPower)2989": {
        "encoding": "inplace",
        "label": "contract IVotingPower",
        "numberOfBytes": "20"
      },
      "t_mapping(t_address,t_mapping(t_address,t_uint256))": {
        "encoding": "mapping",
        "key": "t_address",
        "label": "mapping(address => mapping(address => uint256))",
        "numberOfBytes": "32",
        "value": "t_mapping(t_address,t_uint256)"
      },
      "t_mapping(t_address,t_uint256)": {
        "encoding": "mapping",
        "key": "t_address",
        "label": "mapping(address => uint256)",
        "numberOfBytes": "32",
        "value": "t_uint256"
      },
      "t_mapping(t_bytes32,t_struct(RoleData)3008_storage)": {
        "encoding": "mapping",
        "key": "t_bytes32",
        "label": "mapping(bytes32 => struct AccessControl.RoleData)",
        "numberOfBytes": "32",
        "value": "t_struct(RoleData)3008_storage"
      },
      "t_mapping(t_bytes32,t_uint256)": {
        "encoding": "mapping",
        "key": "t_bytes32",
        "label": "mapping(bytes32 => uint256)",
        "numberOfBytes": "32",
        "value": "t_uint256"
      },
      "t_struct(AddressSet)4298_storage": {
        "encoding": "inplace",
        "label": "struct EnumerableSet.AddressSet",
        "members": [
          {
            "astId": 4297,
            "contract": "contracts/Bouncer.sol:Bouncer",
            "label": "_inner",
            "offset": 0,
            "slot": "0",
            "type": "t_struct(Set)4033_storage"
          }
        ],
        "numberOfBytes": "64"
      },
      "t_struct(RoleData)3008_storage": {
        "encoding": "inplace",
        "label": "struct AccessControl.RoleData",
        "members": [
          {
            "astId": 3005,
            "contract": "contracts/Bouncer.sol:Bouncer",
            "label": "members",
            "offset": 0,
            "slot": "0",
            "type": "t_struct(AddressSet)4298_storage"
          },
          {
            "astId": 3007,
            "contract": "contracts/Bouncer.sol:Bouncer",
            "label": "adminRole",
            "offset": 0,
            "slot": "2",
            "type": "t_bytes32"
          }
        ],
        "numberOfBytes": "96"
      },
      "t_struct(Set)4033_storage": {
        "encoding": "inplace",
        "label": "struct EnumerableSet.Set",
        "members": [
          {
            "astId": 4028,
            "contract": "contracts/Bouncer.sol:Bouncer",
            "label": "_values",
            "offset": 0,
            "slot": "0",
            "type": "t_array(t_bytes32)dyn_storage"
          },
          {
            "astId": 4032,
            "contract": "contracts/Bouncer.sol:Bouncer",
            "label": "_indexes",
            "offset": 0,
            "slot": "1",
            "type": "t_mapping(t_bytes32,t_uint256)"
          }
        ],
        "numberOfBytes": "64"
      },
      "t_uint256": {
        "encoding": "inplace",
        "label": "uint256",
        "numberOfBytes": "32"
      },
      "t_uint32": {
        "encoding": "inplace",
        "label": "uint32",
        "numberOfBytes": "4"
      }
    }
  }
}