{
  "address": "0x51e9c57D02FB7D27b8d2416A4f39508029c6b6F9",
  "abi": [
    {
      "inputs": [
        {
          "internalType": "address",
          "name": "_dispatcherFactory",
          "type": "address"
        },
        {
          "internalType": "address",
          "name": "_votingPower",
          "type": "address"
        },
        {
          "internalType": "uint32",
          "name": "_globalMaxContributionPct",
          "type": "uint32"
        },
        {
          "internalType": "uint32",
          "name": "_dispatcherMaxContributionPct",
          "type": "uint32"
        },
        {
          "internalType": "uint256",
          "name": "_maxBankrollRequestable",
          "type": "uint256"
        },
        {
          "internalType": "uint256",
          "name": "_requiredVotingPower",
          "type": "uint256"
        },
        {
          "internalType": "address",
          "name": "_bouncerAdmin",
          "type": "address"
        },
        {
          "internalType": "address",
          "name": "_roleAdmin",
          "type": "address"
        },
        {
          "internalType": "bool",
          "name": "_requireApproval",
          "type": "bool"
        }
      ],
      "stateMutability": "nonpayable",
      "type": "constructor"
    },
    {
      "anonymous": false,
      "inputs": [
        {
          "indexed": true,
          "internalType": "bool",
          "name": "requireApproval",
          "type": "bool"
        }
      ],
      "name": "ApprovalChanged",
      "type": "event"
    },
    {
      "anonymous": false,
      "inputs": [
        {
          "indexed": true,
          "internalType": "address",
          "name": "dispatcher",
          "type": "address"
        },
        {
          "indexed": true,
          "internalType": "address",
          "name": "bToken",
          "type": "address"
        }
      ],
      "name": "ApprovalRequested",
      "type": "event"
    },
    {
      "anonymous": false,
      "inputs": [
        {
          "indexed": true,
          "internalType": "address",
          "name": "dispatcher",
          "type": "address"
        },
        {
          "indexed": true,
          "internalType": "address",
          "name": "sender",
          "type": "address"
        },
        {
          "indexed": true,
          "internalType": "address",
          "name": "account",
          "type": "address"
        },
        {
          "indexed": false,
          "internalType": "address",
          "name": "asset",
          "type": "address"
        },
        {
          "indexed": false,
          "internalType": "uint256",
          "name": "amount",
          "type": "uint256"
        },
        {
          "indexed": false,
          "internalType": "bool",
          "name": "getRewards",
          "type": "bool"
        }
      ],
      "name": "BankrollProvided",
      "type": "event"
    },
    {
      "anonymous": false,
      "inputs": [
        {
          "indexed": true,
          "internalType": "address",
          "name": "dispatcher",
          "type": "address"
        },
        {
          "indexed": true,
          "internalType": "address",
          "name": "sender",
          "type": "address"
        },
        {
          "indexed": true,
          "internalType": "address",
          "name": "account",
          "type": "address"
        },
        {
          "indexed": false,
          "internalType": "address",
          "name": "asset",
          "type": "address"
        },
        {
          "indexed": false,
          "internalType": "uint256",
          "name": "amount",
          "type": "uint256"
        },
        {
          "indexed": false,
          "internalType": "bool",
          "name": "useRMBalance",
          "type": "bool"
        }
      ],
      "name": "BankrollRemoved",
      "type": "event"
    },
    {
      "anonymous": false,
      "inputs": [
        {
          "indexed": true,
          "internalType": "address",
          "name": "bankrollToken",
          "type": "address"
        },
        {
          "indexed": true,
          "internalType": "address",
          "name": "dispatcher",
          "type": "address"
        }
      ],
      "name": "BankrollTokenApproved",
      "type": "event"
    },
    {
      "anonymous": false,
      "inputs": [
        {
          "indexed": true,
          "internalType": "address",
          "name": "tokenAddress",
          "type": "address"
        },
        {
          "indexed": true,
          "internalType": "address",
          "name": "asset",
          "type": "address"
        },
        {
          "indexed": false,
          "internalType": "address",
          "name": "dispatcher",
          "type": "address"
        }
      ],
      "name": "BankrollTokenCreated",
      "type": "event"
    },
    {
      "anonymous": false,
      "inputs": [
        {
          "indexed": true,
          "internalType": "address",
          "name": "oldAddress",
          "type": "address"
        },
        {
          "indexed": true,
          "internalType": "address",
          "name": "newAddress",
          "type": "address"
        }
      ],
      "name": "DispatcherFactoryChanged",
      "type": "event"
    },
    {
      "anonymous": false,
      "inputs": [
        {
          "indexed": false,
          "internalType": "uint32",
          "name": "oldPct",
          "type": "uint32"
        },
        {
          "indexed": false,
          "internalType": "uint32",
          "name": "newPct",
          "type": "uint32"
        }
      ],
      "name": "DispatcherMaxChanged",
      "type": "event"
    },
    {
      "anonymous": false,
      "inputs": [
        {
          "indexed": false,
          "internalType": "uint256",
          "name": "oldMax",
          "type": "uint256"
        },
        {
          "indexed": false,
          "internalType": "uint256",
          "name": "newMax",
          "type": "uint256"
        }
      ],
      "name": "DispatcherMaxRequestableChanged",
      "type": "event"
    },
    {
      "anonymous": false,
      "inputs": [
        {
          "indexed": false,
          "internalType": "uint32",
          "name": "oldPct",
          "type": "uint32"
        },
        {
          "indexed": false,
          "internalType": "uint32",
          "name": "newPct",
          "type": "uint32"
        }
      ],
      "name": "GlobalMaxChanged",
      "type": "event"
    },
    {
      "anonymous": false,
      "inputs": [
        {
          "indexed": false,
          "internalType": "uint256",
          "name": "oldVotingPower",
          "type": "uint256"
        },
        {
          "indexed": false,
          "internalType": "uint256",
          "name": "newVotingPower",
          "type": "uint256"
        }
      ],
      "name": "RequiredVotingPowerChanged",
      "type": "event"
    },
    {
      "anonymous": false,
      "inputs": [
        {
          "indexed": true,
          "internalType": "address",
          "name": "oldAddress",
          "type": "address"
        },
        {
          "indexed": true,
          "internalType": "address",
          "name": "newAddress",
          "type": "address"
        }
      ],
      "name": "RewardsManagerChanged",
      "type": "event"
    },
    {
      "anonymous": false,
      "inputs": [
        {
          "indexed": true,
          "internalType": "bytes32",
          "name": "role",
          "type": "bytes32"
        },
        {
          "indexed": true,
          "internalType": "bytes32",
          "name": "previousAdminRole",
          "type": "bytes32"
        },
        {
          "indexed": true,
          "internalType": "bytes32",
          "name": "newAdminRole",
          "type": "bytes32"
        }
      ],
      "name": "RoleAdminChanged",
      "type": "event"
    },
    {
      "anonymous": false,
      "inputs": [
        {
          "indexed": true,
          "internalType": "bytes32",
          "name": "role",
          "type": "bytes32"
        },
        {
          "indexed": true,
          "internalType": "address",
          "name": "account",
          "type": "address"
        },
        {
          "indexed": true,
          "internalType": "address",
          "name": "sender",
          "type": "address"
        }
      ],
      "name": "RoleGranted",
      "type": "event"
    },
    {
      "anonymous": false,
      "inputs": [
        {
          "indexed": true,
          "internalType": "bytes32",
          "name": "role",
          "type": "bytes32"
        },
        {
          "indexed": true,
          "internalType": "address",
          "name": "account",
          "type": "address"
        },
        {
          "indexed": true,
          "internalType": "address",
          "name": "sender",
          "type": "address"
        }
      ],
      "name": "RoleRevoked",
      "type": "event"
    },
    {
      "anonymous": false,
      "inputs": [
        {
          "indexed": true,
          "internalType": "address",
          "name": "oldAddress",
          "type": "address"
        },
        {
          "indexed": true,
          "internalType": "address",
          "name": "newAddress",
          "type": "address"
        }
      ],
      "name": "VotingPowerChanged",
      "type": "event"
    },
    {
      "stateMutability": "payable",
      "type": "fallback"
    },
    {
      "inputs": [],
      "name": "BOUNCER_ADMIN_ROLE",
      "outputs": [
        {
          "internalType": "bytes32",
          "name": "",
          "type": "bytes32"
        }
      ],
      "stateMutability": "view",
      "type": "function"
    },
    {
      "inputs": [],
      "name": "DEFAULT_ADMIN_ROLE",
      "outputs": [
        {
          "internalType": "bytes32",
          "name": "",
          "type": "bytes32"
        }
      ],
      "stateMutability": "view",
      "type": "function"
    },
    {
      "inputs": [
        {
          "internalType": "address",
          "name": "account",
          "type": "address"
        },
        {
          "internalType": "address",
          "name": "dispatcher",
          "type": "address"
        }
      ],
      "name": "amountAvailableToBankroll",
      "outputs": [
        {
          "internalType": "uint256",
          "name": "amount",
          "type": "uint256"
        }
      ],
      "stateMutability": "view",
      "type": "function"
    },
    {
      "inputs": [
        {
          "internalType": "address",
          "name": "account",
          "type": "address"
        }
      ],
      "name": "amountAvailableToDeposit",
      "outputs": [
        {
          "internalType": "uint256",
          "name": "amount",
          "type": "uint256"
        }
      ],
      "stateMutability": "view",
      "type": "function"
    },
    {
      "inputs": [
        {
          "internalType": "address",
          "name": "",
          "type": "address"
        }
      ],
      "name": "amountDeposited",
      "outputs": [
        {
          "internalType": "uint256",
          "name": "",
          "type": "uint256"
        }
      ],
      "stateMutability": "view",
      "type": "function"
    },
    {
      "inputs": [
        {
          "internalType": "address",
          "name": "dispatcher",
          "type": "address"
        },
        {
          "internalType": "contract BankrollToken",
          "name": "bToken",
          "type": "address"
        }
      ],
      "name": "approveBankrollToken",
      "outputs": [],
      "stateMutability": "nonpayable",
      "type": "function"
    },
    {
      "inputs": [
        {
          "internalType": "contract IDispatcher",
          "name": "dispatcher",
          "type": "address"
        }
      ],
      "name": "bankrollAvailable",
      "outputs": [
        {
          "internalType": "uint256",
          "name": "amount",
          "type": "uint256"
        }
      ],
      "stateMutability": "view",
      "type": "function"
    },
    {
      "inputs": [
        {
          "internalType": "address",
          "name": "account",
          "type": "address"
        },
        {
          "internalType": "address",
          "name": "dispatcher",
          "type": "address"
        }
      ],
      "name": "bankrollBalances",
      "outputs": [
        {
          "internalType": "uint256[8]",
          "name": "balances",
          "type": "uint256[8]"
        }
      ],
      "stateMutability": "view",
      "type": "function"
    },
    {
      "inputs": [
        {
          "internalType": "contract IDispatcher",
          "name": "dispatcher",
          "type": "address"
        }
      ],
      "name": "bankrollProvided",
      "outputs": [
        {
          "internalType": "uint256",
          "name": "amount",
          "type": "uint256"
        }
      ],
      "stateMutability": "view",
      "type": "function"
    },
    {
      "inputs": [
        {
          "internalType": "contract IDispatcher",
          "name": "dispatcher",
          "type": "address"
        }
      ],
      "name": "bankrollRequested",
      "outputs": [
        {
          "internalType": "uint256",
          "name": "amount",
          "type": "uint256"
        }
      ],
      "stateMutability": "view",
      "type": "function"
    },
    {
      "inputs": [
        {
          "internalType": "address",
          "name": "",
          "type": "address"
        },
        {
          "internalType": "address",
          "name": "",
          "type": "address"
        }
      ],
      "name": "bankrollTokens",
      "outputs": [
        {
          "internalType": "contract BankrollToken",
          "name": "",
          "type": "address"
        }
      ],
      "stateMutability": "view",
      "type": "function"
    },
    {
      "inputs": [],
      "name": "dispatcherFactory",
      "outputs": [
        {
          "internalType": "contract IDispatcherFactory",
          "name": "",
          "type": "address"
        }
      ],
      "stateMutability": "view",
      "type": "function"
    },
    {
      "inputs": [],
      "name": "dispatcherMaxContributionPct",
      "outputs": [
        {
          "internalType": "uint32",
          "name": "",
          "type": "uint32"
        }
      ],
      "stateMutability": "view",
      "type": "function"
    },
    {
      "inputs": [],
      "name": "dispatchersWithBankrollAvailable",
      "outputs": [
        {
          "internalType": "address[]",
          "name": "dispatchers",
          "type": "address[]"
        }
      ],
      "stateMutability": "view",
      "type": "function"
    },
    {
      "inputs": [
        {
          "internalType": "bytes32",
          "name": "role",
          "type": "bytes32"
        }
      ],
      "name": "getRoleAdmin",
      "outputs": [
        {
          "internalType": "bytes32",
          "name": "",
          "type": "bytes32"
        }
      ],
      "stateMutability": "view",
      "type": "function"
    },
    {
      "inputs": [
        {
          "internalType": "bytes32",
          "name": "role",
          "type": "bytes32"
        },
        {
          "internalType": "uint256",
          "name": "index",
          "type": "uint256"
        }
      ],
      "name": "getRoleMember",
      "outputs": [
        {
          "internalType": "address",
          "name": "",
          "type": "address"
        }
      ],
      "stateMutability": "view",
      "type": "function"
    },
    {
      "inputs": [
        {
          "internalType": "bytes32",
          "name": "role",
          "type": "bytes32"
        }
      ],
      "name": "getRoleMemberCount",
      "outputs": [
        {
          "internalType": "uint256",
          "name": "",
          "type": "uint256"
        }
      ],
      "stateMutability": "view",
      "type": "function"
    },
    {
      "inputs": [],
      "name": "globalMaxContributionPct",
      "outputs": [
        {
          "internalType": "uint32",
          "name": "",
          "type": "uint32"
        }
      ],
      "stateMutability": "view",
      "type": "function"
    },
    {
      "inputs": [
        {
          "internalType": "bytes32",
          "name": "role",
          "type": "bytes32"
        },
        {
          "internalType": "address",
          "name": "account",
          "type": "address"
        }
      ],
      "name": "grantRole",
      "outputs": [],
      "stateMutability": "nonpayable",
      "type": "function"
    },
    {
      "inputs": [
        {
          "internalType": "bytes32",
          "name": "role",
          "type": "bytes32"
        },
        {
          "internalType": "address",
          "name": "account",
          "type": "address"
        }
      ],
      "name": "hasRole",
      "outputs": [
        {
          "internalType": "bool",
          "name": "",
          "type": "bool"
        }
      ],
      "stateMutability": "view",
      "type": "function"
    },
    {
      "inputs": [
        {
          "internalType": "address",
          "name": "dispatcher",
          "type": "address"
        }
      ],
      "name": "join",
      "outputs": [
        {
          "internalType": "address",
          "name": "bankrollToken",
          "type": "address"
        },
        {
          "internalType": "bool",
          "name": "isApproved",
          "type": "bool"
        }
      ],
      "stateMutability": "nonpayable",
      "type": "function"
    },
    {
      "inputs": [
        {
          "internalType": "contract IDispatcher",
          "name": "dispatcher",
          "type": "address"
        }
      ],
      "name": "maxBankrollPerAccount",
      "outputs": [
        {
          "internalType": "uint256",
          "name": "amount",
          "type": "uint256"
        }
      ],
      "stateMutability": "view",
      "type": "function"
    },
    {
      "inputs": [],
      "name": "maxDepositPerAccount",
      "outputs": [
        {
          "internalType": "uint256",
          "name": "amount",
          "type": "uint256"
        }
      ],
      "stateMutability": "view",
      "type": "function"
    },
    {
      "inputs": [],
      "name": "maximumBankrollRequestable",
      "outputs": [
        {
          "internalType": "uint256",
          "name": "",
          "type": "uint256"
        }
      ],
      "stateMutability": "view",
      "type": "function"
    },
    {
      "inputs": [
        {
          "internalType": "contract BankrollToken",
          "name": "token",
          "type": "address"
        },
        {
          "internalType": "address",
          "name": "newBouncer",
          "type": "address"
        }
      ],
      "name": "migrate",
      "outputs": [],
      "stateMutability": "nonpayable",
      "type": "function"
    },
    {
      "inputs": [
        {
          "internalType": "address",
          "name": "dispatcher",
          "type": "address"
        },
        {
          "internalType": "bool",
          "name": "getRewards",
          "type": "bool"
        }
      ],
      "name": "provideETHBankroll",
      "outputs": [],
      "stateMutability": "payable",
      "type": "function"
    },
    {
      "inputs": [
        {
          "internalType": "address",
          "name": "dispatcher",
          "type": "address"
        },
        {
          "internalType": "uint256",
          "name": "amount",
          "type": "uint256"
        },
        {
          "internalType": "bool",
          "name": "useRMBalance",
          "type": "bool"
        }
      ],
      "name": "removeETHBankroll",
      "outputs": [],
      "stateMutability": "nonpayable",
      "type": "function"
    },
    {
      "inputs": [
        {
          "internalType": "bytes32",
          "name": "role",
          "type": "bytes32"
        },
        {
          "internalType": "address",
          "name": "account",
          "type": "address"
        }
      ],
      "name": "renounceRole",
      "outputs": [],
      "stateMutability": "nonpayable",
      "type": "function"
    },
    {
      "inputs": [],
      "name": "requireApproval",
      "outputs": [
        {
          "internalType": "bool",
          "name": "",
          "type": "bool"
        }
      ],
      "stateMutability": "view",
      "type": "function"
    },
    {
      "inputs": [],
      "name": "requiredVotingPower",
      "outputs": [
        {
          "internalType": "uint256",
          "name": "",
          "type": "uint256"
        }
      ],
      "stateMutability": "view",
      "type": "function"
    },
    {
      "inputs": [
        {
          "internalType": "bytes32",
          "name": "role",
          "type": "bytes32"
        },
        {
          "internalType": "address",
          "name": "account",
          "type": "address"
        }
      ],
      "name": "revokeRole",
      "outputs": [],
      "stateMutability": "nonpayable",
      "type": "function"
    },
    {
      "inputs": [],
      "name": "rewardsManager",
      "outputs": [
        {
          "internalType": "contract IRewardsManager",
          "name": "",
          "type": "address"
        }
      ],
      "stateMutability": "view",
      "type": "function"
    },
    {
      "inputs": [
        {
          "internalType": "address",
          "name": "factoryAddress",
          "type": "address"
        }
      ],
      "name": "setDispatcherFactory",
      "outputs": [],
      "stateMutability": "nonpayable",
      "type": "function"
    },
    {
      "inputs": [
        {
          "internalType": "uint256",
          "name": "newMaxRequestable",
          "type": "uint256"
        }
      ],
      "name": "setDispatcherMaxBankrollRequestable",
      "outputs": [],
      "stateMutability": "nonpayable",
      "type": "function"
    },
    {
      "inputs": [
        {
          "internalType": "uint32",
          "name": "newPct",
          "type": "uint32"
        }
      ],
      "name": "setDispatcherMaxContributionPct",
      "outputs": [],
      "stateMutability": "nonpayable",
      "type": "function"
    },
    {
      "inputs": [
        {
          "internalType": "uint32",
          "name": "newPct",
          "type": "uint32"
        }
      ],
      "name": "setGlobalMaxContributionPct",
      "outputs": [],
      "stateMutability": "nonpayable",
      "type": "function"
    },
    {
      "inputs": [
        {
          "internalType": "uint256",
          "name": "newVotingPower",
          "type": "uint256"
        }
      ],
      "name": "setRequiredVotingPower",
      "outputs": [],
      "stateMutability": "nonpayable",
      "type": "function"
    },
    {
      "inputs": [
        {
          "internalType": "address",
          "name": "rewardsManagerAddress",
          "type": "address"
        }
      ],
      "name": "setRewardsManager",
      "outputs": [],
      "stateMutability": "nonpayable",
      "type": "function"
    },
    {
      "inputs": [
        {
          "internalType": "address",
          "name": "votingPowerAddress",
          "type": "address"
        }
      ],
      "name": "setVotingPower",
      "outputs": [],
      "stateMutability": "nonpayable",
      "type": "function"
    },
    {
      "inputs": [],
      "name": "toggleApproval",
      "outputs": [],
      "stateMutability": "nonpayable",
      "type": "function"
    },
    {
      "inputs": [],
      "name": "totalAmountDeposited",
      "outputs": [
        {
          "internalType": "uint256",
          "name": "",
          "type": "uint256"
        }
      ],
      "stateMutability": "view",
      "type": "function"
    },
    {
      "inputs": [],
      "name": "totalBankrollAvailable",
      "outputs": [
        {
          "internalType": "uint256",
          "name": "amount",
          "type": "uint256"
        }
      ],
      "stateMutability": "view",
      "type": "function"
    },
    {
      "inputs": [],
      "name": "totalBankrollRequested",
      "outputs": [
        {
          "internalType": "uint256",
          "name": "amount",
          "type": "uint256"
        }
      ],
      "stateMutability": "view",
      "type": "function"
    },
    {
      "inputs": [
        {
          "internalType": "address",
          "name": "account",
          "type": "address"
        }
      ],
      "name": "votingPower",
      "outputs": [
        {
          "internalType": "uint256",
          "name": "amount",
          "type": "uint256"
        }
      ],
      "stateMutability": "view",
      "type": "function"
    },
    {
      "inputs": [],
      "name": "votingPowerContract",
      "outputs": [
        {
          "internalType": "contract IVotingPower",
          "name": "",
          "type": "address"
        }
      ],
      "stateMutability": "view",
      "type": "function"
    },
    {
      "stateMutability": "payable",
      "type": "receive"
    }
  ],
  "transactionHash": "0xdba9186d559e5c8ce1b6246cd8d3024cb10c987228a879f60c74c945ad8ee66a",
  "args": [
    "0xF055f787562216881e6e04207769F43E220e5546",
    "0x6EE7Ed1e03948954D548745F56c60072683d1257",
    "300000",
    "600000",
    "500000000000000000000",
    "10000000000000000000000",
    "0x5b0aC3279dBf84Bb8DA59Be1EcaB118198f022E5",
    "0x864AD15351C4a50E12F767B1a7D993aE47493E55",
    true
  ],
  "solcInputHash": "09fda22900966e4eed7dbeb80a75c006",
  "bytecode": "0x60806040523480156200001157600080fd5b5060405162005192380380620051928339810160408190526200003491620003cc565b60018055600280546001600160a01b0319166001600160a01b038b169081179091556040516000907f100be422750b26ed68cc2d48487c0dc36c48cd549dce64b3154ff1c557a5cfda908290a3600380546001600160a01b0319166001600160a01b038a169081179091556040516000907f3711f8e3726b8750f42b9e8500711fef90f81ff40faa301baf2d14302b8fddb0908290a36004805463ffffffff60a01b1916600160a01b63ffffffff8a16021790556040517fd85e49bb2d3dba8e8bdee1d5feee79f8877cfdbd92061e41206f87eda668d44e906200011d906000908a9062000489565b60405180910390a16004805463ffffffff60c01b1916600160c01b63ffffffff8916021790556040517fd3db75a6788ef7ddfbc07f1d0e9daf04b8c94d2bda034ae6d5dba8113a160e75906200017890600090899062000489565b60405180910390a160058590556040517f67b93bda21611f663047a4754e33a421991d493aea794765c43e8cd2397e07e490620001ba9060009088906200047b565b60405180910390a160068490556040517fe18a48fdafe80edf1e3097aa58b7ccb9d4b51ebbce4529ebd29f6bcfe662dde790620001fc9060009087906200047b565b60405180910390a16008805460ff19168215159081179091556040517fbf566f7ffac9cb664ec11d47aa078c63570d0e55e35d5cdaf12510aaf606791990600090a26200026a7f0f38c9a95b3e46f81ca9bc843f8e4f96937802cabd5509bc53c899dec1fa769b8462000286565b6200027760008362000286565b505050505050505050620004a0565b62000292828262000296565b5050565b600082815260208181526040909120620002bb91839062002a7c6200030f821b17901c565b156200029257620002cb6200032f565b6001600160a01b0316816001600160a01b0316837f2f8788117e7eff1d82e926ec794901d17c78024a50270940304540a733656f0d60405160405180910390a45050565b600062000326836001600160a01b03841662000333565b90505b92915050565b3390565b600062000341838362000382565b620003795750815460018181018455600084815260208082209093018490558454848252828601909352604090209190915562000329565b50600062000329565b60009081526001919091016020526040902054151590565b80516001600160a01b0381168114620003b257600080fd5b919050565b805163ffffffff81168114620003b257600080fd5b60008060008060008060008060006101208a8c031215620003eb578485fd5b620003f68a6200039a565b98506200040660208b016200039a565b97506200041660408b01620003b7565b96506200042660608b01620003b7565b955060808a0151945060a08a015193506200044460c08b016200039a565b92506200045460e08b016200039a565b91506101008a015180151581146200046a578182fd5b809150509295985092959850929598565b918252602082015260400190565b63ffffffff92831681529116602082015260400190565b614ce280620004b06000396000f3fe608060405260043610620002b35760003560e01c806382d5ea6c116200016f578063c9c00e1811620000d3578063d7f6a9351162000085578063d7f6a9351462000800578063defe20531462000825578063e61f9745146200083d578063e6ec4c261462000855578063e6f3e667146200087a578063f4f0e1ae14620008ae57620002bb565b8063c9c00e18146200073d578063ca15c8731462000762578063d11562c21462000787578063d120166c146200079e578063d547741f14620007c3578063d7daa48514620007e857620002bb565b80639d5c8489116200012d5780639d5c84891462000679578063a217fddf146200069e578063a62ef2d314620006b6578063b2333d7314620006ce578063b6dd7ef614620006f3578063c07473f6146200071857620002bb565b806382d5ea6c14620005cb5780638a47b9fd14620005f25780639010d07c146200060a57806391d14854146200062f578063937829c2146200065457620002bb565b80633e70d65d11620002175780635ccd3d7f11620001d55780635ccd3d7f14620004f85780636389b5ae146200051d578063657eda1014620005425780636c039415146200056957806374854ca2146200058e578063748d4af014620005a657620002bb565b80633e70d65d146200045757806344f16395146200046f5780634a76b8b6146200049657806352a177e514620004bb5780635688f78914620004e057620002bb565b8063248a9ca31162000271578063248a9ca31462000376578063249ef424146200039b57806328ffe6c814620003c05780632f2ff15d14620003f557806333c8c9d1146200041a57806336568abe146200043257620002bb565b80630a8ddc5e14620002bd5780630d155d2614620002e25780631068361f14620003125780631217db4814620003375780631f691716146200034f57620002bb565b36620002bb57005b005b348015620002ca57600080fd5b50620002bb620002dc36600462002ff0565b620008d3565b348015620002ef57600080fd5b50620002fa62000972565b60405162000309919062003434565b60405180910390f35b3480156200031f57600080fd5b50620002bb620003313660046200307e565b62000978565b3480156200034457600080fd5b50620002bb62000a64565b3480156200035c57600080fd5b506200036762000afa565b604051620003099190620032f7565b3480156200038357600080fd5b50620002fa62000395366004620031a9565b62000b09565b348015620003a857600080fd5b50620002bb620003ba3660046200307e565b62000b21565b348015620003cd57600080fd5b50620003e5620003df36600462002ff0565b62000bc0565b604051620003099291906200338b565b3480156200040257600080fd5b50620002bb62000414366004620031c2565b62000e01565b3480156200042757600080fd5b50620002fa62000e6f565b3480156200043f57600080fd5b50620002bb62000451366004620031c2565b62000f47565b3480156200046457600080fd5b506200036762000fae565b3480156200047c57600080fd5b506200048762000fbd565b6040516200030991906200370e565b348015620004a357600080fd5b50620002bb620004b5366004620031a9565b62000fd0565b348015620004c857600080fd5b50620002fa620004da36600462002ff0565b6200104c565b348015620004ed57600080fd5b50620002fa6200108d565b3480156200050557600080fd5b50620002bb62000517366004620032ce565b620010be565b3480156200052a57600080fd5b50620002fa6200053c36600462002ff0565b6200116b565b3480156200054f57600080fd5b506200055a6200126e565b604051620003099190620033a6565b3480156200057657600080fd5b50620002fa6200058836600462002ff0565b6200146d565b3480156200059b57600080fd5b5062000487620014e4565b348015620005b357600080fd5b50620002bb620005c536600462002ff0565b620014f7565b348015620005d857600080fd5b50620005e36200158d565b60405162000309919062003429565b348015620005ff57600080fd5b50620002fa62001596565b3480156200061757600080fd5b506200036762000629366004620031e9565b6200159c565b3480156200063c57600080fd5b50620005e36200064e366004620031c2565b620015bd565b3480156200066157600080fd5b5062000367620006733660046200300f565b620015d7565b3480156200068657600080fd5b50620002bb6200069836600462003091565b620015fd565b348015620006ab57600080fd5b50620002fa62001b90565b348015620006c357600080fd5b50620002fa62001b95565b348015620006db57600080fd5b50620002bb620006ed366004620032ce565b62001d4b565b3480156200070057600080fd5b50620002fa620007123660046200300f565b62001df8565b3480156200072557600080fd5b50620002fa6200073736600462002ff0565b62002000565b3480156200074a57600080fd5b50620002fa6200075c36600462002ff0565b6200204c565b3480156200076f57600080fd5b50620002fa62000781366004620031a9565b62002134565b620002bb620007983660046200304c565b6200214d565b348015620007ab57600080fd5b50620002bb620007bd36600462002ff0565b62002624565b348015620007d057600080fd5b50620002bb620007e2366004620031c2565b620026ba565b348015620007f557600080fd5b50620002fa62002718565b3480156200080d57600080fd5b50620002fa6200081f36600462002ff0565b6200272b565b3480156200083257600080fd5b506200036762002799565b3480156200084a57600080fd5b50620002fa620027a8565b3480156200086257600080fd5b50620002bb62000874366004620031a9565b620027ae565b3480156200088757600080fd5b506200089f620008993660046200300f565b6200282a565b604051620003099190620033f5565b348015620008bb57600080fd5b50620002fa620008cd36600462002ff0565b62002a6a565b620008ee60008051602062004c5e83398151915233620015bd565b620009165760405162461bcd60e51b81526004016200090d90620034ac565b60405180910390fd5b6004546040516001600160a01b038084169216907f600f572a4ca315c4b101b0e5521112f3988fe26fdf15e1591fe85f4b20a9cc2590600090a3600480546001600160a01b0319166001600160a01b0392909216919091179055565b60075481565b6200099360008051602062004c5e83398151915233620015bd565b620009b25760405162461bcd60e51b81526004016200090d90620034ac565b6001600160a01b038116620009db5760405162461bcd60e51b81526004016200090d9062003549565b60405163191250d760e01b81526001600160a01b0383169063191250d79062000a09908490600401620032f7565b602060405180830381600087803b15801562000a2457600080fd5b505af115801562000a39573d6000803e3d6000fd5b505050506040513d601f19601f8201168201806040525081019062000a5f91906200318a565b505050565b62000a7f60008051602062004c5e83398151915233620015bd565b62000a9e5760405162461bcd60e51b81526004016200090d90620034ac565b60085460ff1662000ab157600162000ab4565b60005b6008805460ff1916911515919091179081905560405160ff9091161515907fbf566f7ffac9cb664ec11d47aa078c63570d0e55e35d5cdaf12510aaf606791990600090a2565b6002546001600160a01b031681565b6000818152602081905260409020600201545b919050565b62000b3c60008051602062004c5e83398151915233620015bd565b62000b5b5760405162461bcd60e51b81526004016200090d90620034ac565b6001600160a01b03828116600081815260096020908152604080832083805290915280822080546001600160a01b0319169486169485179055519192917fc91cec5c6733172adf09d950334d57beaf0570e6bdcd8828f1a633a79f25aea39190a35050565b600254604051637b51e92760e11b815260009182916001600160a01b039091169063f6a3d24e9062000bf7908690600401620032f7565b60206040518083038186803b15801562000c1057600080fd5b505afa15801562000c25573d6000803e3d6000fd5b505050506040513d601f19601f8201168201806040525081019062000c4b91906200318a565b62000c6a5760405162461bcd60e51b81526004016200090d90620035bc565b6001600160a01b038381166000908152600960209081526040808320838052909152902054161562000cb05760405162461bcd60e51b81526004016200090d90620035e8565b600080843060405162000cc39062002f9f565b62000cd1939291906200330b565b604051809103906000f08015801562000cee573d6000803e3d6000fd5b50905060006001600160a01b0316816001600160a01b03167fc071122b52ad4d37b49f4f5b63628d9defea35f1d7d032c2e43086e5cee2a78d8660405162000d379190620032f7565b60405180910390a360085460ff16801562000d6a575062000d6860008051602062004c5e83398151915233620015bd565b155b1562000dbc57806001600160a01b0316846001600160a01b03167f8f491ef69bf5d5051c16fff776856d82887c8230d1125ef92ce9f2aaf05ed4e560405160405180910390a391506000905062000dfc565b6001600160a01b038481166000908152600960209081526040808320838052909152902080546001600160a01b0319169183169190911790559150600190505b915091565b60008281526020819052604090206002015462000e22906200064e62002a93565b62000e5f5760405162461bcd60e51b815260040180806020018281038252602f81526020018062004bde602f913960400191505060405180910390fd5b62000e6b828262002a97565b5050565b60006060600260009054906101000a90046001600160a01b03166001600160a01b031663f31306b26040518163ffffffff1660e01b815260040160006040518083038186803b15801562000ec257600080fd5b505afa15801562000ed7573d6000803e3d6000fd5b505050506040513d6000823e601f3d908101601f1916820160405262000f019190810190620030d7565b905060005b815181101562000f4257600082828151811062000f1f57fe5b6020026020010151905062000f34816200204c565b909301925060010162000f06565b505090565b62000f5162002a93565b6001600160a01b0316816001600160a01b03161462000fa25760405162461bcd60e51b815260040180806020018281038252602f81526020018062004c7e602f913960400191505060405180910390fd5b62000e6b828262002b05565b6003546001600160a01b031681565b600454600160c01b900463ffffffff1681565b62000feb60008051602062004c5e83398151915233620015bd565b6200100a5760405162461bcd60e51b81526004016200090d90620034ac565b7f67b93bda21611f663047a4754e33a421991d493aea794765c43e8cd2397e07e4600554826040516200103f92919062003700565b60405180910390a1600555565b6004546000906200108790620f4240906200108090600160c01b900463ffffffff1662001079866200116b565b9062002b73565b9062002bd1565b92915050565b600454600090620010b990620f4240906200108090600160a01b900463ffffffff166200107962001b95565b905090565b620010d960008051602062004c5e83398151915233620015bd565b620010f85760405162461bcd60e51b81526004016200090d90620034ac565b7fd85e49bb2d3dba8e8bdee1d5feee79f8877cfdbd92061e41206f87eda668d44e600460149054906101000a900463ffffffff16826040516200113d9291906200371f565b60405180910390a16004805463ffffffff909216600160a01b0263ffffffff60a01b19909216919091179055565b6000600554826001600160a01b031663148e250d6040518163ffffffff1660e01b815260040160206040518083038186803b158015620011aa57600080fd5b505afa158015620011bf573d6000803e3d6000fd5b505050506040513d601f19601f82011682018060405250810190620011e59190620032b5565b116200126657816001600160a01b031663148e250d6040518163ffffffff1660e01b815260040160206040518083038186803b1580156200122557600080fd5b505afa1580156200123a573d6000803e3d6000fd5b505050506040513d601f19601f82011682018060405250810190620012609190620032b5565b62001087565b505060055490565b606080600260009054906101000a90046001600160a01b03166001600160a01b031663f31306b26040518163ffffffff1660e01b815260040160006040518083038186803b158015620012c057600080fd5b505afa158015620012d5573d6000803e3d6000fd5b505050506040513d6000823e601f3d908101601f19168201604052620012ff9190810190620030d7565b90506060815167ffffffffffffffff811180156200131c57600080fd5b5060405190808252806020026020018201604052801562001347578160200160208202803683370190505b5090506000805b8351811015620013d05760008482815181106200136757fe5b6020026020010151905060006200137e826200204c565b1115620013c6578482815181106200139257fe5b6020026020010151848481518110620013a757fe5b6001600160a01b03909216602092830291909101909101526001909201915b506001016200134e565b508067ffffffffffffffff81118015620013e957600080fd5b5060405190808252806020026020018201604052801562001414578160200160208202803683370190505b50935060005b8181101562001466578281815181106200143057fe5b60200260200101518582815181106200144557fe5b6001600160a01b03909216602092830291909101909101526001016200141a565b5050505090565b6000816001600160a01b03166315770f926040518163ffffffff1660e01b815260040160206040518083038186803b158015620014a957600080fd5b505afa158015620014be573d6000803e3d6000fd5b505050506040513d601f19601f82011682018060405250810190620010879190620032b5565b600454600160a01b900463ffffffff1681565b6200151260008051602062004c5e83398151915233620015bd565b620015315760405162461bcd60e51b81526004016200090d90620034ac565b6002546040516001600160a01b038084169216907f100be422750b26ed68cc2d48487c0dc36c48cd549dce64b3154ff1c557a5cfda90600090a3600280546001600160a01b0319166001600160a01b0392909216919091179055565b60085460ff1681565b60055481565b6000828152602081905260408120620015b6908362002c15565b9392505050565b6000828152602081905260408120620015b6908362002c23565b60096020908152600092835260408084209091529082529020546001600160a01b031681565b6002600154141562001656576040805162461bcd60e51b815260206004820152601f60248201527f5265656e7472616e637947756172643a207265656e7472616e742063616c6c00604482015290519081900360640190fd5b60026001556001600160a01b03838116600090815260096020908152604080832083805290915290205416620016a05760405162461bcd60e51b81526004016200090d906200361f565b326000908152600a6020526040902054821115620016d25760405162461bcd60e51b81526004016200090d906200368d565b816007541015620016f75760405162461bcd60e51b81526004016200090d906200343d565b6001600160a01b0380841660009081526009602090815260408083208380529091529020541681156200197e576200172e62002fad565b6004805460405163c3d2c3c160e01b81526001600160a01b039091169163c3d2c3c1916200175f91869101620032f7565b604080518083038186803b1580156200177757600080fd5b505afa1580156200178c573d6000803e3d6000fd5b505050506040513d601f19601f82011682018060405250810190620017b291906200320b565b90508060200151620017d85760405162461bcd60e51b81526004016200090d90620036bd565b6004805482516040516393f1a40b60e01b815287936001600160a01b03909316926393f1a40b926200180f929091329101620036e9565b60606040518083038186803b1580156200182857600080fd5b505afa1580156200183d573d6000803e3d6000fd5b505050506040513d601f19601f820116820180604052508101906200186391906200325e565b511015620018855760405162461bcd60e51b81526004016200090d9062003656565b60048054825160405163960a2afb60e01b81526001600160a01b039092169263960a2afb92620018bc92329290918a91016200336a565b600060405180830381600087803b158015620018d757600080fd5b505af1158015620018ec573d6000803e3d6000fd5b5050604051632770a7eb60e21b81526001600160a01b0385169250639dc29fac91506200192090309088906004016200332e565b602060405180830381600087803b1580156200193b57600080fd5b505af115801562001950573d6000803e3d6000fd5b505050506040513d601f19601f820116820180604052508101906200197691906200318a565b505062001a06565b604051632770a7eb60e21b81526001600160a01b03821690639dc29fac90620019ae90329087906004016200332e565b602060405180830381600087803b158015620019c957600080fd5b505af1158015620019de573d6000803e3d6000fd5b505050506040513d601f19601f8201168201806040525081019062001a0491906200318a565b505b326000908152600a602052604090205462001a22908462002c3a565b326000908152600a602052604090205560075462001a41908462002c3a565b600755604051633dee360160e01b81526001600160a01b03851690633dee36019062001a7290869060040162003434565b600060405180830381600087803b15801562001a8d57600080fd5b505af115801562001aa2573d6000803e3d6000fd5b505050506000336001600160a01b03168460405162001ac190620032f4565b60006040518083038185875af1925050503d806000811462001b00576040519150601f19603f3d011682016040523d82523d6000602084013e62001b05565b606091505b505090508062001b295760405162461bcd60e51b81526004016200090d90620034f4565b326001600160a01b0316336001600160a01b0316866001600160a01b03167f634208970dd963ef6cf65b533b80d0b70afcdc0c96242e4e3e6826f079f38a396000888860405162001b7d9392919062003347565b60405180910390a4505060018055505050565b600081565b60006060600260009054906101000a90046001600160a01b03166001600160a01b031663f31306b26040518163ffffffff1660e01b815260040160006040518083038186803b15801562001be857600080fd5b505afa15801562001bfd573d6000803e3d6000fd5b505050506040513d6000823e601f3d908101601f1916820160405262001c279190810190620030d7565b905060005b815181101562000f4257600082828151811062001c4557fe5b60200260200101519050806001600160a01b031663c2d4f8c0306040518263ffffffff1660e01b815260040162001c7d9190620032f7565b60206040518083038186803b15801562001c9657600080fd5b505afa15801562001cab573d6000803e3d6000fd5b505050506040513d601f19601f8201168201806040525081019062001cd191906200318a565b801562001d2b575060006001600160a01b03166009600085858151811062001cf557fe5b6020908102919091018101516001600160a01b039081168352828201939093526040918201600090812081805290915220541614155b1562001d415762001d3c816200116b565b840193505b5060010162001c2c565b62001d6660008051602062004c5e83398151915233620015bd565b62001d855760405162461bcd60e51b81526004016200090d90620034ac565b7fd3db75a6788ef7ddfbc07f1d0e9daf04b8c94d2bda034ae6d5dba8113a160e75600460189054906101000a900463ffffffff168260405162001dca9291906200371f565b60405180910390a16004805463ffffffff909216600160c01b0263ffffffff60c01b19909216919091179055565b600254604051637b51e92760e11b81526000916001600160a01b03169063f6a3d24e9062001e2b908690600401620032f7565b60206040518083038186803b15801562001e4457600080fd5b505afa15801562001e59573d6000803e3d6000fd5b505050506040513d601f19601f8201168201806040525081019062001e7f91906200318a565b1562001e8e5750600062001087565b60065462001e9c8462002000565b101562001eac5750600062001087565b600062001eb9846200272b565b90508062001ecc57600091505062001087565b600062001ed9846200204c565b90508062001eed5760009250505062001087565b600062001efa856200104c565b6001600160a01b0380871660009081526009602090815260408083208380529091528082205490516370a0823160e01b81529394509091169182906370a082319062001f4b908b90600401620032f7565b60206040518083038186803b15801562001f6457600080fd5b505afa15801562001f79573d6000803e3d6000fd5b505050506040513d601f19601f8201168201806040525081019062001f9f9190620032b5565b905080831162001fb85760009550505050505062001087565b600062001fc6848362002c3a565b905084861062001ff0578481111562001fe0578462001fe2565b805b965050505050505062001087565b8581111562001fe0578562001fe2565b6003546040516370a0823160e01b81526000916001600160a01b0316906370a082319062002033908590600401620032f7565b60206040518083038186803b158015620014a957600080fd5b60405163030b53e360e61b81526000906001600160a01b0383169063c2d4f8c0906200207d903090600401620032f7565b60206040518083038186803b1580156200209657600080fd5b505afa158015620020ab573d6000803e3d6000fd5b505050506040513d601f19601f82011682018060405250810190620020d191906200318a565b620020df5750600062000b1c565b6001600160a01b03828116600090815260096020908152604080832083805290915290205416620021135750600062000b1c565b6200108762002122836200146d565b6200212d846200116b565b9062002c3a565b6000818152602081905260408120620010879062002c7e565b60026001541415620021a6576040805162461bcd60e51b815260206004820152601f60248201527f5265656e7472616e637947756172643a207265656e7472616e742063616c6c00604482015290519081900360640190fd5b60026001556001600160a01b03828116600090815260096020908152604080832083805290915290205416620021f05760405162461bcd60e51b81526004016200090d906200346b565b34620021fd328462001df8565b10156200221e5760405162461bcd60e51b81526004016200090d906200351d565b600254604051637b51e92760e11b81526001600160a01b039091169063f6a3d24e9062002250903390600401620032f7565b60206040518083038186803b1580156200226957600080fd5b505afa1580156200227e573d6000803e3d6000fd5b505050506040513d601f19601f82011682018060405250810190620022a491906200318a565b15620022c45760405162461bcd60e51b81526004016200090d9062003579565b326000908152600a6020526040902054620022e0903462002c8b565b326000908152600a6020526040902055600754620022ff903462002c8b565b600781905550816001600160a01b031663ac19e898346040518263ffffffff1660e01b81526004016000604051808303818588803b1580156200234157600080fd5b505af115801562002356573d6000803e3d6000fd5b505050506001600160a01b0383811660009081526009602090815260408083208380529091529020541690506200238c62002fad565b6004805460405163c3d2c3c160e01b81526001600160a01b039091169163c3d2c3c191620023bd91869101620032f7565b604080518083038186803b158015620023d557600080fd5b505afa158015620023ea573d6000803e3d6000fd5b505050506040513d601f19601f820116820180604052508101906200241091906200320b565b905080602001518015620024215750825b80156200243857506004546001600160a01b031615155b1562002536576040516340c10f1960e01b81526001600160a01b038316906340c10f19906200246e90309034906004016200332e565b602060405180830381600087803b1580156200248957600080fd5b505af11580156200249e573d6000803e3d6000fd5b505050506040513d601f19601f82011682018060405250810190620024c491906200318a565b506004805482516040516373983f4360e01b81526001600160a01b03909216926373983f4392620024fc92329290913491016200336a565b600060405180830381600087803b1580156200251757600080fd5b505af11580156200252c573d6000803e3d6000fd5b50505050620025be565b6040516340c10f1960e01b81526001600160a01b038316906340c10f19906200256690329034906004016200332e565b602060405180830381600087803b1580156200258157600080fd5b505af115801562002596573d6000803e3d6000fd5b505050506040513d601f19601f82011682018060405250810190620025bc91906200318a565b505b326001600160a01b0316336001600160a01b0316856001600160a01b03167fc6120d69bfc431ea8073d59b23bcc60a6e7ce7211c2be028a7d74729bfbc00f560003488604051620026129392919062003347565b60405180910390a45050600180555050565b6200263f60008051602062004c5e83398151915233620015bd565b6200265e5760405162461bcd60e51b81526004016200090d90620034ac565b6003546040516001600160a01b038084169216907f3711f8e3726b8750f42b9e8500711fef90f81ff40faa301baf2d14302b8fddb090600090a3600380546001600160a01b0319166001600160a01b0392909216919091179055565b600082815260208190526040902060020154620026db906200064e62002a93565b62000fa25760405162461bcd60e51b815260040180806020018281038252603081526020018062004c0d6030913960400191505060405180910390fd5b60008051602062004c5e83398151915281565b60006006546200273b8362002000565b10156200274b5750600062000b1c565b6001600160a01b0382166000908152600a6020526040812054906200276f6200108d565b9050818111620027855760009250505062000b1c565b62002791818362002c3a565b949350505050565b6004546001600160a01b031681565b60065481565b620027c960008051602062004c5e83398151915233620015bd565b620027e85760405162461bcd60e51b81526004016200090d90620034ac565b7fe18a48fdafe80edf1e3097aa58b7ccb9d4b51ebbce4529ebd29f6bcfe662dde7600654826040516200281d92919062003700565b60405180910390a1600655565b6200283462002fc4565b6001600160a01b038083166000908152600960209081526040808320838052909152902054166200286462002fad565b6004805460405163c3d2c3c160e01b81526001600160a01b039091169163c3d2c3c1916200289591869101620032f7565b604080518083038186803b158015620028ad57600080fd5b505afa158015620028c2573d6000803e3d6000fd5b505050506040513d601f19601f82011682018060405250810190620028e891906200320b565b9050620028f5846200204c565b835260065460208401526200290a8562002000565b6040840152620029196200108d565b60608401526001600160a01b0385166000908152600a6020526040902054608084015262002947846200104c565b60a08401526040516370a0823160e01b81526001600160a01b038316906370a08231906200297a908890600401620032f7565b60206040518083038186803b1580156200299357600080fd5b505afa158015620029a8573d6000803e3d6000fd5b505050506040513d601f19601f82011682018060405250810190620029ce9190620032b5565b60c08401526004805482516040516393f1a40b60e01b81526001600160a01b03909216926393f1a40b9262002a0792918a9101620036e9565b60606040518083038186803b15801562002a2057600080fd5b505afa15801562002a35573d6000803e3d6000fd5b505050506040513d601f19601f8201168201806040525081019062002a5b91906200325e565b5160e084015250909392505050565b600a6020526000908152604090205481565b6000620015b6836001600160a01b03841662002ce6565b3390565b600082815260208190526040902062002ab1908262002a7c565b1562000e6b5762002ac162002a93565b6001600160a01b0316816001600160a01b0316837f2f8788117e7eff1d82e926ec794901d17c78024a50270940304540a733656f0d60405160405180910390a45050565b600082815260208190526040902062002b1f908262002d35565b1562000e6b5762002b2f62002a93565b6001600160a01b0316816001600160a01b0316837ff6391f5c32d9c69d2a47ea670b442974b53935d1edc7fd64eb21e047a839171b60405160405180910390a45050565b60008262002b845750600062001087565b8282028284828162002b9257fe5b0414620015b65760405162461bcd60e51b815260040180806020018281038252602181526020018062004c3d6021913960400191505060405180910390fd5b6000620015b683836040518060400160405280601a81526020017f536166654d6174683a206469766973696f6e206279207a65726f00000000000081525062002d4c565b6000620015b6838362002df3565b6000620015b6836001600160a01b03841662002e5a565b6000620015b683836040518060400160405280601f81526020017f536166654d6174683a207375627472616374696f6e20756e646572666c6f770081525062002e72565b6000620010878262002ecf565b600082820183811015620015b6576040805162461bcd60e51b815260206004820152601b60248201527f536166654d6174683a206164646974696f6e206f766572666c6f770000000000604482015290519081900360640190fd5b600062002cf4838362002e5a565b62002d2c5750815460018181018455600084815260208082209093018490558454848252828601909352604090209190915562001087565b50600062001087565b6000620015b6836001600160a01b03841662002ed3565b6000818362002ddc5760405162461bcd60e51b81526004018080602001828103825283818151815260200191508051906020019080838360005b8381101562002da057818101518382015260200162002d86565b50505050905090810190601f16801562002dce5780820380516001836020036101000a031916815260200191505b509250505060405180910390fd5b50600083858162002de957fe5b0495945050505050565b8154600090821062002e375760405162461bcd60e51b815260040180806020018281038252602281526020018062004bbc6022913960400191505060405180910390fd5b82600001828154811062002e4757fe5b9060005260206000200154905092915050565b60009081526001919091016020526040902054151590565b6000818484111562002ec75760405162461bcd60e51b815260206004820181815283516024840152835190928392604490910191908501908083836000831562002da057818101518382015260200162002d86565b505050900390565b5490565b6000818152600183016020526040812054801562002f94578354600019808301919081019060009087908390811062002f0857fe5b906000526020600020015490508087600001848154811062002f2657fe5b60009182526020808320909101929092558281526001898101909252604090209084019055865487908062002f5757fe5b6001900381819060005260206000200160009055905586600101600087815260200190815260200160002060009055600194505050505062001087565b600091505062001087565b611438806200378483390190565b604080518082019091526000808252602082015290565b6040518061010001604052806008906020820280368337509192915050565b805162000b1c816200375b565b60006020828403121562003002578081fd5b8135620015b6816200375b565b6000806040838503121562003022578081fd5b82356200302f816200375b565b9150602083013562003041816200375b565b809150509250929050565b600080604083850312156200305f578182fd5b82356200306c816200375b565b91506020830135620030418162003774565b6000806040838503121562003022578182fd5b600080600060608486031215620030a6578081fd5b8335620030b3816200375b565b9250602084013591506040840135620030cc8162003774565b809150509250925092565b60006020808385031215620030ea578182fd5b825167ffffffffffffffff8082111562003102578384fd5b818501915085601f83011262003116578384fd5b8151818111156200312357fe5b83810291506200313584830162003736565b8181528481019084860184860187018a101562003150578788fd5b8795505b838610156200317d57620031688162002fe3565b83526001959095019491860191860162003154565b5098975050505050505050565b6000602082840312156200319c578081fd5b8151620015b68162003774565b600060208284031215620031bb578081fd5b5035919050565b60008060408385031215620031d5578182fd5b82359150602083013562003041816200375b565b60008060408385031215620031fc578182fd5b50508035926020909101359150565b6000604082840312156200321d578081fd5b6040516040810181811067ffffffffffffffff821117156200323b57fe5b604052825181526020830151620032528162003774565b60208201529392505050565b60006060828403121562003270578081fd5b6040516060810181811067ffffffffffffffff821117156200328e57fe5b80604052508251815260208301516020820152604083015160408201528091505092915050565b600060208284031215620032c7578081fd5b5051919050565b600060208284031215620032e0578081fd5b813563ffffffff81168114620015b6578182fd5b90565b6001600160a01b0391909116815260200190565b6001600160a01b0393841681529183166020830152909116604082015260600190565b6001600160a01b03929092168252602082015260400190565b6001600160a01b0393909316835260208301919091521515604082015260600190565b6001600160a01b039390931683526020830191909152604082015260600190565b6001600160a01b039290921682521515602082015260400190565b6020808252825182820181905260009190848201906040850190845b81811015620033e95783516001600160a01b031683529284019291840191600101620033c2565b50909695505050505050565b6101008101818360005b600881101562003420578151835260209283019290910190600101620033ff565b50505092915050565b901515815260200190565b90815260200190565b602080825260149082015273185b5bdd5b9d08195e18d959591cc81d1bdd185b60621b604082015260600190565b60208082526021908201527f62616e6b726f6c6c20746f6b656e206e6f742079657420696e2070726f6772616040820152606d60f81b606082015260800190565b60208082526028908201527f43616c6c6572206d757374206861766520424f554e4345525f41444d494e5f526040820152674f4c4520726f6c6560c01b606082015260800190565b6020808252600f908201526e151c985b9cd9995c8819985a5b1959608a1b604082015260600190565b6020808252601290820152710c2dadeeadce840caf0c6cacac8e640dac2f60731b604082015260600190565b60208082526016908201527563616e6e6f74206d69677261746520746f207a65726f60501b604082015260600190565b60208082526023908201527f64697370617463686572732063616e6e6f742070726f766964652062616e6b726040820152621bdb1b60ea1b606082015260800190565b6020808252601290820152713ab735b737bbb7103234b9b830ba31b432b960711b604082015260600190565b6020808252601d908201527f62616e6b726f6c6c20746f6b656e20616c726561647920657869737473000000604082015260600190565b6020808252601b908201527f6372656174652062616e6b726f6c6c20746f6b656e2066697273740000000000604082015260600190565b60208082526018908201527f6e6f7420656e6f75676820746f6b656e73207374616b65640000000000000000604082015260600190565b602080825260169082015275185b5bdd5b9d08195e18d959591cc819195c1bdcda5d60521b604082015260600190565b602080825260129082015271706f6f6c206973206e6f742061637469766560701b604082015260600190565b9182526001600160a01b0316602082015260400190565b918252602082015260400190565b63ffffffff91909116815260200190565b63ffffffff92831681529116602082015260400190565b60405181810167ffffffffffffffff811182821017156200375357fe5b604052919050565b6001600160a01b03811681146200377157600080fd5b50565b80151581146200377157600080fdfe608060405234801561001057600080fd5b5060405161143838038061143883398101604081905261002f916100b9565b600180546001600160a01b038086166001600160a01b031992831617909255600280548584169083161790556003805492841692909116821790556040516000907f0cff5c8e2b1e51135595ff4ebaefab9ef5b26373c3b84cbdc4677bb41468843b908290a35050506100fb565b80516001600160a01b03811681146100b457600080fd5b919050565b6000806000606084860312156100cd578283fd5b6100d68461009d565b92506100e46020850161009d565b91506100f26040850161009d565b90509250925092565b61132e8061010a6000396000f3fe608060405234801561001057600080fd5b50600436106101585760003560e01c806366d003ac116100c3578063a457c2d71161007c578063a457c2d71461028f578063a9059cbb146102a2578063d505accf146102b5578063dd62ed3e146102ca578063ed24911d146102dd578063f147389f146102e557610158565b806366d003ac1461023e57806370a08231146102465780637ecebe001461025957806395d89b411461026c5780639dc29fac146102745780639e4e73181461028757610158565b806330adf81f1161011557806330adf81f146101de578063313ce567146101e657806338d52e0f146101fb578063395093511461021057806340c10f191461022357806354fd4d501461023657610158565b806306fdde031461015d578063095ea7b31461017b57806318160ddd1461019b578063191250d7146101b057806320606b70146101c357806323b872dd146101cb575b600080fd5b6101656102ed565b6040516101729190610f69565b60405180910390f35b61018e610189366004610e7f565b61031e565b6040516101729190610ed7565b6101a3610334565b6040516101729190610ee2565b61018e6101be366004610d87565b61033a565b6101a36103ce565b61018e6101d9366004610dd3565b6103f2565b6101a36104d9565b6101ee6104fd565b60405161017291906111f4565b610203610502565b6040516101729190610ec3565b61018e61021e366004610e7f565b610511565b61018e610231366004610e7f565b61051e565b6101ee61057b565b610203610580565b6101a3610254366004610d87565b61058f565b6101a3610267366004610d87565b6105a1565b6101656105b3565b61018e610282366004610e7f565b6105d5565b6101a3610632565b61018e61029d366004610e7f565b610656565b61018e6102b0366004610e7f565b610663565b6102c86102c3366004610e0e565b610670565b005b6101a36102d8366004610da1565b610725565b6101a3610742565b61020361080c565b6040518060400160405280601581526020017420b931b432b9102130b735b937b636102a37b5b2b760591b81525081565b600061032b33848461081b565b50600192915050565b60005481565b6003546000906001600160a01b031633146103705760405162461bcd60e51b815260040161036790610fbc565b60405180910390fd5b6003546040516001600160a01b038085169216907f0cff5c8e2b1e51135595ff4ebaefab9ef5b26373c3b84cbdc4677bb41468843b90600090a350600380546001600160a01b0319166001600160a01b03831617905560015b919050565b7f8b73c3c69bb8fe3d512ecc4cf759cc79239f7b179b0ffacaa9a75d522b39400f81565b6001600160a01b03831660008181526005602090815260408083203380855292528220549192909190821480159061042c57506000198114155b156104c257600061045885604051806060016040528060348152602001611203603491398491906108cf565b6001600160a01b03808916600081815260056020908152604080832094891680845294909152908190208490555192935090917f8c5be1e5ebec7d5bd14f71427d1e84f3dd0314c0f7b2291e5b200ac8c7c3b925906104b8908590610ee2565b60405180910390a3505b6104cd868686610966565b50600195945050505050565b7f6e71edae12b1b97f4d1f60370fef10105fa2faae0126114a169c64845d6126c981565b601281565b6001546001600160a01b031681565b600061032b338484610a4a565b6003546000906001600160a01b0316331461054b5760405162461bcd60e51b815260040161036790610fbc565b6001600160a01b0383166105715760405162461bcd60e51b815260040161036790611035565b61032b8383610a8c565b600181565b6002546001600160a01b031681565b60046020526000908152604090205481565b60066020526000908152604090205481565b6040518060400160405280600681526020016520a921a416a160d11b81525081565b6003546000906001600160a01b031633146106025760405162461bcd60e51b815260040161036790610fbc565b6001600160a01b0383166106285760405162461bcd60e51b815260040161036790611110565b61032b8383610b19565b7fc89efdaa54c0f20c7adf612882df0950f5a951637e0307cdcb4c672f298b8bc681565b600061032b338484610be6565b600061032b338484610966565b428410156106905760405162461bcd60e51b815260040161036790611160565b6001600160a01b038716600090815260066020908152604080832080546001810190915590516106eb927f6e71edae12b1b97f4d1f60370fef10105fa2faae0126114a169c64845d6126c9928c928c928c92918c9101610eeb565b6040516020818303038152906040528051906020012090506107108882868686610c35565b61071b88888861081b565b5050505050505050565b600560209081526000928352604080842090915290825290205481565b60408051808201909152601581527420b931b432b9102130b735b937b636102a37b5b2b760591b60209091015260007f8b73c3c69bb8fe3d512ecc4cf759cc79239f7b179b0ffacaa9a75d522b39400f7fb4c81079ad1897d28ecc306d4363630b748207b96007b1febc4186bf692400187fc89efdaa54c0f20c7adf612882df0950f5a951637e0307cdcb4c672f298b8bc66107dc610d0b565b306040516020016107f1959493929190610f1f565b60405160208183030381529060405280519060200120905090565b6003546001600160a01b031681565b6001600160a01b0383166108415760405162461bcd60e51b815260040161036790610fe9565b6001600160a01b0382166108675760405162461bcd60e51b8152600401610367906110c6565b6001600160a01b0380841660008181526005602090815260408083209487168084529490915290819020849055517f8c5be1e5ebec7d5bd14f71427d1e84f3dd0314c0f7b2291e5b200ac8c7c3b925906108c2908590610ee2565b60405180910390a3505050565b6000818484111561095e5760405162461bcd60e51b81526004018080602001828103825283818151815260200191508051906020019080838360005b8381101561092357818101518382015260200161090b565b50505050905090810190601f1680156109505780820380516001836020036101000a031916815260200191505b509250505060405180910390fd5b505050900390565b6001600160a01b03821661098c5760405162461bcd60e51b815260040161036790611197565b6109c98160405180606001604052806033815260200161129a603391396001600160a01b03861660009081526004602052604090205491906108cf565b6001600160a01b0380851660009081526004602052604080822093909355908416815220546109f89082610d0f565b6001600160a01b0380841660008181526004602052604090819020939093559151908516907fddf252ad1be2c89b69c2b068fc378daa952ba7f163c4a11628f55a4df523b3ef906108c2908590610ee2565b6001600160a01b03808416600090815260056020908152604080832093861683529290522054610a879084908490610a829085610d0f565b61081b565b505050565b600054610a999082610d0f565b60009081556001600160a01b038316815260046020526040902054610abe9082610d0f565b6001600160a01b0383166000818152600460205260408082209390935591519091907fddf252ad1be2c89b69c2b068fc378daa952ba7f163c4a11628f55a4df523b3ef90610b0d908590610ee2565b60405180910390a35050565b610b56816040518060600160405280602c81526020016112cd602c91396001600160a01b03851660009081526004602052604090205491906108cf565b60046000846001600160a01b03166001600160a01b0316815260200190815260200160002081905550610ba6816040518060600160405280602c815260200161126e602c913960005491906108cf565b60009081556040516001600160a01b038416907fddf252ad1be2c89b69c2b068fc378daa952ba7f163c4a11628f55a4df523b3ef90610b0d908590610ee2565b610a878383610a8284604051806060016040528060378152602001611237603791396001600160a01b03808a166000908152600560209081526040808320938c168352929052205491906108cf565b6000610c3f610742565b85604051602001610c51929190610ea8565b604051602081830303815290604052805190602001209050600060018286868660405160008152602001604052604051610c8e9493929190610f4b565b6020604051602081039080840390855afa158015610cb0573d6000803e3d6000fd5b5050604051601f1901519150506001600160a01b03811615801590610ce65750866001600160a01b0316816001600160a01b0316145b610d025760405162461bcd60e51b815260040161036790611083565b50505050505050565b4690565b600082820183811015610d69576040805162461bcd60e51b815260206004820152601b60248201527f536166654d6174683a206164646974696f6e206f766572666c6f770000000000604482015290519081900360640190fd5b9392505050565b80356001600160a01b03811681146103c957600080fd5b600060208284031215610d98578081fd5b610d6982610d70565b60008060408385031215610db3578081fd5b610dbc83610d70565b9150610dca60208401610d70565b90509250929050565b600080600060608486031215610de7578081fd5b610df084610d70565b9250610dfe60208501610d70565b9150604084013590509250925092565b600080600080600080600060e0888a031215610e28578283fd5b610e3188610d70565b9650610e3f60208901610d70565b95506040880135945060608801359350608088013560ff81168114610e62578384fd5b9699959850939692959460a0840135945060c09093013592915050565b60008060408385031215610e91578182fd5b610e9a83610d70565b946020939093013593505050565b61190160f01b81526002810192909252602282015260420190565b6001600160a01b0391909116815260200190565b901515815260200190565b90815260200190565b9586526001600160a01b0394851660208701529290931660408501526060840152608083019190915260a082015260c00190565b9485526020850193909352604084019190915260608301526001600160a01b0316608082015260a00190565b93845260ff9290921660208401526040830152606082015260800190565b6000602080835283518082850152825b81811015610f9557858101830151858201604001528201610f79565b81811115610fa65783604083870101525b50601f01601f1916929092016040019392505050565b60208082526013908201527237b7363c9039bab838363c9036b0b730b3b2b960691b604082015260600190565b6020808252602c908201527f4142543a3a5f617070726f76653a20617070726f76652066726f6d207468652060408201526b7a65726f206164647265737360a01b606082015260800190565b6020808252602e908201527f4142543a3a6d696e743a2063616e6e6f74207472616e7366657220746f20746860408201526d65207a65726f206164647265737360901b606082015260800190565b60208082526023908201527f4142543a3a76616c69646174655369673a20696e76616c6964207369676e617460408201526275726560e81b606082015260800190565b6020808252602a908201527f4142543a3a5f617070726f76653a20617070726f766520746f20746865207a65604082015269726f206164647265737360b01b606082015260800190565b60208082526030908201527f4142543a3a6275726e3a2063616e6e6f74207472616e736665722066726f6d2060408201526f746865207a65726f206164647265737360801b606082015260800190565b6020808252601e908201527f4142543a3a7065726d69743a207369676e617475726520657870697265640000604082015260600190565b60208082526039908201527f4142543a3a5f7472616e73666572546f6b656e733a2063616e6e6f742074726160408201527f6e7366657220746f20746865207a65726f206164647265737300000000000000606082015260800190565b60ff9190911681526020019056fe4142543a3a7472616e7366657246726f6d3a207472616e7366657220616d6f756e74206578636565647320616c6c6f77616e63654142543a3a5f6465637265617365416c6c6f77616e63653a2064656372656173656420616c6c6f77616e63652062656c6f77207a65726f4142543a3a5f6275726e3a206275726e20616d6f756e74206578636565647320746f74616c20737570706c794142543a3a5f7472616e73666572546f6b656e733a207472616e7366657220657863656564732066726f6d2062616c616e63654142543a3a5f6275726e3a206275726e20616d6f756e7420657863656564732066726f6d2062616c616e6365a26469706673582212207842e31e4aa83f28809b985ce690bcc02f627b6d40f4780f77571c88ee91284064736f6c63430007040033456e756d657261626c655365743a20696e646578206f7574206f6620626f756e6473416363657373436f6e74726f6c3a2073656e646572206d75737420626520616e2061646d696e20746f206772616e74416363657373436f6e74726f6c3a2073656e646572206d75737420626520616e2061646d696e20746f207265766f6b65536166654d6174683a206d756c7469706c69636174696f6e206f766572666c6f770f38c9a95b3e46f81ca9bc843f8e4f96937802cabd5509bc53c899dec1fa769b416363657373436f6e74726f6c3a2063616e206f6e6c792072656e6f756e636520726f6c657320666f722073656c66a264697066735822122094ef431bdbb9e16d70acc72bb9d030dd431de6942c63baab060258a2437507d164736f6c63430007040033",
  "devdoc": {
    "details": "Used as an interface to provide bankroll to Dispatchers on the Archer network",
    "kind": "dev",
    "methods": {
      "amountAvailableToBankroll(address,address)": {
        "returns": {
          "amount": "Bankroll available to account for given Dispatcher"
        }
      },
      "amountAvailableToDeposit(address)": {
        "returns": {
          "amount": "Bankroll available to account"
        }
      },
      "approveBankrollToken(address,address)": {
        "params": {
          "bToken": "Bankroll Token address",
          "dispatcher": "Dispatcher address"
        }
      },
      "bankrollAvailable(address)": {
        "returns": {
          "amount": "Bankroll available for Dispatcher"
        }
      },
      "bankrollBalances(address,address)": {
        "returns": {
          "balances": " 1) dispatcher bankroll available  2) min voting power  3) user voting power  4) network deposit max  5) account amount deposited  6) max bankroll per account for dispatcher  7) bankroll token balance of user 8) bankroll token balance of user deposited into rewards manager"
        }
      },
      "bankrollProvided(address)": {
        "returns": {
          "amount": "Bankroll provided to Dispatcher"
        }
      },
      "bankrollRequested(address)": {
        "returns": {
          "amount": "Bankroll requested by Dispatcher"
        }
      },
      "constructor": {
        "params": {
          "_bouncerAdmin": "Admin of Bouncer contract",
          "_dispatcherFactory": "Dispatcher Factory address",
          "_dispatcherMaxContributionPct": "Per Dispatcher cap on % of bankroll any one account can provide",
          "_globalMaxContributionPct": "Global cap on % of bankroll any one account can provide",
          "_maxBankrollRequestable": "Max bankroll that a single dispatcher can request",
          "_requireApproval": "if true, require approval from admin to join program",
          "_requiredVotingPower": "Amount of voting power required for account to provide bankroll",
          "_roleAdmin": "Admin of Bouncer admin role",
          "_votingPower": "VotingPower address"
        }
      },
      "dispatchersWithBankrollAvailable()": {
        "returns": {
          "dispatchers": "Array of dispatchers that have bankroll requests available"
        }
      },
      "getRoleAdmin(bytes32)": {
        "details": "Returns the admin role that controls `role`. See {grantRole} and {revokeRole}. To change a role's admin, use {_setRoleAdmin}."
      },
      "getRoleMember(bytes32,uint256)": {
        "details": "Returns one of the accounts that have `role`. `index` must be a value between 0 and {getRoleMemberCount}, non-inclusive. Role bearers are not sorted in any particular way, and their ordering may change at any point. WARNING: When using {getRoleMember} and {getRoleMemberCount}, make sure you perform all queries on the same block. See the following https://forum.openzeppelin.com/t/iterating-over-elements-on-enumerableset-in-openzeppelin-contracts/2296[forum post] for more information."
      },
      "getRoleMemberCount(bytes32)": {
        "details": "Returns the number of accounts that have `role`. Can be used together with {getRoleMember} to enumerate all bearers of a role."
      },
      "grantRole(bytes32,address)": {
        "details": "Grants `role` to `account`. If `account` had not been already granted `role`, emits a {RoleGranted} event. Requirements: - the caller must have ``role``'s admin role."
      },
      "hasRole(bytes32,address)": {
        "details": "Returns `true` if `account` has been granted `role`."
      },
      "join(address)": {
        "params": {
          "dispatcher": "Dispatcher address"
        },
        "returns": {
          "bankrollToken": "address of bankroll token",
          "isApproved": "true if dispatcher is already approved as part of the program"
        }
      },
      "maxBankrollPerAccount(address)": {
        "returns": {
          "amount": "Max bankroll per account"
        }
      },
      "maxDepositPerAccount()": {
        "returns": {
          "amount": "Max deposit amount"
        }
      },
      "migrate(address,address)": {
        "params": {
          "newBouncer": "Bouncer address",
          "token": "the token"
        }
      },
      "provideETHBankroll(address,bool)": {
        "params": {
          "dispatcher": "Dispatcher address",
          "getRewards": "determine whether to accrue rewards for bankroll"
        }
      },
      "removeETHBankroll(address,uint256,bool)": {
        "params": {
          "amount": "Amount of bankroll to remove",
          "dispatcher": "Dispatcher address",
          "useRMBalance": "use token balance from rewards manager instead of tx.origin"
        }
      },
      "renounceRole(bytes32,address)": {
        "details": "Revokes `role` from the calling account. Roles are often managed via {grantRole} and {revokeRole}: this function's purpose is to provide a mechanism for accounts to lose their privileges if they are compromised (such as when a trusted device is misplaced). If the calling account had been granted `role`, emits a {RoleRevoked} event. Requirements: - the caller must be `account`."
      },
      "revokeRole(bytes32,address)": {
        "details": "Revokes `role` from `account`. If `account` had been granted `role`, emits a {RoleRevoked} event. Requirements: - the caller must have ``role``'s admin role."
      },
      "setDispatcherFactory(address)": {
        "details": "Only Bouncer admin can call",
        "params": {
          "factoryAddress": "Dispatcher Factory address"
        }
      },
      "setDispatcherMaxBankrollRequestable(uint256)": {
        "details": "Only Bouncer admin can call",
        "params": {
          "newMaxRequestable": "new max bankroll requestable"
        }
      },
      "setDispatcherMaxContributionPct(uint32)": {
        "details": "Only Bouncer admin can call",
        "params": {
          "newPct": "new per Dispatcher cap %"
        }
      },
      "setGlobalMaxContributionPct(uint32)": {
        "details": "Only Bouncer admin can call",
        "params": {
          "newPct": "new global cap %"
        }
      },
      "setRequiredVotingPower(uint256)": {
        "details": "Only Bouncer admin can call",
        "params": {
          "newVotingPower": "minimum voting power"
        }
      },
      "setRewardsManager(address)": {
        "details": "Only Bouncer admin can callManager address"
      },
      "setVotingPower(address)": {
        "details": "Only Bouncer admin can call",
        "params": {
          "votingPowerAddress": "VotingPower address"
        }
      },
      "toggleApproval()": {
        "details": "Only Bouncer admin can call"
      },
      "totalBankrollAvailable()": {
        "returns": {
          "amount": "Total bankroll available for deposit"
        }
      },
      "totalBankrollRequested()": {
        "returns": {
          "amount": "Total bankroll requested"
        }
      },
      "votingPower(address)": {
        "params": {
          "account": "Address of account"
        },
        "returns": {
          "amount": "Amount of voting power"
        }
      }
    },
    "title": "Bouncer",
    "version": 1
  },
  "userdoc": {
    "events": {
      "ApprovalChanged(bool)": {
        "notice": "Event emitted when approval requirement is changed"
      },
      "ApprovalRequested(address,address)": {
        "notice": "Event emitted when an approval is requested"
      },
      "BankrollProvided(address,address,address,address,uint256,bool)": {
        "notice": "Event emitted when bankroll is provided to a dispatcher"
      },
      "BankrollRemoved(address,address,address,address,uint256,bool)": {
        "notice": "Event emitted when bankroll is removed from a dispatcher"
      },
      "BankrollTokenApproved(address,address)": {
        "notice": "Event emitted when a bankroll token is approved to join the program"
      },
      "BankrollTokenCreated(address,address,address)": {
        "notice": "Event emitted when a new Dispatcher/asset is added to the bankroll program"
      },
      "DispatcherFactoryChanged(address,address)": {
        "notice": "Event emitted when Dispatcher Factory contract address is changed"
      },
      "DispatcherMaxChanged(uint32,uint32)": {
        "notice": "Event emitted when per dispatcher cap is changed"
      },
      "DispatcherMaxRequestableChanged(uint256,uint256)": {
        "notice": "Event emitted when max bankroll requestable changes"
      },
      "GlobalMaxChanged(uint32,uint32)": {
        "notice": "Event emitted when global cap is changed"
      },
      "RequiredVotingPowerChanged(uint256,uint256)": {
        "notice": "Event emitted when required voting power to bankroll network is changed"
      },
      "RewardsManagerChanged(address,address)": {
        "notice": "Event emitted when Rewards Manager contract address is changed"
      },
      "VotingPowerChanged(address,address)": {
        "notice": "Event emitted when Voting Power contract address is changed"
      }
    },
    "kind": "user",
    "methods": {
      "BOUNCER_ADMIN_ROLE()": {
        "notice": "Admin role to manage Bouncer"
      },
      "amountAvailableToBankroll(address,address)": {
        "notice": "Amount of remaining bankroll account can provide to given Dispatcher"
      },
      "amountAvailableToDeposit(address)": {
        "notice": "Total amount of remaining bankroll account can provide to network"
      },
      "amountDeposited(address)": {
        "notice": "Mapping of Dispatcher address > bankroll provided"
      },
      "approveBankrollToken(address,address)": {
        "notice": "Function to allow a bankroll token to participate in the program"
      },
      "bankrollAvailable(address)": {
        "notice": "Amount of bankroll available to provide to given Dispatcher"
      },
      "bankrollBalances(address,address)": {
        "notice": "Gets all balances relevant to determining whether a given user can bankroll a dispatcher"
      },
      "bankrollProvided(address)": {
        "notice": "Amount of bankroll provided to given Dispatcher"
      },
      "bankrollRequested(address)": {
        "notice": "Total amount of bankroll requested by the given Dispatcher"
      },
      "bankrollTokens(address,address)": {
        "notice": "Mapping of bankroll Dispatcher > asset > bankroll token"
      },
      "constructor": {
        "notice": "Construct a new Bouncer contract"
      },
      "dispatcherFactory()": {
        "notice": "Dispatcher Factory"
      },
      "dispatcherMaxContributionPct()": {
        "notice": "Per Dispatcher cap on % of bankroll any one entity can provide (measured in bips: 10,000 bips = 1% of bankroll requested by the Dispatcher)"
      },
      "dispatchersWithBankrollAvailable()": {
        "notice": "All of the Dispatchers on the network that have bankroll available that has not yet been provided"
      },
      "globalMaxContributionPct()": {
        "notice": "Global cap on % of network bankroll any one entity can provide (measured in bips: 10,000 bips = 1% of bankroll requested by the network)"
      },
      "join(address)": {
        "notice": "Function to allow a dispatcher to join the bankroll program"
      },
      "maxBankrollPerAccount(address)": {
        "notice": "Max amount of bankroll any one account can provide to given Dispatcher"
      },
      "maxDepositPerAccount()": {
        "notice": "Maximum amount of bankroll any one account can provide to the network as a whole"
      },
      "maximumBankrollRequestable()": {
        "notice": "Maximum bankroll that a single Dispatcher can request"
      },
      "migrate(address,address)": {
        "notice": "Admin function to migrate token to new Bouncer"
      },
      "provideETHBankroll(address,bool)": {
        "notice": "Provide ETH bankroll to Dispatcher"
      },
      "removeETHBankroll(address,uint256,bool)": {
        "notice": "Remove ETH bankroll from Dispatcher"
      },
      "requireApproval()": {
        "notice": "Determines whether admin approval required to join the bankroll program"
      },
      "requiredVotingPower()": {
        "notice": "Amount of voting power required to bankroll on the network"
      },
      "rewardsManager()": {
        "notice": "Rewards Manager Contract"
      },
      "setDispatcherFactory(address)": {
        "notice": "Set Dispatcher Factory address"
      },
      "setDispatcherMaxBankrollRequestable(uint256)": {
        "notice": "Set global Dispatcher max bankroll requestable"
      },
      "setDispatcherMaxContributionPct(uint32)": {
        "notice": "Set per Dispatcher max % of bankroll any one account can provide"
      },
      "setGlobalMaxContributionPct(uint32)": {
        "notice": "Set global max % of network bankroll any one account can provide"
      },
      "setRequiredVotingPower(uint256)": {
        "notice": "Set voting power required by users to provide bankroll"
      },
      "setRewardsManager(address)": {
        "notice": "Set Rewards Manager address"
      },
      "setVotingPower(address)": {
        "notice": "Set VotingPower address"
      },
      "toggleApproval()": {
        "notice": "Toggle whether admin approval is required to join bankroll program"
      },
      "totalAmountDeposited()": {
        "notice": "Total amount of bankroll provided to the network via this contract"
      },
      "totalBankrollAvailable()": {
        "notice": "Total amount of bankroll requested by all of the Dispatchers on the network that has not yet been provided"
      },
      "totalBankrollRequested()": {
        "notice": "Total amount of bankroll requested by all of the Dispatchers on the network"
      },
      "votingPower(address)": {
        "notice": "Amount of voting power a given account has currently"
      },
      "votingPowerContract()": {
        "notice": "Voting Power Contract"
      }
    },
    "version": 1
  },
  "storageLayout": {
    "storage": [
      {
        "astId": 4443,
        "contract": "contracts/Bouncer.sol:Bouncer",
        "label": "_roles",
        "offset": 0,
        "slot": "0",
        "type": "t_mapping(t_bytes32,t_struct(RoleData)4439_storage)"
      },
      {
        "astId": 5944,
        "contract": "contracts/Bouncer.sol:Bouncer",
        "label": "_status",
        "offset": 0,
        "slot": "1",
        "type": "t_uint256"
      },
      {
        "astId": 750,
        "contract": "contracts/Bouncer.sol:Bouncer",
        "label": "dispatcherFactory",
        "offset": 0,
        "slot": "2",
        "type": "t_contract(IDispatcherFactory)4170"
      },
      {
        "astId": 753,
        "contract": "contracts/Bouncer.sol:Bouncer",
        "label": "votingPowerContract",
        "offset": 0,
        "slot": "3",
        "type": "t_contract(IVotingPower)4420"
      },
      {
        "astId": 756,
        "contract": "contracts/Bouncer.sol:Bouncer",
        "label": "rewardsManager",
        "offset": 0,
        "slot": "4",
        "type": "t_contract(IRewardsManager)4400"
      },
      {
        "astId": 759,
        "contract": "contracts/Bouncer.sol:Bouncer",
        "label": "globalMaxContributionPct",
        "offset": 20,
        "slot": "4",
        "type": "t_uint32"
      },
      {
        "astId": 762,
        "contract": "contracts/Bouncer.sol:Bouncer",
        "label": "dispatcherMaxContributionPct",
        "offset": 24,
        "slot": "4",
        "type": "t_uint32"
      },
      {
        "astId": 765,
        "contract": "contracts/Bouncer.sol:Bouncer",
        "label": "maximumBankrollRequestable",
        "offset": 0,
        "slot": "5",
        "type": "t_uint256"
      },
      {
        "astId": 768,
        "contract": "contracts/Bouncer.sol:Bouncer",
        "label": "requiredVotingPower",
        "offset": 0,
        "slot": "6",
        "type": "t_uint256"
      },
      {
        "astId": 771,
        "contract": "contracts/Bouncer.sol:Bouncer",
        "label": "totalAmountDeposited",
        "offset": 0,
        "slot": "7",
        "type": "t_uint256"
      },
      {
        "astId": 774,
        "contract": "contracts/Bouncer.sol:Bouncer",
        "label": "requireApproval",
        "offset": 0,
        "slot": "8",
        "type": "t_bool"
      },
      {
        "astId": 781,
        "contract": "contracts/Bouncer.sol:Bouncer",
        "label": "bankrollTokens",
        "offset": 0,
        "slot": "9",
        "type": "t_mapping(t_address,t_mapping(t_address,t_contract(BankrollToken)728))"
      },
      {
        "astId": 786,
        "contract": "contracts/Bouncer.sol:Bouncer",
        "label": "amountDeposited",
        "offset": 0,
        "slot": "10",
        "type": "t_mapping(t_address,t_uint256)"
      }
    ],
    "types": {
      "t_address": {
        "encoding": "inplace",
        "label": "address",
        "numberOfBytes": "20"
      },
      "t_array(t_bytes32)dyn_storage": {
        "base": "t_bytes32",
        "encoding": "dynamic_array",
        "label": "bytes32[]",
        "numberOfBytes": "32"
      },
      "t_bool": {
        "encoding": "inplace",
        "label": "bool",
        "numberOfBytes": "1"
      },
      "t_bytes32": {
        "encoding": "inplace",
        "label": "bytes32",
        "numberOfBytes": "32"
      },
      "t_contract(BankrollToken)728": {
        "encoding": "inplace",
        "label": "contract BankrollToken",
        "numberOfBytes": "20"
      },
      "t_contract(IDispatcherFactory)4170": {
        "encoding": "inplace",
        "label": "contract IDispatcherFactory",
        "numberOfBytes": "20"
      },
      "t_contract(IRewardsManager)4400": {
        "encoding": "inplace",
        "label": "contract IRewardsManager",
        "numberOfBytes": "20"
      },
      "t_contract(IVotingPower)4420": {
        "encoding": "inplace",
        "label": "contract IVotingPower",
        "numberOfBytes": "20"
      },
      "t_mapping(t_address,t_contract(BankrollToken)728)": {
        "encoding": "mapping",
        "key": "t_address",
        "label": "mapping(address => contract BankrollToken)",
        "numberOfBytes": "32",
        "value": "t_contract(BankrollToken)728"
      },
      "t_mapping(t_address,t_mapping(t_address,t_contract(BankrollToken)728))": {
        "encoding": "mapping",
        "key": "t_address",
        "label": "mapping(address => mapping(address => contract BankrollToken))",
        "numberOfBytes": "32",
        "value": "t_mapping(t_address,t_contract(BankrollToken)728)"
      },
      "t_mapping(t_address,t_uint256)": {
        "encoding": "mapping",
        "key": "t_address",
        "label": "mapping(address => uint256)",
        "numberOfBytes": "32",
        "value": "t_uint256"
      },
      "t_mapping(t_bytes32,t_struct(RoleData)4439_storage)": {
        "encoding": "mapping",
        "key": "t_bytes32",
        "label": "mapping(bytes32 => struct AccessControl.RoleData)",
        "numberOfBytes": "32",
        "value": "t_struct(RoleData)4439_storage"
      },
      "t_mapping(t_bytes32,t_uint256)": {
        "encoding": "mapping",
        "key": "t_bytes32",
        "label": "mapping(bytes32 => uint256)",
        "numberOfBytes": "32",
        "value": "t_uint256"
      },
      "t_struct(AddressSet)5729_storage": {
        "encoding": "inplace",
        "label": "struct EnumerableSet.AddressSet",
        "members": [
          {
            "astId": 5728,
            "contract": "contracts/Bouncer.sol:Bouncer",
            "label": "_inner",
            "offset": 0,
            "slot": "0",
            "type": "t_struct(Set)5464_storage"
          }
        ],
        "numberOfBytes": "64"
      },
      "t_struct(RoleData)4439_storage": {
        "encoding": "inplace",
        "label": "struct AccessControl.RoleData",
        "members": [
          {
            "astId": 4436,
            "contract": "contracts/Bouncer.sol:Bouncer",
            "label": "members",
            "offset": 0,
            "slot": "0",
            "type": "t_struct(AddressSet)5729_storage"
          },
          {
            "astId": 4438,
            "contract": "contracts/Bouncer.sol:Bouncer",
            "label": "adminRole",
            "offset": 0,
            "slot": "2",
            "type": "t_bytes32"
          }
        ],
        "numberOfBytes": "96"
      },
      "t_struct(Set)5464_storage": {
        "encoding": "inplace",
        "label": "struct EnumerableSet.Set",
        "members": [
          {
            "astId": 5459,
            "contract": "contracts/Bouncer.sol:Bouncer",
            "label": "_values",
            "offset": 0,
            "slot": "0",
            "type": "t_array(t_bytes32)dyn_storage"
          },
          {
            "astId": 5463,
            "contract": "contracts/Bouncer.sol:Bouncer",
            "label": "_indexes",
            "offset": 0,
            "slot": "1",
            "type": "t_mapping(t_bytes32,t_uint256)"
          }
        ],
        "numberOfBytes": "64"
      },
      "t_uint256": {
        "encoding": "inplace",
        "label": "uint256",
        "numberOfBytes": "32"
      },
      "t_uint32": {
        "encoding": "inplace",
        "label": "uint32",
        "numberOfBytes": "4"
      }
    }
  }
}