{
  "address": "0xF055f787562216881e6e04207769F43E220e5546",
  "abi": [
    {
      "inputs": [
        {
          "internalType": "address",
          "name": "_roleAdmin",
          "type": "address"
        },
        {
          "internalType": "address",
          "name": "_dispatcherAdmin",
          "type": "address"
        }
      ],
      "stateMutability": "nonpayable",
      "type": "constructor"
    },
    {
      "anonymous": false,
      "inputs": [
        {
          "indexed": true,
          "internalType": "address",
          "name": "dispatcher",
          "type": "address"
        }
      ],
      "name": "DispatcherAdded",
      "type": "event"
    },
    {
      "anonymous": false,
      "inputs": [
        {
          "indexed": true,
          "internalType": "address",
          "name": "dispatcher",
          "type": "address"
        },
        {
          "indexed": true,
          "internalType": "uint8",
          "name": "version",
          "type": "uint8"
        },
        {
          "indexed": false,
          "internalType": "address",
          "name": "queryEngine",
          "type": "address"
        },
        {
          "indexed": false,
          "internalType": "address",
          "name": "roleManager",
          "type": "address"
        },
        {
          "indexed": false,
          "internalType": "address",
          "name": "lpManager",
          "type": "address"
        },
        {
          "indexed": false,
          "internalType": "address",
          "name": "withdrawer",
          "type": "address"
        },
        {
          "indexed": false,
          "internalType": "address",
          "name": "trader",
          "type": "address"
        },
        {
          "indexed": false,
          "internalType": "address",
          "name": "supplier",
          "type": "address"
        },
        {
          "indexed": false,
          "internalType": "uint256",
          "name": "initialMaxLiquidity",
          "type": "uint256"
        },
        {
          "indexed": false,
          "internalType": "bool",
          "name": "lpWhitelist",
          "type": "bool"
        }
      ],
      "name": "DispatcherCreated",
      "type": "event"
    },
    {
      "anonymous": false,
      "inputs": [
        {
          "indexed": true,
          "internalType": "address",
          "name": "dispatcher",
          "type": "address"
        }
      ],
      "name": "DispatcherRemoved",
      "type": "event"
    },
    {
      "anonymous": false,
      "inputs": [
        {
          "indexed": true,
          "internalType": "bytes32",
          "name": "role",
          "type": "bytes32"
        },
        {
          "indexed": true,
          "internalType": "bytes32",
          "name": "previousAdminRole",
          "type": "bytes32"
        },
        {
          "indexed": true,
          "internalType": "bytes32",
          "name": "newAdminRole",
          "type": "bytes32"
        }
      ],
      "name": "RoleAdminChanged",
      "type": "event"
    },
    {
      "anonymous": false,
      "inputs": [
        {
          "indexed": true,
          "internalType": "bytes32",
          "name": "role",
          "type": "bytes32"
        },
        {
          "indexed": true,
          "internalType": "address",
          "name": "account",
          "type": "address"
        },
        {
          "indexed": true,
          "internalType": "address",
          "name": "sender",
          "type": "address"
        }
      ],
      "name": "RoleGranted",
      "type": "event"
    },
    {
      "anonymous": false,
      "inputs": [
        {
          "indexed": true,
          "internalType": "bytes32",
          "name": "role",
          "type": "bytes32"
        },
        {
          "indexed": true,
          "internalType": "address",
          "name": "account",
          "type": "address"
        },
        {
          "indexed": true,
          "internalType": "address",
          "name": "sender",
          "type": "address"
        }
      ],
      "name": "RoleRevoked",
      "type": "event"
    },
    {
      "inputs": [],
      "name": "DEFAULT_ADMIN_ROLE",
      "outputs": [
        {
          "internalType": "bytes32",
          "name": "",
          "type": "bytes32"
        }
      ],
      "stateMutability": "view",
      "type": "function"
    },
    {
      "inputs": [],
      "name": "DISPATCHER_ADMIN_ROLE",
      "outputs": [
        {
          "internalType": "bytes32",
          "name": "",
          "type": "bytes32"
        }
      ],
      "stateMutability": "view",
      "type": "function"
    },
    {
      "inputs": [
        {
          "internalType": "address[]",
          "name": "dispatcherContracts",
          "type": "address[]"
        }
      ],
      "name": "addDispatchers",
      "outputs": [],
      "stateMutability": "nonpayable",
      "type": "function"
    },
    {
      "inputs": [
        {
          "internalType": "address",
          "name": "queryEngine",
          "type": "address"
        },
        {
          "internalType": "address",
          "name": "roleManager",
          "type": "address"
        },
        {
          "internalType": "address",
          "name": "lpManager",
          "type": "address"
        },
        {
          "internalType": "address",
          "name": "withdrawer",
          "type": "address"
        },
        {
          "internalType": "address",
          "name": "trader",
          "type": "address"
        },
        {
          "internalType": "address",
          "name": "supplier",
          "type": "address"
        },
        {
          "internalType": "uint256",
          "name": "initialMaxLiquidity",
          "type": "uint256"
        },
        {
          "internalType": "address[]",
          "name": "lpWhitelist",
          "type": "address[]"
        }
      ],
      "name": "createNewDispatcher",
      "outputs": [
        {
          "internalType": "address",
          "name": "dispatcher",
          "type": "address"
        }
      ],
      "stateMutability": "nonpayable",
      "type": "function"
    },
    {
      "inputs": [],
      "name": "dispatchers",
      "outputs": [
        {
          "internalType": "address[]",
          "name": "",
          "type": "address[]"
        }
      ],
      "stateMutability": "view",
      "type": "function"
    },
    {
      "inputs": [
        {
          "internalType": "address",
          "name": "dispatcherContract",
          "type": "address"
        }
      ],
      "name": "exists",
      "outputs": [
        {
          "internalType": "bool",
          "name": "",
          "type": "bool"
        }
      ],
      "stateMutability": "view",
      "type": "function"
    },
    {
      "inputs": [
        {
          "internalType": "bytes32",
          "name": "role",
          "type": "bytes32"
        }
      ],
      "name": "getRoleAdmin",
      "outputs": [
        {
          "internalType": "bytes32",
          "name": "",
          "type": "bytes32"
        }
      ],
      "stateMutability": "view",
      "type": "function"
    },
    {
      "inputs": [
        {
          "internalType": "bytes32",
          "name": "role",
          "type": "bytes32"
        },
        {
          "internalType": "uint256",
          "name": "index",
          "type": "uint256"
        }
      ],
      "name": "getRoleMember",
      "outputs": [
        {
          "internalType": "address",
          "name": "",
          "type": "address"
        }
      ],
      "stateMutability": "view",
      "type": "function"
    },
    {
      "inputs": [
        {
          "internalType": "bytes32",
          "name": "role",
          "type": "bytes32"
        }
      ],
      "name": "getRoleMemberCount",
      "outputs": [
        {
          "internalType": "uint256",
          "name": "",
          "type": "uint256"
        }
      ],
      "stateMutability": "view",
      "type": "function"
    },
    {
      "inputs": [
        {
          "internalType": "bytes32",
          "name": "role",
          "type": "bytes32"
        },
        {
          "internalType": "address",
          "name": "account",
          "type": "address"
        }
      ],
      "name": "grantRole",
      "outputs": [],
      "stateMutability": "nonpayable",
      "type": "function"
    },
    {
      "inputs": [
        {
          "internalType": "bytes32",
          "name": "role",
          "type": "bytes32"
        },
        {
          "internalType": "address",
          "name": "account",
          "type": "address"
        }
      ],
      "name": "hasRole",
      "outputs": [
        {
          "internalType": "bool",
          "name": "",
          "type": "bool"
        }
      ],
      "stateMutability": "view",
      "type": "function"
    },
    {
      "inputs": [],
      "name": "numDispatchers",
      "outputs": [
        {
          "internalType": "uint256",
          "name": "",
          "type": "uint256"
        }
      ],
      "stateMutability": "view",
      "type": "function"
    },
    {
      "inputs": [
        {
          "internalType": "address[]",
          "name": "dispatcherContracts",
          "type": "address[]"
        }
      ],
      "name": "removeDispatchers",
      "outputs": [],
      "stateMutability": "nonpayable",
      "type": "function"
    },
    {
      "inputs": [
        {
          "internalType": "bytes32",
          "name": "role",
          "type": "bytes32"
        },
        {
          "internalType": "address",
          "name": "account",
          "type": "address"
        }
      ],
      "name": "renounceRole",
      "outputs": [],
      "stateMutability": "nonpayable",
      "type": "function"
    },
    {
      "inputs": [
        {
          "internalType": "bytes32",
          "name": "role",
          "type": "bytes32"
        },
        {
          "internalType": "address",
          "name": "account",
          "type": "address"
        }
      ],
      "name": "revokeRole",
      "outputs": [],
      "stateMutability": "nonpayable",
      "type": "function"
    },
    {
      "inputs": [],
      "name": "version",
      "outputs": [
        {
          "internalType": "uint8",
          "name": "",
          "type": "uint8"
        }
      ],
      "stateMutability": "view",
      "type": "function"
    }
  ],
  "transactionHash": "0x21551a7ba02c41ee21611660be0c7a50206113cf7da09e3833fa84f2fde70087",
  "args": [
    "0x864AD15351C4a50E12F767B1a7D993aE47493E55",
    "0x5b0aC3279dBf84Bb8DA59Be1EcaB118198f022E5"
  ],
  "solcInputHash": "17d679912e6bdd685f764b940bba4ce0",
  "bytecode": "0x60806040526001805460ff191660021790553480156200001e57600080fd5b5060405162005bf238038062005bf28339810160408190526200004191620001b3565b6200006d7faa1af34341297dfbc4dfe694fa8bb873bcaf9528e24c7336ae6bfc3f79ddeddb8262000082565b6200007a60008362000082565b5050620001ea565b6200008e828262000092565b5050565b600082815260208181526040909120620000b79183906200091d6200010b821b17901c565b156200008e57620000c76200012b565b6001600160a01b0316816001600160a01b0316837f2f8788117e7eff1d82e926ec794901d17c78024a50270940304540a733656f0d60405160405180910390a45050565b600062000122836001600160a01b0384166200012f565b90505b92915050565b3390565b60006200013d83836200017e565b620001755750815460018181018455600084815260208082209093018490558454848252828601909352604090209190915562000125565b50600062000125565b60009081526001919091016020526040902054151590565b80516001600160a01b0381168114620001ae57600080fd5b919050565b60008060408385031215620001c6578182fd5b620001d18362000196565b9150620001e16020840162000196565b90509250929050565b6159f880620001fa6000396000f3fe60806040523480156200001157600080fd5b5060043610620001185760003560e01c8063a217fddf11620000a5578063e70850c2116200006f578063e70850c21462000251578063e9a75151146200025b578063f31306b21462000272578063f6a3d24e146200028b5762000118565b8063a217fddf1462000202578063ca15c873146200020c578063d547741f1462000223578063d85e785d146200023a5762000118565b806354fd4d5011620000e757806354fd4d5014620001935780639010d07c14620001ac57806391d1485414620001d25780639ce3ec3d14620001f85762000118565b8063248a9ca3146200011d5780632f2ff15d146200014c57806336568abe14620001655780634363b012146200017c575b600080fd5b620001346200012e36600462000e74565b620002a2565b60405162000143919062000fc9565b60405180910390f35b620001636200015d36600462000e8d565b620002ba565b005b620001636200017636600462000e8d565b62000342565b620001636200018d36600462000e35565b620003dd565b6200019d620004e3565b6040516200014391906200102f565b620001c3620001bd36600462000ebb565b620004ec565b60405162000143919062000f2f565b620001e9620001e336600462000e8d565b6200050f565b60405162000143919062000fbe565b6200013462000529565b620001346200054d565b620001346200021d36600462000e74565b62000552565b620001636200023436600462000e8d565b6200056b565b620001636200024b36600462000e35565b620005e3565b62000134620006e0565b620001c36200026c36600462000d7c565b620006f3565b6200027c62000859565b60405162000143919062000fa9565b620001e96200029c36600462000d5f565b6200090e565b6000818152602081905260409020600201545b919050565b600082815260208190526040902060020154620002db90620001e362000941565b62000332576040517f08c379a000000000000000000000000000000000000000000000000000000000815260040180806020018281038252602f81526020018062005935602f913960400191505060405180910390fd5b6200033e828262000945565b5050565b6200034c62000941565b73ffffffffffffffffffffffffffffffffffffffff168173ffffffffffffffffffffffffffffffffffffffff1614620003d1576040517f08c379a000000000000000000000000000000000000000000000000000000000815260040180806020018281038252602f81526020018062005994602f913960400191505060405180910390fd5b6200033e8282620009cd565b620004097faa1af34341297dfbc4dfe694fa8bb873bcaf9528e24c7336ae6bfc3f79ddeddb336200050f565b6200044b576040517f08c379a0000000000000000000000000000000000000000000000000000000008152600401620004429062000fd2565b60405180910390fd5b60005b81518110156200033e57620004828282815181106200046957fe5b602002602001015160026200091d90919063ffffffff16565b508181815181106200049057fe5b602002602001015173ffffffffffffffffffffffffffffffffffffffff167f9e69d1ca026e9c4abd5386883d3283629530e9fb7defea1b2942931c07475d7e60405160405180910390a26001016200044e565b60015460ff1681565b600082815260208190526040812062000506908362000a55565b90505b92915050565b600082815260208190526040812062000506908362000a63565b7faa1af34341297dfbc4dfe694fa8bb873bcaf9528e24c7336ae6bfc3f79ddeddb81565b600081565b6000818152602081905260408120620005099062000a87565b6000828152602081905260409020600201546200058c90620001e362000941565b620003d1576040517f08c379a0000000000000000000000000000000000000000000000000000000008152600401808060200182810382526030815260200180620059646030913960400191505060405180910390fd5b6200060f7faa1af34341297dfbc4dfe694fa8bb873bcaf9528e24c7336ae6bfc3f79ddeddb336200050f565b62000648576040517f08c379a0000000000000000000000000000000000000000000000000000000008152600401620004429062000fd2565b60005b81518110156200033e576200067f8282815181106200066657fe5b6020026020010151600262000a9490919063ffffffff16565b508181815181106200068d57fe5b602002602001015173ffffffffffffffffffffffffffffffffffffffff167f53862eaed5a7ee88d1f67ec39296eb98d641bd5d0dbf8cdc77bccf42be146d7960405160405180910390a26001016200064b565b6000620006ee600262000a87565b905090565b6000620007217faa1af34341297dfbc4dfe694fa8bb873bcaf9528e24c7336ae6bfc3f79ddeddb336200050f565b6200075a576040517f08c379a0000000000000000000000000000000000000000000000000000000008152600401620004429062000fd2565b6000600160009054906101000a900460ff168a8a8a8a8a8a8a8a604051620007829062000c8e565b62000796999897969594939291906200103d565b604051809103906000f080158015620007b3573d6000803e3d6000fd5b509150819050620007c66002826200091d565b50600160009054906101000a900460ff1660ff168273ffffffffffffffffffffffffffffffffffffffff167f9a63203234614199a0bc755131a988e0dbed1944eec7ef17037d48f11a0f2bd78c8c8c8c8c8c8c60008d51116200082b5760006200082e565b60015b6040516200084498979695949392919062000f50565b60405180910390a35098975050505050505050565b6060600062000869600262000a87565b905060608167ffffffffffffffff811180156200088557600080fd5b50604051908082528060200260200182016040528015620008b0578160200160208202803683370190505b50905060005b828110156200090757620008cc60028262000a55565b828281518110620008d957fe5b73ffffffffffffffffffffffffffffffffffffffff90921660209283029190910190910152600101620008b6565b5091505090565b60006200050960028362000a63565b6000620005068373ffffffffffffffffffffffffffffffffffffffff841662000ab8565b3390565b60008281526020819052604090206200095f90826200091d565b156200033e576200096f62000941565b73ffffffffffffffffffffffffffffffffffffffff168173ffffffffffffffffffffffffffffffffffffffff16837f2f8788117e7eff1d82e926ec794901d17c78024a50270940304540a733656f0d60405160405180910390a45050565b6000828152602081905260409020620009e7908262000a94565b156200033e57620009f762000941565b73ffffffffffffffffffffffffffffffffffffffff168173ffffffffffffffffffffffffffffffffffffffff16837ff6391f5c32d9c69d2a47ea670b442974b53935d1edc7fd64eb21e047a839171b60405160405180910390a45050565b600062000506838362000b07565b6000620005068373ffffffffffffffffffffffffffffffffffffffff841662000b88565b6000620005098262000ba0565b6000620005068373ffffffffffffffffffffffffffffffffffffffff841662000ba4565b600062000ac6838362000b88565b62000afe5750815460018181018455600084815260208082209093018490558454848252828601909352604090209190915562000509565b50600062000509565b8154600090821062000b65576040517f08c379a0000000000000000000000000000000000000000000000000000000008152600401808060200182810382526022815260200180620059136022913960400191505060405180910390fd5b82600001828154811062000b7557fe5b9060005260206000200154905092915050565b60009081526001919091016020526040902054151590565b5490565b6000818152600183016020526040812054801562000c835783547fffffffffffffffffffffffffffffffffffffffffffffffffffffffffffffffff808301919081019060009087908390811062000bf757fe5b906000526020600020015490508087600001848154811062000c1557fe5b60009182526020808320909101929092558281526001898101909252604090209084019055865487908062000c4657fe5b6001900381819060005260206000200160009055905586600101600087815260200190815260200160002060009055600194505050505062000509565b600091505062000509565b61485980620010ba83390190565b803573ffffffffffffffffffffffffffffffffffffffff81168114620002b557600080fd5b600082601f83011262000cd2578081fd5b813567ffffffffffffffff8082111562000ce857fe5b60208083026040518282820101818110858211171562000d0457fe5b60405284815294508185019250858201818701830188101562000d2657600080fd5b600091505b8482101562000d545762000d3f8162000c9c565b84529282019260019190910190820162000d2b565b505050505092915050565b60006020828403121562000d71578081fd5b620005068262000c9c565b600080600080600080600080610100898b03121562000d99578384fd5b62000da48962000c9c565b975062000db460208a0162000c9c565b965062000dc460408a0162000c9c565b955062000dd460608a0162000c9c565b945062000de460808a0162000c9c565b935062000df460a08a0162000c9c565b925060c0890135915060e089013567ffffffffffffffff81111562000e17578182fd5b62000e258b828c0162000cc1565b9150509295985092959890939650565b60006020828403121562000e47578081fd5b813567ffffffffffffffff81111562000e5e578182fd5b62000e6c8482850162000cc1565b949350505050565b60006020828403121562000e86578081fd5b5035919050565b6000806040838503121562000ea0578182fd5b8235915062000eb26020840162000c9c565b90509250929050565b6000806040838503121562000ece578182fd5b50508035926020909101359150565b6000815180845260208085019450808401835b8381101562000f2457815173ffffffffffffffffffffffffffffffffffffffff168752958201959082019060010162000ef0565b509495945050505050565b73ffffffffffffffffffffffffffffffffffffffff91909116815260200190565b73ffffffffffffffffffffffffffffffffffffffff9889168152968816602088015294871660408701529286166060860152908516608085015290931660a083015260c082019290925290151560e08201526101000190565b60006020825262000506602083018462000edd565b901515815260200190565b90815260200190565b60208082526026908201527f43616c6c6572206d757374206861766520444953504154434845525f41444d4960408201527f4e20726f6c650000000000000000000000000000000000000000000000000000606082015260800190565b60ff91909116815260200190565b600061012060ff8c16835273ffffffffffffffffffffffffffffffffffffffff808c166020850152808b166040850152808a166060850152808916608085015280881660a085015280871660c0850152508460e084015280610100840152620010a98184018562000edd565b9c9b50505050505050505050505056fe60806040523480156200001157600080fd5b50604051620048593803806200485983398101604081905262000034916200032b565b60016000556002805460ff60a01b1916600160a01b60ff8c1602176001600160a01b0319166001600160a01b038a16179055620000816000805160206200483983398151915287620001a6565b620000ab6000805160206200481983398151915260008051602062004839833981519152620001b6565b620000d77f5d8e12c39142ff96d79d04d15d1ba1269e4fe57bb9d26f43523628b34ba108ec86620001a6565b620001037ffacaf2747a7486cf5730e9265973fb54447d3ace6e7e4711f6360826b073194185620001a6565b6200011e600080516020620047f983398151915284620001a6565b62000139600080516020620047f983398151915286620001a6565b62000146600088620001a6565b600382905560005b815181101562000196576200018d600080516020620048198339815191528383815181106200017957fe5b6020026020010151620001a660201b60201c565b6001016200014e565b5050505050505050505062000487565b620001b2828262000208565b5050565b600082815260016020526040808220600201549051839285917fbd79b86ffe0ab8e8776151514217cd7cacd52c909f66475c3af44e129f0b00ff9190a460009182526001602052604090912060020155565b60008281526001602090815260409091206200022f9183906200282062000283821b17901c565b15620001b2576200023f620002a3565b6001600160a01b0316816001600160a01b0316837f2f8788117e7eff1d82e926ec794901d17c78024a50270940304540a733656f0d60405160405180910390a45050565b60006200029a836001600160a01b038416620002a7565b90505b92915050565b3390565b6000620002b58383620002f6565b620002ed575081546001818101845560008481526020808220909301849055845484825282860190935260409020919091556200029d565b5060006200029d565b60009081526001919091016020526040902054151590565b80516001600160a01b03811681146200032657600080fd5b919050565b60008060008060008060008060006101208a8c0312156200034a578485fd5b895160ff811681146200035b578586fd5b98506200036b60208b016200030e565b97506200037b60408b016200030e565b96506200038b60608b016200030e565b95506200039b60808b016200030e565b9450620003ab60a08b016200030e565b9350620003bb60c08b016200030e565b60e08b01516101008c015191945092506001600160401b0380821115620003e0578283fd5b818c0191508c601f830112620003f4578283fd5b8151818111156200040157fe5b604051602080830282010181811084821117156200041b57fe5b8060405250809250818152602081019250602084018f6020808502870101111562000444578586fd5b8594505b8285101562000472576200045c816200030e565b8452600194909401936020938401930162000448565b50809450505050509295985092959850929598565b61436280620004976000396000f3fe60806040526004361061026e5760003560e01c806376e821cf11610153578063c311d049116100cb578063e02023a11161007f578063ec38857611610064578063ec38857614610679578063ecd1878f14610699578063f0a56fc8146106b957610275565b8063e02023a114610644578063e7abbb221461065957610275565b8063cc6febdf116100b0578063cc6febdf146105e4578063d547741f14610604578063d99125ee1461062457610275565b8063c311d049146105a4578063ca15c873146105c457610275565b806391d1485411610122578063a217fddf11610107578063a217fddf14610567578063ac19e8981461057c578063c2d4f8c01461058457610275565b806391d148541461053257806397ff5fb61461055257610275565b806376e821cf146104b057806379f645f0146104c55780639004e5c5146104e55780639010d07c1461050557610275565b806341650279116101e657806366f4deca116101b55780636880608f1161019a5780636880608f1461045b5780636d218e481461047b578063717f8df01461049b57610275565b806366f4deca1461041b57806368285acd1461043b57610275565b806341650279146103a45780634245962b146103c4578063509f1fc1146103d957806354fd4d50146103f957610275565b8063248a9ca31161023d57806336568abe1161022257806336568abe146103375780633dee3601146103575780634039ad0d1461037757610275565b8063248a9ca3146102f75780632f2ff15d1461031757610275565b80630b65092d14610277578063148e250d146102ad57806315770f92146102c257806318916513146102d757610275565b3661027557005b005b34801561028357600080fd5b50610297610292366004613784565b6106ce565b6040516102a49190613d97565b60405180910390f35b3480156102b957600080fd5b506102976106e0565b3480156102ce57600080fd5b506102976106e6565b3480156102e357600080fd5b506102756102f236600461379e565b6106ec565b34801561030357600080fd5b506102976103123660046138d0565b610922565b34801561032357600080fd5b506102756103323660046138e8565b61093a565b34801561034357600080fd5b506102756103523660046138e8565b6109a1565b34801561036357600080fd5b506102756103723660046138d0565b610a1c565b34801561038357600080fd5b50610397610392366004613784565b610b94565b6040516102a49190613d8c565b3480156103b057600080fd5b506102756103bf366004613c48565b610bc6565b3480156103d057600080fd5b50610297610d5f565b3480156103e557600080fd5b506102756103f4366004613cd7565b610d83565b34801561040557600080fd5b5061040e610fcc565b6040516102a49190614158565b34801561042757600080fd5b50610275610436366004613813565b610fed565b34801561044757600080fd5b506102756104563660046138d0565b611157565b34801561046757600080fd5b506102756104763660046139ff565b6111f4565b34801561048757600080fd5b50610397610496366004613784565b611632565b3480156104a757600080fd5b5061029761165e565b3480156104bc57600080fd5b50610297611682565b3480156104d157600080fd5b506102756104e036600461385f565b6116a6565b3480156104f157600080fd5b50610397610500366004613784565b611829565b34801561051157600080fd5b5061052561052036600461390a565b611855565b6040516102a49190613d44565b34801561053e57600080fd5b5061039761054d3660046138e8565b611874565b34801561055e57600080fd5b5061052561188c565b34801561057357600080fd5b506102976118a8565b6102756118ad565b34801561059057600080fd5b5061039761059f366004613784565b6119cc565b3480156105b057600080fd5b506102756105bf3660046138d0565b6119f8565b3480156105d057600080fd5b506102976105df3660046138d0565b611b12565b3480156105f057600080fd5b506102756105ff36600461399e565b611b29565b34801561061057600080fd5b5061027561061f3660046138e8565b611bd5565b34801561063057600080fd5b5061027561063f366004613b7c565b611c2e565b34801561065057600080fd5b50610297612123565b34801561066557600080fd5b50610275610674366004613c8b565b612147565b34801561068557600080fd5b50610275610694366004613ab9565b612338565b3480156106a557600080fd5b506103976106b4366004613784565b6127d0565b3480156106c557600080fd5b506102976127fc565b60056020526000908152604090205481565b60035481565b60045481565b6107167f5d8e12c39142ff96d79d04d15d1ba1269e4fe57bb9d26f43523628b34ba108ec33611874565b61073b5760405162461bcd60e51b815260040161073290613f54565b60405180910390fd5b60005b8281101561091c57600084848381811061075457fe5b90506020020160208101906107699190613784565b90506000808273ffffffffffffffffffffffffffffffffffffffff166370a08231306040518263ffffffff1660e01b81526004016107a79190613d44565b60206040518083038186803b1580156107bf57600080fd5b505afa1580156107d3573d6000803e3d6000fd5b505050506040513d601f19601f820116820180604052508101906107f79190613d29565b905060008373ffffffffffffffffffffffffffffffffffffffff1663dd62ed3e30336040518363ffffffff1660e01b8152600401610836929190613d65565b60206040518083038186803b15801561084e57600080fd5b505afa158015610862573d6000803e3d6000fd5b505050506040513d601f19601f820116820180604052508101906108869190613d29565b9050856108a6578082111561089d578092506108a1565b8192505b6108ea565b858210156108c65760405162461bcd60e51b81526004016107329061401f565b858110156108e65760405162461bcd60e51b815260040161073290613f1d565b8592505b61090c73ffffffffffffffffffffffffffffffffffffffff8516303386612842565b50506001909201915061073e9050565b50505050565b6000818152600160205260409020600201545b919050565b6000828152600160205260409020600201546109589061054d6128d7565b6109935760405162461bcd60e51b815260040180806020018281038252602f815260200180614219602f913960400191505060405180910390fd5b61099d82826128db565b5050565b6109a96128d7565b73ffffffffffffffffffffffffffffffffffffffff168173ffffffffffffffffffffffffffffffffffffffff1614610a125760405162461bcd60e51b815260040180806020018281038252602f8152602001806142fe602f913960400191505060405180910390fd5b61099d828261295e565b33600090815260056020526040902054811115610a4b5760405162461bcd60e51b8152600401610732906140c4565b600454600090610a5b90836129e1565b1015610a795760405162461bcd60e51b81526004016107329061408d565b6000610a8547836129e1565b1015610aa35760405162461bcd60e51b815260040161073290614121565b33600090815260056020526040902054610abd90826129e1565b33600090815260056020526040902055600454610ada90826129e1565b60045560405160009033908390610af090613d41565b60006040518083038185875af1925050503d8060008114610b2d576040519150601f19603f3d011682016040523d82523d6000602084013e610b32565b606091505b5050905080610b535760405162461bcd60e51b815260040161073290613f8b565b60405133906000907f983e86fda8e7b1e2eae380201830eaf1cac55772e8e39583da349865e817886390610b88908690613d97565b60405180910390a35050565b6000610bc07ffacaf2747a7486cf5730e9265973fb54447d3ace6e7e4711f6360826b073194183611874565b92915050565b610bf07ffacaf2747a7486cf5730e9265973fb54447d3ace6e7e4711f6360826b073194133611874565b610c41576040805162461bcd60e51b815260206004820152601c60248201527f547261646572206d75737420686176652054524144455220726f6c6500000000604482015290519081900360640190fd5b60026000541415610c99576040805162461bcd60e51b815260206004820152601f60248201527f5265656e7472616e637947756172643a207265656e7472616e742063616c6c00604482015290519081900360640190fd5b6002600055804781811015610cf5576040805162461bcd60e51b815260206004820152601a60248201527f4e6f7420656e6f7567682045544820696e20636f6e7472616374000000000000604482015290519081900360640190fd5b610cff8484612a23565b80471015610d54576040805162461bcd60e51b815260206004820152600b60248201527f6d697373696e6720455448000000000000000000000000000000000000000000604482015290519081900360640190fd5b505060016000555050565b7f408a36151f841709116a4e8aca4e0202874f7f54687dcb863b1ea4672dc9d8cf81565b610dad7ffacaf2747a7486cf5730e9265973fb54447d3ace6e7e4711f6360826b073194133611874565b610dfe576040805162461bcd60e51b815260206004820152601c60248201527f547261646572206d75737420686176652054524144455220726f6c6500000000604482015290519081900360640190fd5b60026000541415610e56576040805162461bcd60e51b815260206004820152601f60248201527f5265656e7472616e637947756172643a207265656e7472616e742063616c6c00604482015290519081900360640190fd5b6002600055818142811015610eb2576040805162461bcd60e51b815260206004820152600e60248201527f747261646520746f6f206c617465000000000000000000000000000000000000604482015290519081900360640190fd5b42821115610f07576040805162461bcd60e51b815260206004820152600f60248201527f747261646520746f6f206561726c790000000000000000000000000000000000604482015290519081900360640190fd5b844781811015610f5e576040805162461bcd60e51b815260206004820152601a60248201527f4e6f7420656e6f7567682045544820696e20636f6e7472616374000000000000604482015290519081900360640190fd5b610f688888612a23565b80471015610fbd576040805162461bcd60e51b815260206004820152600b60248201527f6d697373696e6720455448000000000000000000000000000000000000000000604482015290519081900360640190fd5b50506001600055505050505050565b60025474010000000000000000000000000000000000000000900460ff1681565b6110177f408a36151f841709116a4e8aca4e0202874f7f54687dcb863b1ea4672dc9d8cf33611874565b6110335760405162461bcd60e51b815260040161073290614056565b60005b825181101561115257600083828151811061104d57fe5b602002602001015190507fffffffffffffffffffffffffffffffffffffffffffffffffffffffffffffffff8173ffffffffffffffffffffffffffffffffffffffff1663dd62ed3e30866040518363ffffffff1660e01b81526004016110b3929190613d65565b60206040518083038186803b1580156110cb57600080fd5b505afa1580156110df573d6000803e3d6000fd5b505050506040513d601f19601f820116820180604052508101906111039190613d29565b146111495761114973ffffffffffffffffffffffffffffffffffffffff8216847fffffffffffffffffffffffffffffffffffffffffffffffffffffffffffffffff612a92565b50600101611036565b505050565b6111817fa381348eb3fe7f232f3078689dd9188d0bc370b23350159f64231117527caec733611874565b61119d5760405162461bcd60e51b815260040161073290613e78565b80600073ffffffffffffffffffffffffffffffffffffffff167fb2c6cf9c77391977298388e9125711ceb6bd1ddc9e8a8da1d2af054316cbc8536003546040516111e79190613d97565b60405180910390a3600355565b61121e7ffacaf2747a7486cf5730e9265973fb54447d3ace6e7e4711f6360826b073194133611874565b61126f576040805162461bcd60e51b815260206004820152601c60248201527f547261646572206d75737420686176652054524144455220726f6c6500000000604482015290519081900360640190fd5b600260005414156112c7576040805162461bcd60e51b815260206004820152601f60248201527f5265656e7472616e637947756172643a207265656e7472616e742063616c6c00604482015290519081900360640190fd5b6002600055804781811015611323576040805162461bcd60e51b815260206004820152601a60248201527f4e6f7420656e6f7567682045544820696e20636f6e7472616374000000000000604482015290519081900360640190fd5b600254604080517fa363a0f3000000000000000000000000000000000000000000000000000000008152600481019182528a5160448201528a5160609373ffffffffffffffffffffffffffffffffffffffff169263a363a0f3928d928d92918291602482019160640190602087019080838360005b838110156113b0578181015183820152602001611398565b50505050905090810190601f1680156113dd5780820380516001836020036101000a031916815260200191505b508381038252845181528451602091820191808701910280838360005b838110156114125781810151838201526020016113fa565b5050505090500194505050505060006040518083038186803b15801561143757600080fd5b505afa15801561144b573d6000803e3d6000fd5b505050506040513d6000823e601f3d908101601f19168201604052602081101561147457600080fd5b810190808051604051939291908464010000000082111561149457600080fd5b9083019060208201858111156114a957600080fd5b82516401000000008111828201881017156114c357600080fd5b82525081516020918201929091019080838360005b838110156114f05781810151838201526020016114d8565b50505050905090810190601f16801561151d5780820380516001836020036101000a031916815260200191505b5060405250505090508461153e602083510383612c0690919063ffffffff16565b1015611591576040805162461bcd60e51b815260206004820152600e60248201527f4e6f742070726f66697461626c65000000000000000000000000000000000000604482015290519081900360640190fd5b60005b86518110156115d1576115c9886115b084602080860290612c6a565b8984815181106115bc57fe5b6020026020010151612d32565b600101611594565b506115dc8785612a23565b5080471015610fbd576040805162461bcd60e51b815260206004820152600b60248201527f6d697373696e6720455448000000000000000000000000000000000000000000604482015290519081900360640190fd5b6000610bc07f408a36151f841709116a4e8aca4e0202874f7f54687dcb863b1ea4672dc9d8cf83611874565b7fa381348eb3fe7f232f3078689dd9188d0bc370b23350159f64231117527caec781565b7fea728681f55b7658af02b019305006d1b2faefced46ff12facedd896da3c3dc681565b6116d07f408a36151f841709116a4e8aca4e0202874f7f54687dcb863b1ea4672dc9d8cf33611874565b6116ec5760405162461bcd60e51b815260040161073290614056565b815183511461170d5760405162461bcd60e51b815260040161073290613eaf565b60005b835181101561091c57600084828151811061172757fe5b602002602001015190507fffffffffffffffffffffffffffffffffffffffffffffffffffffffffffffffff8173ffffffffffffffffffffffffffffffffffffffff1663dd62ed3e30866040518363ffffffff1660e01b815260040161178d929190613d65565b60206040518083038186803b1580156117a557600080fd5b505afa1580156117b9573d6000803e3d6000fd5b505050506040513d601f19601f820116820180604052508101906117dd9190613d29565b1461182057611820838584815181106117f257fe5b60200260200101518373ffffffffffffffffffffffffffffffffffffffff16612a929092919063ffffffff16565b50600101611710565b6000610bc07f5d8e12c39142ff96d79d04d15d1ba1269e4fe57bb9d26f43523628b34ba108ec83611874565b600082815260016020526040812061186d9083612d3e565b9392505050565b600082815260016020526040812061186d9083612d4a565b60025473ffffffffffffffffffffffffffffffffffffffff1681565b600081565b60006118d87fea728681f55b7658af02b019305006d1b2faefced46ff12facedd896da3c3dc6611b12565b1115611924576119087fea728681f55b7658af02b019305006d1b2faefced46ff12facedd896da3c3dc633611874565b6119245760405162461bcd60e51b815260040161073290613e1b565b6003546004546119349034612d6c565b11156119525760405162461bcd60e51b815260040161073290613ee6565b60045461195f9034612d6c565b6004553360009081526005602052604090205461197c9034612d6c565b336000818152600560205260408082209390935591519091907f05e7be2689d5d20fd06bc749aa0d767080c4216945cacf5249f739d5a561d48f906119c2903490613d97565b60405180910390a3565b6000610bc07fea728681f55b7658af02b019305006d1b2faefced46ff12facedd896da3c3dc683611874565b611a227f5d8e12c39142ff96d79d04d15d1ba1269e4fe57bb9d26f43523628b34ba108ec33611874565b611a3e5760405162461bcd60e51b815260040161073290613f54565b600080611a56600454476129e190919063ffffffff16565b905082611a6557809150611a89565b82811015611a855760405162461bcd60e51b815260040161073290613fc2565b8291505b60003373ffffffffffffffffffffffffffffffffffffffff1683604051611aaf90613d41565b60006040518083038185875af1925050503d8060008114611aec576040519150601f19603f3d011682016040523d82523d6000602084013e611af1565b606091505b505090508061091c5760405162461bcd60e51b815260040161073290613f8b565b6000818152600160205260408120610bc090612dc6565b6002546040517fa363a0f300000000000000000000000000000000000000000000000000000000815273ffffffffffffffffffffffffffffffffffffffff9091169063a363a0f390611b819085908590600401613da0565b60006040518083038186803b158015611b9957600080fd5b505afa158015611bad573d6000803e3d6000fd5b505050506040513d6000823e601f3d908101601f19168201604052611152919081019061392b565b600082815260016020526040902060020154611bf39061054d6128d7565b610a125760405162461bcd60e51b815260040180806020018281038252603081526020018061426e6030913960400191505060405180910390fd5b611c587ffacaf2747a7486cf5730e9265973fb54447d3ace6e7e4711f6360826b073194133611874565b611ca9576040805162461bcd60e51b815260206004820152601c60248201527f547261646572206d75737420686176652054524144455220726f6c6500000000604482015290519081900360640190fd5b60026000541415611d01576040805162461bcd60e51b815260206004820152601f60248201527f5265656e7472616e637947756172643a207265656e7472616e742063616c6c00604482015290519081900360640190fd5b6002600055818142811015611d5d576040805162461bcd60e51b815260206004820152600e60248201527f747261646520746f6f206c617465000000000000000000000000000000000000604482015290519081900360640190fd5b42821115611db2576040805162461bcd60e51b815260206004820152600f60248201527f747261646520746f6f206561726c790000000000000000000000000000000000604482015290519081900360640190fd5b844781811015611e09576040805162461bcd60e51b815260206004820152601a60248201527f4e6f7420656e6f7567682045544820696e20636f6e7472616374000000000000604482015290519081900360640190fd5b6060600260009054906101000a900473ffffffffffffffffffffffffffffffffffffffff1673ffffffffffffffffffffffffffffffffffffffff1663a363a0f38e8e6040518363ffffffff1660e01b8152600401808060200180602001838103835285818151815260200191508051906020019080838360005b83811015611e9b578181015183820152602001611e83565b50505050905090810190601f168015611ec85780820380516001836020036101000a031916815260200191505b508381038252845181528451602091820191808701910280838360005b83811015611efd578181015183820152602001611ee5565b5050505090500194505050505060006040518083038186803b158015611f2257600080fd5b505afa158015611f36573d6000803e3d6000fd5b505050506040513d6000823e601f3d908101601f191682016040526020811015611f5f57600080fd5b8101908080516040519392919084640100000000821115611f7f57600080fd5b908301906020820185811115611f9457600080fd5b8251640100000000811182820188101715611fae57600080fd5b82525081516020918201929091019080838360005b83811015611fdb578181015183820152602001611fc3565b50505050905090810190601f1680156120085780820380516001836020036101000a031916815260200191505b50604052505050905088612029602083510383612c0690919063ffffffff16565b101561207c576040805162461bcd60e51b815260206004820152600e60248201527f4e6f742070726f66697461626c65000000000000000000000000000000000000604482015290519081900360640190fd5b60005b8a518110156120af576120a78c61209b84602080860290612c6a565b8d84815181106115bc57fe5b60010161207f565b506120ba8b89612a23565b5080471015612110576040805162461bcd60e51b815260206004820152600b60248201527f6d697373696e6720455448000000000000000000000000000000000000000000604482015290519081900360640190fd5b5050600160005550505050505050505050565b7f5d8e12c39142ff96d79d04d15d1ba1269e4fe57bb9d26f43523628b34ba108ec81565b6121717ffacaf2747a7486cf5730e9265973fb54447d3ace6e7e4711f6360826b073194133611874565b6121c2576040805162461bcd60e51b815260206004820152601c60248201527f547261646572206d75737420686176652054524144455220726f6c6500000000604482015290519081900360640190fd5b6002600054141561221a576040805162461bcd60e51b815260206004820152601f60248201527f5265656e7472616e637947756172643a207265656e7472616e742063616c6c00604482015290519081900360640190fd5b60026000558043811015612275576040805162461bcd60e51b815260206004820152600d60248201527f7472616465206578706972656400000000000000000000000000000000000000604482015290519081900360640190fd5b8247818110156122cc576040805162461bcd60e51b815260206004820152601a60248201527f4e6f7420656e6f7567682045544820696e20636f6e7472616374000000000000604482015290519081900360640190fd5b6122d68686612a23565b8047101561232b576040805162461bcd60e51b815260206004820152600b60248201527f6d697373696e6720455448000000000000000000000000000000000000000000604482015290519081900360640190fd5b5050600160005550505050565b6123627ffacaf2747a7486cf5730e9265973fb54447d3ace6e7e4711f6360826b073194133611874565b6123b3576040805162461bcd60e51b815260206004820152601c60248201527f547261646572206d75737420686176652054524144455220726f6c6500000000604482015290519081900360640190fd5b6002600054141561240b576040805162461bcd60e51b815260206004820152601f60248201527f5265656e7472616e637947756172643a207265656e7472616e742063616c6c00604482015290519081900360640190fd5b60026000558043811015612466576040805162461bcd60e51b815260206004820152600d60248201527f7472616465206578706972656400000000000000000000000000000000000000604482015290519081900360640190fd5b8247818110156124bd576040805162461bcd60e51b815260206004820152601a60248201527f4e6f7420656e6f7567682045544820696e20636f6e7472616374000000000000604482015290519081900360640190fd5b600254604080517fa363a0f3000000000000000000000000000000000000000000000000000000008152600481019182528c5160448201528c5160609373ffffffffffffffffffffffffffffffffffffffff169263a363a0f3928f928f92918291602482019160640190602087019080838360005b8381101561254a578181015183820152602001612532565b50505050905090810190601f1680156125775780820380516001836020036101000a031916815260200191505b508381038252845181528451602091820191808701910280838360005b838110156125ac578181015183820152602001612594565b5050505090500194505050505060006040518083038186803b1580156125d157600080fd5b505afa1580156125e5573d6000803e3d6000fd5b505050506040513d6000823e601f3d908101601f19168201604052602081101561260e57600080fd5b810190808051604051939291908464010000000082111561262e57600080fd5b90830190602082018581111561264357600080fd5b825164010000000081118282018810171561265d57600080fd5b82525081516020918201929091019080838360005b8381101561268a578181015183820152602001612672565b50505050905090810190601f1680156126b75780820380516001836020036101000a031916815260200191505b506040525050509050866126d8602083510383612c0690919063ffffffff16565b101561272b576040805162461bcd60e51b815260206004820152600e60248201527f4e6f742070726f66697461626c65000000000000000000000000000000000000604482015290519081900360640190fd5b60005b885181101561275e576127568a61274a84602080860290612c6a565b8b84815181106115bc57fe5b60010161272e565b506127698987612a23565b50804710156127bf576040805162461bcd60e51b815260206004820152600b60248201527f6d697373696e6720455448000000000000000000000000000000000000000000604482015290519081900360640190fd5b505060016000555050505050505050565b6000610bc07fa381348eb3fe7f232f3078689dd9188d0bc370b23350159f64231117527caec783611874565b7ffacaf2747a7486cf5730e9265973fb54447d3ace6e7e4711f6360826b073194181565b600061186d8373ffffffffffffffffffffffffffffffffffffffff8416612dd1565b6040805173ffffffffffffffffffffffffffffffffffffffff80861660248301528416604482015260648082018490528251808303909101815260849091019091526020810180517bffffffffffffffffffffffffffffffffffffffffffffffffffffffff167f23b872dd0000000000000000000000000000000000000000000000000000000017905261091c908590612e1b565b3390565b60008281526001602052604090206128f39082612820565b1561099d576129006128d7565b73ffffffffffffffffffffffffffffffffffffffff168173ffffffffffffffffffffffffffffffffffffffff16837f2f8788117e7eff1d82e926ec794901d17c78024a50270940304540a733656f0d60405160405180910390a45050565b60008281526001602052604090206129769082612ed9565b1561099d576129836128d7565b73ffffffffffffffffffffffffffffffffffffffff168173ffffffffffffffffffffffffffffffffffffffff16837ff6391f5c32d9c69d2a47ea670b442974b53935d1edc7fd64eb21e047a839171b60405160405180910390a45050565b600061186d83836040518060400160405280601f81526020017f536166654d6174683a207375627472616374696f6e20756e646572666c6f7700815250612efb565b60005b8251811015611152576000612a3b8483612f92565b90506000612a4c8584601401612fda565b9050603483016060612a5f878385612c6a565b905084612a7657612a71848288612fe2565b612a82565b612a8284826000612fe2565b5050919091016034019050612a26565b801580612b3e5750604080517fdd62ed3e00000000000000000000000000000000000000000000000000000000815230600482015273ffffffffffffffffffffffffffffffffffffffff848116602483015291519185169163dd62ed3e91604480820192602092909190829003018186803b158015612b1057600080fd5b505afa158015612b24573d6000803e3d6000fd5b505050506040513d6020811015612b3a57600080fd5b5051155b612b795760405162461bcd60e51b81526004018080602001828103825260368152602001806142c86036913960400191505060405180910390fd5b6040805173ffffffffffffffffffffffffffffffffffffffff8416602482015260448082018490528251808303909101815260649091019091526020810180517bffffffffffffffffffffffffffffffffffffffffffffffffffffffff167f095ea7b300000000000000000000000000000000000000000000000000000000179052611152908490612e1b565b60008160200183511015612c61576040805162461bcd60e51b815260206004820152601260248201527f52656164206f7574206f6620626f756e64730000000000000000000000000000604482015290519081900360640190fd5b50016020015190565b606081830184511015612cc4576040805162461bcd60e51b815260206004820152601260248201527f52656164206f7574206f6620626f756e64730000000000000000000000000000604482015290519081900360640190fd5b606082158015612cdf57604051915060208201604052612d29565b6040519150601f8416801560200281840101858101878315602002848b0101015b81831015612d18578051835260209283019201612d00565b5050858452601f01601f1916604052505b50949350505050565b60209182015192010152565b600061186d83836131bf565b600061186d8373ffffffffffffffffffffffffffffffffffffffff8416613223565b60008282018381101561186d576040805162461bcd60e51b815260206004820152601b60248201527f536166654d6174683a206164646974696f6e206f766572666c6f770000000000604482015290519081900360640190fd5b6000610bc08261323b565b6000612ddd8383613223565b612e1357508154600181810184556000848152602080822090930184905584548482528286019093526040902091909155610bc0565b506000610bc0565b6060612e7d826040518060400160405280602081526020017f5361666545524332303a206c6f772d6c6576656c2063616c6c206661696c65648152508573ffffffffffffffffffffffffffffffffffffffff1661323f9092919063ffffffff16565b80519091501561115257808060200190516020811015612e9c57600080fd5b50516111525760405162461bcd60e51b815260040180806020018281038252602a81526020018061429e602a913960400191505060405180910390fd5b600061186d8373ffffffffffffffffffffffffffffffffffffffff8416613256565b60008184841115612f8a5760405162461bcd60e51b81526004018080602001828103825283818151815260200191508051906020019080838360005b83811015612f4f578181015183820152602001612f37565b50505050905090810190601f168015612f7c5780820380516001836020036101000a031916815260200191505b509250505060405180910390fd5b505050900390565b600080612f9f8484612fda565b6c010000000000000000000000007fffffffffffffffffffffffffffffffffffffffff00000000000000000000000090911604949350505050565b016020015190565b600060608483156130a7578073ffffffffffffffffffffffffffffffffffffffff1684866040518082805190602001908083835b602083106130355780518252601f199092019160209182019101613016565b6001836020036101000a03801982511681845116808217855250505050505090500191505060006040518083038185875af1925050503d8060008114613097576040519150601f19603f3d011682016040523d82523d6000602084013e61309c565b606091505b50909350915061315c565b8073ffffffffffffffffffffffffffffffffffffffff16856040518082805190602001908083835b602083106130ee5780518252601f1990920191602091820191016130cf565b6001836020036101000a0380198251168184511680821785525050505050509050019150506000604051808303816000865af19150503d8060008114613150576040519150601f19603f3d011682016040523d82523d6000602084013e613155565b606091505b5090935091505b826131b757606061316c8361333a565b90508060405162461bcd60e51b815260040180806020018281038252838181518152602001915080519060200190808383600083811015612f4f578181015183820152602001612f37565b505050505050565b815460009082106132015760405162461bcd60e51b81526004018080602001828103825260228152602001806141f76022913960400191505060405180910390fd5b82600001828154811061321057fe5b9060005260206000200154905092915050565b60009081526001919091016020526040902054151590565b5490565b606061324e848460008561346a565b949350505050565b600081815260018301602052604081205480156133305783547fffffffffffffffffffffffffffffffffffffffffffffffffffffffffffffffff80830191908101906000908790839081106132a757fe5b90600052602060002001549050808760000184815481106132c457fe5b6000918252602080832090910192909255828152600189810190925260409020908401905586548790806132f457fe5b60019003818190600052602060002001600090559055866001016000878152602001908152602001600020600090556001945050505050610bc0565b6000915050610bc0565b6060604482511015613380575060408051808201909152601e81527f43616c6c206661696c656420666f7220756e6b6e6f776e20726561736f6e00006020820152610935565b606061339b60048085510385612c6a9092919063ffffffff16565b90508080602001905160208110156133b257600080fd5b81019080805160405193929190846401000000008211156133d257600080fd5b9083019060208201858111156133e757600080fd5b825164010000000081118282018810171561340157600080fd5b82525081516020918201929091019080838360005b8381101561342e578181015183820152602001613416565b50505050905090810190601f16801561345b5780820380516001836020036101000a031916815260200191505b50604052505050915050919050565b6060824710156134ab5760405162461bcd60e51b81526004018080602001828103825260268152602001806142486026913960400191505060405180910390fd5b6134b4856135d3565b613505576040805162461bcd60e51b815260206004820152601d60248201527f416464726573733a2063616c6c20746f206e6f6e2d636f6e7472616374000000604482015290519081900360640190fd5b600060608673ffffffffffffffffffffffffffffffffffffffff1685876040518082805190602001908083835b602083106135515780518252601f199092019160209182019101613532565b6001836020036101000a03801982511681845116808217855250505050505090500191505060006040518083038185875af1925050503d80600081146135b3576040519150601f19603f3d011682016040523d82523d6000602084013e6135b8565b606091505b50915091506135c88282866135d9565b979650505050505050565b3b151590565b606083156135e857508161186d565b8251156135f85782518084602001fd5b60405162461bcd60e51b8152602060048201818152845160248401528451859391928392604401919085019080838360008315612f4f578181015183820152602001612f37565b803573ffffffffffffffffffffffffffffffffffffffff8116811461093557600080fd5b600082601f830112613673578081fd5b81356136866136818261418a565b614166565b8181529150602080830190848101818402860182018710156136a757600080fd5b60005b848110156136cd576136bb8261363f565b845292820192908201906001016136aa565b505050505092915050565b600082601f8301126136e8578081fd5b81356136f66136818261418a565b81815291506020808301908481018184028601820187101561371757600080fd5b60005b848110156136cd5781358452928201929082019060010161371a565b600082601f830112613746578081fd5b8135613754613681826141a8565b915080825283602082850101111561376b57600080fd5b8060208401602084013760009082016020015292915050565b600060208284031215613795578081fd5b61186d8261363f565b6000806000604084860312156137b2578182fd5b833567ffffffffffffffff808211156137c9578384fd5b818601915086601f8301126137dc578384fd5b8135818111156137ea578485fd5b87602080830285010111156137fd578485fd5b6020928301989097509590910135949350505050565b60008060408385031215613825578182fd5b823567ffffffffffffffff81111561383b578283fd5b61384785828601613663565b9250506138566020840161363f565b90509250929050565b600080600060608486031215613873578283fd5b833567ffffffffffffffff8082111561388a578485fd5b61389687838801613663565b945060208601359150808211156138ab578384fd5b506138b8868287016136d8565b9250506138c76040850161363f565b90509250925092565b6000602082840312156138e1578081fd5b5035919050565b600080604083850312156138fa578182fd5b823591506138566020840161363f565b6000806040838503121561391c578182fd5b50508035926020909101359150565b60006020828403121561393c578081fd5b815167ffffffffffffffff811115613952578182fd5b8201601f81018413613962578182fd5b8051613970613681826141a8565b818152856020838501011115613984578384fd5b6139958260208301602086016141ca565b95945050505050565b600080604083850312156139b0578182fd5b823567ffffffffffffffff808211156139c7578384fd5b6139d386838701613736565b935060208501359150808211156139e8578283fd5b506139f5858286016136d8565b9150509250929050565b60008060008060008060c08789031215613a17578182fd5b863567ffffffffffffffff80821115613a2e578384fd5b613a3a8a838b01613736565b97506020890135915080821115613a4f578384fd5b613a5b8a838b016136d8565b96506040890135915080821115613a70578384fd5b613a7c8a838b01613736565b95506060890135915080821115613a91578384fd5b50613a9e89828a016136d8565b9350506080870135915060a087013590509295509295509295565b600080600080600080600060e0888a031215613ad3578081fd5b873567ffffffffffffffff80821115613aea578283fd5b613af68b838c01613736565b985060208a0135915080821115613b0b578283fd5b613b178b838c016136d8565b975060408a0135915080821115613b2c578283fd5b613b388b838c01613736565b965060608a0135915080821115613b4d578283fd5b50613b5a8a828b016136d8565b979a969950949760808101359660a0820135965060c090910135945092505050565b600080600080600080600080610100898b031215613b98578182fd5b883567ffffffffffffffff80821115613baf578384fd5b613bbb8c838d01613736565b995060208b0135915080821115613bd0578384fd5b613bdc8c838d016136d8565b985060408b0135915080821115613bf1578384fd5b613bfd8c838d01613736565b975060608b0135915080821115613c12578384fd5b50613c1f8b828c016136d8565b989b979a50959860808101359760a0820135975060c0820135965060e090910135945092505050565b60008060408385031215613c5a578182fd5b823567ffffffffffffffff811115613c70578283fd5b613c7c85828601613736565b95602094909401359450505050565b600080600060608486031215613c9f578081fd5b833567ffffffffffffffff811115613cb5578182fd5b613cc186828701613736565b9660208601359650604090950135949350505050565b60008060008060808587031215613cec578182fd5b843567ffffffffffffffff811115613d02578283fd5b613d0e87828801613736565b97602087013597506040870135966060013595509350505050565b600060208284031215613d3a578081fd5b5051919050565b90565b73ffffffffffffffffffffffffffffffffffffffff91909116815260200190565b73ffffffffffffffffffffffffffffffffffffffff92831681529116602082015260400190565b901515815260200190565b90815260200190565b60006040825283518060408401526020613dc082606086018389016141ca565b601f19601f83011684019150606082016060858403018286015280865180835260808501915083880194508592505b80831015613e0f5784518252938301936001929092019190830190613def565b50979650505050505050565b60208082526024908201527f43616c6c6572206d75737420686176652057484954454c49535445445f4c502060408201527f726f6c6500000000000000000000000000000000000000000000000000000000606082015260800190565b6020808252601f908201527f43616c6c6572206d7573742068617665204d414e4147455f4c5020726f6c6500604082015260600190565b6020808252600f908201527f6e6f742073616d65206c656e6774680000000000000000000000000000000000604082015260600190565b6020808252601c908201527f616d6f756e742065786365656473206d6178206c697175696469747900000000604082015260600190565b60208082526018908201527f496e63726561736520746f6b656e20616c6c6f77616e63650000000000000000604082015260600190565b6020808252601e908201527f43616c6c6572206d757374206861766520574954484452415720726f6c650000604082015260600190565b60208082526016908201527f436f756c64206e6f742077697468647261772045544800000000000000000000604082015260600190565b60208082526023908201527f616d6f756e74206578636565647320776974686472617761626c652062616c6160408201527f6e63650000000000000000000000000000000000000000000000000000000000606082015260800190565b60208082526018908201527f436f6e74726163742062616c616e636520746f6f206c6f770000000000000000604082015260600190565b6020808252601e908201527f43616c6c6572206d757374206861766520415050524f56455220726f6c650000604082015260600190565b6020808252601e908201527f616d6f756e74206578636565647320746f74616c206c69717569646974790000604082015260600190565b60208082526021908201527f616d6f756e742065786365656473206c69717569646974792070726f7669646560408201527f6400000000000000000000000000000000000000000000000000000000000000606082015260800190565b6020808252601f908201527f616d6f756e74206578636565647320636f6e74726163742062616c616e636500604082015260600190565b60ff91909116815260200190565b60405181810167ffffffffffffffff8111828210171561418257fe5b604052919050565b600067ffffffffffffffff82111561419e57fe5b5060209081020190565b600067ffffffffffffffff8211156141bc57fe5b50601f01601f191660200190565b60005b838110156141e55781810151838201526020016141cd565b8381111561091c575050600091015256fe456e756d657261626c655365743a20696e646578206f7574206f6620626f756e6473416363657373436f6e74726f6c3a2073656e646572206d75737420626520616e2061646d696e20746f206772616e74416464726573733a20696e73756666696369656e742062616c616e636520666f722063616c6c416363657373436f6e74726f6c3a2073656e646572206d75737420626520616e2061646d696e20746f207265766f6b655361666545524332303a204552433230206f7065726174696f6e20646964206e6f7420737563636565645361666545524332303a20617070726f76652066726f6d206e6f6e2d7a65726f20746f206e6f6e2d7a65726f20616c6c6f77616e6365416363657373436f6e74726f6c3a2063616e206f6e6c792072656e6f756e636520726f6c657320666f722073656c66a2646970667358221220a1144a623c7ae673a1ba5231deafc9f7f1cbaa52df7b85ab835377bcd3f4d29d64736f6c63430007040033408a36151f841709116a4e8aca4e0202874f7f54687dcb863b1ea4672dc9d8cfea728681f55b7658af02b019305006d1b2faefced46ff12facedd896da3c3dc6a381348eb3fe7f232f3078689dd9188d0bc370b23350159f64231117527caec7456e756d657261626c655365743a20696e646578206f7574206f6620626f756e6473416363657373436f6e74726f6c3a2073656e646572206d75737420626520616e2061646d696e20746f206772616e74416363657373436f6e74726f6c3a2073656e646572206d75737420626520616e2061646d696e20746f207265766f6b65416363657373436f6e74726f6c3a2063616e206f6e6c792072656e6f756e636520726f6c657320666f722073656c66a26469706673582212204f5fb2258dd63287262dbf3b85c1a555b326efe9d25c9734f8d7b578523d511b64736f6c63430007040033",
  "devdoc": {
    "details": "Creates and keeps track of Dispatchers on the network",
    "kind": "dev",
    "methods": {
      "addDispatchers(address[])": {
        "params": {
          "dispatcherContracts": "Array of dispatcher contract addresses"
        }
      },
      "constructor": {
        "params": {
          "_dispatcherAdmin": "admin that can create new Dispatchers",
          "_roleAdmin": "admin in control of roles"
        }
      },
      "createNewDispatcher(address,address,address,address,address,address,uint256,address[])": {
        "params": {
          "initialMaxLiquidity": "Initial max liquidity allowed in contract",
          "lpManager": "Address allowed to manage LP whitelist",
          "lpWhitelist": "List of addresses that are allowed to provide liquidity to this contract",
          "queryEngine": "Address of query engine contract",
          "roleManager": "Address allowed to manage contract roles",
          "supplier": "Address allowed to supply opportunities to contract",
          "trader": "Address allowed to make trades via this contract",
          "withdrawer": "Address allowed to withdraw profit from contract"
        },
        "returns": {
          "dispatcher": "Address of new Dispatcher contract"
        }
      },
      "dispatchers()": {
        "returns": {
          "_0": "Array of Dispatcher addresses"
        }
      },
      "exists(address)": {
        "params": {
          "dispatcherContract": "Dispatcher address"
        },
        "returns": {
          "_0": "true if Dispatcher is indexed "
        }
      },
      "getRoleAdmin(bytes32)": {
        "details": "Returns the admin role that controls `role`. See {grantRole} and {revokeRole}. To change a role's admin, use {_setRoleAdmin}."
      },
      "getRoleMember(bytes32,uint256)": {
        "details": "Returns one of the accounts that have `role`. `index` must be a value between 0 and {getRoleMemberCount}, non-inclusive. Role bearers are not sorted in any particular way, and their ordering may change at any point. WARNING: When using {getRoleMember} and {getRoleMemberCount}, make sure you perform all queries on the same block. See the following https://forum.openzeppelin.com/t/iterating-over-elements-on-enumerableset-in-openzeppelin-contracts/2296[forum post] for more information."
      },
      "getRoleMemberCount(bytes32)": {
        "details": "Returns the number of accounts that have `role`. Can be used together with {getRoleMember} to enumerate all bearers of a role."
      },
      "grantRole(bytes32,address)": {
        "details": "Grants `role` to `account`. If `account` had not been already granted `role`, emits a {RoleGranted} event. Requirements: - the caller must have ``role``'s admin role."
      },
      "hasRole(bytes32,address)": {
        "details": "Returns `true` if `account` has been granted `role`."
      },
      "numDispatchers()": {
        "returns": {
          "_0": "number of Dispatchers indexed "
        }
      },
      "removeDispatchers(address[])": {
        "params": {
          "dispatcherContracts": "Dispatcher contract addresses"
        }
      },
      "renounceRole(bytes32,address)": {
        "details": "Revokes `role` from the calling account. Roles are often managed via {grantRole} and {revokeRole}: this function's purpose is to provide a mechanism for accounts to lose their privileges if they are compromised (such as when a trusted device is misplaced). If the calling account had been granted `role`, emits a {RoleRevoked} event. Requirements: - the caller must be `account`."
      },
      "revokeRole(bytes32,address)": {
        "details": "Revokes `role` from `account`. If `account` had been granted `role`, emits a {RoleRevoked} event. Requirements: - the caller must have ``role``'s admin role."
      }
    },
    "stateVariables": {
      "dispatchersSet": {
        "details": "Record of all Dispatchers"
      }
    },
    "title": "DispatcherFactory",
    "version": 1
  },
  "userdoc": {
    "events": {
      "DispatcherAdded(address)": {
        "notice": "Add existing Dispatcher event"
      },
      "DispatcherCreated(address,uint8,address,address,address,address,address,address,uint256,bool)": {
        "notice": "Create new Dispatcher event"
      },
      "DispatcherRemoved(address)": {
        "notice": "Remove existing Dispatcher event"
      }
    },
    "kind": "user",
    "methods": {
      "DISPATCHER_ADMIN_ROLE()": {
        "notice": "Admin role to create new Dispatchers"
      },
      "addDispatchers(address[])": {
        "notice": "Admin function to allow addition of dispatchers created via other Dispatcher Factories"
      },
      "constructor": {
        "notice": "Initializes contract, setting admin"
      },
      "createNewDispatcher(address,address,address,address,address,address,uint256,address[])": {
        "notice": "Create new Dispatcher contract"
      },
      "dispatchers()": {
        "notice": "Return list of Dispatcher contracts this factory indexes"
      },
      "exists(address)": {
        "notice": "Determine whether this factory is indexing a Dispatcher at the provided address"
      },
      "numDispatchers()": {
        "notice": "Returns the number of Dispatchers indexed by this factory"
      },
      "removeDispatchers(address[])": {
        "notice": "Admin function to allow removal of dispatchers from Dispatcher set"
      },
      "version()": {
        "notice": "Version number of Dispatcher Factory"
      }
    },
    "version": 1
  },
  "storageLayout": {
    "storage": [
      {
        "astId": 2940,
        "contract": "contracts/DispatcherFactory.sol:DispatcherFactory",
        "label": "_roles",
        "offset": 0,
        "slot": "0",
        "type": "t_mapping(t_bytes32,t_struct(RoleData)2936_storage)"
      },
      {
        "astId": 1707,
        "contract": "contracts/DispatcherFactory.sol:DispatcherFactory",
        "label": "version",
        "offset": 0,
        "slot": "1",
        "type": "t_uint8"
      },
      {
        "astId": 1716,
        "contract": "contracts/DispatcherFactory.sol:DispatcherFactory",
        "label": "dispatchersSet",
        "offset": 0,
        "slot": "2",
        "type": "t_struct(AddressSet)4226_storage"
      }
    ],
    "types": {
      "t_array(t_bytes32)dyn_storage": {
        "base": "t_bytes32",
        "encoding": "dynamic_array",
        "label": "bytes32[]",
        "numberOfBytes": "32"
      },
      "t_bytes32": {
        "encoding": "inplace",
        "label": "bytes32",
        "numberOfBytes": "32"
      },
      "t_mapping(t_bytes32,t_struct(RoleData)2936_storage)": {
        "encoding": "mapping",
        "key": "t_bytes32",
        "label": "mapping(bytes32 => struct AccessControl.RoleData)",
        "numberOfBytes": "32",
        "value": "t_struct(RoleData)2936_storage"
      },
      "t_mapping(t_bytes32,t_uint256)": {
        "encoding": "mapping",
        "key": "t_bytes32",
        "label": "mapping(bytes32 => uint256)",
        "numberOfBytes": "32",
        "value": "t_uint256"
      },
      "t_struct(AddressSet)4226_storage": {
        "encoding": "inplace",
        "label": "struct EnumerableSet.AddressSet",
        "members": [
          {
            "astId": 4225,
            "contract": "contracts/DispatcherFactory.sol:DispatcherFactory",
            "label": "_inner",
            "offset": 0,
            "slot": "0",
            "type": "t_struct(Set)3961_storage"
          }
        ],
        "numberOfBytes": "64"
      },
      "t_struct(RoleData)2936_storage": {
        "encoding": "inplace",
        "label": "struct AccessControl.RoleData",
        "members": [
          {
            "astId": 2933,
            "contract": "contracts/DispatcherFactory.sol:DispatcherFactory",
            "label": "members",
            "offset": 0,
            "slot": "0",
            "type": "t_struct(AddressSet)4226_storage"
          },
          {
            "astId": 2935,
            "contract": "contracts/DispatcherFactory.sol:DispatcherFactory",
            "label": "adminRole",
            "offset": 0,
            "slot": "2",
            "type": "t_bytes32"
          }
        ],
        "numberOfBytes": "96"
      },
      "t_struct(Set)3961_storage": {
        "encoding": "inplace",
        "label": "struct EnumerableSet.Set",
        "members": [
          {
            "astId": 3956,
            "contract": "contracts/DispatcherFactory.sol:DispatcherFactory",
            "label": "_values",
            "offset": 0,
            "slot": "0",
            "type": "t_array(t_bytes32)dyn_storage"
          },
          {
            "astId": 3960,
            "contract": "contracts/DispatcherFactory.sol:DispatcherFactory",
            "label": "_indexes",
            "offset": 0,
            "slot": "1",
            "type": "t_mapping(t_bytes32,t_uint256)"
          }
        ],
        "numberOfBytes": "64"
      },
      "t_uint256": {
        "encoding": "inplace",
        "label": "uint256",
        "numberOfBytes": "32"
      },
      "t_uint8": {
        "encoding": "inplace",
        "label": "uint8",
        "numberOfBytes": "1"
      }
    }
  }
}