{
  "address": "0xEf3514DB9D4BA463Ca0D7469c1437d77d2d90b86",
  "abi": [
    {
      "inputs": [
        {
          "internalType": "address",
          "name": "_roleAdmin",
          "type": "address"
        },
        {
          "internalType": "address",
          "name": "_dispatcherAdmin",
          "type": "address"
        }
      ],
      "stateMutability": "nonpayable",
      "type": "constructor"
    },
    {
      "anonymous": false,
      "inputs": [
        {
          "indexed": true,
          "internalType": "address",
          "name": "dispatcher",
          "type": "address"
        }
      ],
      "name": "DispatcherAdded",
      "type": "event"
    },
    {
      "anonymous": false,
      "inputs": [
        {
          "indexed": true,
          "internalType": "address",
          "name": "dispatcher",
          "type": "address"
        },
        {
          "indexed": true,
          "internalType": "uint8",
          "name": "version",
          "type": "uint8"
        },
        {
          "indexed": false,
          "internalType": "address",
          "name": "queryEngine",
          "type": "address"
        },
        {
          "indexed": false,
          "internalType": "address",
          "name": "roleManager",
          "type": "address"
        },
        {
          "indexed": false,
          "internalType": "address",
          "name": "lpManager",
          "type": "address"
        },
        {
          "indexed": false,
          "internalType": "address",
          "name": "withdrawer",
          "type": "address"
        },
        {
          "indexed": false,
          "internalType": "address",
          "name": "trader",
          "type": "address"
        },
        {
          "indexed": false,
          "internalType": "address",
          "name": "supplier",
          "type": "address"
        },
        {
          "indexed": false,
          "internalType": "uint256",
          "name": "initialMaxLiquidity",
          "type": "uint256"
        },
        {
          "indexed": false,
          "internalType": "bool",
          "name": "lpWhitelist",
          "type": "bool"
        }
      ],
      "name": "DispatcherCreated",
      "type": "event"
    },
    {
      "anonymous": false,
      "inputs": [
        {
          "indexed": true,
          "internalType": "address",
          "name": "dispatcher",
          "type": "address"
        }
      ],
      "name": "DispatcherRemoved",
      "type": "event"
    },
    {
      "anonymous": false,
      "inputs": [
        {
          "indexed": true,
          "internalType": "bytes32",
          "name": "role",
          "type": "bytes32"
        },
        {
          "indexed": true,
          "internalType": "bytes32",
          "name": "previousAdminRole",
          "type": "bytes32"
        },
        {
          "indexed": true,
          "internalType": "bytes32",
          "name": "newAdminRole",
          "type": "bytes32"
        }
      ],
      "name": "RoleAdminChanged",
      "type": "event"
    },
    {
      "anonymous": false,
      "inputs": [
        {
          "indexed": true,
          "internalType": "bytes32",
          "name": "role",
          "type": "bytes32"
        },
        {
          "indexed": true,
          "internalType": "address",
          "name": "account",
          "type": "address"
        },
        {
          "indexed": true,
          "internalType": "address",
          "name": "sender",
          "type": "address"
        }
      ],
      "name": "RoleGranted",
      "type": "event"
    },
    {
      "anonymous": false,
      "inputs": [
        {
          "indexed": true,
          "internalType": "bytes32",
          "name": "role",
          "type": "bytes32"
        },
        {
          "indexed": true,
          "internalType": "address",
          "name": "account",
          "type": "address"
        },
        {
          "indexed": true,
          "internalType": "address",
          "name": "sender",
          "type": "address"
        }
      ],
      "name": "RoleRevoked",
      "type": "event"
    },
    {
      "inputs": [],
      "name": "DEFAULT_ADMIN_ROLE",
      "outputs": [
        {
          "internalType": "bytes32",
          "name": "",
          "type": "bytes32"
        }
      ],
      "stateMutability": "view",
      "type": "function"
    },
    {
      "inputs": [],
      "name": "DISPATCHER_ADMIN_ROLE",
      "outputs": [
        {
          "internalType": "bytes32",
          "name": "",
          "type": "bytes32"
        }
      ],
      "stateMutability": "view",
      "type": "function"
    },
    {
      "inputs": [
        {
          "internalType": "address[]",
          "name": "dispatcherContracts",
          "type": "address[]"
        }
      ],
      "name": "addDispatchers",
      "outputs": [],
      "stateMutability": "nonpayable",
      "type": "function"
    },
    {
      "inputs": [
        {
          "internalType": "address",
          "name": "queryEngine",
          "type": "address"
        },
        {
          "internalType": "address",
          "name": "roleManager",
          "type": "address"
        },
        {
          "internalType": "address",
          "name": "lpManager",
          "type": "address"
        },
        {
          "internalType": "address",
          "name": "withdrawer",
          "type": "address"
        },
        {
          "internalType": "address",
          "name": "trader",
          "type": "address"
        },
        {
          "internalType": "address",
          "name": "supplier",
          "type": "address"
        },
        {
          "internalType": "uint256",
          "name": "initialMaxLiquidity",
          "type": "uint256"
        },
        {
          "internalType": "address[]",
          "name": "lpWhitelist",
          "type": "address[]"
        }
      ],
      "name": "createNewDispatcher",
      "outputs": [
        {
          "internalType": "address",
          "name": "dispatcher",
          "type": "address"
        }
      ],
      "stateMutability": "nonpayable",
      "type": "function"
    },
    {
      "inputs": [],
      "name": "dispatchers",
      "outputs": [
        {
          "internalType": "address[]",
          "name": "",
          "type": "address[]"
        }
      ],
      "stateMutability": "view",
      "type": "function"
    },
    {
      "inputs": [
        {
          "internalType": "address",
          "name": "dispatcherContract",
          "type": "address"
        }
      ],
      "name": "exists",
      "outputs": [
        {
          "internalType": "bool",
          "name": "",
          "type": "bool"
        }
      ],
      "stateMutability": "view",
      "type": "function"
    },
    {
      "inputs": [
        {
          "internalType": "bytes32",
          "name": "role",
          "type": "bytes32"
        }
      ],
      "name": "getRoleAdmin",
      "outputs": [
        {
          "internalType": "bytes32",
          "name": "",
          "type": "bytes32"
        }
      ],
      "stateMutability": "view",
      "type": "function"
    },
    {
      "inputs": [
        {
          "internalType": "bytes32",
          "name": "role",
          "type": "bytes32"
        },
        {
          "internalType": "uint256",
          "name": "index",
          "type": "uint256"
        }
      ],
      "name": "getRoleMember",
      "outputs": [
        {
          "internalType": "address",
          "name": "",
          "type": "address"
        }
      ],
      "stateMutability": "view",
      "type": "function"
    },
    {
      "inputs": [
        {
          "internalType": "bytes32",
          "name": "role",
          "type": "bytes32"
        }
      ],
      "name": "getRoleMemberCount",
      "outputs": [
        {
          "internalType": "uint256",
          "name": "",
          "type": "uint256"
        }
      ],
      "stateMutability": "view",
      "type": "function"
    },
    {
      "inputs": [
        {
          "internalType": "bytes32",
          "name": "role",
          "type": "bytes32"
        },
        {
          "internalType": "address",
          "name": "account",
          "type": "address"
        }
      ],
      "name": "grantRole",
      "outputs": [],
      "stateMutability": "nonpayable",
      "type": "function"
    },
    {
      "inputs": [
        {
          "internalType": "bytes32",
          "name": "role",
          "type": "bytes32"
        },
        {
          "internalType": "address",
          "name": "account",
          "type": "address"
        }
      ],
      "name": "hasRole",
      "outputs": [
        {
          "internalType": "bool",
          "name": "",
          "type": "bool"
        }
      ],
      "stateMutability": "view",
      "type": "function"
    },
    {
      "inputs": [],
      "name": "numDispatchers",
      "outputs": [
        {
          "internalType": "uint256",
          "name": "",
          "type": "uint256"
        }
      ],
      "stateMutability": "view",
      "type": "function"
    },
    {
      "inputs": [
        {
          "internalType": "address[]",
          "name": "dispatcherContracts",
          "type": "address[]"
        }
      ],
      "name": "removeDispatchers",
      "outputs": [],
      "stateMutability": "nonpayable",
      "type": "function"
    },
    {
      "inputs": [
        {
          "internalType": "bytes32",
          "name": "role",
          "type": "bytes32"
        },
        {
          "internalType": "address",
          "name": "account",
          "type": "address"
        }
      ],
      "name": "renounceRole",
      "outputs": [],
      "stateMutability": "nonpayable",
      "type": "function"
    },
    {
      "inputs": [
        {
          "internalType": "bytes32",
          "name": "role",
          "type": "bytes32"
        },
        {
          "internalType": "address",
          "name": "account",
          "type": "address"
        }
      ],
      "name": "revokeRole",
      "outputs": [],
      "stateMutability": "nonpayable",
      "type": "function"
    },
    {
      "inputs": [],
      "name": "version",
      "outputs": [
        {
          "internalType": "uint8",
          "name": "",
          "type": "uint8"
        }
      ],
      "stateMutability": "view",
      "type": "function"
    }
  ],
  "transactionHash": "0x2783d6aa40d17a3e95c2877df5f1f954b7e855db798695c96233177485bec319",
  "args": [
    "0x864AD15351C4a50E12F767B1a7D993aE47493E55",
    "0x5b0aC3279dBf84Bb8DA59Be1EcaB118198f022E5"
  ],
  "solcInputHash": "59536337a91024c932facfe596b5086e",
  "bytecode": "0x60806040526001805460ff191660021790553480156200001e57600080fd5b506040516200533a3803806200533a8339810160408190526200004191620001b3565b6200006d7faa1af34341297dfbc4dfe694fa8bb873bcaf9528e24c7336ae6bfc3f79ddeddb8262000082565b6200007a60008362000082565b5050620001ea565b6200008e828262000092565b5050565b600082815260208181526040909120620000b7918390620007ef6200010b821b17901c565b156200008e57620000c76200012b565b6001600160a01b0316816001600160a01b0316837f2f8788117e7eff1d82e926ec794901d17c78024a50270940304540a733656f0d60405160405180910390a45050565b600062000122836001600160a01b0384166200012f565b90505b92915050565b3390565b60006200013d83836200017e565b620001755750815460018181018455600084815260208082209093018490558454848252828601909352604090209190915562000125565b50600062000125565b60009081526001919091016020526040902054151590565b80516001600160a01b0381168114620001ae57600080fd5b919050565b60008060408385031215620001c6578182fd5b620001d18362000196565b9150620001e16020840162000196565b90509250929050565b61514080620001fa6000396000f3fe60806040523480156200001157600080fd5b5060043610620001185760003560e01c8063a217fddf11620000a5578063e70850c2116200006f578063e70850c21462000251578063e9a75151146200025b578063f31306b21462000272578063f6a3d24e146200028b5762000118565b8063a217fddf1462000202578063ca15c873146200020c578063d547741f1462000223578063d85e785d146200023a5762000118565b806354fd4d5011620000e757806354fd4d5014620001935780639010d07c14620001ac57806391d1485414620001d25780639ce3ec3d14620001f85762000118565b8063248a9ca3146200011d5780632f2ff15d146200014c57806336568abe14620001655780634363b012146200017c575b600080fd5b620001346200012e36600462000ca6565b620002a2565b60405162000143919062000dd4565b60405180910390f35b620001636200015d36600462000cbf565b620002ba565b005b620001636200017636600462000cbf565b62000328565b620001636200018d36600462000c67565b6200038f565b6200019d6200045d565b60405162000143919062000e23565b620001c3620001bd36600462000ced565b62000466565b60405162000143919062000d54565b620001e9620001e336600462000cbf565b62000489565b60405162000143919062000dc9565b62000134620004a3565b62000134620004b6565b620001346200021d36600462000ca6565b620004bb565b620001636200023436600462000cbf565b620004d4565b620001636200024b36600462000c67565b62000532565b62000134620005f7565b620001c36200026c36600462000bae565b6200060a565b6200027c62000738565b60405162000143919062000db4565b620001e96200029c36600462000b91565b620007e0565b6000818152602081905260409020600201545b919050565b600082815260208190526040902060020154620002db90620001e362000806565b620003185760405162461bcd60e51b815260040180806020018281038252602f8152602001806200507d602f913960400191505060405180910390fd5b6200032482826200080a565b5050565b6200033262000806565b6001600160a01b0316816001600160a01b031614620003835760405162461bcd60e51b815260040180806020018281038252602f815260200180620050dc602f913960400191505060405180910390fd5b62000324828262000878565b620003aa6000805160206200503b8339815191523362000489565b620003d25760405162461bcd60e51b8152600401620003c99062000ddd565b60405180910390fd5b60005b8151811015620003245762000409828281518110620003f057fe5b60200260200101516002620007ef90919063ffffffff16565b508181815181106200041757fe5b60200260200101516001600160a01b03167f9e69d1ca026e9c4abd5386883d3283629530e9fb7defea1b2942931c07475d7e60405160405180910390a2600101620003d5565b60015460ff1681565b6000828152602081905260408120620004809083620008e6565b90505b92915050565b6000828152602081905260408120620004809083620008f4565b6000805160206200503b83398151915281565b600081565b600081815260208190526040812062000483906200090b565b600082815260208190526040902060020154620004f590620001e362000806565b620003835760405162461bcd60e51b8152600401808060200182810382526030815260200180620050ac6030913960400191505060405180910390fd5b6200054d6000805160206200503b8339815191523362000489565b6200056c5760405162461bcd60e51b8152600401620003c99062000ddd565b60005b81518110156200032457620005a38282815181106200058a57fe5b602002602001015160026200091890919063ffffffff16565b50818181518110620005b157fe5b60200260200101516001600160a01b03167f53862eaed5a7ee88d1f67ec39296eb98d641bd5d0dbf8cdc77bccf42be146d7960405160405180910390a26001016200056f565b60006200060560026200090b565b905090565b6000620006276000805160206200503b8339815191523362000489565b620006465760405162461bcd60e51b8152600401620003c99062000ddd565b6000600160009054906101000a900460ff168a8a8a8a8a8a8a8a6040516200066e9062000acd565b620006829998979695949392919062000e31565b604051809103906000f0801580156200069f573d6000803e3d6000fd5b509150819050620006b2600282620007ef565b50600160009054906101000a900460ff1660ff16826001600160a01b03167f9a63203234614199a0bc755131a988e0dbed1944eec7ef17037d48f11a0f2bd78c8c8c8c8c8c8c60008d51116200070a5760006200070d565b60015b6040516200072398979695949392919062000d68565b60405180910390a35098975050505050505050565b606060006200074860026200090b565b905060608167ffffffffffffffff811180156200076457600080fd5b506040519080825280602002602001820160405280156200078f578160200160208202803683370190505b50905060005b82811015620007d957620007ab600282620008e6565b828281518110620007b857fe5b6001600160a01b039092166020928302919091019091015260010162000795565b5091505090565b600062000483600283620008f4565b600062000480836001600160a01b0384166200092f565b3390565b6000828152602081905260409020620008249082620007ef565b1562000324576200083462000806565b6001600160a01b0316816001600160a01b0316837f2f8788117e7eff1d82e926ec794901d17c78024a50270940304540a733656f0d60405160405180910390a45050565b600082815260208190526040902062000892908262000918565b156200032457620008a262000806565b6001600160a01b0316816001600160a01b0316837ff6391f5c32d9c69d2a47ea670b442974b53935d1edc7fd64eb21e047a839171b60405160405180910390a45050565b60006200048083836200097e565b600062000480836001600160a01b038416620009e5565b60006200048382620009fd565b600062000480836001600160a01b03841662000a01565b60006200093d8383620009e5565b620009755750815460018181018455600084815260208082209093018490558454848252828601909352604090209190915562000483565b50600062000483565b81546000908210620009c25760405162461bcd60e51b81526004018080602001828103825260228152602001806200505b6022913960400191505060405180910390fd5b826000018281548110620009d257fe5b9060005260206000200154905092915050565b60009081526001919091016020526040902054151590565b5490565b6000818152600183016020526040812054801562000ac2578354600019808301919081019060009087908390811062000a3657fe5b906000526020600020015490508087600001848154811062000a5457fe5b60009182526020808320909101929092558281526001898101909252604090209084019055865487908062000a8557fe5b6001900381819060005260206000200160009055905586600101600087815260200190815260200160002060009055600194505050505062000483565b600091505062000483565b6141998062000ea283390190565b80356001600160a01b0381168114620002b557600080fd5b600082601f83011262000b04578081fd5b813567ffffffffffffffff8082111562000b1a57fe5b60208083026040518282820101818110858211171562000b3657fe5b60405284815294508185019250858201818701830188101562000b5857600080fd5b600091505b8482101562000b865762000b718162000adb565b84529282019260019190910190820162000b5d565b505050505092915050565b60006020828403121562000ba3578081fd5b620004808262000adb565b600080600080600080600080610100898b03121562000bcb578384fd5b62000bd68962000adb565b975062000be660208a0162000adb565b965062000bf660408a0162000adb565b955062000c0660608a0162000adb565b945062000c1660808a0162000adb565b935062000c2660a08a0162000adb565b925060c0890135915060e089013567ffffffffffffffff81111562000c49578182fd5b62000c578b828c0162000af3565b9150509295985092959890939650565b60006020828403121562000c79578081fd5b813567ffffffffffffffff81111562000c90578182fd5b62000c9e8482850162000af3565b949350505050565b60006020828403121562000cb8578081fd5b5035919050565b6000806040838503121562000cd2578182fd5b8235915062000ce46020840162000adb565b90509250929050565b6000806040838503121562000d00578182fd5b50508035926020909101359150565b6000815180845260208085019450808401835b8381101562000d495781516001600160a01b03168752958201959082019060010162000d22565b509495945050505050565b6001600160a01b0391909116815260200190565b6001600160a01b039889168152968816602088015294871660408701529286166060860152908516608085015290931660a083015260c082019290925290151560e08201526101000190565b60006020825262000480602083018462000d0f565b901515815260200190565b90815260200190565b60208082526026908201527f43616c6c6572206d757374206861766520444953504154434845525f41444d496040820152654e20726f6c6560d01b606082015260800190565b60ff91909116815260200190565b60ff8a1681526001600160a01b03898116602083015288811660408301528781166060830152868116608083015285811660a0830152841660c082015260e08101839052610120610100820181905260009062000e918382018562000d0f565b9c9b50505050505050505050505056fe60806040523480156200001157600080fd5b50604051620041993803806200419983398101604081905262000034916200032b565b60016000556002805460ff60a01b1916600160a01b60ff8c1602176001600160a01b0319166001600160a01b038a16179055620000816000805160206200417983398151915287620001a6565b620000ab6000805160206200415983398151915260008051602062004179833981519152620001b6565b620000d77f5d8e12c39142ff96d79d04d15d1ba1269e4fe57bb9d26f43523628b34ba108ec86620001a6565b620001037ffacaf2747a7486cf5730e9265973fb54447d3ace6e7e4711f6360826b073194185620001a6565b6200011e6000805160206200413983398151915284620001a6565b620001396000805160206200413983398151915286620001a6565b62000146600088620001a6565b600382905560005b815181101562000196576200018d600080516020620041598339815191528383815181106200017957fe5b6020026020010151620001a660201b60201c565b6001016200014e565b5050505050505050505062000487565b620001b2828262000208565b5050565b600082815260016020526040808220600201549051839285917fbd79b86ffe0ab8e8776151514217cd7cacd52c909f66475c3af44e129f0b00ff9190a460009182526001602052604090912060020155565b60008281526001602090815260409091206200022f9183906200229862000283821b17901c565b15620001b2576200023f620002a3565b6001600160a01b0316816001600160a01b0316837f2f8788117e7eff1d82e926ec794901d17c78024a50270940304540a733656f0d60405160405180910390a45050565b60006200029a836001600160a01b038416620002a7565b90505b92915050565b3390565b6000620002b58383620002f6565b620002ed575081546001818101845560008481526020808220909301849055845484825282860190935260409020919091556200029d565b5060006200029d565b60009081526001919091016020526040902054151590565b80516001600160a01b03811681146200032657600080fd5b919050565b60008060008060008060008060006101208a8c0312156200034a578485fd5b895160ff811681146200035b578586fd5b98506200036b60208b016200030e565b97506200037b60408b016200030e565b96506200038b60608b016200030e565b95506200039b60808b016200030e565b9450620003ab60a08b016200030e565b9350620003bb60c08b016200030e565b60e08b01516101008c015191945092506001600160401b0380821115620003e0578283fd5b818c0191508c601f830112620003f4578283fd5b8151818111156200040157fe5b604051602080830282010181811084821117156200041b57fe5b8060405250809250818152602081019250602084018f6020808502870101111562000444578586fd5b8594505b8285101562000472576200045c816200030e565b8452600194909401936020938401930162000448565b50809450505050509295985092959850929598565b613ca280620004976000396000f3fe60806040526004361061021e5760003560e01c806376e821cf11610123578063c311d049116100ab578063e02023a11161006f578063e02023a1146105f4578063e7abbb2214610609578063ec38857614610629578063ecd1878f14610649578063f0a56fc81461066957610225565b8063c311d04914610554578063ca15c87314610574578063cc6febdf14610594578063d547741f146105b4578063d99125ee146105d457610225565b806391d14854116100f257806391d14854146104e257806397ff5fb614610502578063a217fddf14610517578063ac19e8981461052c578063c2d4f8c01461053457610225565b806376e821cf1461046057806379f645f0146104755780639004e5c5146104955780639010d07c146104b557610225565b806341650279116101a657806366f4deca1161017557806366f4deca146103cb57806368285acd146103eb5780636880608f1461040b5780636d218e481461042b578063717f8df01461044b57610225565b806341650279146103545780634245962b14610374578063509f1fc11461038957806354fd4d50146103a957610225565b8063248a9ca3116101ed578063248a9ca3146102a75780632f2ff15d146102c757806336568abe146102e75780633dee3601146103075780634039ad0d1461032757610225565b80630b65092d14610227578063148e250d1461025d57806315770f9214610272578063189165131461028757610225565b3661022557005b005b34801561023357600080fd5b50610247610242366004613072565b61067e565b6040516102549190613660565b60405180910390f35b34801561026957600080fd5b50610247610690565b34801561027e57600080fd5b50610247610696565b34801561029357600080fd5b506102256102a236600461308c565b61069c565b3480156102b357600080fd5b506102476102c23660046131bb565b610899565b3480156102d357600080fd5b506102256102e23660046131d3565b6108b1565b3480156102f357600080fd5b506102256103023660046131d3565b610918565b34801561031357600080fd5b506102256103223660046131bb565b610979565b34801561033357600080fd5b50610347610342366004613072565b610af1565b6040516102549190613655565b34801561036057600080fd5b5061022561036f36600461352e565b610b11565b34801561038057600080fd5b50610247610c50565b34801561039557600080fd5b506102256103a43660046135bb565b610c62565b3480156103b557600080fd5b506103be610e34565b60405161025491906139bb565b3480156103d757600080fd5b506102256103e6366004613100565b610e44565b3480156103f757600080fd5b506102256104063660046131bb565b610f46565b34801561041757600080fd5b506102256104263660046132e8565b610fd6565b34801561043757600080fd5b50610347610446366004613072565b611383565b34801561045757600080fd5b5061024761139d565b34801561046c57600080fd5b506102476113c1565b34801561048157600080fd5b5061022561049036600461314b565b6113d3565b3480156104a157600080fd5b506103476104b0366004613072565b61150c565b3480156104c157600080fd5b506104d56104d03660046131f5565b611526565b6040516102549190613627565b3480156104ee57600080fd5b506103476104fd3660046131d3565b611545565b34801561050e57600080fd5b506104d561155d565b34801561052357600080fd5b5061024761156c565b610225611571565b34801561054057600080fd5b5061034761054f366004613072565b61166c565b34801561056057600080fd5b5061022561056f3660046131bb565b611686565b34801561058057600080fd5b5061024761058f3660046131bb565b611781565b3480156105a057600080fd5b506102256105af366004613288565b611798565b3480156105c057600080fd5b506102256105cf3660046131d3565b61181e565b3480156105e057600080fd5b506102256105ef366004613463565b611877565b34801561060057600080fd5b50610247611cca565b34801561061557600080fd5b50610225610624366004613570565b611cdc565b34801561063557600080fd5b506102256106443660046133a1565b611e63565b34801561065557600080fd5b50610347610664366004613072565b61225a565b34801561067557600080fd5b50610247612286565b60056020526000908152604090205481565b60035481565b60045481565b6106b4600080516020613b7e83398151915233611545565b6106d95760405162461bcd60e51b81526004016106d0906137f4565b60405180910390fd5b60005b828110156108935760008484838181106106f257fe5b90506020020160208101906107079190613072565b9050600080826001600160a01b03166370a08231306040518263ffffffff1660e01b81526004016107389190613627565b60206040518083038186803b15801561075057600080fd5b505afa158015610764573d6000803e3d6000fd5b505050506040513d601f19601f82011682018060405250810190610788919061360c565b90506000836001600160a01b031663dd62ed3e30336040518363ffffffff1660e01b81526004016107ba92919061363b565b60206040518083038186803b1580156107d257600080fd5b505afa1580156107e6573d6000803e3d6000fd5b505050506040513d601f19601f8201168201806040525081019061080a919061360c565b90508561082a578082111561082157809250610825565b8192505b61086e565b8582101561084a5760405162461bcd60e51b81526004016106d09061389e565b8581101561086a5760405162461bcd60e51b81526004016106d0906137bd565b8592505b6108836001600160a01b0385163033866122ad565b5050600190920191506106dc9050565b50505050565b6000818152600160205260409020600201545b919050565b6000828152600160205260409020600201546108cf906104fd612307565b61090a5760405162461bcd60e51b815260040180806020018281038252602f815260200180613a79602f913960400191505060405180910390fd5b610914828261230b565b5050565b610920612307565b6001600160a01b0316816001600160a01b03161461096f5760405162461bcd60e51b815260040180806020018281038252602f815260200180613c3e602f913960400191505060405180910390fd5b6109148282612374565b336000908152600560205260409020548111156109a85760405162461bcd60e51b81526004016106d090613943565b6004546000906109b890836123dd565b10156109d65760405162461bcd60e51b81526004016106d09061390c565b60006109e247836123dd565b1015610a005760405162461bcd60e51b81526004016106d090613984565b33600090815260056020526040902054610a1a90826123dd565b33600090815260056020526040902055600454610a3790826123dd565b60045560405160009033908390610a4d90613624565b60006040518083038185875af1925050503d8060008114610a8a576040519150601f19603f3d011682016040523d82523d6000602084013e610a8f565b606091505b5050905080610ab05760405162461bcd60e51b81526004016106d09061382b565b60405133906000907f983e86fda8e7b1e2eae380201830eaf1cac55772e8e39583da349865e817886390610ae5908690613660565b60405180910390a35050565b6000610b0b600080516020613b9e83398151915283611545565b92915050565b610b29600080516020613b9e83398151915233611545565b610b68576040805162461bcd60e51b815260206004820152601c6024820152600080516020613ac8833981519152604482015290519081900360640190fd5b60026000541415610bae576040805162461bcd60e51b815260206004820152601f6024820152600080516020613aa8833981519152604482015290519081900360640190fd5b6002600055804781811015610bf8576040805162461bcd60e51b815260206004820152601a6024820152600080516020613be8833981519152604482015290519081900360640190fd5b610c02848461241f565b80471015610c45576040805162461bcd60e51b815260206004820152600b60248201526a0dad2e6e6d2dcce408aa8960ab1b604482015290519081900360640190fd5b505060016000555050565b600080516020613ae883398151915281565b610c7a600080516020613b9e83398151915233611545565b610cb9576040805162461bcd60e51b815260206004820152601c6024820152600080516020613ac8833981519152604482015290519081900360640190fd5b60026000541415610cff576040805162461bcd60e51b815260206004820152601f6024820152600080516020613aa8833981519152604482015290519081900360640190fd5b6002600055818142811015610d4c576040805162461bcd60e51b815260206004820152600e60248201526d747261646520746f6f206c61746560901b604482015290519081900360640190fd5b42821115610d93576040805162461bcd60e51b815260206004820152600f60248201526e747261646520746f6f206561726c7960881b604482015290519081900360640190fd5b844781811015610dd8576040805162461bcd60e51b815260206004820152601a6024820152600080516020613be8833981519152604482015290519081900360640190fd5b610de2888861241f565b80471015610e25576040805162461bcd60e51b815260206004820152600b60248201526a0dad2e6e6d2dcce408aa8960ab1b604482015290519081900360640190fd5b50506001600055505050505050565b600254600160a01b900460ff1681565b610e5c600080516020613ae883398151915233611545565b610e785760405162461bcd60e51b81526004016106d0906138d5565b60005b8251811015610f41576000838281518110610e9257fe5b60200260200101519050600019816001600160a01b031663dd62ed3e30866040518363ffffffff1660e01b8152600401610ecd92919061363b565b60206040518083038186803b158015610ee557600080fd5b505afa158015610ef9573d6000803e3d6000fd5b505050506040513d601f19601f82011682018060405250810190610f1d919061360c565b14610f3857610f386001600160a01b0382168460001961248e565b50600101610e7b565b505050565b610f707fa381348eb3fe7f232f3078689dd9188d0bc370b23350159f64231117527caec733611545565b610f8c5760405162461bcd60e51b81526004016106d090613726565b8060006001600160a01b03167fb2c6cf9c77391977298388e9125711ceb6bd1ddc9e8a8da1d2af054316cbc853600354604051610fc99190613660565b60405180910390a3600355565b610fee600080516020613b9e83398151915233611545565b61102d576040805162461bcd60e51b815260206004820152601c6024820152600080516020613ac8833981519152604482015290519081900360640190fd5b60026000541415611073576040805162461bcd60e51b815260206004820152601f6024820152600080516020613aa8833981519152604482015290519081900360640190fd5b60026000558047818110156110bd576040805162461bcd60e51b815260206004820152601a6024820152600080516020613be8833981519152604482015290519081900360640190fd5b6002546040805163a363a0f360e01b8152600481019182528a5160448201528a516060936001600160a01b03169263a363a0f3928d928d92918291602482019160640190602087019080838360005b8381101561112457818101518382015260200161110c565b50505050905090810190601f1680156111515780820380516001836020036101000a031916815260200191505b508381038252845181528451602091820191808701910280838360005b8381101561118657818101518382015260200161116e565b5050505090500194505050505060006040518083038186803b1580156111ab57600080fd5b505afa1580156111bf573d6000803e3d6000fd5b505050506040513d6000823e601f3d908101601f1916820160405260208110156111e857600080fd5b8101908080516040519392919084600160201b82111561120757600080fd5b90830190602082018581111561121c57600080fd5b8251600160201b81118282018810171561123557600080fd5b82525081516020918201929091019080838360005b8381101561126257818101518382015260200161124a565b50505050905090810190601f16801561128f5780820380516001836020036101000a031916815260200191505b506040525050509050846112b06020835103836125a190919063ffffffff16565b10156112f4576040805162461bcd60e51b815260206004820152600e60248201526d4e6f742070726f66697461626c6560901b604482015290519081900360640190fd5b60005b86518110156113345761132c88611313846020808602906125fa565b89848151811061131f57fe5b60200260200101516126b7565b6001016112f7565b5061133f878561241f565b5080471015610e25576040805162461bcd60e51b815260206004820152600b60248201526a0dad2e6e6d2dcce408aa8960ab1b604482015290519081900360640190fd5b6000610b0b600080516020613ae883398151915283611545565b7fa381348eb3fe7f232f3078689dd9188d0bc370b23350159f64231117527caec781565b600080516020613b5e83398151915281565b6113eb600080516020613ae883398151915233611545565b6114075760405162461bcd60e51b81526004016106d0906138d5565b81518351146114285760405162461bcd60e51b81526004016106d09061375d565b60005b835181101561089357600084828151811061144257fe5b60200260200101519050600019816001600160a01b031663dd62ed3e30866040518363ffffffff1660e01b815260040161147d92919061363b565b60206040518083038186803b15801561149557600080fd5b505afa1580156114a9573d6000803e3d6000fd5b505050506040513d601f19601f820116820180604052508101906114cd919061360c565b1461150357611503838584815181106114e257fe5b6020026020010151836001600160a01b031661248e9092919063ffffffff16565b5060010161142b565b6000610b0b600080516020613b7e83398151915283611545565b600082815260016020526040812061153e90836126c3565b9392505050565b600082815260016020526040812061153e90836126cf565b6002546001600160a01b031681565b600081565b600061158a600080516020613b5e833981519152611781565b11156115c4576115a8600080516020613b5e83398151915233611545565b6115c45760405162461bcd60e51b81526004016106d0906136e2565b6003546004546115d490346126e4565b11156115f25760405162461bcd60e51b81526004016106d090613786565b6004546115ff90346126e4565b6004553360009081526005602052604090205461161c90346126e4565b336000818152600560205260408082209390935591519091907f05e7be2689d5d20fd06bc749aa0d767080c4216945cacf5249f739d5a561d48f90611662903490613660565b60405180910390a3565b6000610b0b600080516020613b5e83398151915283611545565b61169e600080516020613b7e83398151915233611545565b6116ba5760405162461bcd60e51b81526004016106d0906137f4565b6000806116d2600454476123dd90919063ffffffff16565b9050826116e157809150611705565b828110156117015760405162461bcd60e51b81526004016106d09061385b565b8291505b6000336001600160a01b03168360405161171e90613624565b60006040518083038185875af1925050503d806000811461175b576040519150601f19603f3d011682016040523d82523d6000602084013e611760565b606091505b50509050806108935760405162461bcd60e51b81526004016106d09061382b565b6000818152600160205260408120610b0b9061273e565b60025460405163a363a0f360e01b81526001600160a01b039091169063a363a0f3906117ca9085908590600401613669565b60006040518083038186803b1580156117e257600080fd5b505afa1580156117f6573d6000803e3d6000fd5b505050506040513d6000823e601f3d908101601f19168201604052610f419190810190613216565b60008281526001602052604090206002015461183c906104fd612307565b61096f5760405162461bcd60e51b8152600401808060200182810382526030815260200180613b2e6030913960400191505060405180910390fd5b61188f600080516020613b9e83398151915233611545565b6118ce576040805162461bcd60e51b815260206004820152601c6024820152600080516020613ac8833981519152604482015290519081900360640190fd5b60026000541415611914576040805162461bcd60e51b815260206004820152601f6024820152600080516020613aa8833981519152604482015290519081900360640190fd5b6002600055818142811015611961576040805162461bcd60e51b815260206004820152600e60248201526d747261646520746f6f206c61746560901b604482015290519081900360640190fd5b428211156119a8576040805162461bcd60e51b815260206004820152600f60248201526e747261646520746f6f206561726c7960881b604482015290519081900360640190fd5b8447818110156119ed576040805162461bcd60e51b815260206004820152601a6024820152600080516020613be8833981519152604482015290519081900360640190fd5b6060600260009054906101000a90046001600160a01b03166001600160a01b031663a363a0f38e8e6040518363ffffffff1660e01b8152600401808060200180602001838103835285818151815260200191508051906020019080838360005b83811015611a65578181015183820152602001611a4d565b50505050905090810190601f168015611a925780820380516001836020036101000a031916815260200191505b508381038252845181528451602091820191808701910280838360005b83811015611ac7578181015183820152602001611aaf565b5050505090500194505050505060006040518083038186803b158015611aec57600080fd5b505afa158015611b00573d6000803e3d6000fd5b505050506040513d6000823e601f3d908101601f191682016040526020811015611b2957600080fd5b8101908080516040519392919084600160201b821115611b4857600080fd5b908301906020820185811115611b5d57600080fd5b8251600160201b811182820188101715611b7657600080fd5b82525081516020918201929091019080838360005b83811015611ba3578181015183820152602001611b8b565b50505050905090810190601f168015611bd05780820380516001836020036101000a031916815260200191505b50604052505050905088611bf16020835103836125a190919063ffffffff16565b1015611c35576040805162461bcd60e51b815260206004820152600e60248201526d4e6f742070726f66697461626c6560901b604482015290519081900360640190fd5b60005b8a51811015611c6857611c608c611c54846020808602906125fa565b8d848151811061131f57fe5b600101611c38565b50611c738b8961241f565b5080471015611cb7576040805162461bcd60e51b815260206004820152600b60248201526a0dad2e6e6d2dcce408aa8960ab1b604482015290519081900360640190fd5b5050600160005550505050505050505050565b600080516020613b7e83398151915281565b611cf4600080516020613b9e83398151915233611545565b611d33576040805162461bcd60e51b815260206004820152601c6024820152600080516020613ac8833981519152604482015290519081900360640190fd5b60026000541415611d79576040805162461bcd60e51b815260206004820152601f6024820152600080516020613aa8833981519152604482015290519081900360640190fd5b60026000558043811015611dc4576040805162461bcd60e51b815260206004820152600d60248201526c1d1c98591948195e1c1a5c9959609a1b604482015290519081900360640190fd5b824781811015611e09576040805162461bcd60e51b815260206004820152601a6024820152600080516020613be8833981519152604482015290519081900360640190fd5b611e13868661241f565b80471015611e56576040805162461bcd60e51b815260206004820152600b60248201526a0dad2e6e6d2dcce408aa8960ab1b604482015290519081900360640190fd5b5050600160005550505050565b611e7b600080516020613b9e83398151915233611545565b611eba576040805162461bcd60e51b815260206004820152601c6024820152600080516020613ac8833981519152604482015290519081900360640190fd5b60026000541415611f00576040805162461bcd60e51b815260206004820152601f6024820152600080516020613aa8833981519152604482015290519081900360640190fd5b60026000558043811015611f4b576040805162461bcd60e51b815260206004820152600d60248201526c1d1c98591948195e1c1a5c9959609a1b604482015290519081900360640190fd5b824781811015611f90576040805162461bcd60e51b815260206004820152601a6024820152600080516020613be8833981519152604482015290519081900360640190fd5b6002546040805163a363a0f360e01b8152600481019182528c5160448201528c516060936001600160a01b03169263a363a0f3928f928f92918291602482019160640190602087019080838360005b83811015611ff7578181015183820152602001611fdf565b50505050905090810190601f1680156120245780820380516001836020036101000a031916815260200191505b508381038252845181528451602091820191808701910280838360005b83811015612059578181015183820152602001612041565b5050505090500194505050505060006040518083038186803b15801561207e57600080fd5b505afa158015612092573d6000803e3d6000fd5b505050506040513d6000823e601f3d908101601f1916820160405260208110156120bb57600080fd5b8101908080516040519392919084600160201b8211156120da57600080fd5b9083019060208201858111156120ef57600080fd5b8251600160201b81118282018810171561210857600080fd5b82525081516020918201929091019080838360005b8381101561213557818101518382015260200161211d565b50505050905090810190601f1680156121625780820380516001836020036101000a031916815260200191505b506040525050509050866121836020835103836125a190919063ffffffff16565b10156121c7576040805162461bcd60e51b815260206004820152600e60248201526d4e6f742070726f66697461626c6560901b604482015290519081900360640190fd5b60005b88518110156121fa576121f28a6121e6846020808602906125fa565b8b848151811061131f57fe5b6001016121ca565b50612205898761241f565b5080471015612249576040805162461bcd60e51b815260206004820152600b60248201526a0dad2e6e6d2dcce408aa8960ab1b604482015290519081900360640190fd5b505060016000555050505050505050565b6000610b0b7fa381348eb3fe7f232f3078689dd9188d0bc370b23350159f64231117527caec783611545565b600080516020613b9e83398151915281565b600061153e836001600160a01b038416612749565b604080516001600160a01b0380861660248301528416604482015260648082018490528251808303909101815260849091019091526020810180516001600160e01b03166323b872dd60e01b179052610893908590612793565b3390565b60008281526001602052604090206123239082612298565b1561091457612330612307565b6001600160a01b0316816001600160a01b0316837f2f8788117e7eff1d82e926ec794901d17c78024a50270940304540a733656f0d60405160405180910390a45050565b600082815260016020526040902061238c9082612844565b1561091457612399612307565b6001600160a01b0316816001600160a01b0316837ff6391f5c32d9c69d2a47ea670b442974b53935d1edc7fd64eb21e047a839171b60405160405180910390a45050565b600061153e83836040518060400160405280601f81526020017f536166654d6174683a207375627472616374696f6e20756e646572666c6f7700815250612859565b60005b8251811015610f4157600061243784836128f0565b90506000612448858460140161291c565b905060348301606061245b8783856125fa565b9050846124725761246d848288612924565b61247e565b61247e84826000612924565b5050919091016034019050612422565b801580612514575060408051636eb1769f60e11b81523060048201526001600160a01b03848116602483015291519185169163dd62ed3e91604480820192602092909190829003018186803b1580156124e657600080fd5b505afa1580156124fa573d6000803e3d6000fd5b505050506040513d602081101561251057600080fd5b5051155b61254f5760405162461bcd60e51b8152600401808060200182810382526036815260200180613c086036913960400191505060405180910390fd5b604080516001600160a01b038416602482015260448082018490528251808303909101815260649091019091526020810180516001600160e01b031663095ea7b360e01b179052610f41908490612793565b600081602001835110156125f1576040805162461bcd60e51b815260206004820152601260248201527152656164206f7574206f6620626f756e647360701b604482015290519081900360640190fd5b50016020015190565b606081830184511015612649576040805162461bcd60e51b815260206004820152601260248201527152656164206f7574206f6620626f756e647360701b604482015290519081900360640190fd5b606082158015612664576040519150602082016040526126ae565b6040519150601f8416801560200281840101858101878315602002848b0101015b8183101561269d578051835260209283019201612685565b5050858452601f01601f1916604052505b50949350505050565b60209182015192010152565b600061153e8383612ae7565b600061153e836001600160a01b038416612b4b565b60008282018381101561153e576040805162461bcd60e51b815260206004820152601b60248201527f536166654d6174683a206164646974696f6e206f766572666c6f770000000000604482015290519081900360640190fd5b6000610b0b82612b63565b60006127558383612b4b565b61278b57508154600181810184556000848152602080822090930184905584548482528286019093526040902091909155610b0b565b506000610b0b565b60606127e8826040518060400160405280602081526020017f5361666545524332303a206c6f772d6c6576656c2063616c6c206661696c6564815250856001600160a01b0316612b679092919063ffffffff16565b805190915015610f415780806020019051602081101561280757600080fd5b5051610f415760405162461bcd60e51b815260040180806020018281038252602a815260200180613bbe602a913960400191505060405180910390fd5b600061153e836001600160a01b038416612b7e565b600081848411156128e85760405162461bcd60e51b81526004018080602001828103825283818151815260200191508051906020019080838360005b838110156128ad578181015183820152602001612895565b50505050905090810190601f1680156128da5780820380516001836020036101000a031916815260200191505b509250505060405180910390fd5b505050900390565b6000806128fd848461291c565b600160601b6bffffffffffffffffffffffff1990911604949350505050565b016020015190565b600060608483156129dc57806001600160a01b031684866040518082805190602001908083835b6020831061296a5780518252601f19909201916020918201910161294b565b6001836020036101000a03801982511681845116808217855250505050505090500191505060006040518083038185875af1925050503d80600081146129cc576040519150601f19603f3d011682016040523d82523d6000602084013e6129d1565b606091505b509093509150612a84565b806001600160a01b0316856040518082805190602001908083835b60208310612a165780518252601f1990920191602091820191016129f7565b6001836020036101000a0380198251168184511680821785525050505050509050019150506000604051808303816000865af19150503d8060008114612a78576040519150601f19603f3d011682016040523d82523d6000602084013e612a7d565b606091505b5090935091505b82612adf576060612a9483612c44565b90508060405162461bcd60e51b8152600401808060200182810382528381815181526020019150805190602001908083836000838110156128ad578181015183820152602001612895565b505050505050565b81546000908210612b295760405162461bcd60e51b8152600401808060200182810382526022815260200180613a576022913960400191505060405180910390fd5b826000018281548110612b3857fe5b9060005260206000200154905092915050565b60009081526001919091016020526040902054151590565b5490565b6060612b768484600085612d72565b949350505050565b60008181526001830160205260408120548015612c3a5783546000198083019190810190600090879083908110612bb157fe5b9060005260206000200154905080876000018481548110612bce57fe5b600091825260208083209091019290925582815260018981019092526040902090840190558654879080612bfe57fe5b60019003818190600052602060002001600090559055866001016000878152602001908152602001600020600090556001945050505050610b0b565b6000915050610b0b565b6060604482511015612c8a575060408051808201909152601e81527f43616c6c206661696c656420666f7220756e6b6e6f776e20726561736f6e000060208201526108ac565b6060612ca5600480855103856125fa9092919063ffffffff16565b9050808060200190516020811015612cbc57600080fd5b8101908080516040519392919084600160201b821115612cdb57600080fd5b908301906020820185811115612cf057600080fd5b8251600160201b811182820188101715612d0957600080fd5b82525081516020918201929091019080838360005b83811015612d36578181015183820152602001612d1e565b50505050905090810190601f168015612d635780820380516001836020036101000a031916815260200191505b50604052505050915050919050565b606082471015612db35760405162461bcd60e51b8152600401808060200182810382526026815260200180613b086026913960400191505060405180910390fd5b612dbc85612ece565b612e0d576040805162461bcd60e51b815260206004820152601d60248201527f416464726573733a2063616c6c20746f206e6f6e2d636f6e7472616374000000604482015290519081900360640190fd5b60006060866001600160a01b031685876040518082805190602001908083835b60208310612e4c5780518252601f199092019160209182019101612e2d565b6001836020036101000a03801982511681845116808217855250505050505090500191505060006040518083038185875af1925050503d8060008114612eae576040519150601f19603f3d011682016040523d82523d6000602084013e612eb3565b606091505b5091509150612ec3828286612ed4565b979650505050505050565b3b151590565b60608315612ee357508161153e565b825115612ef35782518084602001fd5b60405162461bcd60e51b81526020600482018181528451602484015284518593919283926044019190850190808383600083156128ad578181015183820152602001612895565b80356001600160a01b03811681146108ac57600080fd5b600082601f830112612f61578081fd5b8135612f74612f6f826139ec565b6139c9565b818152915060208083019084810181840286018201871015612f9557600080fd5b60005b84811015612fbb57612fa982612f3a565b84529282019290820190600101612f98565b505050505092915050565b600082601f830112612fd6578081fd5b8135612fe4612f6f826139ec565b81815291506020808301908481018184028601820187101561300557600080fd5b60005b84811015612fbb57813584529282019290820190600101613008565b600082601f830112613034578081fd5b8135613042612f6f82613a09565b915080825283602082850101111561305957600080fd5b8060208401602084013760009082016020015292915050565b600060208284031215613083578081fd5b61153e82612f3a565b6000806000604084860312156130a0578182fd5b83356001600160401b03808211156130b6578384fd5b818601915086601f8301126130c9578384fd5b8135818111156130d7578485fd5b87602080830285010111156130ea578485fd5b6020928301989097509590910135949350505050565b60008060408385031215613112578182fd5b82356001600160401b03811115613127578283fd5b61313385828601612f51565b92505061314260208401612f3a565b90509250929050565b60008060006060848603121561315f578283fd5b83356001600160401b0380821115613175578485fd5b61318187838801612f51565b94506020860135915080821115613196578384fd5b506131a386828701612fc6565b9250506131b260408501612f3a565b90509250925092565b6000602082840312156131cc578081fd5b5035919050565b600080604083850312156131e5578182fd5b8235915061314260208401612f3a565b60008060408385031215613207578182fd5b50508035926020909101359150565b600060208284031215613227578081fd5b81516001600160401b0381111561323c578182fd5b8201601f8101841361324c578182fd5b805161325a612f6f82613a09565b81815285602083850101111561326e578384fd5b61327f826020830160208601613a2a565b95945050505050565b6000806040838503121561329a578182fd5b82356001600160401b03808211156132b0578384fd5b6132bc86838701613024565b935060208501359150808211156132d1578283fd5b506132de85828601612fc6565b9150509250929050565b60008060008060008060c08789031215613300578182fd5b86356001600160401b0380821115613316578384fd5b6133228a838b01613024565b97506020890135915080821115613337578384fd5b6133438a838b01612fc6565b96506040890135915080821115613358578384fd5b6133648a838b01613024565b95506060890135915080821115613379578384fd5b5061338689828a01612fc6565b9350506080870135915060a087013590509295509295509295565b600080600080600080600060e0888a0312156133bb578081fd5b87356001600160401b03808211156133d1578283fd5b6133dd8b838c01613024565b985060208a01359150808211156133f2578283fd5b6133fe8b838c01612fc6565b975060408a0135915080821115613413578283fd5b61341f8b838c01613024565b965060608a0135915080821115613434578283fd5b506134418a828b01612fc6565b979a969950949760808101359660a0820135965060c090910135945092505050565b600080600080600080600080610100898b03121561347f578182fd5b88356001600160401b0380821115613495578384fd5b6134a18c838d01613024565b995060208b01359150808211156134b6578384fd5b6134c28c838d01612fc6565b985060408b01359150808211156134d7578384fd5b6134e38c838d01613024565b975060608b01359150808211156134f8578384fd5b506135058b828c01612fc6565b989b979a50959860808101359760a0820135975060c0820135965060e090910135945092505050565b60008060408385031215613540578182fd5b82356001600160401b03811115613555578283fd5b61356185828601613024565b95602094909401359450505050565b600080600060608486031215613584578081fd5b83356001600160401b03811115613599578182fd5b6135a586828701613024565b9660208601359650604090950135949350505050565b600080600080608085870312156135d0578182fd5b84356001600160401b038111156135e5578283fd5b6135f187828801613024565b97602087013597506040870135966060013595509350505050565b60006020828403121561361d578081fd5b5051919050565b90565b6001600160a01b0391909116815260200190565b6001600160a01b0392831681529116602082015260400190565b901515815260200190565b90815260200190565b600060408252835180604084015260206136898260608601838901613a2a565b6060601f19601f939093019290921684018481038301858301528551928101839052858201928491608001905b808310156136d657845182529383019360019290920191908301906136b6565b50979650505050505050565b60208082526024908201527f43616c6c6572206d75737420686176652057484954454c49535445445f4c5020604082015263726f6c6560e01b606082015260800190565b6020808252601f908201527f43616c6c6572206d7573742068617665204d414e4147455f4c5020726f6c6500604082015260600190565b6020808252600f908201526e0dcdee840e6c2daca40d8cadccee8d608b1b604082015260600190565b6020808252601c908201527f616d6f756e742065786365656473206d6178206c697175696469747900000000604082015260600190565b60208082526018908201527f496e63726561736520746f6b656e20616c6c6f77616e63650000000000000000604082015260600190565b6020808252601e908201527f43616c6c6572206d757374206861766520574954484452415720726f6c650000604082015260600190565b602080825260169082015275086deead8c840dcdee840eed2e8d0c8e4c2ee408aa8960531b604082015260600190565b60208082526023908201527f616d6f756e74206578636565647320776974686472617761626c652062616c616040820152626e636560e81b606082015260800190565b60208082526018908201527f436f6e74726163742062616c616e636520746f6f206c6f770000000000000000604082015260600190565b6020808252601e908201527f43616c6c6572206d757374206861766520415050524f56455220726f6c650000604082015260600190565b6020808252601e908201527f616d6f756e74206578636565647320746f74616c206c69717569646974790000604082015260600190565b60208082526021908201527f616d6f756e742065786365656473206c69717569646974792070726f766964656040820152601960fa1b606082015260800190565b6020808252601f908201527f616d6f756e74206578636565647320636f6e74726163742062616c616e636500604082015260600190565b60ff91909116815260200190565b6040518181016001600160401b03811182821017156139e457fe5b604052919050565b60006001600160401b038211156139ff57fe5b5060209081020190565b60006001600160401b03821115613a1c57fe5b50601f01601f191660200190565b60005b83811015613a45578181015183820152602001613a2d565b83811115610893575050600091015256fe456e756d657261626c655365743a20696e646578206f7574206f6620626f756e6473416363657373436f6e74726f6c3a2073656e646572206d75737420626520616e2061646d696e20746f206772616e745265656e7472616e637947756172643a207265656e7472616e742063616c6c00547261646572206d75737420686176652054524144455220726f6c6500000000408a36151f841709116a4e8aca4e0202874f7f54687dcb863b1ea4672dc9d8cf416464726573733a20696e73756666696369656e742062616c616e636520666f722063616c6c416363657373436f6e74726f6c3a2073656e646572206d75737420626520616e2061646d696e20746f207265766f6b65ea728681f55b7658af02b019305006d1b2faefced46ff12facedd896da3c3dc65d8e12c39142ff96d79d04d15d1ba1269e4fe57bb9d26f43523628b34ba108ecfacaf2747a7486cf5730e9265973fb54447d3ace6e7e4711f6360826b07319415361666545524332303a204552433230206f7065726174696f6e20646964206e6f7420737563636565644e6f7420656e6f7567682045544820696e20636f6e74726163740000000000005361666545524332303a20617070726f76652066726f6d206e6f6e2d7a65726f20746f206e6f6e2d7a65726f20616c6c6f77616e6365416363657373436f6e74726f6c3a2063616e206f6e6c792072656e6f756e636520726f6c657320666f722073656c66a2646970667358221220792ef10b7a670a34fde589f886c5bad39843af1c4d199746c36c3832ce3688ca64736f6c63430007040033408a36151f841709116a4e8aca4e0202874f7f54687dcb863b1ea4672dc9d8cfea728681f55b7658af02b019305006d1b2faefced46ff12facedd896da3c3dc6a381348eb3fe7f232f3078689dd9188d0bc370b23350159f64231117527caec7aa1af34341297dfbc4dfe694fa8bb873bcaf9528e24c7336ae6bfc3f79ddeddb456e756d657261626c655365743a20696e646578206f7574206f6620626f756e6473416363657373436f6e74726f6c3a2073656e646572206d75737420626520616e2061646d696e20746f206772616e74416363657373436f6e74726f6c3a2073656e646572206d75737420626520616e2061646d696e20746f207265766f6b65416363657373436f6e74726f6c3a2063616e206f6e6c792072656e6f756e636520726f6c657320666f722073656c66a2646970667358221220a9c832f7188ea0a8e80738800a27655d27a8978fd88d72ccf8227b68d4debe7264736f6c63430007040033",
  "devdoc": {
    "details": "Creates and keeps track of Dispatchers on the network",
    "kind": "dev",
    "methods": {
      "addDispatchers(address[])": {
        "params": {
          "dispatcherContracts": "Array of dispatcher contract addresses"
        }
      },
      "constructor": {
        "params": {
          "_dispatcherAdmin": "admin that can create new Dispatchers",
          "_roleAdmin": "admin in control of roles"
        }
      },
      "createNewDispatcher(address,address,address,address,address,address,uint256,address[])": {
        "params": {
          "initialMaxLiquidity": "Initial max liquidity allowed in contract",
          "lpManager": "Address allowed to manage LP whitelist",
          "lpWhitelist": "List of addresses that are allowed to provide liquidity to this contract",
          "queryEngine": "Address of query engine contract",
          "roleManager": "Address allowed to manage contract roles",
          "supplier": "Address allowed to supply opportunities to contract",
          "trader": "Address allowed to make trades via this contract",
          "withdrawer": "Address allowed to withdraw profit from contract"
        },
        "returns": {
          "dispatcher": "Address of new Dispatcher contract"
        }
      },
      "dispatchers()": {
        "returns": {
          "_0": "Array of Dispatcher addresses"
        }
      },
      "exists(address)": {
        "params": {
          "dispatcherContract": "Dispatcher address"
        },
        "returns": {
          "_0": "true if Dispatcher is indexed "
        }
      },
      "getRoleAdmin(bytes32)": {
        "details": "Returns the admin role that controls `role`. See {grantRole} and {revokeRole}. To change a role's admin, use {_setRoleAdmin}."
      },
      "getRoleMember(bytes32,uint256)": {
        "details": "Returns one of the accounts that have `role`. `index` must be a value between 0 and {getRoleMemberCount}, non-inclusive. Role bearers are not sorted in any particular way, and their ordering may change at any point. WARNING: When using {getRoleMember} and {getRoleMemberCount}, make sure you perform all queries on the same block. See the following https://forum.openzeppelin.com/t/iterating-over-elements-on-enumerableset-in-openzeppelin-contracts/2296[forum post] for more information."
      },
      "getRoleMemberCount(bytes32)": {
        "details": "Returns the number of accounts that have `role`. Can be used together with {getRoleMember} to enumerate all bearers of a role."
      },
      "grantRole(bytes32,address)": {
        "details": "Grants `role` to `account`. If `account` had not been already granted `role`, emits a {RoleGranted} event. Requirements: - the caller must have ``role``'s admin role."
      },
      "hasRole(bytes32,address)": {
        "details": "Returns `true` if `account` has been granted `role`."
      },
      "numDispatchers()": {
        "returns": {
          "_0": "number of Dispatchers indexed "
        }
      },
      "removeDispatchers(address[])": {
        "params": {
          "dispatcherContracts": "Dispatcher contract addresses"
        }
      },
      "renounceRole(bytes32,address)": {
        "details": "Revokes `role` from the calling account. Roles are often managed via {grantRole} and {revokeRole}: this function's purpose is to provide a mechanism for accounts to lose their privileges if they are compromised (such as when a trusted device is misplaced). If the calling account had been granted `role`, emits a {RoleRevoked} event. Requirements: - the caller must be `account`."
      },
      "revokeRole(bytes32,address)": {
        "details": "Revokes `role` from `account`. If `account` had been granted `role`, emits a {RoleRevoked} event. Requirements: - the caller must have ``role``'s admin role."
      }
    },
    "stateVariables": {
      "dispatchersSet": {
        "details": "Record of all Dispatchers"
      }
    },
    "title": "DispatcherFactory",
    "version": 1
  },
  "userdoc": {
    "events": {
      "DispatcherAdded(address)": {
        "notice": "Add existing Dispatcher event"
      },
      "DispatcherCreated(address,uint8,address,address,address,address,address,address,uint256,bool)": {
        "notice": "Create new Dispatcher event"
      },
      "DispatcherRemoved(address)": {
        "notice": "Remove existing Dispatcher event"
      }
    },
    "kind": "user",
    "methods": {
      "DISPATCHER_ADMIN_ROLE()": {
        "notice": "Admin role to create new Dispatchers"
      },
      "addDispatchers(address[])": {
        "notice": "Admin function to allow addition of dispatchers created via other Dispatcher Factories"
      },
      "constructor": {
        "notice": "Initializes contract, setting admin"
      },
      "createNewDispatcher(address,address,address,address,address,address,uint256,address[])": {
        "notice": "Create new Dispatcher contract"
      },
      "dispatchers()": {
        "notice": "Return list of Dispatcher contracts this factory indexes"
      },
      "exists(address)": {
        "notice": "Determine whether this factory is indexing a Dispatcher at the provided address"
      },
      "numDispatchers()": {
        "notice": "Returns the number of Dispatchers indexed by this factory"
      },
      "removeDispatchers(address[])": {
        "notice": "Admin function to allow removal of dispatchers from Dispatcher set"
      },
      "version()": {
        "notice": "Version number of Dispatcher Factory"
      }
    },
    "version": 1
  },
  "storageLayout": {
    "storage": [
      {
        "astId": 4034,
        "contract": "contracts/DispatcherFactory.sol:DispatcherFactory",
        "label": "_roles",
        "offset": 0,
        "slot": "0",
        "type": "t_mapping(t_bytes32,t_struct(RoleData)4030_storage)"
      },
      {
        "astId": 2734,
        "contract": "contracts/DispatcherFactory.sol:DispatcherFactory",
        "label": "version",
        "offset": 0,
        "slot": "1",
        "type": "t_uint8"
      },
      {
        "astId": 2743,
        "contract": "contracts/DispatcherFactory.sol:DispatcherFactory",
        "label": "dispatchersSet",
        "offset": 0,
        "slot": "2",
        "type": "t_struct(AddressSet)5320_storage"
      }
    ],
    "types": {
      "t_array(t_bytes32)dyn_storage": {
        "base": "t_bytes32",
        "encoding": "dynamic_array",
        "label": "bytes32[]",
        "numberOfBytes": "32"
      },
      "t_bytes32": {
        "encoding": "inplace",
        "label": "bytes32",
        "numberOfBytes": "32"
      },
      "t_mapping(t_bytes32,t_struct(RoleData)4030_storage)": {
        "encoding": "mapping",
        "key": "t_bytes32",
        "label": "mapping(bytes32 => struct AccessControl.RoleData)",
        "numberOfBytes": "32",
        "value": "t_struct(RoleData)4030_storage"
      },
      "t_mapping(t_bytes32,t_uint256)": {
        "encoding": "mapping",
        "key": "t_bytes32",
        "label": "mapping(bytes32 => uint256)",
        "numberOfBytes": "32",
        "value": "t_uint256"
      },
      "t_struct(AddressSet)5320_storage": {
        "encoding": "inplace",
        "label": "struct EnumerableSet.AddressSet",
        "members": [
          {
            "astId": 5319,
            "contract": "contracts/DispatcherFactory.sol:DispatcherFactory",
            "label": "_inner",
            "offset": 0,
            "slot": "0",
            "type": "t_struct(Set)5055_storage"
          }
        ],
        "numberOfBytes": "64"
      },
      "t_struct(RoleData)4030_storage": {
        "encoding": "inplace",
        "label": "struct AccessControl.RoleData",
        "members": [
          {
            "astId": 4027,
            "contract": "contracts/DispatcherFactory.sol:DispatcherFactory",
            "label": "members",
            "offset": 0,
            "slot": "0",
            "type": "t_struct(AddressSet)5320_storage"
          },
          {
            "astId": 4029,
            "contract": "contracts/DispatcherFactory.sol:DispatcherFactory",
            "label": "adminRole",
            "offset": 0,
            "slot": "2",
            "type": "t_bytes32"
          }
        ],
        "numberOfBytes": "96"
      },
      "t_struct(Set)5055_storage": {
        "encoding": "inplace",
        "label": "struct EnumerableSet.Set",
        "members": [
          {
            "astId": 5050,
            "contract": "contracts/DispatcherFactory.sol:DispatcherFactory",
            "label": "_values",
            "offset": 0,
            "slot": "0",
            "type": "t_array(t_bytes32)dyn_storage"
          },
          {
            "astId": 5054,
            "contract": "contracts/DispatcherFactory.sol:DispatcherFactory",
            "label": "_indexes",
            "offset": 0,
            "slot": "1",
            "type": "t_mapping(t_bytes32,t_uint256)"
          }
        ],
        "numberOfBytes": "64"
      },
      "t_uint256": {
        "encoding": "inplace",
        "label": "uint256",
        "numberOfBytes": "32"
      },
      "t_uint8": {
        "encoding": "inplace",
        "label": "uint8",
        "numberOfBytes": "1"
      }
    }
  }
}