{
  "address": "0x893e95095c5d26028474aD38DA98a2DfE25B27D0",
  "abi": [
    {
      "inputs": [
        {
          "internalType": "address",
          "name": "contractAddress",
          "type": "address"
        },
        {
          "internalType": "bytes",
          "name": "data",
          "type": "bytes"
        }
      ],
      "name": "getPrice",
      "outputs": [
        {
          "internalType": "bytes",
          "name": "",
          "type": "bytes"
        }
      ],
      "stateMutability": "view",
      "type": "function"
    },
    {
      "inputs": [
        {
          "internalType": "bytes",
          "name": "script",
          "type": "bytes"
        },
        {
          "internalType": "uint256[]",
          "name": "inputLocations",
          "type": "uint256[]"
        }
      ],
      "name": "query",
      "outputs": [
        {
          "internalType": "uint256",
          "name": "",
          "type": "uint256"
        }
      ],
      "stateMutability": "view",
      "type": "function"
    },
    {
      "inputs": [
        {
          "internalType": "bytes",
          "name": "script",
          "type": "bytes"
        },
        {
          "internalType": "uint256[]",
          "name": "inputLocations",
          "type": "uint256[]"
        }
      ],
      "name": "queryAllPrices",
      "outputs": [
        {
          "internalType": "bytes",
          "name": "",
          "type": "bytes"
        }
      ],
      "stateMutability": "view",
      "type": "function"
    }
  ],
  "transactionHash": "0x508666242f5e42132f10794bb2c27684ff57d870e4fda9a93a1c57a526030c13",
  "args": [],
  "solcInputHash": "59536337a91024c932facfe596b5086e",
  "bytecode": "0x608060405234801561001057600080fd5b50610856806100206000396000f3fe608060405234801561001057600080fd5b50600436106100415760003560e01c80638ac06f5014610046578063a363a0f31461016f578063e39e64de14610295575b600080fd5b6100fa6004803603604081101561005c57600080fd5b6001600160a01b038235169190810190604081016020820135600160201b81111561008657600080fd5b82018360208201111561009857600080fd5b803590602001918460018302840111600160201b831117156100b957600080fd5b91908080601f0160208091040260200160405190810160405280939291908181526020018383808284376000920191909152509295506103cd945050505050565b6040805160208082528351818301528351919283929083019185019080838360005b8381101561013457818101518382015260200161011c565b50505050905090810190601f1680156101615780820380516001836020036101000a031916815260200191505b509250505060405180910390f35b6100fa6004803603604081101561018557600080fd5b810190602081018135600160201b81111561019f57600080fd5b8201836020820111156101b157600080fd5b803590602001918460018302840111600160201b831117156101d257600080fd5b91908080601f0160208091040260200160405190810160405280939291908181526020018383808284376000920191909152509295949360208101935035915050600160201b81111561022457600080fd5b82018360208201111561023657600080fd5b803590602001918460208302840111600160201b8311171561025757600080fd5b9190808060200260200160405190810160405280939291908181526020018383602002808284376000920191909152509295506104d7945050505050565b6103bb600480360360408110156102ab57600080fd5b810190602081018135600160201b8111156102c557600080fd5b8201836020820111156102d757600080fd5b803590602001918460018302840111600160201b831117156102f857600080fd5b91908080601f0160208091040260200160405190810160405280939291908181526020018383808284376000920191909152509295949360208101935035915050600160201b81111561034a57600080fd5b82018360208201111561035c57600080fd5b803590602001918460208302840111600160201b8311171561037d57600080fd5b919080806020026020016040519081016040528093929190818152602001838360200280828437600092019190915250929550610595945050505050565b60408051918252519081900360200190f35b606060006060846001600160a01b0316846040518082805190602001908083835b6020831061040d5780518252601f1990920191602091820191016103ee565b6001836020036101000a038019825116818451168082178552505050505050905001915050600060405180830381855afa9150503d806000811461046d576040519150601f19603f3d011682016040523d82523d6000602084013e610472565b606091505b5091509150816104c1576040805162461bcd60e51b8152602060048201526015602482015274436f756c64206e6f7420666574636820707269636560581b604482015290519081900360640190fd5b6104ce816000602061064d565b95945050505050565b60606000606080606060008651905060005b88518610156105885760006104fe8a8861070a565b9050600061050f8b89601401610736565b905060348801881580159061052357508385115b156105535760008b858151811061053657fe5b6020026020010151905061054b8d898361073e565b506001909301925b61055e8c828461064d565b955061056a83876103cd565b9650610576888861074a565b975081603401890198505050506104e9565b5092979650505050505050565b805160009081906060908190835b87518510156106365760006105b8898761070a565b905060006105c98a88601401610736565b90506034870187158015906105dd57508385115b1561060d5760008a85815181106105f057fe5b602002602001015190506106058c898361073e565b506001909301925b6106188b828461064d565b955061062483876103cd565b965081603401880197505050506105a3565b6106418460006107c7565b98975050505050505050565b60608183018451101561069c576040805162461bcd60e51b815260206004820152601260248201527152656164206f7574206f6620626f756e647360701b604482015290519081900360640190fd5b6060821580156106b757604051915060208201604052610701565b6040519150601f8416801560200281840101858101878315602002848b0101015b818310156106f05780518352602092830192016106d8565b5050858452601f01601f1916604052505b50949350505050565b6000806107178484610736565b600160601b6bffffffffffffffffffffffff1990911604949350505050565b016020015190565b60209182015192010152565b6060806040519050835180825260208201818101602087015b8183101561077b578051835260209283019201610763565b50855184518101855292509050808201602086015b818310156107a8578051835260209283019201610790565b508651929092011591909101601f01601f191660405250905092915050565b60008160200183511015610817576040805162461bcd60e51b815260206004820152601260248201527152656164206f7574206f6620626f756e647360701b604482015290519081900360640190fd5b5001602001519056fea26469706673582212200aa053080ca70e6ad96d6075e40a84be02e476cfd909e5605831f51791571ab464736f6c63430007040033",
  "devdoc": {
    "kind": "dev",
    "methods": {
      "getPrice(address,bytes)": {
        "params": {
          "contractAddress": "contract to query",
          "data": "the bytecode for the contract call"
        },
        "returns": {
          "_0": "price in bytes"
        }
      },
      "query(bytes,uint256[])": {
        "params": {
          "inputLocations": "index locations within the script to insert input amounts dynamically",
          "script": "the compiled bytecode for the series of function calls to get the final price"
        },
        "returns": {
          "_0": "last price as uint"
        }
      },
      "queryAllPrices(bytes,uint256[])": {
        "params": {
          "inputLocations": "index locations within the script to insert input amounts dynamically",
          "script": "the compiled bytecode for the series of function calls to get the final price"
        },
        "returns": {
          "_0": "all prices as bytes"
        }
      }
    },
    "version": 1
  },
  "userdoc": {
    "kind": "user",
    "methods": {
      "getPrice(address,bytes)": {
        "notice": "Calls the price function specified by data at contractAddress, returning the price as bytes"
      },
      "query(bytes,uint256[])": {
        "notice": "Makes a series of queries at once, returning the final price as a uint"
      },
      "queryAllPrices(bytes,uint256[])": {
        "notice": "Makes a series of queries at once, returning all the prices as bytes"
      }
    },
    "version": 1
  },
  "storageLayout": {
    "storage": [],
    "types": null
  }
}