{
  "address": "0x282A602dba4b124e5Dbdd0cc4Beb1d573060A488",
  "abi": [
    {
      "anonymous": false,
      "inputs": [
        {
          "indexed": true,
          "internalType": "address",
          "name": "newCollector",
          "type": "address"
        },
        {
          "indexed": true,
          "internalType": "address",
          "name": "oldCollector",
          "type": "address"
        }
      ],
      "name": "FeeCollectorSet",
      "type": "event"
    },
    {
      "anonymous": false,
      "inputs": [
        {
          "indexed": true,
          "internalType": "uint32",
          "name": "newFee",
          "type": "uint32"
        },
        {
          "indexed": true,
          "internalType": "uint32",
          "name": "oldFee",
          "type": "uint32"
        }
      ],
      "name": "FeeSet",
      "type": "event"
    },
    {
      "anonymous": false,
      "inputs": [
        {
          "indexed": true,
          "internalType": "address",
          "name": "miner",
          "type": "address"
        },
        {
          "indexed": true,
          "internalType": "address",
          "name": "newSplitTo",
          "type": "address"
        },
        {
          "indexed": true,
          "internalType": "address",
          "name": "oldSplitTo",
          "type": "address"
        },
        {
          "indexed": false,
          "internalType": "uint32",
          "name": "newSplit",
          "type": "uint32"
        },
        {
          "indexed": false,
          "internalType": "uint32",
          "name": "oldSplit",
          "type": "uint32"
        }
      ],
      "name": "MinerSplitUpdated",
      "type": "event"
    },
    {
      "anonymous": false,
      "inputs": [
        {
          "indexed": true,
          "internalType": "bytes32",
          "name": "role",
          "type": "bytes32"
        },
        {
          "indexed": true,
          "internalType": "bytes32",
          "name": "previousAdminRole",
          "type": "bytes32"
        },
        {
          "indexed": true,
          "internalType": "bytes32",
          "name": "newAdminRole",
          "type": "bytes32"
        }
      ],
      "name": "RoleAdminChanged",
      "type": "event"
    },
    {
      "anonymous": false,
      "inputs": [
        {
          "indexed": true,
          "internalType": "bytes32",
          "name": "role",
          "type": "bytes32"
        },
        {
          "indexed": true,
          "internalType": "address",
          "name": "account",
          "type": "address"
        },
        {
          "indexed": true,
          "internalType": "address",
          "name": "sender",
          "type": "address"
        }
      ],
      "name": "RoleGranted",
      "type": "event"
    },
    {
      "anonymous": false,
      "inputs": [
        {
          "indexed": true,
          "internalType": "bytes32",
          "name": "role",
          "type": "bytes32"
        },
        {
          "indexed": true,
          "internalType": "address",
          "name": "account",
          "type": "address"
        },
        {
          "indexed": true,
          "internalType": "address",
          "name": "sender",
          "type": "address"
        }
      ],
      "name": "RoleRevoked",
      "type": "event"
    },
    {
      "anonymous": false,
      "inputs": [
        {
          "indexed": true,
          "internalType": "address",
          "name": "miner",
          "type": "address"
        },
        {
          "indexed": true,
          "internalType": "address",
          "name": "tipper",
          "type": "address"
        },
        {
          "indexed": false,
          "internalType": "uint256",
          "name": "tipAmount",
          "type": "uint256"
        },
        {
          "indexed": false,
          "internalType": "uint256",
          "name": "splitAmount",
          "type": "uint256"
        },
        {
          "indexed": false,
          "internalType": "uint256",
          "name": "feeAmount",
          "type": "uint256"
        },
        {
          "indexed": false,
          "internalType": "address",
          "name": "feeCollector",
          "type": "address"
        }
      ],
      "name": "Tip",
      "type": "event"
    },
    {
      "stateMutability": "payable",
      "type": "fallback"
    },
    {
      "inputs": [],
      "name": "DEFAULT_ADMIN_ROLE",
      "outputs": [
        {
          "internalType": "bytes32",
          "name": "",
          "type": "bytes32"
        }
      ],
      "stateMutability": "view",
      "type": "function"
    },
    {
      "inputs": [],
      "name": "FEE_SETTER_ROLE",
      "outputs": [
        {
          "internalType": "bytes32",
          "name": "",
          "type": "bytes32"
        }
      ],
      "stateMutability": "view",
      "type": "function"
    },
    {
      "inputs": [],
      "name": "TIP_JAR_ADMIN_ROLE",
      "outputs": [
        {
          "internalType": "bytes32",
          "name": "",
          "type": "bytes32"
        }
      ],
      "stateMutability": "view",
      "type": "function"
    },
    {
      "inputs": [
        {
          "internalType": "address",
          "name": "_target",
          "type": "address"
        },
        {
          "internalType": "bytes",
          "name": "_payload",
          "type": "bytes"
        },
        {
          "internalType": "bytes32",
          "name": "_resultMatch",
          "type": "bytes32"
        }
      ],
      "name": "check32BytesAndSend",
      "outputs": [],
      "stateMutability": "payable",
      "type": "function"
    },
    {
      "inputs": [
        {
          "internalType": "address[]",
          "name": "_targets",
          "type": "address[]"
        },
        {
          "internalType": "bytes[]",
          "name": "_payloads",
          "type": "bytes[]"
        },
        {
          "internalType": "bytes32[]",
          "name": "_resultMatches",
          "type": "bytes32[]"
        }
      ],
      "name": "check32BytesAndSendMulti",
      "outputs": [],
      "stateMutability": "payable",
      "type": "function"
    },
    {
      "inputs": [
        {
          "internalType": "address",
          "name": "_target",
          "type": "address"
        },
        {
          "internalType": "bytes",
          "name": "_payload",
          "type": "bytes"
        },
        {
          "internalType": "bytes32",
          "name": "_resultMatch",
          "type": "bytes32"
        }
      ],
      "name": "check32BytesAndTip",
      "outputs": [],
      "stateMutability": "payable",
      "type": "function"
    },
    {
      "inputs": [
        {
          "internalType": "address[]",
          "name": "_targets",
          "type": "address[]"
        },
        {
          "internalType": "bytes[]",
          "name": "_payloads",
          "type": "bytes[]"
        },
        {
          "internalType": "bytes32[]",
          "name": "_resultMatches",
          "type": "bytes32[]"
        }
      ],
      "name": "check32BytesAndTipMulti",
      "outputs": [],
      "stateMutability": "payable",
      "type": "function"
    },
    {
      "inputs": [
        {
          "internalType": "address",
          "name": "_target",
          "type": "address"
        },
        {
          "internalType": "bytes",
          "name": "_payload",
          "type": "bytes"
        },
        {
          "internalType": "bytes",
          "name": "_resultMatch",
          "type": "bytes"
        }
      ],
      "name": "checkBytesAndSend",
      "outputs": [],
      "stateMutability": "payable",
      "type": "function"
    },
    {
      "inputs": [
        {
          "internalType": "address[]",
          "name": "_targets",
          "type": "address[]"
        },
        {
          "internalType": "bytes[]",
          "name": "_payloads",
          "type": "bytes[]"
        },
        {
          "internalType": "bytes[]",
          "name": "_resultMatches",
          "type": "bytes[]"
        }
      ],
      "name": "checkBytesAndSendMulti",
      "outputs": [],
      "stateMutability": "payable",
      "type": "function"
    },
    {
      "inputs": [
        {
          "internalType": "address",
          "name": "_target",
          "type": "address"
        },
        {
          "internalType": "bytes",
          "name": "_payload",
          "type": "bytes"
        },
        {
          "internalType": "bytes",
          "name": "_resultMatch",
          "type": "bytes"
        }
      ],
      "name": "checkBytesAndTip",
      "outputs": [],
      "stateMutability": "payable",
      "type": "function"
    },
    {
      "inputs": [
        {
          "internalType": "address[]",
          "name": "_targets",
          "type": "address[]"
        },
        {
          "internalType": "bytes[]",
          "name": "_payloads",
          "type": "bytes[]"
        },
        {
          "internalType": "bytes[]",
          "name": "_resultMatches",
          "type": "bytes[]"
        }
      ],
      "name": "checkBytesAndTipMulti",
      "outputs": [],
      "stateMutability": "payable",
      "type": "function"
    },
    {
      "inputs": [
        {
          "internalType": "bytes32",
          "name": "role",
          "type": "bytes32"
        }
      ],
      "name": "getRoleAdmin",
      "outputs": [
        {
          "internalType": "bytes32",
          "name": "",
          "type": "bytes32"
        }
      ],
      "stateMutability": "view",
      "type": "function"
    },
    {
      "inputs": [
        {
          "internalType": "bytes32",
          "name": "role",
          "type": "bytes32"
        },
        {
          "internalType": "address",
          "name": "account",
          "type": "address"
        }
      ],
      "name": "grantRole",
      "outputs": [],
      "stateMutability": "nonpayable",
      "type": "function"
    },
    {
      "inputs": [
        {
          "internalType": "bytes32",
          "name": "role",
          "type": "bytes32"
        },
        {
          "internalType": "address",
          "name": "account",
          "type": "address"
        }
      ],
      "name": "hasRole",
      "outputs": [
        {
          "internalType": "bool",
          "name": "",
          "type": "bool"
        }
      ],
      "stateMutability": "view",
      "type": "function"
    },
    {
      "inputs": [
        {
          "internalType": "address",
          "name": "_tipJarAdmin",
          "type": "address"
        },
        {
          "internalType": "address",
          "name": "_feeSetter",
          "type": "address"
        },
        {
          "internalType": "address",
          "name": "_networkFeeCollector",
          "type": "address"
        },
        {
          "internalType": "uint32",
          "name": "_networkFee",
          "type": "uint32"
        }
      ],
      "name": "initialize",
      "outputs": [],
      "stateMutability": "nonpayable",
      "type": "function"
    },
    {
      "inputs": [
        {
          "internalType": "address",
          "name": "",
          "type": "address"
        }
      ],
      "name": "minerSplits",
      "outputs": [
        {
          "internalType": "address",
          "name": "splitTo",
          "type": "address"
        },
        {
          "internalType": "uint32",
          "name": "splitPct",
          "type": "uint32"
        }
      ],
      "stateMutability": "view",
      "type": "function"
    },
    {
      "inputs": [],
      "name": "networkFee",
      "outputs": [
        {
          "internalType": "uint32",
          "name": "",
          "type": "uint32"
        }
      ],
      "stateMutability": "view",
      "type": "function"
    },
    {
      "inputs": [],
      "name": "networkFeeCollector",
      "outputs": [
        {
          "internalType": "address",
          "name": "",
          "type": "address"
        }
      ],
      "stateMutability": "view",
      "type": "function"
    },
    {
      "inputs": [
        {
          "internalType": "bytes32",
          "name": "role",
          "type": "bytes32"
        },
        {
          "internalType": "address",
          "name": "account",
          "type": "address"
        }
      ],
      "name": "renounceRole",
      "outputs": [],
      "stateMutability": "nonpayable",
      "type": "function"
    },
    {
      "inputs": [
        {
          "internalType": "bytes32",
          "name": "role",
          "type": "bytes32"
        },
        {
          "internalType": "address",
          "name": "account",
          "type": "address"
        }
      ],
      "name": "revokeRole",
      "outputs": [],
      "stateMutability": "nonpayable",
      "type": "function"
    },
    {
      "inputs": [
        {
          "internalType": "uint32",
          "name": "newFee",
          "type": "uint32"
        }
      ],
      "name": "setFee",
      "outputs": [],
      "stateMutability": "nonpayable",
      "type": "function"
    },
    {
      "inputs": [
        {
          "internalType": "address",
          "name": "newCollector",
          "type": "address"
        }
      ],
      "name": "setFeeCollector",
      "outputs": [],
      "stateMutability": "nonpayable",
      "type": "function"
    },
    {
      "inputs": [
        {
          "internalType": "bytes4",
          "name": "interfaceId",
          "type": "bytes4"
        }
      ],
      "name": "supportsInterface",
      "outputs": [
        {
          "internalType": "bool",
          "name": "",
          "type": "bool"
        }
      ],
      "stateMutability": "view",
      "type": "function"
    },
    {
      "inputs": [],
      "name": "tip",
      "outputs": [],
      "stateMutability": "payable",
      "type": "function"
    },
    {
      "inputs": [
        {
          "internalType": "address",
          "name": "minerAddress",
          "type": "address"
        },
        {
          "internalType": "address",
          "name": "splitTo",
          "type": "address"
        },
        {
          "internalType": "uint32",
          "name": "splitPct",
          "type": "uint32"
        }
      ],
      "name": "updateMinerSplit",
      "outputs": [],
      "stateMutability": "nonpayable",
      "type": "function"
    },
    {
      "stateMutability": "payable",
      "type": "receive"
    }
  ],
  "transactionHash": "0xc1809d0f5f68ed9442da86f90da7573985dd63ddf733f4bfedd9f3dc1511a2f9",
  "args": [],
  "solcInputHash": "3b29f57f2c1333d49f6f293a8c3b8ae9",
  "bytecode": "0x608060405234801561001057600080fd5b50611c36806100206000396000f3fe60806040526004361061016a5760003560e01c806386b738be116100d1578063a217fddf1161008a578063ce8fac8011610064578063ce8fac8014610443578063d547741f14610456578063e934768314610476578063f856e7c81461049857610171565b8063a217fddf146103a5578063a42dce80146103ba578063bb642e85146103da57610171565b806386b738be146102ed5780638d916340146103005780638e819e541461032057806391d14854146103405780639af96d7e146103605780639db9e18b1461037357610171565b80632f2ff15d116101235780632f2ff15d1461023457806336568abe146102545780633676290c1461027457806337a04af41461028757806348ca0a301461029a5780634b281588146102ad57610171565b806301ffc9a71461017357806311473eba146101a85780631ab971ab146101bb57806324835805146101db578063248a9ca3146101ee5780632755cd2d1461022c57610171565b3661017157005b005b34801561017f57600080fd5b5061019361018e366004611a90565b6104ba565b60405190151581526020015b60405180910390f35b6101716101b63660046119d6565b6104f3565b3480156101c757600080fd5b506101716101d6366004611ab8565b610511565b6101716101e93660046118c2565b61061d565b3480156101fa57600080fd5b5061021e610209366004611a4d565b60009081526065602052604090206001015490565b60405190815260200161019f565b610171610698565b34801561024057600080fd5b5061017161024f366004611a65565b610977565b34801561026057600080fd5b5061017161026f366004611a65565b610a06565b6101716102823660046119d6565b610a80565b610171610295366004611940565b610a8e565b6101716102a83660046118c2565b610a9c565b3480156102b957600080fd5b506097546102d59064010000000090046001600160a01b031681565b6040516001600160a01b03909116815260200161019f565b6101716102fb36600461186a565b610b18565b34801561030c57600080fd5b5061017161031b366004611828565b610b60565b34801561032c57600080fd5b5061017161033b3660046117d5565b610da1565b34801561034c57600080fd5b5061019361035b366004611a65565b610f61565b61017161036e366004611940565b610f8c565b34801561037f57600080fd5b506097546103909063ffffffff1681565b60405163ffffffff909116815260200161019f565b3480156103b157600080fd5b5061021e600081565b3480156103c657600080fd5b506101716103d53660046117b4565b610f9a565b3480156103e657600080fd5b5061041f6103f53660046117b4565b6098602052600090815260409020546001600160a01b03811690600160a01b900463ffffffff1682565b604080516001600160a01b03909316835263ffffffff90911660208301520161019f565b61017161045136600461186a565b611080565b34801561046257600080fd5b50610171610471366004611a65565b6110ca565b34801561048257600080fd5b5061021e600080516020611bc183398151915281565b3480156104a457600080fd5b5061021e600080516020611be183398151915281565b60006001600160e01b03198216637965db0b60e01b14806104eb57506301ffc9a760e01b6001600160e01b03198316145b90505b919050565b61050186868686868661114a565b610509610698565b505050505050565b610529600080516020611bc183398151915233610f61565b6105885760405162461bcd60e51b815260206004820152602560248201527f43616c6c6572206d7573742068617665204645455f5345545445525f524f4c4560448201526420726f6c6560d81b60648201526084015b60405180910390fd5b620f42408163ffffffff1611156105c95760405162461bcd60e51b81526020600482015260056024820152643e3130302560d81b604482015260640161057f565b60975460405163ffffffff918216918316907fa8d5cd5754f57c9e07e1a75b048989e56418a7c706f6e4007daab8a6e1d7d6cc90600090a36097805463ffffffff191663ffffffff92909216919091179055565b6106918585858080601f01602080910402602001604051908101604052809392919081815260200183838082843760009201919091525050604080516020601f8901819004810282018101909252878152925087915086908190840183828082843760009201919091525061129592505050565b5050505050565b6097546000908190819063ffffffff161561077857609754620f4240906106c59063ffffffff1647611b70565b6106cf9190611b50565b6097546040519193506000916401000000009091046001600160a01b03169084908381818185875af1925050503d8060008114610728576040519150601f19603f3d011682016040523d82523d6000602084013e61072d565b606091505b50509050806107765760405162461bcd60e51b8152602060048201526015602482015274436f756c64206e6f7420636f6c6c6563742066656560581b604482015260640161057f565b505b41600090815260986020526040902054600160a01b900463ffffffff16156108785741600090815260986020526040902054620f4240906107c690600160a01b900463ffffffff1647611b70565b6107d09190611b50565b4160009081526098602052604080822054905192935090916001600160a01b039091169083908381818185875af1925050503d806000811461082e576040519150601f19603f3d011682016040523d82523d6000602084013e610833565b606091505b50509050806108765760405162461bcd60e51b815260206004820152600f60248201526e10dbdd5b19081b9bdd081cdc1b1a5d608a1b604482015260640161057f565b505b471561091357604051479350600090419085908381818185875af1925050503d80600081146108c3576040519150601f19603f3d011682016040523d82523d6000602084013e6108c8565b606091505b50509050806109115760405162461bcd60e51b8152602060048201526015602482015274086deead8c840dcdee840c6ded8d8cac6e8408aa89605b1b604482015260640161057f565b505b60975460408051858152602081018490529081018490526401000000009091046001600160a01b03166060820152339041907f4e9691bacc489b285a194d91cc2ddde2e7bcf6409b9ad9b3433604471ec550739060800160405180910390a3505050565b600082815260656020526040902060010154610994905b3361035b565b6109f85760405162461bcd60e51b815260206004820152602f60248201527f416363657373436f6e74726f6c3a2073656e646572206d75737420626520616e60448201526e0818591b5a5b881d1bc819dc985b9d608a1b606482015260840161057f565b610a02828261138a565b5050565b6001600160a01b0381163314610a765760405162461bcd60e51b815260206004820152602f60248201527f416363657373436f6e74726f6c3a2063616e206f6e6c792072656e6f756e636560448201526e103937b632b9903337b91039b2b63360891b606482015260840161057f565b610a028282611410565b61050986868686868661114a565b610501868686868686611477565b610b108585858080601f01602080910402602001604051908101604052809392919081815260200183838082843760009201919091525050604080516020601f8901819004810282018101909252878152925087915086908190840183828082843760009201919091525061129592505050565b610691610698565b610b5a8484848080601f016020809104026020016040519081016040528093929190818152602001838380828437600092019190915250869250611579915050565b50505050565b82336001600160a01b0382161480610b8b5750610b8b600080516020611be183398151915233610f61565b610bf45760405162461bcd60e51b815260206004820152603460248201527f43616c6c6572206d757374206265206d696e6572206f722068617665205449506044820152735f4a41525f41444d494e5f524f4c4520726f6c6560601b606482015260840161057f565b600060986000866001600160a01b03166001600160a01b031681526020019081526020016000206040518060400160405290816000820160009054906101000a90046001600160a01b03166001600160a01b03166001600160a01b031681526020016000820160149054906101000a900463ffffffff1663ffffffff1663ffffffff168152505090506000816000015190506000826020015190506040518060400160405280876001600160a01b031681526020018663ffffffff1681525060986000896001600160a01b03166001600160a01b0316815260200190815260200160002060008201518160000160006101000a8154816001600160a01b0302191690836001600160a01b0316021790555060208201518160000160146101000a81548163ffffffff021916908363ffffffff160217905550905050816001600160a01b0316866001600160a01b0316886001600160a01b03167fc659a685e66f552150d79438e7b594425a44c700923bbb3d32226b0a88ee1c528885604051610d9092919063ffffffff92831681529116602082015260400190565b60405180910390a450505050505050565b600054610100900460ff1680610dba575060005460ff16155b610e1d5760405162461bcd60e51b815260206004820152602e60248201527f496e697469616c697a61626c653a20636f6e747261637420697320616c72656160448201526d191e481a5b9a5d1a585b1a5e995960921b606482015260840161057f565b600054610100900460ff16158015610e3f576000805461ffff19166101011790555b610e57600080516020611be1833981519152806116ab565b610e7d600080516020611bc1833981519152600080516020611be18339815191526116ab565b610e95600080516020611be1833981519152866109f8565b610ead600080516020611bc1833981519152856109f8565b60978054640100000000600160c01b0319166401000000006001600160a01b03861690810291909117909155604051600091907f089588e3f10370c99a6f74177eacb5361ba90e1b70a123bfeccb6619c21cd721908390a36097805463ffffffff191663ffffffff8416908117909155604051600091907fa8d5cd5754f57c9e07e1a75b048989e56418a7c706f6e4007daab8a6e1d7d6cc908390a38015610691576000805461ff00191690555050505050565b60009182526065602090815260408084206001600160a01b0393909316845291905290205460ff1690565b610509868686868686611477565b610fb2600080516020611be183398151915233610f61565b61100f5760405162461bcd60e51b815260206004820152602860248201527f43616c6c6572206d7573742068617665205449505f4a41525f41444d494e5f526044820152674f4c4520726f6c6560c01b606482015260840161057f565b6097546040516001600160a01b036401000000009092048216918316907f089588e3f10370c99a6f74177eacb5361ba90e1b70a123bfeccb6619c21cd72190600090a3609780546001600160a01b0390921664010000000002640100000000600160c01b0319909216919091179055565b6110c28484848080601f016020809104026020016040519081016040528093929190818152602001838380828437600092019190915250869250611579915050565b610b5a610698565b6000828152606560205260409020600101546110e59061098e565b610a765760405162461bcd60e51b815260206004820152603060248201527f416363657373436f6e74726f6c3a2073656e646572206d75737420626520616e60448201526f2061646d696e20746f207265766f6b6560801b606482015260840161057f565b84831461115657600080fd5b84811461116257600080fd5b60005b8581101561128c5761127a87878381811061119057634e487b7160e01b600052603260045260246000fd5b90506020020160208101906111a591906117b4565b8686848181106111c557634e487b7160e01b600052603260045260246000fd5b90506020028101906111d79190611b0b565b8080601f01602080910402602001604051908101604052809392919081815260200183838082843760009201919091525088925087915086905081811061122e57634e487b7160e01b600052603260045260246000fd5b90506020028101906112409190611b0b565b8080601f01602080910402602001604051908101604052809392919081815260200183838082843760009201919091525061129592505050565b8061128481611b8f565b915050611165565b50505050505050565b600080846001600160a01b0316846040516112b09190611ad2565b600060405180830381855afa9150503d80600081146112eb576040519150601f19603f3d011682016040523d82523d6000602084013e6112f0565b606091505b50915091508161132d5760405162461bcd60e51b8152602060048201526008602482015267217375636365737360c01b604482015260640161057f565b80805190602001208380519060200120146106915760405162461bcd60e51b815260206004820152601760248201527f726573706f6e7365206279746573206d69736d61746368000000000000000000604482015260640161057f565b6113948282610f61565b610a025760008281526065602090815260408083206001600160a01b03851684529091529020805460ff191660011790556113cc3390565b6001600160a01b0316816001600160a01b0316837f2f8788117e7eff1d82e926ec794901d17c78024a50270940304540a733656f0d60405160405180910390a45050565b61141a8282610f61565b15610a025760008281526065602090815260408083206001600160a01b0385168085529252808320805460ff1916905551339285917ff6391f5c32d9c69d2a47ea670b442974b53935d1edc7fd64eb21e047a839171b9190a45050565b84831461148357600080fd5b84811461148f57600080fd5b60005b8581101561128c576115678787838181106114bd57634e487b7160e01b600052603260045260246000fd5b90506020020160208101906114d291906117b4565b8686848181106114f257634e487b7160e01b600052603260045260246000fd5b90506020028101906115049190611b0b565b8080601f01602080910402602001604051908101604052809392919081815260200183838082843760009201919091525088925087915086905081811061155b57634e487b7160e01b600052603260045260246000fd5b90506020020135611579565b8061157181611b8f565b915050611492565b600080846001600160a01b0316846040516115949190611ad2565b600060405180830381855afa9150503d80600081146115cf576040519150601f19603f3d011682016040523d82523d6000602084013e6115d4565b606091505b5091509150816116115760405162461bcd60e51b8152602060048201526008602482015267217375636365737360c01b604482015260640161057f565b6020815110156116635760405162461bcd60e51b815260206004820152601b60248201527f726573706f6e7365206c657373207468616e2033322062797465730000000000604482015260640161057f565b60208101518381146105095760405162461bcd60e51b81526020600482015260116024820152700e4cae6e0dedce6ca40dad2e6dac2e8c6d607b1b604482015260640161057f565b600082815260656020526040902060010154819060405184907fbd79b86ffe0ab8e8776151514217cd7cacd52c909f66475c3af44e129f0b00ff90600090a460009182526065602052604090912060010155565b80356001600160a01b03811681146104ee57600080fd5b60008083601f840112611727578182fd5b50813567ffffffffffffffff81111561173e578182fd5b6020830191508360208260051b850101111561175957600080fd5b9250929050565b60008083601f840112611771578182fd5b50813567ffffffffffffffff811115611788578182fd5b60208301915083602082850101111561175957600080fd5b803563ffffffff811681146104ee57600080fd5b6000602082840312156117c5578081fd5b6117ce826116ff565b9392505050565b600080600080608085870312156117ea578283fd5b6117f3856116ff565b9350611801602086016116ff565b925061180f604086016116ff565b915061181d606086016117a0565b905092959194509250565b60008060006060848603121561183c578283fd5b611845846116ff565b9250611853602085016116ff565b9150611861604085016117a0565b90509250925092565b6000806000806060858703121561187f578384fd5b611888856116ff565b9350602085013567ffffffffffffffff8111156118a3578384fd5b6118af87828801611760565b9598909750949560400135949350505050565b6000806000806000606086880312156118d9578081fd5b6118e2866116ff565b9450602086013567ffffffffffffffff808211156118fe578283fd5b61190a89838a01611760565b90965094506040880135915080821115611922578283fd5b5061192f88828901611760565b969995985093965092949392505050565b60008060008060008060608789031215611958578081fd5b863567ffffffffffffffff8082111561196f578283fd5b61197b8a838b01611716565b90985096506020890135915080821115611993578283fd5b61199f8a838b01611716565b909650945060408901359150808211156119b7578283fd5b506119c489828a01611716565b979a9699509497509295939492505050565b600080600080600080606087890312156119ee578182fd5b863567ffffffffffffffff80821115611a05578384fd5b611a118a838b01611716565b90985096506020890135915080821115611a29578384fd5b611a358a838b01611716565b909650945060408901359150808211156119b7578384fd5b600060208284031215611a5e578081fd5b5035919050565b60008060408385031215611a77578182fd5b82359150611a87602084016116ff565b90509250929050565b600060208284031215611aa1578081fd5b81356001600160e01b0319811681146117ce578182fd5b600060208284031215611ac9578081fd5b6117ce826117a0565b60008251815b81811015611af25760208186018101518583015201611ad8565b81811115611b005782828501525b509190910192915050565b6000808335601e19843603018112611b21578283fd5b83018035915067ffffffffffffffff821115611b3b578283fd5b60200191503681900382131561175957600080fd5b600082611b6b57634e487b7160e01b81526012600452602481fd5b500490565b6000816000190483118215151615611b8a57611b8a611baa565b500290565b6000600019821415611ba357611ba3611baa565b5060010190565b634e487b7160e01b600052601160045260246000fdfee6ad9a47fbda1dc18de1eb5eeb7d935e5e81b4748f3cfc61e233e64f881820600938034daff16723b6cfe3b3b828d3aed52d6e6c5275df2d0555a160aabd2046a26469706673582212208d00a761682ddcc20e159d98b253ba1a95494f684172f6d9b9e6dae2325e567764736f6c63430008030033",
  "devdoc": {
    "details": "Allows suppliers to create a tip that gets distributed to miners + the network",
    "kind": "dev",
    "methods": {
      "check32BytesAndSend(address,bytes,bytes32)": {
        "params": {
          "_payload": "contract call bytes",
          "_resultMatch": "result to match",
          "_target": "target contract"
        }
      },
      "check32BytesAndSendMulti(address[],bytes[],bytes32[])": {
        "params": {
          "_payloads": "contract call bytes",
          "_resultMatches": "results to match",
          "_targets": "target contracts"
        }
      },
      "check32BytesAndTip(address,bytes,bytes32)": {
        "params": {
          "_payload": "contract call bytes",
          "_resultMatch": "result to match",
          "_target": "target contract"
        }
      },
      "check32BytesAndTipMulti(address[],bytes[],bytes32[])": {
        "params": {
          "_payloads": "contract call bytes",
          "_resultMatches": "results to match",
          "_targets": "target contracts"
        }
      },
      "checkBytesAndSend(address,bytes,bytes)": {
        "params": {
          "_payload": "contract call bytes",
          "_resultMatch": "result to match",
          "_target": "target contract"
        }
      },
      "checkBytesAndSendMulti(address[],bytes[],bytes[])": {
        "params": {
          "_payloads": "contract call bytes",
          "_resultMatches": "results to match",
          "_targets": "target contracts"
        }
      },
      "checkBytesAndTip(address,bytes,bytes)": {
        "params": {
          "_payload": "contract call bytes",
          "_resultMatch": "result to match",
          "_target": "target contract"
        }
      },
      "checkBytesAndTipMulti(address[],bytes[],bytes[])": {
        "params": {
          "_payloads": "contract call bytes",
          "_resultMatches": "results to match",
          "_targets": "target contracts"
        }
      },
      "getRoleAdmin(bytes32)": {
        "details": "Returns the admin role that controls `role`. See {grantRole} and {revokeRole}. To change a role's admin, use {_setRoleAdmin}."
      },
      "grantRole(bytes32,address)": {
        "details": "Grants `role` to `account`. If `account` had not been already granted `role`, emits a {RoleGranted} event. Requirements: - the caller must have ``role``'s admin role."
      },
      "hasRole(bytes32,address)": {
        "details": "Returns `true` if `account` has been granted `role`."
      },
      "initialize(address,address,address,uint32)": {
        "params": {
          "_feeSetter": "fee setter address",
          "_networkFee": "% of fee collected by the network",
          "_networkFeeCollector": "address that collects network fees",
          "_tipJarAdmin": "admin of tip pool"
        }
      },
      "renounceRole(bytes32,address)": {
        "details": "Revokes `role` from the calling account. Roles are often managed via {grantRole} and {revokeRole}: this function's purpose is to provide a mechanism for accounts to lose their privileges if they are compromised (such as when a trusted device is misplaced). If the calling account had been granted `role`, emits a {RoleRevoked} event. Requirements: - the caller must be `account`."
      },
      "revokeRole(bytes32,address)": {
        "details": "Revokes `role` from `account`. If `account` had been granted `role`, emits a {RoleRevoked} event. Requirements: - the caller must have ``role``'s admin role."
      },
      "setFee(uint32)": {
        "params": {
          "newFee": "new fee"
        }
      },
      "setFeeCollector(address)": {
        "params": {
          "newCollector": "new fee collector address"
        }
      },
      "supportsInterface(bytes4)": {
        "details": "See {IERC165-supportsInterface}."
      },
      "updateMinerSplit(address,address,uint32)": {
        "params": {
          "minerAddress": "Address of miner",
          "splitPct": "% of tip that splitTo receives",
          "splitTo": "Address that receives split"
        }
      }
    },
    "title": "TipJar",
    "version": 1
  },
  "userdoc": {
    "events": {
      "FeeCollectorSet(address,address)": {
        "notice": "Fee collector set event"
      },
      "FeeSet(uint32,uint32)": {
        "notice": "Fee set event"
      },
      "MinerSplitUpdated(address,address,address,uint32,uint32)": {
        "notice": "Miner split updated event"
      },
      "Tip(address,address,uint256,uint256,uint256,address)": {
        "notice": "Tip event"
      }
    },
    "kind": "user",
    "methods": {
      "FEE_SETTER_ROLE()": {
        "notice": "Fee setter role"
      },
      "TIP_JAR_ADMIN_ROLE()": {
        "notice": "TipJar Admin role"
      },
      "check32BytesAndSend(address,bytes,bytes32)": {
        "notice": "Check that contract call results in specific 32 bytes value, then transfer ETH"
      },
      "check32BytesAndSendMulti(address[],bytes[],bytes32[])": {
        "notice": "Check that multiple contract calls result in specific 32 bytes value, then transfer ETH"
      },
      "check32BytesAndTip(address,bytes,bytes32)": {
        "notice": "Check that contract call results in specific 32 bytes value, then tip"
      },
      "check32BytesAndTipMulti(address[],bytes[],bytes32[])": {
        "notice": "Check that multiple contract calls result in specific 32 bytes value, then tip"
      },
      "checkBytesAndSend(address,bytes,bytes)": {
        "notice": "Check that contract call results in specific bytes value, then transfer ETH"
      },
      "checkBytesAndSendMulti(address[],bytes[],bytes[])": {
        "notice": "Check that multiple contract calls result in specific bytes value, then transfer ETH"
      },
      "checkBytesAndTip(address,bytes,bytes)": {
        "notice": "Check that contract call results in specific bytes value, then tip"
      },
      "checkBytesAndTipMulti(address[],bytes[],bytes[])": {
        "notice": "Check that multiple contract calls result in specific bytes value, then tip"
      },
      "initialize(address,address,address,uint32)": {
        "notice": "Initializes contract, setting admin roles + network fee"
      },
      "minerSplits(address)": {
        "notice": "Miner split mapping"
      },
      "networkFee()": {
        "notice": "Network fee (measured in bips: 10,000 bips = 1% of contract balance)"
      },
      "networkFeeCollector()": {
        "notice": "Network fee output address"
      },
      "setFee(uint32)": {
        "notice": "Admin function to set network fee"
      },
      "setFeeCollector(address)": {
        "notice": "Admin function to set fee collector address"
      },
      "tip()": {
        "notice": "Distributes any ETH in contract to relevant parties"
      },
      "updateMinerSplit(address,address,uint32)": {
        "notice": "Update split % and split to address for given miner"
      }
    },
    "version": 1
  },
  "storageLayout": {
    "storage": [
      {
        "astId": 3126,
        "contract": "contracts/TipJar.sol:TipJar",
        "label": "_initialized",
        "offset": 0,
        "slot": "0",
        "type": "t_bool"
      },
      {
        "astId": 3129,
        "contract": "contracts/TipJar.sol:TipJar",
        "label": "_initializing",
        "offset": 1,
        "slot": "0",
        "type": "t_bool"
      },
      {
        "astId": 3072,
        "contract": "contracts/TipJar.sol:TipJar",
        "label": "__gap",
        "offset": 0,
        "slot": "1",
        "type": "t_array(t_uint256)50_storage"
      },
      {
        "astId": 3118,
        "contract": "contracts/TipJar.sol:TipJar",
        "label": "__gap",
        "offset": 0,
        "slot": "51",
        "type": "t_array(t_uint256)50_storage"
      },
      {
        "astId": 2330,
        "contract": "contracts/TipJar.sol:TipJar",
        "label": "_roles",
        "offset": 0,
        "slot": "101",
        "type": "t_mapping(t_bytes32,t_struct(RoleData)2325_storage)"
      },
      {
        "astId": 2594,
        "contract": "contracts/TipJar.sol:TipJar",
        "label": "__gap",
        "offset": 0,
        "slot": "102",
        "type": "t_array(t_uint256)49_storage"
      },
      {
        "astId": 23,
        "contract": "contracts/TipJar.sol:TipJar",
        "label": "networkFee",
        "offset": 0,
        "slot": "151",
        "type": "t_uint32"
      },
      {
        "astId": 26,
        "contract": "contracts/TipJar.sol:TipJar",
        "label": "networkFeeCollector",
        "offset": 4,
        "slot": "151",
        "type": "t_address"
      },
      {
        "astId": 37,
        "contract": "contracts/TipJar.sol:TipJar",
        "label": "minerSplits",
        "offset": 0,
        "slot": "152",
        "type": "t_mapping(t_address,t_struct(Split)31_storage)"
      }
    ],
    "types": {
      "t_address": {
        "encoding": "inplace",
        "label": "address",
        "numberOfBytes": "20"
      },
      "t_array(t_uint256)49_storage": {
        "base": "t_uint256",
        "encoding": "inplace",
        "label": "uint256[49]",
        "numberOfBytes": "1568"
      },
      "t_array(t_uint256)50_storage": {
        "base": "t_uint256",
        "encoding": "inplace",
        "label": "uint256[50]",
        "numberOfBytes": "1600"
      },
      "t_bool": {
        "encoding": "inplace",
        "label": "bool",
        "numberOfBytes": "1"
      },
      "t_bytes32": {
        "encoding": "inplace",
        "label": "bytes32",
        "numberOfBytes": "32"
      },
      "t_mapping(t_address,t_bool)": {
        "encoding": "mapping",
        "key": "t_address",
        "label": "mapping(address => bool)",
        "numberOfBytes": "32",
        "value": "t_bool"
      },
      "t_mapping(t_address,t_struct(Split)31_storage)": {
        "encoding": "mapping",
        "key": "t_address",
        "label": "mapping(address => struct TipJar.Split)",
        "numberOfBytes": "32",
        "value": "t_struct(Split)31_storage"
      },
      "t_mapping(t_bytes32,t_struct(RoleData)2325_storage)": {
        "encoding": "mapping",
        "key": "t_bytes32",
        "label": "mapping(bytes32 => struct AccessControlUpgradeable.RoleData)",
        "numberOfBytes": "32",
        "value": "t_struct(RoleData)2325_storage"
      },
      "t_struct(RoleData)2325_storage": {
        "encoding": "inplace",
        "label": "struct AccessControlUpgradeable.RoleData",
        "members": [
          {
            "astId": 2322,
            "contract": "contracts/TipJar.sol:TipJar",
            "label": "members",
            "offset": 0,
            "slot": "0",
            "type": "t_mapping(t_address,t_bool)"
          },
          {
            "astId": 2324,
            "contract": "contracts/TipJar.sol:TipJar",
            "label": "adminRole",
            "offset": 0,
            "slot": "1",
            "type": "t_bytes32"
          }
        ],
        "numberOfBytes": "64"
      },
      "t_struct(Split)31_storage": {
        "encoding": "inplace",
        "label": "struct TipJar.Split",
        "members": [
          {
            "astId": 28,
            "contract": "contracts/TipJar.sol:TipJar",
            "label": "splitTo",
            "offset": 0,
            "slot": "0",
            "type": "t_address"
          },
          {
            "astId": 30,
            "contract": "contracts/TipJar.sol:TipJar",
            "label": "splitPct",
            "offset": 20,
            "slot": "0",
            "type": "t_uint32"
          }
        ],
        "numberOfBytes": "32"
      },
      "t_uint256": {
        "encoding": "inplace",
        "label": "uint256",
        "numberOfBytes": "32"
      },
      "t_uint32": {
        "encoding": "inplace",
        "label": "uint32",
        "numberOfBytes": "4"
      }
    }
  }
}