{
  "address": "0x7fc3462ca92360629Ef0cb0969f0560e1153fFFf",
  "abi": [
    {
      "inputs": [],
      "stateMutability": "nonpayable",
      "type": "constructor"
    },
    {
      "anonymous": false,
      "inputs": [
        {
          "indexed": true,
          "internalType": "address",
          "name": "oldAdmin",
          "type": "address"
        },
        {
          "indexed": true,
          "internalType": "address",
          "name": "newAdmin",
          "type": "address"
        }
      ],
      "name": "AdminChanged",
      "type": "event"
    },
    {
      "anonymous": false,
      "inputs": [
        {
          "indexed": true,
          "internalType": "string",
          "name": "delayType",
          "type": "string"
        },
        {
          "indexed": true,
          "internalType": "uint256",
          "name": "oldDelay",
          "type": "uint256"
        },
        {
          "indexed": true,
          "internalType": "uint256",
          "name": "newDelay",
          "type": "uint256"
        }
      ],
      "name": "DelayChanged",
      "type": "event"
    },
    {
      "anonymous": false,
      "inputs": [
        {
          "indexed": true,
          "internalType": "address",
          "name": "approver",
          "type": "address"
        },
        {
          "indexed": false,
          "internalType": "uint32",
          "name": "newFee",
          "type": "uint32"
        }
      ],
      "name": "FeeApproval",
      "type": "event"
    },
    {
      "anonymous": false,
      "inputs": [
        {
          "indexed": true,
          "internalType": "address",
          "name": "approver",
          "type": "address"
        },
        {
          "indexed": true,
          "internalType": "address",
          "name": "newCollector",
          "type": "address"
        }
      ],
      "name": "FeeCollectorApproval",
      "type": "event"
    },
    {
      "anonymous": false,
      "inputs": [
        {
          "indexed": true,
          "internalType": "address",
          "name": "proposer",
          "type": "address"
        },
        {
          "indexed": true,
          "internalType": "address",
          "name": "newCollector",
          "type": "address"
        },
        {
          "indexed": false,
          "internalType": "uint256",
          "name": "eta",
          "type": "uint256"
        },
        {
          "indexed": false,
          "internalType": "bytes32",
          "name": "proposalID",
          "type": "bytes32"
        },
        {
          "indexed": false,
          "internalType": "bytes32",
          "name": "salt",
          "type": "bytes32"
        }
      ],
      "name": "FeeCollectorProposal",
      "type": "event"
    },
    {
      "anonymous": false,
      "inputs": [
        {
          "indexed": true,
          "internalType": "address",
          "name": "proposer",
          "type": "address"
        },
        {
          "indexed": false,
          "internalType": "uint32",
          "name": "newFee",
          "type": "uint32"
        },
        {
          "indexed": false,
          "internalType": "uint256",
          "name": "eta",
          "type": "uint256"
        },
        {
          "indexed": false,
          "internalType": "bytes32",
          "name": "proposalID",
          "type": "bytes32"
        },
        {
          "indexed": false,
          "internalType": "bytes32",
          "name": "salt",
          "type": "bytes32"
        }
      ],
      "name": "FeeProposal",
      "type": "event"
    },
    {
      "anonymous": false,
      "inputs": [
        {
          "indexed": true,
          "internalType": "address",
          "name": "approver",
          "type": "address"
        },
        {
          "indexed": true,
          "internalType": "address",
          "name": "miner",
          "type": "address"
        },
        {
          "indexed": true,
          "internalType": "address",
          "name": "splitTo",
          "type": "address"
        },
        {
          "indexed": false,
          "internalType": "uint32",
          "name": "splitPct",
          "type": "uint32"
        }
      ],
      "name": "MinerSplitApproval",
      "type": "event"
    },
    {
      "anonymous": false,
      "inputs": [
        {
          "indexed": true,
          "internalType": "address",
          "name": "proposer",
          "type": "address"
        },
        {
          "indexed": true,
          "internalType": "address",
          "name": "miner",
          "type": "address"
        },
        {
          "indexed": true,
          "internalType": "address",
          "name": "splitTo",
          "type": "address"
        },
        {
          "indexed": false,
          "internalType": "uint32",
          "name": "splitPct",
          "type": "uint32"
        },
        {
          "indexed": false,
          "internalType": "uint256",
          "name": "eta",
          "type": "uint256"
        },
        {
          "indexed": false,
          "internalType": "bytes32",
          "name": "proposalID",
          "type": "bytes32"
        },
        {
          "indexed": false,
          "internalType": "bytes32",
          "name": "salt",
          "type": "bytes32"
        }
      ],
      "name": "MinerSplitProposal",
      "type": "event"
    },
    {
      "anonymous": false,
      "inputs": [
        {
          "indexed": true,
          "internalType": "address",
          "name": "oldTimelock",
          "type": "address"
        },
        {
          "indexed": true,
          "internalType": "address",
          "name": "newTimelock",
          "type": "address"
        }
      ],
      "name": "TimelockChanged",
      "type": "event"
    },
    {
      "anonymous": false,
      "inputs": [
        {
          "indexed": true,
          "internalType": "address",
          "name": "oldTipJar",
          "type": "address"
        },
        {
          "indexed": true,
          "internalType": "address",
          "name": "newTipJar",
          "type": "address"
        }
      ],
      "name": "TipJarChanged",
      "type": "event"
    },
    {
      "stateMutability": "payable",
      "type": "fallback"
    },
    {
      "inputs": [],
      "name": "admin",
      "outputs": [
        {
          "internalType": "address",
          "name": "",
          "type": "address"
        }
      ],
      "stateMutability": "view",
      "type": "function"
    },
    {
      "inputs": [
        {
          "internalType": "address",
          "name": "newAdmin",
          "type": "address"
        },
        {
          "internalType": "bytes32",
          "name": "salt",
          "type": "bytes32"
        }
      ],
      "name": "approveNewAdmin",
      "outputs": [],
      "stateMutability": "nonpayable",
      "type": "function"
    },
    {
      "inputs": [
        {
          "internalType": "uint256",
          "name": "newDelay",
          "type": "uint256"
        },
        {
          "internalType": "bytes32",
          "name": "salt",
          "type": "bytes32"
        }
      ],
      "name": "approveNewCriticalDelay",
      "outputs": [],
      "stateMutability": "nonpayable",
      "type": "function"
    },
    {
      "inputs": [
        {
          "internalType": "uint32",
          "name": "newFee",
          "type": "uint32"
        },
        {
          "internalType": "bytes32",
          "name": "salt",
          "type": "bytes32"
        }
      ],
      "name": "approveNewFee",
      "outputs": [],
      "stateMutability": "nonpayable",
      "type": "function"
    },
    {
      "inputs": [
        {
          "internalType": "address",
          "name": "newFeeCollector",
          "type": "address"
        },
        {
          "internalType": "bytes32",
          "name": "salt",
          "type": "bytes32"
        }
      ],
      "name": "approveNewFeeCollector",
      "outputs": [],
      "stateMutability": "nonpayable",
      "type": "function"
    },
    {
      "inputs": [
        {
          "internalType": "address",
          "name": "minerAddress",
          "type": "address"
        },
        {
          "internalType": "address",
          "name": "splitTo",
          "type": "address"
        },
        {
          "internalType": "uint32",
          "name": "splitPct",
          "type": "uint32"
        },
        {
          "internalType": "bytes32",
          "name": "salt",
          "type": "bytes32"
        }
      ],
      "name": "approveNewMinerSplit",
      "outputs": [],
      "stateMutability": "nonpayable",
      "type": "function"
    },
    {
      "inputs": [
        {
          "internalType": "address",
          "name": "newAdmin",
          "type": "address"
        },
        {
          "internalType": "bytes32",
          "name": "salt",
          "type": "bytes32"
        }
      ],
      "name": "approveNewProxyAdmin",
      "outputs": [],
      "stateMutability": "nonpayable",
      "type": "function"
    },
    {
      "inputs": [
        {
          "internalType": "uint256",
          "name": "newDelay",
          "type": "uint256"
        },
        {
          "internalType": "bytes32",
          "name": "salt",
          "type": "bytes32"
        }
      ],
      "name": "approveNewRegularDelay",
      "outputs": [],
      "stateMutability": "nonpayable",
      "type": "function"
    },
    {
      "inputs": [
        {
          "internalType": "address",
          "name": "newTimelock",
          "type": "address"
        },
        {
          "internalType": "bytes32",
          "name": "salt",
          "type": "bytes32"
        }
      ],
      "name": "approveNewTimelock",
      "outputs": [],
      "stateMutability": "nonpayable",
      "type": "function"
    },
    {
      "inputs": [
        {
          "internalType": "address",
          "name": "newTipJar",
          "type": "address"
        },
        {
          "internalType": "bytes32",
          "name": "salt",
          "type": "bytes32"
        }
      ],
      "name": "approveNewTipJar",
      "outputs": [],
      "stateMutability": "nonpayable",
      "type": "function"
    },
    {
      "inputs": [
        {
          "internalType": "address",
          "name": "newImplementation",
          "type": "address"
        },
        {
          "internalType": "bytes32",
          "name": "salt",
          "type": "bytes32"
        }
      ],
      "name": "approveUpgrade",
      "outputs": [],
      "stateMutability": "nonpayable",
      "type": "function"
    },
    {
      "inputs": [
        {
          "internalType": "address",
          "name": "newImplementation",
          "type": "address"
        },
        {
          "internalType": "bytes",
          "name": "data",
          "type": "bytes"
        },
        {
          "internalType": "uint256",
          "name": "value",
          "type": "uint256"
        },
        {
          "internalType": "bytes32",
          "name": "salt",
          "type": "bytes32"
        }
      ],
      "name": "approveUpgradeAndCall",
      "outputs": [],
      "stateMutability": "payable",
      "type": "function"
    },
    {
      "inputs": [
        {
          "internalType": "bytes32",
          "name": "id",
          "type": "bytes32"
        }
      ],
      "name": "cancelProposal",
      "outputs": [],
      "stateMutability": "nonpayable",
      "type": "function"
    },
    {
      "inputs": [
        {
          "internalType": "address",
          "name": "target",
          "type": "address"
        },
        {
          "internalType": "uint256",
          "name": "value",
          "type": "uint256"
        },
        {
          "internalType": "bytes",
          "name": "data",
          "type": "bytes"
        },
        {
          "internalType": "bytes32",
          "name": "predecessor",
          "type": "bytes32"
        },
        {
          "internalType": "bytes32",
          "name": "salt",
          "type": "bytes32"
        }
      ],
      "name": "createProposal",
      "outputs": [],
      "stateMutability": "nonpayable",
      "type": "function"
    },
    {
      "inputs": [
        {
          "internalType": "address[]",
          "name": "targets",
          "type": "address[]"
        },
        {
          "internalType": "uint256[]",
          "name": "values",
          "type": "uint256[]"
        },
        {
          "internalType": "bytes[]",
          "name": "datas",
          "type": "bytes[]"
        },
        {
          "internalType": "bytes32",
          "name": "predecessor",
          "type": "bytes32"
        },
        {
          "internalType": "bytes32",
          "name": "salt",
          "type": "bytes32"
        }
      ],
      "name": "createProposalBatch",
      "outputs": [],
      "stateMutability": "nonpayable",
      "type": "function"
    },
    {
      "inputs": [],
      "name": "criticalDelay",
      "outputs": [
        {
          "internalType": "uint256",
          "name": "",
          "type": "uint256"
        }
      ],
      "stateMutability": "view",
      "type": "function"
    },
    {
      "inputs": [
        {
          "internalType": "address",
          "name": "target",
          "type": "address"
        },
        {
          "internalType": "uint256",
          "name": "value",
          "type": "uint256"
        },
        {
          "internalType": "bytes",
          "name": "data",
          "type": "bytes"
        },
        {
          "internalType": "bytes32",
          "name": "predecessor",
          "type": "bytes32"
        },
        {
          "internalType": "bytes32",
          "name": "salt",
          "type": "bytes32"
        }
      ],
      "name": "executeProposal",
      "outputs": [],
      "stateMutability": "payable",
      "type": "function"
    },
    {
      "inputs": [
        {
          "internalType": "address[]",
          "name": "targets",
          "type": "address[]"
        },
        {
          "internalType": "uint256[]",
          "name": "values",
          "type": "uint256[]"
        },
        {
          "internalType": "bytes[]",
          "name": "datas",
          "type": "bytes[]"
        },
        {
          "internalType": "bytes32",
          "name": "predecessor",
          "type": "bytes32"
        },
        {
          "internalType": "bytes32",
          "name": "salt",
          "type": "bytes32"
        }
      ],
      "name": "executeProposalBatch",
      "outputs": [],
      "stateMutability": "payable",
      "type": "function"
    },
    {
      "inputs": [],
      "name": "getProxyAdmin",
      "outputs": [
        {
          "internalType": "address",
          "name": "",
          "type": "address"
        }
      ],
      "stateMutability": "view",
      "type": "function"
    },
    {
      "inputs": [],
      "name": "getProxyImplementation",
      "outputs": [
        {
          "internalType": "address",
          "name": "",
          "type": "address"
        }
      ],
      "stateMutability": "view",
      "type": "function"
    },
    {
      "inputs": [
        {
          "internalType": "address",
          "name": "_tipJar",
          "type": "address"
        },
        {
          "internalType": "address",
          "name": "_admin",
          "type": "address"
        },
        {
          "internalType": "address payable",
          "name": "_timelock",
          "type": "address"
        },
        {
          "internalType": "uint256",
          "name": "_criticalDelay",
          "type": "uint256"
        },
        {
          "internalType": "uint256",
          "name": "_regularDelay",
          "type": "uint256"
        }
      ],
      "name": "initialize",
      "outputs": [],
      "stateMutability": "nonpayable",
      "type": "function"
    },
    {
      "inputs": [
        {
          "internalType": "address",
          "name": "newAdmin",
          "type": "address"
        },
        {
          "internalType": "bytes32",
          "name": "salt",
          "type": "bytes32"
        }
      ],
      "name": "proposeNewAdmin",
      "outputs": [],
      "stateMutability": "nonpayable",
      "type": "function"
    },
    {
      "inputs": [
        {
          "internalType": "uint256",
          "name": "newDelay",
          "type": "uint256"
        },
        {
          "internalType": "bytes32",
          "name": "salt",
          "type": "bytes32"
        }
      ],
      "name": "proposeNewCriticalDelay",
      "outputs": [],
      "stateMutability": "nonpayable",
      "type": "function"
    },
    {
      "inputs": [
        {
          "internalType": "uint32",
          "name": "newFee",
          "type": "uint32"
        },
        {
          "internalType": "bytes32",
          "name": "salt",
          "type": "bytes32"
        }
      ],
      "name": "proposeNewFee",
      "outputs": [],
      "stateMutability": "nonpayable",
      "type": "function"
    },
    {
      "inputs": [
        {
          "internalType": "address",
          "name": "newFeeCollector",
          "type": "address"
        },
        {
          "internalType": "bytes32",
          "name": "salt",
          "type": "bytes32"
        }
      ],
      "name": "proposeNewFeeCollector",
      "outputs": [],
      "stateMutability": "nonpayable",
      "type": "function"
    },
    {
      "inputs": [
        {
          "internalType": "address",
          "name": "minerAddress",
          "type": "address"
        },
        {
          "internalType": "address",
          "name": "splitTo",
          "type": "address"
        },
        {
          "internalType": "uint32",
          "name": "splitPct",
          "type": "uint32"
        },
        {
          "internalType": "bytes32",
          "name": "salt",
          "type": "bytes32"
        }
      ],
      "name": "proposeNewMinerSplit",
      "outputs": [],
      "stateMutability": "nonpayable",
      "type": "function"
    },
    {
      "inputs": [
        {
          "internalType": "address",
          "name": "newAdmin",
          "type": "address"
        },
        {
          "internalType": "bytes32",
          "name": "salt",
          "type": "bytes32"
        }
      ],
      "name": "proposeNewProxyAdmin",
      "outputs": [],
      "stateMutability": "nonpayable",
      "type": "function"
    },
    {
      "inputs": [
        {
          "internalType": "uint256",
          "name": "newDelay",
          "type": "uint256"
        },
        {
          "internalType": "bytes32",
          "name": "salt",
          "type": "bytes32"
        }
      ],
      "name": "proposeNewRegularDelay",
      "outputs": [],
      "stateMutability": "nonpayable",
      "type": "function"
    },
    {
      "inputs": [
        {
          "internalType": "address",
          "name": "newTimelock",
          "type": "address"
        },
        {
          "internalType": "bytes32",
          "name": "salt",
          "type": "bytes32"
        }
      ],
      "name": "proposeNewTimelock",
      "outputs": [],
      "stateMutability": "nonpayable",
      "type": "function"
    },
    {
      "inputs": [
        {
          "internalType": "address",
          "name": "newTipJar",
          "type": "address"
        },
        {
          "internalType": "bytes32",
          "name": "salt",
          "type": "bytes32"
        }
      ],
      "name": "proposeNewTipJar",
      "outputs": [],
      "stateMutability": "nonpayable",
      "type": "function"
    },
    {
      "inputs": [
        {
          "internalType": "address",
          "name": "newImplementation",
          "type": "address"
        },
        {
          "internalType": "bytes32",
          "name": "salt",
          "type": "bytes32"
        }
      ],
      "name": "proposeUpgrade",
      "outputs": [],
      "stateMutability": "nonpayable",
      "type": "function"
    },
    {
      "inputs": [
        {
          "internalType": "address",
          "name": "newImplementation",
          "type": "address"
        },
        {
          "internalType": "bytes",
          "name": "data",
          "type": "bytes"
        },
        {
          "internalType": "uint256",
          "name": "value",
          "type": "uint256"
        },
        {
          "internalType": "bytes32",
          "name": "salt",
          "type": "bytes32"
        }
      ],
      "name": "proposeUpgradeAndCall",
      "outputs": [],
      "stateMutability": "nonpayable",
      "type": "function"
    },
    {
      "inputs": [],
      "name": "regularDelay",
      "outputs": [
        {
          "internalType": "uint256",
          "name": "",
          "type": "uint256"
        }
      ],
      "stateMutability": "view",
      "type": "function"
    },
    {
      "inputs": [
        {
          "internalType": "address",
          "name": "newAdmin",
          "type": "address"
        }
      ],
      "name": "setAdmin",
      "outputs": [],
      "stateMutability": "nonpayable",
      "type": "function"
    },
    {
      "inputs": [
        {
          "internalType": "uint256",
          "name": "newDelay",
          "type": "uint256"
        }
      ],
      "name": "setCriticalDelay",
      "outputs": [],
      "stateMutability": "nonpayable",
      "type": "function"
    },
    {
      "inputs": [
        {
          "internalType": "address",
          "name": "newAdmin",
          "type": "address"
        }
      ],
      "name": "setProxyAdmin",
      "outputs": [],
      "stateMutability": "nonpayable",
      "type": "function"
    },
    {
      "inputs": [
        {
          "internalType": "uint256",
          "name": "newDelay",
          "type": "uint256"
        }
      ],
      "name": "setRegularDelay",
      "outputs": [],
      "stateMutability": "nonpayable",
      "type": "function"
    },
    {
      "inputs": [
        {
          "internalType": "address payable",
          "name": "newTimelock",
          "type": "address"
        }
      ],
      "name": "setTimelock",
      "outputs": [],
      "stateMutability": "nonpayable",
      "type": "function"
    },
    {
      "inputs": [
        {
          "internalType": "address",
          "name": "newTipJar",
          "type": "address"
        }
      ],
      "name": "setTipJar",
      "outputs": [],
      "stateMutability": "nonpayable",
      "type": "function"
    },
    {
      "inputs": [],
      "name": "timelock",
      "outputs": [
        {
          "internalType": "contract ITimelockController",
          "name": "",
          "type": "address"
        }
      ],
      "stateMutability": "view",
      "type": "function"
    },
    {
      "inputs": [],
      "name": "tipJar",
      "outputs": [
        {
          "internalType": "address",
          "name": "",
          "type": "address"
        }
      ],
      "stateMutability": "view",
      "type": "function"
    },
    {
      "stateMutability": "payable",
      "type": "receive"
    }
  ],
  "transactionHash": "0x41935f2bf8469da0e525e015c9d0b188a8c943de6aa0479dd8325d47b8e51854",
  "args": [],
  "solcInputHash": "f18613c3fdea9c2ab1336257f50d3199",
  "bytecode": "0x608060405234801561001057600080fd5b506000805462010000600160b01b031916336201000081029190911782556040519091907f7e644d79422f17c01e4894b5f4f588d331ebfa28653d42ae832dc59e38c9798f908290a36124ea806100686000396000f3fe60806040526004361061024a5760003560e01c806397d43d6511610139578063c77324dc116100b6578063dc2ba9461161007a578063dc2ba946146106a7578063dd107d13146106ba578063e58d3078146106da578063e5e6c5fe146106fa578063e61dd4181461071a578063f851a4401461072d57610251565b8063c77324dc14610611578063d33219b414610631578063d86cf60114610651578063da25301514610671578063dad8a0961461068757610251565b8063aa87cc81116100fd578063aa87cc8114610571578063b1e60f7514610591578063bc58ca69146105b1578063bdacb303146105d1578063c14734a8146105f157610251565b806397d43d65146104cd5780639982cb2e146104ed5780639b8c30a0146105115780639dfa346414610531578063a6b63eb81461055157610251565b80635c66e3da116101c75780637aaceb951161018b5780637aaceb95146104265780637b8bf297146104635780638023dc81146104835780638b3240a0146104a357806390e4b720146104b857610251565b80635c66e3da1461038657806369c40231146103a65780636d3d1bcb146103c6578063704b6c02146103e657806378c720751461040657610251565b806333ddddce1161020e57806333ddddce146102f357806337376ca814610306578063433645091461032657806347c0266114610346578063512e14351461036657610251565b80630d5a5b8b146102535780630edaeb0f14610273578063102aff801461029357806324ef737c146102b3578063317636f2146102d357610251565b3661025157005b005b34801561025f57600080fd5b5061025161026e3660046120d9565b610753565b34801561027f57600080fd5b5061025161028e366004611ef1565b61085b565b34801561029f57600080fd5b506102516102ae3660046120b8565b6108af565b3480156102bf57600080fd5b506102516102ce3660046120b8565b6108fa565b3480156102df57600080fd5b506102516102ee366004611f1c565b61097f565b610251610301366004611f7a565b610a13565b34801561031257600080fd5b50610251610321366004612088565b610a50565b34801561033257600080fd5b50610251610341366004611ef1565b610ad8565b34801561035257600080fd5b50610251610361366004611e0a565b610b5d565b34801561037257600080fd5b506102516103813660046120b8565b610c64565b34801561039257600080fd5b506102516103a1366004611e0a565b610ce4565b3480156103b257600080fd5b506102516103c1366004611ef1565b610d6a565b3480156103d257600080fd5b506102516103e1366004611ef1565b610dba565b3480156103f257600080fd5b50610251610401366004611e0a565b610e0a565b34801561041257600080fd5b50610251610421366004611ef1565b610e9d565b34801561043257600080fd5b50600354610446906001600160a01b031681565b6040516001600160a01b0390911681526020015b60405180910390f35b34801561046f57600080fd5b5061025161047e366004611ef1565b610ef1565b34801561048f57600080fd5b5061025161049e366004612088565b610f76565b3480156104af57600080fd5b50610446610fe1565b3480156104c457600080fd5b50610446611070565b3480156104d957600080fd5b506102516104e8366004611ef1565b611099565b3480156104f957600080fd5b5061050360025481565b60405190815260200161045a565b34801561051d57600080fd5b5061025161052c366004611ef1565b61111e565b34801561053d57600080fd5b5061025161054c3660046120b8565b611212565b34801561055d57600080fd5b5061025161056c366004611e49565b61125d565b34801561057d57600080fd5b5061025161058c366004611ef1565b6114ae565b34801561059d57600080fd5b506102516105ac366004611ef1565b611537565b3480156105bd57600080fd5b506102516105cc366004611ef1565b6115c5565b3480156105dd57600080fd5b506102516105ec366004611e0a565b61164a565b3480156105fd57600080fd5b5061025161060c366004611fe3565b6116d0565b34801561061d57600080fd5b5061025161062c3660046120d9565b61179d565b34801561063d57600080fd5b50600454610446906001600160a01b031681565b34801561065d57600080fd5b5061025161066c366004611f7a565b611834565b34801561067d57600080fd5b5061050360015481565b34801561069357600080fd5b506102516106a2366004612088565b611874565b6102516106b5366004611fe3565b6118e0565b3480156106c657600080fd5b506102516106d5366004611ea3565b61198b565b3480156106e657600080fd5b506102516106f5366004611ef1565b611a44565b34801561070657600080fd5b50610251610715366004611ea3565b611a94565b610251610728366004611f1c565b611bb8565b34801561073957600080fd5b50600054610446906201000090046001600160a01b031681565b6000546201000090046001600160a01b0316331461078c5760405162461bcd60e51b8152600401610783906123f3565b60405180910390fd5b60035460405163ffffffff841660248201526000916107ed916001600160a01b0390911690839060440160408051601f198184030181529190526020810180516001600160e01b0316631ab971ab60e01b1790526001546000908790611c16565b9050336001600160a01b03167fe55e13505decce9f7ba3ff5c145bea70776719c2eb4af7502d6c7a58f8a774a084600254426108299190612416565b6040805163ffffffff9093168352602083019190915281018490526060810185905260800160405180910390a2505050565b6040516001600160a01b03831660248201526108ab90309060009060440160408051601f198184030181529190526020810180516001600160e01b0316633825b60160e11b179052600085611cae565b5050565b6108ab306000846040516024016108c891815260200190565b60408051601f198184030181529190526020810180516001600160e01b0316638023dc8160e01b179052600085611cae565b6000546201000090046001600160a01b0316331461092a5760405162461bcd60e51b8152600401610783906123f3565b61097a3060008460405160240161094391815260200190565b60408051601f198184030181529190526020810180516001600160e01b0316636d6c504b60e11b1790526001546000908690611c16565b505050565b6000546201000090046001600160a01b031633146109af5760405162461bcd60e51b8152600401610783906123f3565b600354604051610a0c916001600160a01b03169084906109d5908890889060240161226f565b60408051601f198184030181529190526020810180516001600160e01b031663278f794360e11b1790526001546000908690611c16565b5050505050565b6000546201000090046001600160a01b03163314610a435760405162461bcd60e51b8152600401610783906123f3565b610a0c8585858585611cae565b6000546201000090046001600160a01b03163314610a805760405162461bcd60e51b8152600401610783906123f3565b6004805460405163c4d252f560e01b81529182018390526001600160a01b03169063c4d252f590602401600060405180830381600087803b158015610ac457600080fd5b505af1158015610a0c573d6000803e3d6000fd5b6000546201000090046001600160a01b03163314610b085760405162461bcd60e51b8152600401610783906123f3565b6040516001600160a01b038316602482015261097a90309060009060440160408051601f198184030181529190526020810180516001600160e01b031663bdacb30360e01b1790526001546000908690611c16565b6004546001600160a01b03163314610b875760405162461bcd60e51b8152600401610783906123cd565b6003546040516001600160a01b038381166024830152600092169060440160408051601f198184030181529181526020820180516001600160e01b03166308f2839760e41b17905251610bda9190612253565b6000604051808303816000865af19150503d8060008114610c17576040519150601f19603f3d011682016040523d82523d6000602084013e610c1c565b606091505b50509050806108ab5760405162461bcd60e51b81526020600482015260146024820152731cd95d141c9bde1e50591b5a5b8819985a5b195960621b6044820152606401610783565b6000546201000090046001600160a01b03163314610c945760405162461bcd60e51b8152600401610783906123f3565b61097a30600084604051602401610cad91815260200190565b60408051601f198184030181529190526020810180516001600160e01b0316638023dc8160e01b1790526001546000908690611c16565b6004546001600160a01b03163314610d0e5760405162461bcd60e51b8152600401610783906123cd565b6003546040516001600160a01b038084169216907fff9651e81ae7f692ad8df7b6184e00536887c968984c58a568083a1cac82451e90600090a3600380546001600160a01b0319166001600160a01b0392909216919091179055565b6040516001600160a01b03831660248201526108ab90309060009060440160408051601f198184030181529190526020810180516001600160e01b031663bdacb30360e01b179052600085611cae565b6040516001600160a01b03831660248201526108ab90309060009060440160408051601f198184030181529190526020810180516001600160e01b03166347c0266160e01b179052600085611cae565b6004546001600160a01b03163314610e345760405162461bcd60e51b8152600401610783906123cd565b600080546040516001600160a01b03808516936201000090930416917f7e644d79422f17c01e4894b5f4f588d331ebfa28653d42ae832dc59e38c9798f91a3600080546001600160a01b03909216620100000262010000600160b01b0319909216919091179055565b6003546040516001600160a01b0384811660248301526108ab92169060009060440160408051601f198184030181529190526020810180516001600160e01b0316631b2ce7f360e11b179052600085611cae565b6000546201000090046001600160a01b03163314610f215760405162461bcd60e51b8152600401610783906123f3565b6040516001600160a01b038316602482015261097a90309060009060440160408051601f198184030181529190526020810180516001600160e01b0316633825b60160e11b1790526001546000908690611c16565b6004546001600160a01b03163314610fa05760405162461bcd60e51b8152600401610783906123cd565b80600254604051610fbe90663932b3bab630b960c91b815260070190565b6040519081900381209060008051602061249583398151915290600090a4600255565b6003546040516303e1469160e61b8152600091829182916001600160a01b0316906004015b600060405180830381855afa9150503d8060008114611041576040519150601f19603f3d011682016040523d82523d6000602084013e611046565b606091505b50915091508161105557600080fd5b808060200190518101906110699190611e2d565b9250505090565b600354604051635c60da1b60e01b8152600091829182916001600160a01b031690600401611006565b6000546201000090046001600160a01b031633146110c95760405162461bcd60e51b8152600401610783906123f3565b6040516001600160a01b038316602482015261097a90309060009060440160408051601f198184030181529190526020810180516001600160e01b0316632e3371ed60e11b1790526001546000908690611c16565b6000546201000090046001600160a01b0316331461114e5760405162461bcd60e51b8152600401610783906123f3565b6003546040516001600160a01b0384811660248301526000926111aa92911690839060440160408051601f198184030181529190526020810180516001600160e01b03166301485b9d60e71b1790526001546000908790611c16565b9050826001600160a01b0316336001600160a01b03167ffba3e2c833e27f6f78cc221cd889899ecd8c5ccd6be29eb0468f8859334ecaed600254426111ef9190612416565b6040805191825260208201869052810186905260600160405180910390a3505050565b6108ab3060008460405160240161122b91815260200190565b60408051601f198184030181529190526020810180516001600160e01b0316636d6c504b60e11b179052600085611cae565b600054610100900460ff1680611276575060005460ff16155b6112d95760405162461bcd60e51b815260206004820152602e60248201527f496e697469616c697a61626c653a20636f6e747261637420697320616c72656160448201526d191e481a5b9a5d1a585b1a5e995960921b6064820152608401610783565b600054610100900460ff161580156112fb576000805461ffff19166101011790555b6000546201000090046001600160a01b0316331461132b5760405162461bcd60e51b8152600401610783906123f3565b600080546040516001600160a01b03808916936201000090930416917f7e644d79422f17c01e4894b5f4f588d331ebfa28653d42ae832dc59e38c9798f91a3600080546001600160a01b03808816620100000262010000600160b01b0319909216919091178255600380549189166001600160a01b0319909216821790556040519091907fff9651e81ae7f692ad8df7b6184e00536887c968984c58a568083a1cac82451e908290a3600480546001600160a01b0319166001600160a01b0386169081179091556040516000907f0b16e94338dda95fa1e5c779ff12c1c00489fca89839afd381c4c5faffd6e2a1908290a360018390556040516718dc9a5d1a58d85b60c21b815283906000906008016040519081900381209060008051602061249583398151915290600090a46002829055604051663932b3bab630b960c91b815282906000906007016040519081900381209060008051602061249583398151915290600090a480156114a6576000805461ff00191690555b505050505050565b6000546201000090046001600160a01b031633146114de5760405162461bcd60e51b8152600401610783906123f3565b6003546040516001600160a01b03848116602483015261097a92169060009060440160408051601f198184030181529190526020810180516001600160e01b0316631b2ce7f360e11b1790526001546000908690611c16565b6003546040516001600160a01b03848116602483015261158b92169060009060440160408051601f198184030181529190526020810180516001600160e01b03166301485b9d60e71b179052600085611cae565b6040516001600160a01b0383169033907f53ac1c5cdda51e6aa0635375b348ae7d51f618deaddadd72fc2860057b1ffd9190600090a35050565b6000546201000090046001600160a01b031633146115f55760405162461bcd60e51b8152600401610783906123f3565b6040516001600160a01b038316602482015261097a90309060009060440160408051601f198184030181529190526020810180516001600160e01b03166347c0266160e01b1790526001546000908690611c16565b6004546001600160a01b031633146116745760405162461bcd60e51b8152600401610783906123cd565b6004546040516001600160a01b038084169216907f0b16e94338dda95fa1e5c779ff12c1c00489fca89839afd381c4c5faffd6e2a190600090a3600480546001600160a01b0319166001600160a01b0392909216919091179055565b6000546201000090046001600160a01b031633146117005760405162461bcd60e51b8152600401610783906123f3565b600480546001546040516308f2a0bb60e41b81526001600160a01b0390921692638f2a0bb092611740928d928d928d928d928d928d928d928d920161236f565b602060405180830381600087803b15801561175a57600080fd5b505af115801561176e573d6000803e3d6000fd5b505050506040513d601f19601f8201168201806040525081019061179291906120a0565b505050505050505050565b60035460405163ffffffff841660248201526117f5916001600160a01b03169060009060440160408051601f198184030181529190526020810180516001600160e01b0316631ab971ab60e01b179052600085611cae565b60405163ffffffff8316815233907fa94ad53bf43f2f6061cd0a2613212f8444ad7b078cfc41699eb70baff751f67b9060200160405180910390a25050565b6000546201000090046001600160a01b031633146118645760405162461bcd60e51b8152600401610783906123f3565b6114a68585858585600154611c16565b6004546001600160a01b0316331461189e5760405162461bcd60e51b8152600401610783906123cd565b806001546040516118bd906718dc9a5d1a58d85b60c21b815260080190565b6040519081900381209060008051602061249583398151915290600090a4600155565b6000546201000090046001600160a01b031633146119105760405162461bcd60e51b8152600401610783906123f3565b6004805460405163e38335e560e01b81526001600160a01b039091169163e38335e591349161194f918d918d918d918d918d918d918d918d910161231b565b6000604051808303818588803b15801561196857600080fd5b505af115801561197c573d6000803e3d6000fd5b50505050505050505050505050565b6003546040516001600160a01b038681166024830152858116604483015263ffffffff851660648301526119f392169060009060840160408051601f198184030181529190526020810180516001600160e01b0316630236458d60e61b179052600085611cae565b60405163ffffffff831681526001600160a01b03808516919086169033907f2c4ba364085ee54b447db6f054cd4cefd890878196bb741dc447490df29a64a69060200160405180910390a450505050565b6040516001600160a01b03831660248201526108ab90309060009060440160408051601f198184030181529190526020810180516001600160e01b0316632e3371ed60e11b179052600085611cae565b6000546201000090046001600160a01b03163314611ac45760405162461bcd60e51b8152600401610783906123f3565b6003546040516001600160a01b038681166024830152858116604483015263ffffffff85166064830152600092611b3492911690839060840160408051601f198184030181529190526020810180516001600160e01b0316630236458d60e61b1790526002546000908790611c16565b9050836001600160a01b0316856001600160a01b0316336001600160a01b03167fa00a72f457c9f3e2f029eea91af16988e9b48415f9c9985d730652deb40a372e8660025442611b849190612416565b6040805163ffffffff9093168352602083019190915281018690526060810187905260800160405180910390a45050505050565b600354604051611c10916001600160a01b0316908490611bde908890889060240161226f565b60408051601f198184030181529190526020810180516001600160e01b031663278f794360e11b179052600085611cae565b50505050565b6004805460405162ea831560e11b81526000926001600160a01b03909216916301d5062a91611c51918b918b918b918b918b918b91016122d6565b602060405180830381600087803b158015611c6b57600080fd5b505af1158015611c7f573d6000803e3d6000fd5b505050506040513d601f19601f82011682018060405250810190611ca391906120a0565b979650505050505050565b6004805460405163134008d360e01b81526001600160a01b039091169163134008d3918791611ce7918a9184918a918a918a910161229b565b6000604051808303818588803b158015611d0057600080fd5b505af1158015611d14573d6000803e3d6000fd5b50505050505050505050565b60008083601f840112611d31578182fd5b50813567ffffffffffffffff811115611d48578182fd5b6020830191508360208260051b8501011115611d6357600080fd5b9250929050565b600082601f830112611d7a578081fd5b813567ffffffffffffffff80821115611d9557611d95612466565b604051601f8301601f19908116603f01168101908282118183101715611dbd57611dbd612466565b81604052838152866020858801011115611dd5578485fd5b8360208701602083013792830160200193909352509392505050565b803563ffffffff81168114611e0557600080fd5b919050565b600060208284031215611e1b578081fd5b8135611e268161247c565b9392505050565b600060208284031215611e3e578081fd5b8151611e268161247c565b600080600080600060a08688031215611e60578081fd5b8535611e6b8161247c565b94506020860135611e7b8161247c565b93506040860135611e8b8161247c565b94979396509394606081013594506080013592915050565b60008060008060808587031215611eb8578384fd5b8435611ec38161247c565b93506020850135611ed38161247c565b9250611ee160408601611df1565b9396929550929360600135925050565b60008060408385031215611f03578182fd5b8235611f0e8161247c565b946020939093013593505050565b60008060008060808587031215611f31578384fd5b8435611f3c8161247c565b9350602085013567ffffffffffffffff811115611f57578384fd5b611f6387828801611d6a565b949794965050505060408301359260600135919050565b600080600080600060a08688031215611f91578081fd5b8535611f9c8161247c565b945060208601359350604086013567ffffffffffffffff811115611fbe578182fd5b611fca88828901611d6a565b9598949750949560608101359550608001359392505050565b60008060008060008060008060a0898b031215611ffe578283fd5b883567ffffffffffffffff80821115612015578485fd5b6120218c838d01611d20565b909a50985060208b0135915080821115612039578485fd5b6120458c838d01611d20565b909850965060408b013591508082111561205d578485fd5b5061206a8b828c01611d20565b999c989b509699959896976060870135966080013595509350505050565b600060208284031215612099578081fd5b5035919050565b6000602082840312156120b1578081fd5b5051919050565b600080604083850312156120ca578182fd5b50508035926020909101359150565b600080604083850312156120eb578182fd5b611f0e83611df1565b60008284526020808501945082825b858110156121315781356121168161247c565b6001600160a01b031687529582019590820190600101612103565b509495945050505050565b60008284526020808501808196508560051b8101915084845b878110156121bc5782840389528135601e19883603018112612175578687fd5b8701803567ffffffffffffffff81111561218d578788fd5b80360389131561219b578788fd5b6121a886828985016121fd565b9a87019a9550505090840190600101612155565b5091979650505050505050565b81835260006001600160fb1b038311156121e1578081fd5b8260051b80836020870137939093016020019283525090919050565b60008284528282602086013780602084860101526020601f19601f85011685010190509392505050565b6000815180845261223f81602086016020860161243a565b601f01601f19169290920160200192915050565b6000825161226581846020870161243a565b9190910192915050565b6001600160a01b038316815260406020820181905260009061229390830184612227565b949350505050565b600060018060a01b038716825285602083015260a060408301526122c260a0830186612227565b606083019490945250608001529392505050565b600060018060a01b038816825286602083015260c060408301526122fd60c0830187612227565b606083019590955250608081019290925260a0909101529392505050565b600060a0825261232f60a083018a8c6120f4565b828103602084015261234281898b6121c9565b9050828103604084015261235781878961213c565b60608401959095525050608001529695505050505050565b600060c0825261238360c083018b8d6120f4565b8281036020840152612396818a8c6121c9565b905082810360408401526123ab81888a61213c565b60608401969096525050608081019290925260a0909101529695505050505050565b6020808252600c908201526b6e6f742074696d656c6f636b60a01b604082015260600190565b6020808252600990820152683737ba1030b236b4b760b91b604082015260600190565b6000821982111561243557634e487b7160e01b81526011600452602481fd5b500190565b60005b8381101561245557818101518382015260200161243d565b83811115611c105750506000910152565b634e487b7160e01b600052604160045260246000fd5b6001600160a01b038116811461249157600080fd5b5056fed4ec76c9ec44b1200102d7e181ebeff8008a397ea9e4c71b50f9e1dc1a9d5bd3a2646970667358221220190e370219c53f8820be1bb0bf2eccb7f309e488698816eba8749e914cd074ea64736f6c63430008030033",
  "devdoc": {
    "details": "Responsible for enacting decisions related to sensitive TipJar parameters Decisions are made via a timelock contract",
    "kind": "dev",
    "methods": {
      "approveNewAdmin(address,bytes32)": {
        "params": {
          "newAdmin": "new admin address",
          "salt": "salt"
        }
      },
      "approveNewCriticalDelay(uint256,bytes32)": {
        "params": {
          "newDelay": "new delay time",
          "salt": "salt"
        }
      },
      "approveNewFee(uint32,bytes32)": {
        "params": {
          "newFee": "New fee",
          "salt": "salt"
        }
      },
      "approveNewFeeCollector(address,bytes32)": {
        "params": {
          "newFeeCollector": "New fee collector",
          "salt": "salt"
        }
      },
      "approveNewMinerSplit(address,address,uint32,bytes32)": {
        "params": {
          "minerAddress": "Address of miner",
          "salt": "salt",
          "splitPct": "% of tip that splitTo receives",
          "splitTo": "Address that receives split"
        }
      },
      "approveNewProxyAdmin(address,bytes32)": {
        "params": {
          "newAdmin": "new admin address",
          "salt": "salt"
        }
      },
      "approveNewRegularDelay(uint256,bytes32)": {
        "params": {
          "newDelay": "new delay time",
          "salt": "salt"
        }
      },
      "approveNewTimelock(address,bytes32)": {
        "params": {
          "newTimelock": "new timelock address",
          "salt": "salt"
        }
      },
      "approveNewTipJar(address,bytes32)": {
        "params": {
          "newTipJar": "new tip jar address",
          "salt": "salt"
        }
      },
      "approveUpgrade(address,bytes32)": {
        "params": {
          "newImplementation": "new implementation address",
          "salt": "salt"
        }
      },
      "approveUpgradeAndCall(address,bytes,uint256,bytes32)": {
        "params": {
          "data": "Bytes-encoded function to call",
          "newImplementation": "new implementation address",
          "salt": "salt",
          "value": "Amount of ETH to send on call"
        }
      },
      "cancelProposal(bytes32)": {
        "params": {
          "id": "ID of proposal"
        }
      },
      "createProposal(address,uint256,bytes,bytes32,bytes32)": {
        "params": {
          "data": "function call bytes",
          "predecessor": "predecessor function call",
          "salt": "salt used in proposal",
          "target": "target address",
          "value": "ETH value"
        }
      },
      "createProposalBatch(address[],uint256[],bytes[],bytes32,bytes32)": {
        "params": {
          "datas": "function call bytes",
          "predecessor": "predecessor function call",
          "salt": "salt used in proposal",
          "targets": "target address",
          "values": "ETH value"
        }
      },
      "executeProposal(address,uint256,bytes,bytes32,bytes32)": {
        "params": {
          "data": "function call bytes",
          "predecessor": "predecessor function call",
          "salt": "salt used in proposal",
          "target": "target address",
          "value": "ETH value"
        }
      },
      "executeProposalBatch(address[],uint256[],bytes[],bytes32,bytes32)": {
        "params": {
          "datas": "function call bytes",
          "predecessor": "predecessor function call",
          "salt": "salt used in proposal",
          "targets": "target address",
          "values": "ETH value"
        }
      },
      "initialize(address,address,address,uint256,uint256)": {
        "params": {
          "_admin": "Admin address",
          "_timelock": "TimelockController contract address",
          "_tipJar": "TipJar proxy contract address"
        }
      },
      "proposeNewAdmin(address,bytes32)": {
        "params": {
          "newAdmin": "new admin address",
          "salt": "salt"
        }
      },
      "proposeNewCriticalDelay(uint256,bytes32)": {
        "params": {
          "newDelay": "new delay time",
          "salt": "salt"
        }
      },
      "proposeNewFee(uint32,bytes32)": {
        "params": {
          "newFee": "New fee",
          "salt": "salt"
        }
      },
      "proposeNewFeeCollector(address,bytes32)": {
        "params": {
          "newFeeCollector": "New fee collector",
          "salt": "salt"
        }
      },
      "proposeNewMinerSplit(address,address,uint32,bytes32)": {
        "params": {
          "minerAddress": "Address of miner",
          "salt": "salt",
          "splitPct": "% of tip that splitTo receives",
          "splitTo": "Address that receives split"
        }
      },
      "proposeNewProxyAdmin(address,bytes32)": {
        "params": {
          "newAdmin": "new admin address",
          "salt": "salt"
        }
      },
      "proposeNewRegularDelay(uint256,bytes32)": {
        "params": {
          "newDelay": "new delay time",
          "salt": "salt"
        }
      },
      "proposeNewTimelock(address,bytes32)": {
        "params": {
          "newTimelock": "new timelock address",
          "salt": "salt"
        }
      },
      "proposeNewTipJar(address,bytes32)": {
        "params": {
          "newTipJar": "new tip jar address",
          "salt": "salt"
        }
      },
      "proposeUpgrade(address,bytes32)": {
        "params": {
          "newImplementation": "new implementation address",
          "salt": "salt"
        }
      },
      "proposeUpgradeAndCall(address,bytes,uint256,bytes32)": {
        "params": {
          "data": "Bytes-encoded function to call",
          "newImplementation": "new implementation address",
          "salt": "salt",
          "value": "Amount of ETH to send on call"
        }
      },
      "setAdmin(address)": {
        "details": "Can only be executed by Timelock contract",
        "params": {
          "newAdmin": "new admin address"
        }
      },
      "setCriticalDelay(uint256)": {
        "details": "Can only be executed by Timelock contract",
        "params": {
          "newDelay": "new delay time"
        }
      },
      "setProxyAdmin(address)": {
        "params": {
          "newAdmin": "new admin address"
        }
      },
      "setRegularDelay(uint256)": {
        "details": "Can only be executed by Timelock contract",
        "params": {
          "newDelay": "new delay time"
        }
      },
      "setTimelock(address)": {
        "details": "Can only be executed by Timelock contract or anyone if timelock has not yet been set",
        "params": {
          "newTimelock": "new timelock address"
        }
      },
      "setTipJar(address)": {
        "details": "Can only be executed by Timelock contract",
        "params": {
          "newTipJar": "new tip jar address"
        }
      }
    },
    "title": "TipJarManager",
    "version": 1
  },
  "userdoc": {
    "events": {
      "AdminChanged(address,address)": {
        "notice": "New admin event"
      },
      "DelayChanged(string,uint256,uint256)": {
        "notice": "New delay event"
      },
      "FeeApproval(address,uint32)": {
        "notice": "Fee Approval event"
      },
      "FeeCollectorApproval(address,address)": {
        "notice": "Fee Collector Approval event"
      },
      "FeeCollectorProposal(address,address,uint256,bytes32,bytes32)": {
        "notice": "Fee Collector Proposal event"
      },
      "FeeProposal(address,uint32,uint256,bytes32,bytes32)": {
        "notice": "Fee Proposal event"
      },
      "MinerSplitApproval(address,address,address,uint32)": {
        "notice": "Miner Split Approval event"
      },
      "MinerSplitProposal(address,address,address,uint32,uint256,bytes32,bytes32)": {
        "notice": "Miner Split Proposal event"
      },
      "TimelockChanged(address,address)": {
        "notice": "New timelock event"
      },
      "TipJarChanged(address,address)": {
        "notice": "New tip jar event"
      }
    },
    "kind": "user",
    "methods": {
      "admin()": {
        "notice": "TipJarManager admin"
      },
      "approveNewAdmin(address,bytes32)": {
        "notice": "Approve new admin for this contract"
      },
      "approveNewCriticalDelay(uint256,bytes32)": {
        "notice": "Approve new critical delay for this contract"
      },
      "approveNewFee(uint32,bytes32)": {
        "notice": "Approve a new network fee"
      },
      "approveNewFeeCollector(address,bytes32)": {
        "notice": "Approve a new fee collector"
      },
      "approveNewMinerSplit(address,address,uint32,bytes32)": {
        "notice": "Approve a new miner split"
      },
      "approveNewProxyAdmin(address,bytes32)": {
        "notice": "Approve new admin for TipJar proxy contract"
      },
      "approveNewRegularDelay(uint256,bytes32)": {
        "notice": "Approve new regular delay for this contract"
      },
      "approveNewTimelock(address,bytes32)": {
        "notice": "Approve new timelock contract"
      },
      "approveNewTipJar(address,bytes32)": {
        "notice": "Approve new tip jar contract"
      },
      "approveUpgrade(address,bytes32)": {
        "notice": "Approve new implementation for TipJar proxy"
      },
      "approveUpgradeAndCall(address,bytes,uint256,bytes32)": {
        "notice": "Approve new implementation for TipJar proxy + call function after"
      },
      "cancelProposal(bytes32)": {
        "notice": "Cancel proposal"
      },
      "constructor": {
        "notice": "Construct new TipJarManager contract, setting msg.sender as admin"
      },
      "createProposal(address,uint256,bytes,bytes32,bytes32)": {
        "notice": "Create proposal"
      },
      "createProposalBatch(address[],uint256[],bytes[],bytes32,bytes32)": {
        "notice": "Create batch proposal"
      },
      "criticalDelay()": {
        "notice": "Delay for critical changes"
      },
      "executeProposal(address,uint256,bytes,bytes32,bytes32)": {
        "notice": "Execute proposal"
      },
      "executeProposalBatch(address[],uint256[],bytes[],bytes32,bytes32)": {
        "notice": "Execute batch proposal"
      },
      "getProxyAdmin()": {
        "notice": "Public getter for TipJar Proxy admin address"
      },
      "getProxyImplementation()": {
        "notice": "Public getter for TipJar Proxy implementation contract address"
      },
      "initialize(address,address,address,uint256,uint256)": {
        "notice": "Initialize contract"
      },
      "proposeNewAdmin(address,bytes32)": {
        "notice": "Propose new admin for this contract"
      },
      "proposeNewCriticalDelay(uint256,bytes32)": {
        "notice": "Propose new critical delay for this contract"
      },
      "proposeNewFee(uint32,bytes32)": {
        "notice": "Propose a new network fee"
      },
      "proposeNewFeeCollector(address,bytes32)": {
        "notice": "Propose a new fee collector"
      },
      "proposeNewMinerSplit(address,address,uint32,bytes32)": {
        "notice": "Propose a new miner split"
      },
      "proposeNewProxyAdmin(address,bytes32)": {
        "notice": "Propose new admin for TipJar proxy contract"
      },
      "proposeNewRegularDelay(uint256,bytes32)": {
        "notice": "Propose new regular delay for this contract"
      },
      "proposeNewTimelock(address,bytes32)": {
        "notice": "Propose new timelock contract"
      },
      "proposeNewTipJar(address,bytes32)": {
        "notice": "Propose new tip jar contract"
      },
      "proposeUpgrade(address,bytes32)": {
        "notice": "Propose new implementation for TipJar proxy contract"
      },
      "proposeUpgradeAndCall(address,bytes,uint256,bytes32)": {
        "notice": "Propose new implementation for TipJar proxy contract + call function after"
      },
      "regularDelay()": {
        "notice": "Delay for non-critical changes"
      },
      "setAdmin(address)": {
        "notice": "Set new admin for this contract"
      },
      "setCriticalDelay(uint256)": {
        "notice": "Set new critical delay for this contract"
      },
      "setProxyAdmin(address)": {
        "notice": "Set new admin for TipJar proxy contract"
      },
      "setRegularDelay(uint256)": {
        "notice": "Set new regular delay for this contract"
      },
      "setTimelock(address)": {
        "notice": "Set new timelock contract"
      },
      "setTipJar(address)": {
        "notice": "Set new tip jar contract"
      },
      "timelock()": {
        "notice": "Timelock contract"
      },
      "tipJar()": {
        "notice": "TipJarProxy address"
      }
    },
    "version": 1
  },
  "storageLayout": {
    "storage": [
      {
        "astId": 3062,
        "contract": "contracts/TipJarManager.sol:TipJarManager",
        "label": "_initialized",
        "offset": 0,
        "slot": "0",
        "type": "t_bool"
      },
      {
        "astId": 3065,
        "contract": "contracts/TipJarManager.sol:TipJarManager",
        "label": "_initializing",
        "offset": 1,
        "slot": "0",
        "type": "t_bool"
      },
      {
        "astId": 589,
        "contract": "contracts/TipJarManager.sol:TipJarManager",
        "label": "admin",
        "offset": 2,
        "slot": "0",
        "type": "t_address"
      },
      {
        "astId": 592,
        "contract": "contracts/TipJarManager.sol:TipJarManager",
        "label": "criticalDelay",
        "offset": 0,
        "slot": "1",
        "type": "t_uint256"
      },
      {
        "astId": 595,
        "contract": "contracts/TipJarManager.sol:TipJarManager",
        "label": "regularDelay",
        "offset": 0,
        "slot": "2",
        "type": "t_uint256"
      },
      {
        "astId": 598,
        "contract": "contracts/TipJarManager.sol:TipJarManager",
        "label": "tipJar",
        "offset": 0,
        "slot": "3",
        "type": "t_address"
      },
      {
        "astId": 602,
        "contract": "contracts/TipJarManager.sol:TipJarManager",
        "label": "timelock",
        "offset": 0,
        "slot": "4",
        "type": "t_contract(ITimelockController)2180"
      }
    ],
    "types": {
      "t_address": {
        "encoding": "inplace",
        "label": "address",
        "numberOfBytes": "20"
      },
      "t_bool": {
        "encoding": "inplace",
        "label": "bool",
        "numberOfBytes": "1"
      },
      "t_contract(ITimelockController)2180": {
        "encoding": "inplace",
        "label": "contract ITimelockController",
        "numberOfBytes": "20"
      },
      "t_uint256": {
        "encoding": "inplace",
        "label": "uint256",
        "numberOfBytes": "32"
      }
    }
  }
}