{
  "address": "0x62e34F7D2bB56C1c37a2C21fa89d0cf1291cf7D1",
  "abi": [
    {
      "inputs": [
        {
          "internalType": "address",
          "name": "contractAddress",
          "type": "address"
        },
        {
          "internalType": "bytes",
          "name": "data",
          "type": "bytes"
        }
      ],
      "name": "getPrice",
      "outputs": [
        {
          "internalType": "bytes",
          "name": "",
          "type": "bytes"
        }
      ],
      "stateMutability": "view",
      "type": "function"
    },
    {
      "inputs": [
        {
          "internalType": "bytes",
          "name": "script",
          "type": "bytes"
        },
        {
          "internalType": "uint256[]",
          "name": "inputLocations",
          "type": "uint256[]"
        }
      ],
      "name": "query",
      "outputs": [
        {
          "internalType": "uint256",
          "name": "",
          "type": "uint256"
        }
      ],
      "stateMutability": "view",
      "type": "function"
    },
    {
      "inputs": [
        {
          "internalType": "bytes",
          "name": "script",
          "type": "bytes"
        },
        {
          "internalType": "uint256[]",
          "name": "inputLocations",
          "type": "uint256[]"
        }
      ],
      "name": "queryAllPrices",
      "outputs": [
        {
          "internalType": "bytes",
          "name": "",
          "type": "bytes"
        }
      ],
      "stateMutability": "view",
      "type": "function"
    }
  ],
  "transactionHash": "0xe9b5ab3ca35a4d38bcf07b270f2bcdb2ddc3fffff9ff80a95cf6bd6ae22d6213",
  "args": [],
  "solcInputHash": "27602b71e221c86e5db4b39d6eb0ab06",
  "bytecode": "0x608060405234801561001057600080fd5b5061095c806100206000396000f3fe608060405234801561001057600080fd5b50600436106100415760003560e01c80638ac06f5014610046578063a363a0f31461017e578063e39e64de146102a8575b600080fd5b6101096004803603604081101561005c57600080fd5b73ffffffffffffffffffffffffffffffffffffffff823516919081019060408101602082013564010000000081111561009457600080fd5b8201836020820111156100a657600080fd5b803590602001918460018302840111640100000000831117156100c857600080fd5b91908080601f0160208091040260200160405190810160405280939291908181526020018383808284376000920191909152509295506103e4945050505050565b6040805160208082528351818301528351919283929083019185019080838360005b8381101561014357818101518382015260200161012b565b50505050905090810190601f1680156101705780820380516001836020036101000a031916815260200191505b509250505060405180910390f35b6101096004803603604081101561019457600080fd5b8101906020810181356401000000008111156101af57600080fd5b8201836020820111156101c157600080fd5b803590602001918460018302840111640100000000831117156101e357600080fd5b91908080601f016020809104026020016040519081016040528093929190818152602001838380828437600092019190915250929594936020810193503591505064010000000081111561023657600080fd5b82018360208201111561024857600080fd5b8035906020019184602083028401116401000000008311171561026a57600080fd5b91908080602002602001604051908101604052809392919081815260200183836020028082843760009201919091525092955061053b945050505050565b6103d2600480360360408110156102be57600080fd5b8101906020810181356401000000008111156102d957600080fd5b8201836020820111156102eb57600080fd5b8035906020019184600183028401116401000000008311171561030d57600080fd5b91908080601f016020809104026020016040519081016040528093929190818152602001838380828437600092019190915250929594936020810193503591505064010000000081111561036057600080fd5b82018360208201111561037257600080fd5b8035906020019184602083028401116401000000008311171561039457600080fd5b9190808060200260200160405190810160405280939291908181526020018383602002808284376000920191909152509295506105f9945050505050565b60408051918252519081900360200190f35b6060600060608473ffffffffffffffffffffffffffffffffffffffff16846040518082805190602001908083835b6020831061044f57805182527fffffffffffffffffffffffffffffffffffffffffffffffffffffffffffffffe09092019160209182019101610412565b6001836020036101000a038019825116818451168082178552505050505050905001915050600060405180830381855afa9150503d80600081146104af576040519150601f19603f3d011682016040523d82523d6000602084013e6104b4565b606091505b50915091508161052557604080517f08c379a000000000000000000000000000000000000000000000000000000000815260206004820152601560248201527f436f756c64206e6f742066657463682070726963650000000000000000000000604482015290519081900360640190fd5b61053281600060206106b1565b95945050505050565b60606000606080606060008651905060005b88518610156105ec5760006105628a886107b1565b905060006105738b896014016107f9565b905060348801881580159061058757508385115b156105b75760008b858151811061059a57fe5b602002602001015190506105af8d8983610801565b506001909301925b6105c28c82846106b1565b95506105ce83876103e4565b96506105da888861080d565b9750816034018901985050505061054d565b5092979650505050505050565b805160009081906060908190835b875185101561069a57600061061c89876107b1565b9050600061062d8a886014016107f9565b905060348701871580159061064157508385115b156106715760008a858151811061065457fe5b602002602001015190506106698c8983610801565b506001909301925b61067c8b82846106b1565b955061068883876103e4565b96508160340188019750505050610607565b6106a58460006108a8565b98975050505050505050565b60608183018451101561072557604080517f08c379a000000000000000000000000000000000000000000000000000000000815260206004820152601260248201527f52656164206f7574206f6620626f756e64730000000000000000000000000000604482015290519081900360640190fd5b606082158015610740576040519150602082016040526107a8565b6040519150601f8416801560200281840101858101878315602002848b0101015b81831015610779578051835260209283019201610761565b5050858452601f017fffffffffffffffffffffffffffffffffffffffffffffffffffffffffffffffe016604052505b50949350505050565b6000806107be84846107f9565b6c010000000000000000000000007fffffffffffffffffffffffffffffffffffffffff00000000000000000000000090911604949350505050565b016020015190565b60209182015192010152565b6060806040519050835180825260208201818101602087015b8183101561083e578051835260209283019201610826565b50855184518101855292509050808201602086015b8183101561086b578051835260209283019201610853565b508651929092011591909101601f017fffffffffffffffffffffffffffffffffffffffffffffffffffffffffffffffe01660405250905092915050565b6000816020018351101561091d57604080517f08c379a000000000000000000000000000000000000000000000000000000000815260206004820152601260248201527f52656164206f7574206f6620626f756e64730000000000000000000000000000604482015290519081900360640190fd5b5001602001519056fea264697066735822122066a0c68734c622794d4d04369b9a350e2119b9155cc37305e502953da104b4f964736f6c63430007040033",
  "devdoc": {
    "kind": "dev",
    "methods": {
      "getPrice(address,bytes)": {
        "params": {
          "contractAddress": "contract to query",
          "data": "the bytecode for the contract call"
        },
        "returns": {
          "_0": "price in bytes"
        }
      },
      "query(bytes,uint256[])": {
        "params": {
          "inputLocations": "index locations within the script to insert input amounts dynamically",
          "script": "the compiled bytecode for the series of function calls to get the final price"
        },
        "returns": {
          "_0": "last price as uint"
        }
      },
      "queryAllPrices(bytes,uint256[])": {
        "params": {
          "inputLocations": "index locations within the script to insert input amounts dynamically",
          "script": "the compiled bytecode for the series of function calls to get the final price"
        },
        "returns": {
          "_0": "all prices as bytes"
        }
      }
    },
    "version": 1
  },
  "userdoc": {
    "kind": "user",
    "methods": {
      "getPrice(address,bytes)": {
        "notice": "Calls the price function specified by data at contractAddress, returning the price as bytes"
      },
      "query(bytes,uint256[])": {
        "notice": "Makes a series of queries at once, returning the final price as a uint"
      },
      "queryAllPrices(bytes,uint256[])": {
        "notice": "Makes a series of queries at once, returning all the prices as bytes"
      }
    },
    "version": 1
  },
  "storageLayout": {
    "storage": [],
    "types": null
  }
}