{
  "address": "0xD545834edAF0d8A00838052487a5Fe1a9939A9e2",
  "abi": [
    {
      "anonymous": false,
      "inputs": [
        {
          "indexed": true,
          "internalType": "address",
          "name": "newCollector",
          "type": "address"
        },
        {
          "indexed": true,
          "internalType": "address",
          "name": "oldCollector",
          "type": "address"
        }
      ],
      "name": "FeeCollectorSet",
      "type": "event"
    },
    {
      "anonymous": false,
      "inputs": [
        {
          "indexed": true,
          "internalType": "uint32",
          "name": "newFee",
          "type": "uint32"
        },
        {
          "indexed": true,
          "internalType": "uint32",
          "name": "oldFee",
          "type": "uint32"
        }
      ],
      "name": "FeeSet",
      "type": "event"
    },
    {
      "anonymous": false,
      "inputs": [
        {
          "indexed": true,
          "internalType": "address",
          "name": "miner",
          "type": "address"
        },
        {
          "indexed": true,
          "internalType": "address",
          "name": "newSplitTo",
          "type": "address"
        },
        {
          "indexed": true,
          "internalType": "address",
          "name": "oldSplitTo",
          "type": "address"
        },
        {
          "indexed": false,
          "internalType": "uint32",
          "name": "newSplit",
          "type": "uint32"
        },
        {
          "indexed": false,
          "internalType": "uint32",
          "name": "oldSplit",
          "type": "uint32"
        }
      ],
      "name": "MinerSplitUpdated",
      "type": "event"
    },
    {
      "anonymous": false,
      "inputs": [
        {
          "indexed": true,
          "internalType": "bytes32",
          "name": "role",
          "type": "bytes32"
        },
        {
          "indexed": true,
          "internalType": "bytes32",
          "name": "previousAdminRole",
          "type": "bytes32"
        },
        {
          "indexed": true,
          "internalType": "bytes32",
          "name": "newAdminRole",
          "type": "bytes32"
        }
      ],
      "name": "RoleAdminChanged",
      "type": "event"
    },
    {
      "anonymous": false,
      "inputs": [
        {
          "indexed": true,
          "internalType": "bytes32",
          "name": "role",
          "type": "bytes32"
        },
        {
          "indexed": true,
          "internalType": "address",
          "name": "account",
          "type": "address"
        },
        {
          "indexed": true,
          "internalType": "address",
          "name": "sender",
          "type": "address"
        }
      ],
      "name": "RoleGranted",
      "type": "event"
    },
    {
      "anonymous": false,
      "inputs": [
        {
          "indexed": true,
          "internalType": "bytes32",
          "name": "role",
          "type": "bytes32"
        },
        {
          "indexed": true,
          "internalType": "address",
          "name": "account",
          "type": "address"
        },
        {
          "indexed": true,
          "internalType": "address",
          "name": "sender",
          "type": "address"
        }
      ],
      "name": "RoleRevoked",
      "type": "event"
    },
    {
      "anonymous": false,
      "inputs": [
        {
          "indexed": true,
          "internalType": "address",
          "name": "miner",
          "type": "address"
        },
        {
          "indexed": true,
          "internalType": "address",
          "name": "tipper",
          "type": "address"
        },
        {
          "indexed": false,
          "internalType": "uint256",
          "name": "tipAmount",
          "type": "uint256"
        },
        {
          "indexed": false,
          "internalType": "uint256",
          "name": "splitAmount",
          "type": "uint256"
        },
        {
          "indexed": false,
          "internalType": "uint256",
          "name": "feeAmount",
          "type": "uint256"
        },
        {
          "indexed": false,
          "internalType": "address",
          "name": "feeCollector",
          "type": "address"
        }
      ],
      "name": "Tip",
      "type": "event"
    },
    {
      "stateMutability": "payable",
      "type": "fallback"
    },
    {
      "inputs": [],
      "name": "DEFAULT_ADMIN_ROLE",
      "outputs": [
        {
          "internalType": "bytes32",
          "name": "",
          "type": "bytes32"
        }
      ],
      "stateMutability": "view",
      "type": "function"
    },
    {
      "inputs": [],
      "name": "FEE_SETTER_ROLE",
      "outputs": [
        {
          "internalType": "bytes32",
          "name": "",
          "type": "bytes32"
        }
      ],
      "stateMutability": "view",
      "type": "function"
    },
    {
      "inputs": [],
      "name": "TIP_JAR_ADMIN_ROLE",
      "outputs": [
        {
          "internalType": "bytes32",
          "name": "",
          "type": "bytes32"
        }
      ],
      "stateMutability": "view",
      "type": "function"
    },
    {
      "inputs": [
        {
          "internalType": "address",
          "name": "_target",
          "type": "address"
        },
        {
          "internalType": "bytes",
          "name": "_payload",
          "type": "bytes"
        },
        {
          "internalType": "bytes32",
          "name": "_resultMatch",
          "type": "bytes32"
        }
      ],
      "name": "check32BytesAndSend",
      "outputs": [],
      "stateMutability": "payable",
      "type": "function"
    },
    {
      "inputs": [
        {
          "internalType": "address[]",
          "name": "_targets",
          "type": "address[]"
        },
        {
          "internalType": "bytes[]",
          "name": "_payloads",
          "type": "bytes[]"
        },
        {
          "internalType": "bytes32[]",
          "name": "_resultMatches",
          "type": "bytes32[]"
        }
      ],
      "name": "check32BytesAndSendMulti",
      "outputs": [],
      "stateMutability": "payable",
      "type": "function"
    },
    {
      "inputs": [
        {
          "internalType": "address",
          "name": "_target",
          "type": "address"
        },
        {
          "internalType": "bytes",
          "name": "_payload",
          "type": "bytes"
        },
        {
          "internalType": "bytes32",
          "name": "_resultMatch",
          "type": "bytes32"
        }
      ],
      "name": "check32BytesAndTip",
      "outputs": [],
      "stateMutability": "payable",
      "type": "function"
    },
    {
      "inputs": [
        {
          "internalType": "address[]",
          "name": "_targets",
          "type": "address[]"
        },
        {
          "internalType": "bytes[]",
          "name": "_payloads",
          "type": "bytes[]"
        },
        {
          "internalType": "bytes32[]",
          "name": "_resultMatches",
          "type": "bytes32[]"
        }
      ],
      "name": "check32BytesAndTipMulti",
      "outputs": [],
      "stateMutability": "payable",
      "type": "function"
    },
    {
      "inputs": [
        {
          "internalType": "address",
          "name": "_target",
          "type": "address"
        },
        {
          "internalType": "bytes",
          "name": "_payload",
          "type": "bytes"
        },
        {
          "internalType": "bytes",
          "name": "_resultMatch",
          "type": "bytes"
        }
      ],
      "name": "checkBytesAndSend",
      "outputs": [],
      "stateMutability": "payable",
      "type": "function"
    },
    {
      "inputs": [
        {
          "internalType": "address[]",
          "name": "_targets",
          "type": "address[]"
        },
        {
          "internalType": "bytes[]",
          "name": "_payloads",
          "type": "bytes[]"
        },
        {
          "internalType": "bytes[]",
          "name": "_resultMatches",
          "type": "bytes[]"
        }
      ],
      "name": "checkBytesAndSendMulti",
      "outputs": [],
      "stateMutability": "payable",
      "type": "function"
    },
    {
      "inputs": [
        {
          "internalType": "address",
          "name": "_target",
          "type": "address"
        },
        {
          "internalType": "bytes",
          "name": "_payload",
          "type": "bytes"
        },
        {
          "internalType": "bytes",
          "name": "_resultMatch",
          "type": "bytes"
        }
      ],
      "name": "checkBytesAndTip",
      "outputs": [],
      "stateMutability": "payable",
      "type": "function"
    },
    {
      "inputs": [
        {
          "internalType": "address[]",
          "name": "_targets",
          "type": "address[]"
        },
        {
          "internalType": "bytes[]",
          "name": "_payloads",
          "type": "bytes[]"
        },
        {
          "internalType": "bytes[]",
          "name": "_resultMatches",
          "type": "bytes[]"
        }
      ],
      "name": "checkBytesAndTipMulti",
      "outputs": [],
      "stateMutability": "payable",
      "type": "function"
    },
    {
      "inputs": [
        {
          "internalType": "bytes32",
          "name": "role",
          "type": "bytes32"
        }
      ],
      "name": "getRoleAdmin",
      "outputs": [
        {
          "internalType": "bytes32",
          "name": "",
          "type": "bytes32"
        }
      ],
      "stateMutability": "view",
      "type": "function"
    },
    {
      "inputs": [
        {
          "internalType": "bytes32",
          "name": "role",
          "type": "bytes32"
        },
        {
          "internalType": "address",
          "name": "account",
          "type": "address"
        }
      ],
      "name": "grantRole",
      "outputs": [],
      "stateMutability": "nonpayable",
      "type": "function"
    },
    {
      "inputs": [
        {
          "internalType": "bytes32",
          "name": "role",
          "type": "bytes32"
        },
        {
          "internalType": "address",
          "name": "account",
          "type": "address"
        }
      ],
      "name": "hasRole",
      "outputs": [
        {
          "internalType": "bool",
          "name": "",
          "type": "bool"
        }
      ],
      "stateMutability": "view",
      "type": "function"
    },
    {
      "inputs": [
        {
          "internalType": "address",
          "name": "_tipJarAdmin",
          "type": "address"
        },
        {
          "internalType": "address",
          "name": "_feeSetter",
          "type": "address"
        },
        {
          "internalType": "address",
          "name": "_networkFeeCollector",
          "type": "address"
        },
        {
          "internalType": "uint32",
          "name": "_networkFee",
          "type": "uint32"
        }
      ],
      "name": "initialize",
      "outputs": [],
      "stateMutability": "nonpayable",
      "type": "function"
    },
    {
      "inputs": [
        {
          "internalType": "address",
          "name": "",
          "type": "address"
        }
      ],
      "name": "minerSplits",
      "outputs": [
        {
          "internalType": "address",
          "name": "splitTo",
          "type": "address"
        },
        {
          "internalType": "uint32",
          "name": "splitPct",
          "type": "uint32"
        }
      ],
      "stateMutability": "view",
      "type": "function"
    },
    {
      "inputs": [],
      "name": "networkFee",
      "outputs": [
        {
          "internalType": "uint32",
          "name": "",
          "type": "uint32"
        }
      ],
      "stateMutability": "view",
      "type": "function"
    },
    {
      "inputs": [],
      "name": "networkFeeCollector",
      "outputs": [
        {
          "internalType": "address",
          "name": "",
          "type": "address"
        }
      ],
      "stateMutability": "view",
      "type": "function"
    },
    {
      "inputs": [
        {
          "internalType": "bytes32",
          "name": "role",
          "type": "bytes32"
        },
        {
          "internalType": "address",
          "name": "account",
          "type": "address"
        }
      ],
      "name": "renounceRole",
      "outputs": [],
      "stateMutability": "nonpayable",
      "type": "function"
    },
    {
      "inputs": [
        {
          "internalType": "bytes32",
          "name": "role",
          "type": "bytes32"
        },
        {
          "internalType": "address",
          "name": "account",
          "type": "address"
        }
      ],
      "name": "revokeRole",
      "outputs": [],
      "stateMutability": "nonpayable",
      "type": "function"
    },
    {
      "inputs": [
        {
          "internalType": "uint32",
          "name": "newFee",
          "type": "uint32"
        }
      ],
      "name": "setFee",
      "outputs": [],
      "stateMutability": "nonpayable",
      "type": "function"
    },
    {
      "inputs": [
        {
          "internalType": "address",
          "name": "newCollector",
          "type": "address"
        }
      ],
      "name": "setFeeCollector",
      "outputs": [],
      "stateMutability": "nonpayable",
      "type": "function"
    },
    {
      "inputs": [
        {
          "internalType": "bytes4",
          "name": "interfaceId",
          "type": "bytes4"
        }
      ],
      "name": "supportsInterface",
      "outputs": [
        {
          "internalType": "bool",
          "name": "",
          "type": "bool"
        }
      ],
      "stateMutability": "view",
      "type": "function"
    },
    {
      "inputs": [],
      "name": "tip",
      "outputs": [],
      "stateMutability": "payable",
      "type": "function"
    },
    {
      "inputs": [
        {
          "internalType": "address",
          "name": "minerAddress",
          "type": "address"
        },
        {
          "internalType": "address",
          "name": "splitTo",
          "type": "address"
        },
        {
          "internalType": "uint32",
          "name": "splitPct",
          "type": "uint32"
        }
      ],
      "name": "updateMinerSplit",
      "outputs": [],
      "stateMutability": "nonpayable",
      "type": "function"
    },
    {
      "stateMutability": "payable",
      "type": "receive"
    }
  ],
  "transactionHash": "0xfdd4b4fe5426496782204e00cfc0f84180ac9d64d47caee2319bb9577b18f3bd",
  "args": [],
  "solcInputHash": "5a20877ebd5267a6d47a3ece7dadd477",
  "bytecode": "0x608060405234801561001057600080fd5b5061240a806100206000396000f3fe60806040526004361061019a5760003560e01c806386b738be116100e1578063a217fddf1161008a578063ce8fac8011610064578063ce8fac80146104eb578063d547741f146104fe578063e93476831461051e578063f856e7c814610552576101a1565b8063a217fddf14610422578063a42dce8014610437578063bb642e8514610457576101a1565b806391d14854116100bb57806391d148541461038a5780639af96d7e146103dd5780639db9e18b146103f0576101a1565b806386b738be146103375780638d9163401461034a5780638e819e541461036a576101a1565b80632f2ff15d1161014357806337a04af41161011d57806337a04af4146102b757806348ca0a30146102ca5780634b281588146102dd576101a1565b80632f2ff15d1461026457806336568abe146102845780633676290c146102a4576101a1565b80632483580511610174578063248358051461020b578063248a9ca31461021e5780632755cd2d1461025c576101a1565b806301ffc9a7146101a357806311473eba146101d85780631ab971ab146101eb576101a1565b366101a157005b005b3480156101af57600080fd5b506101c36101be366004612200565b610586565b60405190151581526020015b60405180910390f35b6101a16101e6366004612146565b610621565b3480156101f757600080fd5b506101a1610206366004612240565b61063f565b6101a1610219366004612032565b6107e4565b34801561022a57600080fd5b5061024e6102393660046121bd565b60009081526065602052604090206001015490565b6040519081526020016101cf565b6101a161085f565b34801561027057600080fd5b506101a161027f3660046121d5565b610bf3565b34801561029057600080fd5b506101a161029f3660046121d5565b610caa565b6101a16102b2366004612146565b610d59565b6101a16102c53660046120b0565b610d67565b6101a16102d8366004612032565b610d75565b3480156102e957600080fd5b5060975461031290640100000000900473ffffffffffffffffffffffffffffffffffffffff1681565b60405173ffffffffffffffffffffffffffffffffffffffff90911681526020016101cf565b6101a1610345366004611fda565b610df1565b34801561035657600080fd5b506101a1610365366004611f98565b610e39565b34801561037657600080fd5b506101a1610385366004611f45565b61116e565b34801561039657600080fd5b506101c36103a53660046121d5565b600091825260656020908152604080842073ffffffffffffffffffffffffffffffffffffffff93909316845291905290205460ff1690565b6101a16103eb3660046120b0565b611427565b3480156103fc57600080fd5b5060975461040d9063ffffffff1681565b60405163ffffffff90911681526020016101cf565b34801561042e57600080fd5b5061024e600081565b34801561044357600080fd5b506101a1610452366004611f24565b611435565b34801561046357600080fd5b506104ba610472366004611f24565b60986020526000908152604090205473ffffffffffffffffffffffffffffffffffffffff81169074010000000000000000000000000000000000000000900463ffffffff1682565b6040805173ffffffffffffffffffffffffffffffffffffffff909316835263ffffffff9091166020830152016101cf565b6101a16104f9366004611fda565b611592565b34801561050a57600080fd5b506101a16105193660046121d5565b6115dc565b34801561052a57600080fd5b5061024e7fe6ad9a47fbda1dc18de1eb5eeb7d935e5e81b4748f3cfc61e233e64f8818206081565b34801561055e57600080fd5b5061024e7f0938034daff16723b6cfe3b3b828d3aed52d6e6c5275df2d0555a160aabd204681565b60007fffffffff0000000000000000000000000000000000000000000000000000000082167f7965db0b00000000000000000000000000000000000000000000000000000000148061061957507f01ffc9a7000000000000000000000000000000000000000000000000000000007fffffffff000000000000000000000000000000000000000000000000000000008316145b90505b919050565b61062f868686868686611683565b61063761085f565b505050505050565b3360009081527fb8856e02d8db4f86d5561f04ba0fd00f302915fcd46f5dd1dd5d4c6dc0a5aabb602052604090205460ff16610702576040517f08c379a000000000000000000000000000000000000000000000000000000000815260206004820152602560248201527f43616c6c6572206d7573742068617665204645455f5345545445525f524f4c4560448201527f20726f6c6500000000000000000000000000000000000000000000000000000060648201526084015b60405180910390fd5b620f42408163ffffffff161115610775576040517f08c379a000000000000000000000000000000000000000000000000000000000815260206004820152600560248201527f3e3130302500000000000000000000000000000000000000000000000000000060448201526064016106f9565b60975460405163ffffffff918216918316907fa8d5cd5754f57c9e07e1a75b048989e56418a7c706f6e4007daab8a6e1d7d6cc90600090a3609780547fffffffffffffffffffffffffffffffffffffffffffffffffffffffff000000001663ffffffff92909216919091179055565b6108588585858080601f01602080910402602001604051908101604052809392919081815260200183838082843760009201919091525050604080516020601f8901819004810282018101909252878152925087915086908190840183828082843760009201919091525061181992505050565b5050505050565b6097546000908190819063ffffffff161561096e57609754620f42409061088c9063ffffffff164761232f565b61089691906122f6565b60975460405191935060009164010000000090910473ffffffffffffffffffffffffffffffffffffffff169084908381818185875af1925050503d80600081146108fc576040519150601f19603f3d011682016040523d82523d6000602084013e610901565b606091505b505090508061096c576040517f08c379a000000000000000000000000000000000000000000000000000000000815260206004820152601560248201527f436f756c64206e6f7420636f6c6c65637420666565000000000000000000000060448201526064016106f9565b505b4160009081526098602052604090205474010000000000000000000000000000000000000000900463ffffffff1615610ac55741600090815260986020526040902054620f4240906109de9074010000000000000000000000000000000000000000900463ffffffff164761232f565b6109e891906122f6565b41600090815260986020526040808220549051929350909173ffffffffffffffffffffffffffffffffffffffff9091169083908381818185875af1925050503d8060008114610a53576040519150601f19603f3d011682016040523d82523d6000602084013e610a58565b606091505b5050905080610ac3576040517f08c379a000000000000000000000000000000000000000000000000000000000815260206004820152600f60248201527f436f756c64206e6f742073706c6974000000000000000000000000000000000060448201526064016106f9565b505b4715610b8257604051479350600090419085908381818185875af1925050503d8060008114610b10576040519150601f19603f3d011682016040523d82523d6000602084013e610b15565b606091505b5050905080610b80576040517f08c379a000000000000000000000000000000000000000000000000000000000815260206004820152601560248201527f436f756c64206e6f7420636f6c6c65637420455448000000000000000000000060448201526064016106f9565b505b609754604080518581526020810184905290810184905264010000000090910473ffffffffffffffffffffffffffffffffffffffff166060820152339041907f4e9691bacc489b285a194d91cc2ddde2e7bcf6409b9ad9b3433604471ec550739060800160405180910390a3505050565b600082815260656020526040902060010154610c10905b336103a5565b610c9c576040517f08c379a000000000000000000000000000000000000000000000000000000000815260206004820152602f60248201527f416363657373436f6e74726f6c3a2073656e646572206d75737420626520616e60448201527f2061646d696e20746f206772616e74000000000000000000000000000000000060648201526084016106f9565b610ca68282611964565b5050565b73ffffffffffffffffffffffffffffffffffffffff81163314610d4f576040517f08c379a000000000000000000000000000000000000000000000000000000000815260206004820152602f60248201527f416363657373436f6e74726f6c3a2063616e206f6e6c792072656e6f756e636560448201527f20726f6c657320666f722073656c66000000000000000000000000000000000060648201526084016106f9565b610ca68282611a58565b610637868686868686611683565b61062f868686868686611b13565b610de98585858080601f01602080910402602001604051908101604052809392919081815260200183838082843760009201919091525050604080516020601f8901819004810282018101909252878152925087915086908190840183828082843760009201919091525061181992505050565b61085861085f565b610e338484848080601f016020809104026020016040519081016040528093929190818152602001838380828437600092019190915250869250611c60915050565b50505050565b823373ffffffffffffffffffffffffffffffffffffffff82161480610e8c57503360009081527f439406534c2d551d11016830ce465b3d9ef5eb9bffbe7054d9b5c35026e2f6dd602052604090205460ff165b610f18576040517f08c379a000000000000000000000000000000000000000000000000000000000815260206004820152603460248201527f43616c6c6572206d757374206265206d696e6572206f7220686176652054495060448201527f5f4a41525f41444d494e5f524f4c4520726f6c6500000000000000000000000060648201526084016106f9565b6000609860008673ffffffffffffffffffffffffffffffffffffffff1673ffffffffffffffffffffffffffffffffffffffff1681526020019081526020016000206040518060400160405290816000820160009054906101000a900473ffffffffffffffffffffffffffffffffffffffff1673ffffffffffffffffffffffffffffffffffffffff1673ffffffffffffffffffffffffffffffffffffffff1681526020016000820160149054906101000a900463ffffffff1663ffffffff1663ffffffff1681525050905060008160000151905060008260200151905060405180604001604052808773ffffffffffffffffffffffffffffffffffffffff1681526020018663ffffffff16815250609860008973ffffffffffffffffffffffffffffffffffffffff1673ffffffffffffffffffffffffffffffffffffffff16815260200190815260200160002060008201518160000160006101000a81548173ffffffffffffffffffffffffffffffffffffffff021916908373ffffffffffffffffffffffffffffffffffffffff16021790555060208201518160000160146101000a81548163ffffffff021916908363ffffffff1602179055509050508173ffffffffffffffffffffffffffffffffffffffff168673ffffffffffffffffffffffffffffffffffffffff168873ffffffffffffffffffffffffffffffffffffffff167fc659a685e66f552150d79438e7b594425a44c700923bbb3d32226b0a88ee1c52888560405161115d92919063ffffffff92831681529116602082015260400190565b60405180910390a450505050505050565b600054610100900460ff1680611187575060005460ff16155b611213576040517f08c379a000000000000000000000000000000000000000000000000000000000815260206004820152602e60248201527f496e697469616c697a61626c653a20636f6e747261637420697320616c72656160448201527f647920696e697469616c697a656400000000000000000000000000000000000060648201526084016106f9565b600054610100900460ff1615801561125257600080547fffffffffffffffffffffffffffffffffffffffffffffffffffffffffffff0000166101011790555b61127c7f0938034daff16723b6cfe3b3b828d3aed52d6e6c5275df2d0555a160aabd204680611e0e565b6112c67fe6ad9a47fbda1dc18de1eb5eeb7d935e5e81b4748f3cfc61e233e64f881820607f0938034daff16723b6cfe3b3b828d3aed52d6e6c5275df2d0555a160aabd2046611e0e565b6112f07f0938034daff16723b6cfe3b3b828d3aed52d6e6c5275df2d0555a160aabd204686610c9c565b61131a7fe6ad9a47fbda1dc18de1eb5eeb7d935e5e81b4748f3cfc61e233e64f8818206085610c9c565b609780547fffffffffffffffff0000000000000000000000000000000000000000ffffffff1664010000000073ffffffffffffffffffffffffffffffffffffffff861690810291909117909155604051600091907f089588e3f10370c99a6f74177eacb5361ba90e1b70a123bfeccb6619c21cd721908390a3609780547fffffffffffffffffffffffffffffffffffffffffffffffffffffffff000000001663ffffffff8416908117909155604051600091907fa8d5cd5754f57c9e07e1a75b048989e56418a7c706f6e4007daab8a6e1d7d6cc908390a3801561085857600080547fffffffffffffffffffffffffffffffffffffffffffffffffffffffffffff00ff1690555050505050565b610637868686868686611b13565b3360009081527f439406534c2d551d11016830ce465b3d9ef5eb9bffbe7054d9b5c35026e2f6dd602052604090205460ff166114f3576040517f08c379a000000000000000000000000000000000000000000000000000000000815260206004820152602860248201527f43616c6c6572206d7573742068617665205449505f4a41525f41444d494e5f5260448201527f4f4c4520726f6c6500000000000000000000000000000000000000000000000060648201526084016106f9565b60975460405173ffffffffffffffffffffffffffffffffffffffff6401000000009092048216918316907f089588e3f10370c99a6f74177eacb5361ba90e1b70a123bfeccb6619c21cd72190600090a36097805473ffffffffffffffffffffffffffffffffffffffff909216640100000000027fffffffffffffffff0000000000000000000000000000000000000000ffffffff909216919091179055565b6115d48484848080601f016020809104026020016040519081016040528093929190818152602001838380828437600092019190915250869250611c60915050565b610e3361085f565b6000828152606560205260409020600101546115f790610c0a565b610d4f576040517f08c379a000000000000000000000000000000000000000000000000000000000815260206004820152603060248201527f416363657373436f6e74726f6c3a2073656e646572206d75737420626520616e60448201527f2061646d696e20746f207265766f6b650000000000000000000000000000000060648201526084016106f9565b84831461168f57600080fd5b84811461169b57600080fd5b60005b85811015611810576117fe8787838181106116e2577f4e487b7100000000000000000000000000000000000000000000000000000000600052603260045260246000fd5b90506020020160208101906116f79190611f24565b868684818110611730577f4e487b7100000000000000000000000000000000000000000000000000000000600052603260045260246000fd5b90506020028101906117429190612293565b8080601f0160208091040260200160405190810160405280939291908181526020018383808284376000920191909152508892508791508690508181106117b2577f4e487b7100000000000000000000000000000000000000000000000000000000600052603260045260246000fd5b90506020028101906117c49190612293565b8080601f01602080910402602001604051908101604052809392919081815260200183838082843760009201919091525061181992505050565b806118088161236c565b91505061169e565b50505050505050565b6000808473ffffffffffffffffffffffffffffffffffffffff1684604051611841919061225a565b600060405180830381855afa9150503d806000811461187c576040519150601f19603f3d011682016040523d82523d6000602084013e611881565b606091505b5091509150816118ed576040517f08c379a000000000000000000000000000000000000000000000000000000000815260206004820152600860248201527f217375636365737300000000000000000000000000000000000000000000000060448201526064016106f9565b8080519060200120838051906020012014610858576040517f08c379a000000000000000000000000000000000000000000000000000000000815260206004820152601760248201527f726573706f6e7365206279746573206d69736d6174636800000000000000000060448201526064016106f9565b600082815260656020908152604080832073ffffffffffffffffffffffffffffffffffffffff8516845290915290205460ff16610ca657600082815260656020908152604080832073ffffffffffffffffffffffffffffffffffffffff85168452909152902080547fffffffffffffffffffffffffffffffffffffffffffffffffffffffffffffff001660011790556119fa3390565b73ffffffffffffffffffffffffffffffffffffffff168173ffffffffffffffffffffffffffffffffffffffff16837f2f8788117e7eff1d82e926ec794901d17c78024a50270940304540a733656f0d60405160405180910390a45050565b600082815260656020908152604080832073ffffffffffffffffffffffffffffffffffffffff8516845290915290205460ff1615610ca657600082815260656020908152604080832073ffffffffffffffffffffffffffffffffffffffff8516808552925280832080547fffffffffffffffffffffffffffffffffffffffffffffffffffffffffffffff0016905551339285917ff6391f5c32d9c69d2a47ea670b442974b53935d1edc7fd64eb21e047a839171b9190a45050565b848314611b1f57600080fd5b848114611b2b57600080fd5b60005b8581101561181057611c4e878783818110611b72577f4e487b7100000000000000000000000000000000000000000000000000000000600052603260045260246000fd5b9050602002016020810190611b879190611f24565b868684818110611bc0577f4e487b7100000000000000000000000000000000000000000000000000000000600052603260045260246000fd5b9050602002810190611bd29190612293565b8080601f016020809104026020016040519081016040528093929190818152602001838380828437600092019190915250889250879150869050818110611c42577f4e487b7100000000000000000000000000000000000000000000000000000000600052603260045260246000fd5b90506020020135611c60565b80611c588161236c565b915050611b2e565b6000808473ffffffffffffffffffffffffffffffffffffffff1684604051611c88919061225a565b600060405180830381855afa9150503d8060008114611cc3576040519150601f19603f3d011682016040523d82523d6000602084013e611cc8565b606091505b509150915081611d34576040517f08c379a000000000000000000000000000000000000000000000000000000000815260206004820152600860248201527f217375636365737300000000000000000000000000000000000000000000000060448201526064016106f9565b602081511015611da0576040517f08c379a000000000000000000000000000000000000000000000000000000000815260206004820152601b60248201527f726573706f6e7365206c657373207468616e203332206279746573000000000060448201526064016106f9565b6020810151838114610637576040517f08c379a000000000000000000000000000000000000000000000000000000000815260206004820152601160248201527f726573706f6e7365206d69736d6174636800000000000000000000000000000060448201526064016106f9565b600082815260656020526040902060010154819060405184907fbd79b86ffe0ab8e8776151514217cd7cacd52c909f66475c3af44e129f0b00ff90600090a460009182526065602052604090912060010155565b803573ffffffffffffffffffffffffffffffffffffffff8116811461061c57600080fd5b60008083601f840112611e97578182fd5b50813567ffffffffffffffff811115611eae578182fd5b6020830191508360208260051b8501011115611ec957600080fd5b9250929050565b60008083601f840112611ee1578182fd5b50813567ffffffffffffffff811115611ef8578182fd5b602083019150836020828501011115611ec957600080fd5b803563ffffffff8116811461061c57600080fd5b600060208284031215611f35578081fd5b611f3e82611e62565b9392505050565b60008060008060808587031215611f5a578283fd5b611f6385611e62565b9350611f7160208601611e62565b9250611f7f60408601611e62565b9150611f8d60608601611f10565b905092959194509250565b600080600060608486031215611fac578283fd5b611fb584611e62565b9250611fc360208501611e62565b9150611fd160408501611f10565b90509250925092565b60008060008060608587031215611fef578384fd5b611ff885611e62565b9350602085013567ffffffffffffffff811115612013578384fd5b61201f87828801611ed0565b9598909750949560400135949350505050565b600080600080600060608688031215612049578081fd5b61205286611e62565b9450602086013567ffffffffffffffff8082111561206e578283fd5b61207a89838a01611ed0565b90965094506040880135915080821115612092578283fd5b5061209f88828901611ed0565b969995985093965092949392505050565b600080600080600080606087890312156120c8578081fd5b863567ffffffffffffffff808211156120df578283fd5b6120eb8a838b01611e86565b90985096506020890135915080821115612103578283fd5b61210f8a838b01611e86565b90965094506040890135915080821115612127578283fd5b5061213489828a01611e86565b979a9699509497509295939492505050565b6000806000806000806060878903121561215e578182fd5b863567ffffffffffffffff80821115612175578384fd5b6121818a838b01611e86565b90985096506020890135915080821115612199578384fd5b6121a58a838b01611e86565b90965094506040890135915080821115612127578384fd5b6000602082840312156121ce578081fd5b5035919050565b600080604083850312156121e7578182fd5b823591506121f760208401611e62565b90509250929050565b600060208284031215612211578081fd5b81357fffffffff0000000000000000000000000000000000000000000000000000000081168114611f3e578182fd5b600060208284031215612251578081fd5b611f3e82611f10565b60008251815b8181101561227a5760208186018101518583015201612260565b818111156122885782828501525b509190910192915050565b60008083357fffffffffffffffffffffffffffffffffffffffffffffffffffffffffffffffe18436030181126122c7578283fd5b83018035915067ffffffffffffffff8211156122e1578283fd5b602001915036819003821315611ec957600080fd5b60008261232a577f4e487b710000000000000000000000000000000000000000000000000000000081526012600452602481fd5b500490565b6000817fffffffffffffffffffffffffffffffffffffffffffffffffffffffffffffffff0483118215151615612367576123676123a5565b500290565b60007fffffffffffffffffffffffffffffffffffffffffffffffffffffffffffffffff82141561239e5761239e6123a5565b5060010190565b7f4e487b7100000000000000000000000000000000000000000000000000000000600052601160045260246000fdfea264697066735822122042c411f8a971a8d77864d56ccdfc50814b26bbd48924cf6fddfb66699cfd684b64736f6c63430008030033",
  "devdoc": {
    "details": "Allows suppliers to create a tip that gets distributed to miners + the network",
    "kind": "dev",
    "methods": {
      "check32BytesAndSend(address,bytes,bytes32)": {
        "params": {
          "_payload": "contract call bytes",
          "_resultMatch": "result to match",
          "_target": "target contract"
        }
      },
      "check32BytesAndSendMulti(address[],bytes[],bytes32[])": {
        "params": {
          "_payloads": "contract call bytes",
          "_resultMatches": "results to match",
          "_targets": "target contracts"
        }
      },
      "check32BytesAndTip(address,bytes,bytes32)": {
        "params": {
          "_payload": "contract call bytes",
          "_resultMatch": "result to match",
          "_target": "target contract"
        }
      },
      "check32BytesAndTipMulti(address[],bytes[],bytes32[])": {
        "params": {
          "_payloads": "contract call bytes",
          "_resultMatches": "results to match",
          "_targets": "target contracts"
        }
      },
      "checkBytesAndSend(address,bytes,bytes)": {
        "params": {
          "_payload": "contract call bytes",
          "_resultMatch": "result to match",
          "_target": "target contract"
        }
      },
      "checkBytesAndSendMulti(address[],bytes[],bytes[])": {
        "params": {
          "_payloads": "contract call bytes",
          "_resultMatches": "results to match",
          "_targets": "target contracts"
        }
      },
      "checkBytesAndTip(address,bytes,bytes)": {
        "params": {
          "_payload": "contract call bytes",
          "_resultMatch": "result to match",
          "_target": "target contract"
        }
      },
      "checkBytesAndTipMulti(address[],bytes[],bytes[])": {
        "params": {
          "_payloads": "contract call bytes",
          "_resultMatches": "results to match",
          "_targets": "target contracts"
        }
      },
      "getRoleAdmin(bytes32)": {
        "details": "Returns the admin role that controls `role`. See {grantRole} and {revokeRole}. To change a role's admin, use {_setRoleAdmin}."
      },
      "grantRole(bytes32,address)": {
        "details": "Grants `role` to `account`. If `account` had not been already granted `role`, emits a {RoleGranted} event. Requirements: - the caller must have ``role``'s admin role."
      },
      "hasRole(bytes32,address)": {
        "details": "Returns `true` if `account` has been granted `role`."
      },
      "initialize(address,address,address,uint32)": {
        "params": {
          "_feeSetter": "fee setter address",
          "_networkFee": "% of fee collected by the network",
          "_networkFeeCollector": "address that collects network fees",
          "_tipJarAdmin": "admin of tip pool"
        }
      },
      "renounceRole(bytes32,address)": {
        "details": "Revokes `role` from the calling account. Roles are often managed via {grantRole} and {revokeRole}: this function's purpose is to provide a mechanism for accounts to lose their privileges if they are compromised (such as when a trusted device is misplaced). If the calling account had been granted `role`, emits a {RoleRevoked} event. Requirements: - the caller must be `account`."
      },
      "revokeRole(bytes32,address)": {
        "details": "Revokes `role` from `account`. If `account` had been granted `role`, emits a {RoleRevoked} event. Requirements: - the caller must have ``role``'s admin role."
      },
      "setFee(uint32)": {
        "params": {
          "newFee": "new fee"
        }
      },
      "setFeeCollector(address)": {
        "params": {
          "newCollector": "new fee collector address"
        }
      },
      "supportsInterface(bytes4)": {
        "details": "See {IERC165-supportsInterface}."
      },
      "updateMinerSplit(address,address,uint32)": {
        "params": {
          "minerAddress": "Address of miner",
          "splitPct": "% of tip that splitTo receives",
          "splitTo": "Address that receives split"
        }
      }
    },
    "title": "TipJar",
    "version": 1
  },
  "userdoc": {
    "events": {
      "FeeCollectorSet(address,address)": {
        "notice": "Fee collector set event"
      },
      "FeeSet(uint32,uint32)": {
        "notice": "Fee set event"
      },
      "MinerSplitUpdated(address,address,address,uint32,uint32)": {
        "notice": "Miner split updated event"
      },
      "Tip(address,address,uint256,uint256,uint256,address)": {
        "notice": "Tip event"
      }
    },
    "kind": "user",
    "methods": {
      "FEE_SETTER_ROLE()": {
        "notice": "Fee setter role"
      },
      "TIP_JAR_ADMIN_ROLE()": {
        "notice": "TipJar Admin role"
      },
      "check32BytesAndSend(address,bytes,bytes32)": {
        "notice": "Check that contract call results in specific 32 bytes value, then transfer ETH"
      },
      "check32BytesAndSendMulti(address[],bytes[],bytes32[])": {
        "notice": "Check that multiple contract calls result in specific 32 bytes value, then transfer ETH"
      },
      "check32BytesAndTip(address,bytes,bytes32)": {
        "notice": "Check that contract call results in specific 32 bytes value, then tip"
      },
      "check32BytesAndTipMulti(address[],bytes[],bytes32[])": {
        "notice": "Check that multiple contract calls result in specific 32 bytes value, then tip"
      },
      "checkBytesAndSend(address,bytes,bytes)": {
        "notice": "Check that contract call results in specific bytes value, then transfer ETH"
      },
      "checkBytesAndSendMulti(address[],bytes[],bytes[])": {
        "notice": "Check that multiple contract calls result in specific bytes value, then transfer ETH"
      },
      "checkBytesAndTip(address,bytes,bytes)": {
        "notice": "Check that contract call results in specific bytes value, then tip"
      },
      "checkBytesAndTipMulti(address[],bytes[],bytes[])": {
        "notice": "Check that multiple contract calls result in specific bytes value, then tip"
      },
      "initialize(address,address,address,uint32)": {
        "notice": "Initializes contract, setting admin roles + network fee"
      },
      "minerSplits(address)": {
        "notice": "Miner split mapping"
      },
      "networkFee()": {
        "notice": "Network fee (measured in bips: 10,000 bips = 1% of contract balance)"
      },
      "networkFeeCollector()": {
        "notice": "Network fee output address"
      },
      "setFee(uint32)": {
        "notice": "Admin function to set network fee"
      },
      "setFeeCollector(address)": {
        "notice": "Admin function to set fee collector address"
      },
      "tip()": {
        "notice": "Distributes any ETH in contract to relevant parties"
      },
      "updateMinerSplit(address,address,uint32)": {
        "notice": "Update split % and split to address for given miner"
      }
    },
    "version": 1
  },
  "storageLayout": {
    "storage": [
      {
        "astId": 3126,
        "contract": "contracts/TipJar.sol:TipJar",
        "label": "_initialized",
        "offset": 0,
        "slot": "0",
        "type": "t_bool"
      },
      {
        "astId": 3129,
        "contract": "contracts/TipJar.sol:TipJar",
        "label": "_initializing",
        "offset": 1,
        "slot": "0",
        "type": "t_bool"
      },
      {
        "astId": 3072,
        "contract": "contracts/TipJar.sol:TipJar",
        "label": "__gap",
        "offset": 0,
        "slot": "1",
        "type": "t_array(t_uint256)50_storage"
      },
      {
        "astId": 3118,
        "contract": "contracts/TipJar.sol:TipJar",
        "label": "__gap",
        "offset": 0,
        "slot": "51",
        "type": "t_array(t_uint256)50_storage"
      },
      {
        "astId": 2330,
        "contract": "contracts/TipJar.sol:TipJar",
        "label": "_roles",
        "offset": 0,
        "slot": "101",
        "type": "t_mapping(t_bytes32,t_struct(RoleData)2325_storage)"
      },
      {
        "astId": 2594,
        "contract": "contracts/TipJar.sol:TipJar",
        "label": "__gap",
        "offset": 0,
        "slot": "102",
        "type": "t_array(t_uint256)49_storage"
      },
      {
        "astId": 23,
        "contract": "contracts/TipJar.sol:TipJar",
        "label": "networkFee",
        "offset": 0,
        "slot": "151",
        "type": "t_uint32"
      },
      {
        "astId": 26,
        "contract": "contracts/TipJar.sol:TipJar",
        "label": "networkFeeCollector",
        "offset": 4,
        "slot": "151",
        "type": "t_address"
      },
      {
        "astId": 37,
        "contract": "contracts/TipJar.sol:TipJar",
        "label": "minerSplits",
        "offset": 0,
        "slot": "152",
        "type": "t_mapping(t_address,t_struct(Split)31_storage)"
      }
    ],
    "types": {
      "t_address": {
        "encoding": "inplace",
        "label": "address",
        "numberOfBytes": "20"
      },
      "t_array(t_uint256)49_storage": {
        "base": "t_uint256",
        "encoding": "inplace",
        "label": "uint256[49]",
        "numberOfBytes": "1568"
      },
      "t_array(t_uint256)50_storage": {
        "base": "t_uint256",
        "encoding": "inplace",
        "label": "uint256[50]",
        "numberOfBytes": "1600"
      },
      "t_bool": {
        "encoding": "inplace",
        "label": "bool",
        "numberOfBytes": "1"
      },
      "t_bytes32": {
        "encoding": "inplace",
        "label": "bytes32",
        "numberOfBytes": "32"
      },
      "t_mapping(t_address,t_bool)": {
        "encoding": "mapping",
        "key": "t_address",
        "label": "mapping(address => bool)",
        "numberOfBytes": "32",
        "value": "t_bool"
      },
      "t_mapping(t_address,t_struct(Split)31_storage)": {
        "encoding": "mapping",
        "key": "t_address",
        "label": "mapping(address => struct TipJar.Split)",
        "numberOfBytes": "32",
        "value": "t_struct(Split)31_storage"
      },
      "t_mapping(t_bytes32,t_struct(RoleData)2325_storage)": {
        "encoding": "mapping",
        "key": "t_bytes32",
        "label": "mapping(bytes32 => struct AccessControlUpgradeable.RoleData)",
        "numberOfBytes": "32",
        "value": "t_struct(RoleData)2325_storage"
      },
      "t_struct(RoleData)2325_storage": {
        "encoding": "inplace",
        "label": "struct AccessControlUpgradeable.RoleData",
        "members": [
          {
            "astId": 2322,
            "contract": "contracts/TipJar.sol:TipJar",
            "label": "members",
            "offset": 0,
            "slot": "0",
            "type": "t_mapping(t_address,t_bool)"
          },
          {
            "astId": 2324,
            "contract": "contracts/TipJar.sol:TipJar",
            "label": "adminRole",
            "offset": 0,
            "slot": "1",
            "type": "t_bytes32"
          }
        ],
        "numberOfBytes": "64"
      },
      "t_struct(Split)31_storage": {
        "encoding": "inplace",
        "label": "struct TipJar.Split",
        "members": [
          {
            "astId": 28,
            "contract": "contracts/TipJar.sol:TipJar",
            "label": "splitTo",
            "offset": 0,
            "slot": "0",
            "type": "t_address"
          },
          {
            "astId": 30,
            "contract": "contracts/TipJar.sol:TipJar",
            "label": "splitPct",
            "offset": 20,
            "slot": "0",
            "type": "t_uint32"
          }
        ],
        "numberOfBytes": "32"
      },
      "t_uint256": {
        "encoding": "inplace",
        "label": "uint256",
        "numberOfBytes": "32"
      },
      "t_uint32": {
        "encoding": "inplace",
        "label": "uint32",
        "numberOfBytes": "4"
      }
    }
  }
}