{
  "address": "0xD243629A94c657cB415cFfbfB4f84fb8b98496ec",
  "abi": [
    {
      "inputs": [],
      "stateMutability": "nonpayable",
      "type": "constructor"
    },
    {
      "anonymous": false,
      "inputs": [
        {
          "indexed": true,
          "internalType": "address",
          "name": "oldAdmin",
          "type": "address"
        },
        {
          "indexed": true,
          "internalType": "address",
          "name": "newAdmin",
          "type": "address"
        }
      ],
      "name": "AdminChanged",
      "type": "event"
    },
    {
      "anonymous": false,
      "inputs": [
        {
          "indexed": true,
          "internalType": "string",
          "name": "delayType",
          "type": "string"
        },
        {
          "indexed": true,
          "internalType": "uint256",
          "name": "oldDelay",
          "type": "uint256"
        },
        {
          "indexed": true,
          "internalType": "uint256",
          "name": "newDelay",
          "type": "uint256"
        }
      ],
      "name": "DelayChanged",
      "type": "event"
    },
    {
      "anonymous": false,
      "inputs": [
        {
          "indexed": true,
          "internalType": "address",
          "name": "approver",
          "type": "address"
        },
        {
          "indexed": false,
          "internalType": "uint32",
          "name": "newFee",
          "type": "uint32"
        }
      ],
      "name": "FeeApproval",
      "type": "event"
    },
    {
      "anonymous": false,
      "inputs": [
        {
          "indexed": true,
          "internalType": "address",
          "name": "approver",
          "type": "address"
        },
        {
          "indexed": true,
          "internalType": "address",
          "name": "newCollector",
          "type": "address"
        }
      ],
      "name": "FeeCollectorApproval",
      "type": "event"
    },
    {
      "anonymous": false,
      "inputs": [
        {
          "indexed": true,
          "internalType": "address",
          "name": "proposer",
          "type": "address"
        },
        {
          "indexed": true,
          "internalType": "address",
          "name": "newCollector",
          "type": "address"
        },
        {
          "indexed": false,
          "internalType": "uint256",
          "name": "eta",
          "type": "uint256"
        },
        {
          "indexed": false,
          "internalType": "bytes32",
          "name": "proposalID",
          "type": "bytes32"
        },
        {
          "indexed": false,
          "internalType": "bytes32",
          "name": "salt",
          "type": "bytes32"
        }
      ],
      "name": "FeeCollectorProposal",
      "type": "event"
    },
    {
      "anonymous": false,
      "inputs": [
        {
          "indexed": true,
          "internalType": "address",
          "name": "proposer",
          "type": "address"
        },
        {
          "indexed": false,
          "internalType": "uint32",
          "name": "newFee",
          "type": "uint32"
        },
        {
          "indexed": false,
          "internalType": "uint256",
          "name": "eta",
          "type": "uint256"
        },
        {
          "indexed": false,
          "internalType": "bytes32",
          "name": "proposalID",
          "type": "bytes32"
        },
        {
          "indexed": false,
          "internalType": "bytes32",
          "name": "salt",
          "type": "bytes32"
        }
      ],
      "name": "FeeProposal",
      "type": "event"
    },
    {
      "anonymous": false,
      "inputs": [
        {
          "indexed": true,
          "internalType": "address",
          "name": "approver",
          "type": "address"
        },
        {
          "indexed": true,
          "internalType": "address",
          "name": "miner",
          "type": "address"
        },
        {
          "indexed": true,
          "internalType": "address",
          "name": "splitTo",
          "type": "address"
        },
        {
          "indexed": false,
          "internalType": "uint32",
          "name": "splitPct",
          "type": "uint32"
        }
      ],
      "name": "MinerSplitApproval",
      "type": "event"
    },
    {
      "anonymous": false,
      "inputs": [
        {
          "indexed": true,
          "internalType": "address",
          "name": "proposer",
          "type": "address"
        },
        {
          "indexed": true,
          "internalType": "address",
          "name": "miner",
          "type": "address"
        },
        {
          "indexed": true,
          "internalType": "address",
          "name": "splitTo",
          "type": "address"
        },
        {
          "indexed": false,
          "internalType": "uint32",
          "name": "splitPct",
          "type": "uint32"
        },
        {
          "indexed": false,
          "internalType": "uint256",
          "name": "eta",
          "type": "uint256"
        },
        {
          "indexed": false,
          "internalType": "bytes32",
          "name": "proposalID",
          "type": "bytes32"
        },
        {
          "indexed": false,
          "internalType": "bytes32",
          "name": "salt",
          "type": "bytes32"
        }
      ],
      "name": "MinerSplitProposal",
      "type": "event"
    },
    {
      "anonymous": false,
      "inputs": [
        {
          "indexed": true,
          "internalType": "address",
          "name": "oldTimelock",
          "type": "address"
        },
        {
          "indexed": true,
          "internalType": "address",
          "name": "newTimelock",
          "type": "address"
        }
      ],
      "name": "TimelockChanged",
      "type": "event"
    },
    {
      "anonymous": false,
      "inputs": [
        {
          "indexed": true,
          "internalType": "address",
          "name": "oldTipJar",
          "type": "address"
        },
        {
          "indexed": true,
          "internalType": "address",
          "name": "newTipJar",
          "type": "address"
        }
      ],
      "name": "TipJarChanged",
      "type": "event"
    },
    {
      "stateMutability": "payable",
      "type": "fallback"
    },
    {
      "inputs": [],
      "name": "admin",
      "outputs": [
        {
          "internalType": "address",
          "name": "",
          "type": "address"
        }
      ],
      "stateMutability": "view",
      "type": "function"
    },
    {
      "inputs": [
        {
          "internalType": "address",
          "name": "newAdmin",
          "type": "address"
        },
        {
          "internalType": "bytes32",
          "name": "salt",
          "type": "bytes32"
        }
      ],
      "name": "approveNewAdmin",
      "outputs": [],
      "stateMutability": "nonpayable",
      "type": "function"
    },
    {
      "inputs": [
        {
          "internalType": "uint256",
          "name": "newDelay",
          "type": "uint256"
        },
        {
          "internalType": "bytes32",
          "name": "salt",
          "type": "bytes32"
        }
      ],
      "name": "approveNewCriticalDelay",
      "outputs": [],
      "stateMutability": "nonpayable",
      "type": "function"
    },
    {
      "inputs": [
        {
          "internalType": "uint32",
          "name": "newFee",
          "type": "uint32"
        },
        {
          "internalType": "bytes32",
          "name": "salt",
          "type": "bytes32"
        }
      ],
      "name": "approveNewFee",
      "outputs": [],
      "stateMutability": "nonpayable",
      "type": "function"
    },
    {
      "inputs": [
        {
          "internalType": "address",
          "name": "newFeeCollector",
          "type": "address"
        },
        {
          "internalType": "bytes32",
          "name": "salt",
          "type": "bytes32"
        }
      ],
      "name": "approveNewFeeCollector",
      "outputs": [],
      "stateMutability": "nonpayable",
      "type": "function"
    },
    {
      "inputs": [
        {
          "internalType": "address",
          "name": "minerAddress",
          "type": "address"
        },
        {
          "internalType": "address",
          "name": "splitTo",
          "type": "address"
        },
        {
          "internalType": "uint32",
          "name": "splitPct",
          "type": "uint32"
        },
        {
          "internalType": "bytes32",
          "name": "salt",
          "type": "bytes32"
        }
      ],
      "name": "approveNewMinerSplit",
      "outputs": [],
      "stateMutability": "nonpayable",
      "type": "function"
    },
    {
      "inputs": [
        {
          "internalType": "address",
          "name": "newAdmin",
          "type": "address"
        },
        {
          "internalType": "bytes32",
          "name": "salt",
          "type": "bytes32"
        }
      ],
      "name": "approveNewProxyAdmin",
      "outputs": [],
      "stateMutability": "nonpayable",
      "type": "function"
    },
    {
      "inputs": [
        {
          "internalType": "uint256",
          "name": "newDelay",
          "type": "uint256"
        },
        {
          "internalType": "bytes32",
          "name": "salt",
          "type": "bytes32"
        }
      ],
      "name": "approveNewRegularDelay",
      "outputs": [],
      "stateMutability": "nonpayable",
      "type": "function"
    },
    {
      "inputs": [
        {
          "internalType": "address",
          "name": "newTimelock",
          "type": "address"
        },
        {
          "internalType": "bytes32",
          "name": "salt",
          "type": "bytes32"
        }
      ],
      "name": "approveNewTimelock",
      "outputs": [],
      "stateMutability": "nonpayable",
      "type": "function"
    },
    {
      "inputs": [
        {
          "internalType": "address",
          "name": "newTipJar",
          "type": "address"
        },
        {
          "internalType": "bytes32",
          "name": "salt",
          "type": "bytes32"
        }
      ],
      "name": "approveNewTipJar",
      "outputs": [],
      "stateMutability": "nonpayable",
      "type": "function"
    },
    {
      "inputs": [
        {
          "internalType": "address",
          "name": "newImplementation",
          "type": "address"
        },
        {
          "internalType": "bytes32",
          "name": "salt",
          "type": "bytes32"
        }
      ],
      "name": "approveUpgrade",
      "outputs": [],
      "stateMutability": "nonpayable",
      "type": "function"
    },
    {
      "inputs": [
        {
          "internalType": "address",
          "name": "newImplementation",
          "type": "address"
        },
        {
          "internalType": "bytes",
          "name": "data",
          "type": "bytes"
        },
        {
          "internalType": "uint256",
          "name": "value",
          "type": "uint256"
        },
        {
          "internalType": "bytes32",
          "name": "salt",
          "type": "bytes32"
        }
      ],
      "name": "approveUpgradeAndCall",
      "outputs": [],
      "stateMutability": "payable",
      "type": "function"
    },
    {
      "inputs": [
        {
          "internalType": "bytes32",
          "name": "id",
          "type": "bytes32"
        }
      ],
      "name": "cancelProposal",
      "outputs": [],
      "stateMutability": "nonpayable",
      "type": "function"
    },
    {
      "inputs": [
        {
          "internalType": "address",
          "name": "target",
          "type": "address"
        },
        {
          "internalType": "uint256",
          "name": "value",
          "type": "uint256"
        },
        {
          "internalType": "bytes",
          "name": "data",
          "type": "bytes"
        },
        {
          "internalType": "bytes32",
          "name": "predecessor",
          "type": "bytes32"
        },
        {
          "internalType": "bytes32",
          "name": "salt",
          "type": "bytes32"
        }
      ],
      "name": "createProposal",
      "outputs": [],
      "stateMutability": "nonpayable",
      "type": "function"
    },
    {
      "inputs": [
        {
          "internalType": "address[]",
          "name": "targets",
          "type": "address[]"
        },
        {
          "internalType": "uint256[]",
          "name": "values",
          "type": "uint256[]"
        },
        {
          "internalType": "bytes[]",
          "name": "datas",
          "type": "bytes[]"
        },
        {
          "internalType": "bytes32",
          "name": "predecessor",
          "type": "bytes32"
        },
        {
          "internalType": "bytes32",
          "name": "salt",
          "type": "bytes32"
        }
      ],
      "name": "createProposalBatch",
      "outputs": [],
      "stateMutability": "nonpayable",
      "type": "function"
    },
    {
      "inputs": [],
      "name": "criticalDelay",
      "outputs": [
        {
          "internalType": "uint256",
          "name": "",
          "type": "uint256"
        }
      ],
      "stateMutability": "view",
      "type": "function"
    },
    {
      "inputs": [
        {
          "internalType": "address",
          "name": "target",
          "type": "address"
        },
        {
          "internalType": "uint256",
          "name": "value",
          "type": "uint256"
        },
        {
          "internalType": "bytes",
          "name": "data",
          "type": "bytes"
        },
        {
          "internalType": "bytes32",
          "name": "predecessor",
          "type": "bytes32"
        },
        {
          "internalType": "bytes32",
          "name": "salt",
          "type": "bytes32"
        }
      ],
      "name": "executeProposal",
      "outputs": [],
      "stateMutability": "payable",
      "type": "function"
    },
    {
      "inputs": [
        {
          "internalType": "address[]",
          "name": "targets",
          "type": "address[]"
        },
        {
          "internalType": "uint256[]",
          "name": "values",
          "type": "uint256[]"
        },
        {
          "internalType": "bytes[]",
          "name": "datas",
          "type": "bytes[]"
        },
        {
          "internalType": "bytes32",
          "name": "predecessor",
          "type": "bytes32"
        },
        {
          "internalType": "bytes32",
          "name": "salt",
          "type": "bytes32"
        }
      ],
      "name": "executeProposalBatch",
      "outputs": [],
      "stateMutability": "payable",
      "type": "function"
    },
    {
      "inputs": [],
      "name": "getProxyAdmin",
      "outputs": [
        {
          "internalType": "address",
          "name": "",
          "type": "address"
        }
      ],
      "stateMutability": "view",
      "type": "function"
    },
    {
      "inputs": [],
      "name": "getProxyImplementation",
      "outputs": [
        {
          "internalType": "address",
          "name": "",
          "type": "address"
        }
      ],
      "stateMutability": "view",
      "type": "function"
    },
    {
      "inputs": [
        {
          "internalType": "address",
          "name": "_tipJar",
          "type": "address"
        },
        {
          "internalType": "address",
          "name": "_admin",
          "type": "address"
        },
        {
          "internalType": "address payable",
          "name": "_timelock",
          "type": "address"
        },
        {
          "internalType": "uint256",
          "name": "_criticalDelay",
          "type": "uint256"
        },
        {
          "internalType": "uint256",
          "name": "_regularDelay",
          "type": "uint256"
        }
      ],
      "name": "initialize",
      "outputs": [],
      "stateMutability": "nonpayable",
      "type": "function"
    },
    {
      "inputs": [
        {
          "internalType": "address",
          "name": "newAdmin",
          "type": "address"
        },
        {
          "internalType": "bytes32",
          "name": "salt",
          "type": "bytes32"
        }
      ],
      "name": "proposeNewAdmin",
      "outputs": [],
      "stateMutability": "nonpayable",
      "type": "function"
    },
    {
      "inputs": [
        {
          "internalType": "uint256",
          "name": "newDelay",
          "type": "uint256"
        },
        {
          "internalType": "bytes32",
          "name": "salt",
          "type": "bytes32"
        }
      ],
      "name": "proposeNewCriticalDelay",
      "outputs": [],
      "stateMutability": "nonpayable",
      "type": "function"
    },
    {
      "inputs": [
        {
          "internalType": "uint32",
          "name": "newFee",
          "type": "uint32"
        },
        {
          "internalType": "bytes32",
          "name": "salt",
          "type": "bytes32"
        }
      ],
      "name": "proposeNewFee",
      "outputs": [],
      "stateMutability": "nonpayable",
      "type": "function"
    },
    {
      "inputs": [
        {
          "internalType": "address",
          "name": "newFeeCollector",
          "type": "address"
        },
        {
          "internalType": "bytes32",
          "name": "salt",
          "type": "bytes32"
        }
      ],
      "name": "proposeNewFeeCollector",
      "outputs": [],
      "stateMutability": "nonpayable",
      "type": "function"
    },
    {
      "inputs": [
        {
          "internalType": "address",
          "name": "minerAddress",
          "type": "address"
        },
        {
          "internalType": "address",
          "name": "splitTo",
          "type": "address"
        },
        {
          "internalType": "uint32",
          "name": "splitPct",
          "type": "uint32"
        },
        {
          "internalType": "bytes32",
          "name": "salt",
          "type": "bytes32"
        }
      ],
      "name": "proposeNewMinerSplit",
      "outputs": [],
      "stateMutability": "nonpayable",
      "type": "function"
    },
    {
      "inputs": [
        {
          "internalType": "address",
          "name": "newAdmin",
          "type": "address"
        },
        {
          "internalType": "bytes32",
          "name": "salt",
          "type": "bytes32"
        }
      ],
      "name": "proposeNewProxyAdmin",
      "outputs": [],
      "stateMutability": "nonpayable",
      "type": "function"
    },
    {
      "inputs": [
        {
          "internalType": "uint256",
          "name": "newDelay",
          "type": "uint256"
        },
        {
          "internalType": "bytes32",
          "name": "salt",
          "type": "bytes32"
        }
      ],
      "name": "proposeNewRegularDelay",
      "outputs": [],
      "stateMutability": "nonpayable",
      "type": "function"
    },
    {
      "inputs": [
        {
          "internalType": "address",
          "name": "newTimelock",
          "type": "address"
        },
        {
          "internalType": "bytes32",
          "name": "salt",
          "type": "bytes32"
        }
      ],
      "name": "proposeNewTimelock",
      "outputs": [],
      "stateMutability": "nonpayable",
      "type": "function"
    },
    {
      "inputs": [
        {
          "internalType": "address",
          "name": "newTipJar",
          "type": "address"
        },
        {
          "internalType": "bytes32",
          "name": "salt",
          "type": "bytes32"
        }
      ],
      "name": "proposeNewTipJar",
      "outputs": [],
      "stateMutability": "nonpayable",
      "type": "function"
    },
    {
      "inputs": [
        {
          "internalType": "address",
          "name": "newImplementation",
          "type": "address"
        },
        {
          "internalType": "bytes32",
          "name": "salt",
          "type": "bytes32"
        }
      ],
      "name": "proposeUpgrade",
      "outputs": [],
      "stateMutability": "nonpayable",
      "type": "function"
    },
    {
      "inputs": [
        {
          "internalType": "address",
          "name": "newImplementation",
          "type": "address"
        },
        {
          "internalType": "bytes",
          "name": "data",
          "type": "bytes"
        },
        {
          "internalType": "uint256",
          "name": "value",
          "type": "uint256"
        },
        {
          "internalType": "bytes32",
          "name": "salt",
          "type": "bytes32"
        }
      ],
      "name": "proposeUpgradeAndCall",
      "outputs": [],
      "stateMutability": "nonpayable",
      "type": "function"
    },
    {
      "inputs": [],
      "name": "regularDelay",
      "outputs": [
        {
          "internalType": "uint256",
          "name": "",
          "type": "uint256"
        }
      ],
      "stateMutability": "view",
      "type": "function"
    },
    {
      "inputs": [
        {
          "internalType": "address",
          "name": "newAdmin",
          "type": "address"
        }
      ],
      "name": "setAdmin",
      "outputs": [],
      "stateMutability": "nonpayable",
      "type": "function"
    },
    {
      "inputs": [
        {
          "internalType": "uint256",
          "name": "newDelay",
          "type": "uint256"
        }
      ],
      "name": "setCriticalDelay",
      "outputs": [],
      "stateMutability": "nonpayable",
      "type": "function"
    },
    {
      "inputs": [
        {
          "internalType": "address",
          "name": "newAdmin",
          "type": "address"
        }
      ],
      "name": "setProxyAdmin",
      "outputs": [],
      "stateMutability": "nonpayable",
      "type": "function"
    },
    {
      "inputs": [
        {
          "internalType": "uint256",
          "name": "newDelay",
          "type": "uint256"
        }
      ],
      "name": "setRegularDelay",
      "outputs": [],
      "stateMutability": "nonpayable",
      "type": "function"
    },
    {
      "inputs": [
        {
          "internalType": "address payable",
          "name": "newTimelock",
          "type": "address"
        }
      ],
      "name": "setTimelock",
      "outputs": [],
      "stateMutability": "nonpayable",
      "type": "function"
    },
    {
      "inputs": [
        {
          "internalType": "address",
          "name": "newTipJar",
          "type": "address"
        }
      ],
      "name": "setTipJar",
      "outputs": [],
      "stateMutability": "nonpayable",
      "type": "function"
    },
    {
      "inputs": [],
      "name": "timelock",
      "outputs": [
        {
          "internalType": "contract ITimelockController",
          "name": "",
          "type": "address"
        }
      ],
      "stateMutability": "view",
      "type": "function"
    },
    {
      "inputs": [],
      "name": "tipJar",
      "outputs": [
        {
          "internalType": "address",
          "name": "",
          "type": "address"
        }
      ],
      "stateMutability": "view",
      "type": "function"
    },
    {
      "inputs": [
        {
          "internalType": "address",
          "name": "newImplementation",
          "type": "address"
        }
      ],
      "name": "upgrade",
      "outputs": [],
      "stateMutability": "nonpayable",
      "type": "function"
    },
    {
      "inputs": [
        {
          "internalType": "address",
          "name": "newImplementation",
          "type": "address"
        },
        {
          "internalType": "bytes",
          "name": "data",
          "type": "bytes"
        }
      ],
      "name": "upgradeAndCall",
      "outputs": [],
      "stateMutability": "payable",
      "type": "function"
    },
    {
      "stateMutability": "payable",
      "type": "receive"
    }
  ],
  "transactionHash": "0x5a06abc3e6d1fa0ce806db2b168e3d919a649286e143899150c5abc8016f514d",
  "args": [],
  "solcInputHash": "5a20877ebd5267a6d47a3ece7dadd477",
  "bytecode": "0x608060405234801561001057600080fd5b506000805462010000600160b01b031916336201000081029190911782556040519091907f7e644d79422f17c01e4894b5f4f588d331ebfa28653d42ae832dc59e38c9798f908290a3613db3806100686000396000f3fe6080604052600436106102e05760003560e01c806390e4b72011610184578063c77324dc116100d6578063dc2ba9461161008a578063e5e6c5fe11610064578063e5e6c5fe146107ea578063e61dd4181461080a578063f851a4401461081d576102e7565b8063dc2ba94614610797578063dd107d13146107aa578063e58d3078146107ca576102e7565b8063d86cf601116100bb578063d86cf60114610741578063da25301514610761578063dad8a09614610777576102e7565b8063c77324dc146106f4578063d33219b414610714576102e7565b8063a6b63eb811610138578063bc58ca6911610112578063bc58ca6914610694578063bdacb303146106b4578063c14734a8146106d4576102e7565b8063a6b63eb814610634578063aa87cc8114610654578063b1e60f7514610674576102e7565b80639982cb2e116101695780639982cb2e146105d05780639b8c30a0146105f45780639dfa346414610614576102e7565b806390e4b7201461059b57806397d43d65146105b0576102e7565b806347c026611161023d578063704b6c02116101f15780637b8bf297116101cb5780637b8bf297146105465780638023dc81146105665780638b3240a014610586576102e7565b8063704b6c02146104af57806378c72075146104cf5780637aaceb95146104ef576102e7565b80635c66e3da116102225780635c66e3da1461044f57806369c402311461046f5780636d3d1bcb1461048f576102e7565b806347c026611461040f578063512e14351461042f576102e7565b80632a6a833b1161029457806333ddddce1161027957806333ddddce146103bc57806337376ca8146103cf57806343364509146103ef576102e7565b80632a6a833b14610389578063317636f21461039c576102e7565b80630edaeb0f116102c55780630edaeb0f14610329578063102aff801461034957806324ef737c14610369576102e7565b80630900f010146102e95780630d5a5b8b14610309576102e7565b366102e757005b005b3480156102f557600080fd5b506102e7610304366004613608565b610850565b34801561031557600080fd5b506102e7610324366004613925565b610a33565b34801561033557600080fd5b506102e76103443660046136ef565b610bef565b34801561035557600080fd5b506102e7610364366004613904565b610c98565b34801561037557600080fd5b506102e7610384366004613904565b610d2f565b6102e761039736600461371a565b610e57565b3480156103a857600080fd5b506102e76103b7366004613768565b611038565b6102e76103ca3660046137c6565b61117c565b3480156103db57600080fd5b506102e76103ea3660046138d4565b611210565b3480156103fb57600080fd5b506102e761040a3660046136ef565b611315565b34801561041b57600080fd5b506102e761042a366004613608565b61144a565b34801561043b57600080fd5b506102e761044a366004613904565b611624565b34801561045b57600080fd5b506102e761046a366004613608565b611747565b34801561047b57600080fd5b506102e761048a3660046136ef565b611856565b34801561049b57600080fd5b506102e76104aa3660046136ef565b6118ff565b3480156104bb57600080fd5b506102e76104ca366004613608565b6119a8565b3480156104db57600080fd5b506102e76104ea3660046136ef565b611ac2565b3480156104fb57600080fd5b5060035461051c9073ffffffffffffffffffffffffffffffffffffffff1681565b60405173ffffffffffffffffffffffffffffffffffffffff90911681526020015b60405180910390f35b34801561055257600080fd5b506102e76105613660046136ef565b611b6b565b34801561057257600080fd5b506102e76105813660046138d4565b611ca0565b34801561059257600080fd5b5061051c611d8a565b3480156105a757600080fd5b5061051c611e3f565b3480156105bc57600080fd5b506102e76105cb3660046136ef565b611e8e565b3480156105dc57600080fd5b506105e660025481565b60405190815260200161053d565b34801561060057600080fd5b506102e761060f3660046136ef565b611fc3565b34801561062057600080fd5b506102e761062f366004613904565b612181565b34801561064057600080fd5b506102e761064f366004613647565b612218565b34801561066057600080fd5b506102e761066f3660046136ef565b6125df565b34801561068057600080fd5b506102e761068f3660046136ef565b612714565b3480156106a057600080fd5b506102e76106af3660046136ef565b612808565b3480156106c057600080fd5b506102e76106cf366004613608565b61293d565b3480156106e057600080fd5b506102e76106ef36600461382f565b612a4c565b34801561070057600080fd5b506102e761070f366004613925565b612b96565b34801561072057600080fd5b5060045461051c9073ffffffffffffffffffffffffffffffffffffffff1681565b34801561074d57600080fd5b506102e761075c3660046137c6565b612c86565b34801561076d57600080fd5b506105e660015481565b34801561078357600080fd5b506102e76107923660046138d4565b612d1d565b6102e76107a536600461382f565b612e07565b3480156107b657600080fd5b506102e76107c53660046136a1565b612f2f565b3480156107d657600080fd5b506102e76107e53660046136ef565b61304e565b3480156107f657600080fd5b506102e76108053660046136a1565b6130f7565b6102e7610818366004613768565b6132f2565b34801561082957600080fd5b5060005461051c9062010000900473ffffffffffffffffffffffffffffffffffffffff1681565b60045473ffffffffffffffffffffffffffffffffffffffff1633146108d6576040517f08c379a000000000000000000000000000000000000000000000000000000000815260206004820152600c60248201527f6e6f742074696d656c6f636b000000000000000000000000000000000000000060448201526064015b60405180910390fd5b60035460405173ffffffffffffffffffffffffffffffffffffffff83811660248301526000921690604401604080517fffffffffffffffffffffffffffffffffffffffffffffffffffffffffffffffe08184030181529181526020820180517bffffffffffffffffffffffffffffffffffffffffffffffffffffffff167f3659cfe600000000000000000000000000000000000000000000000000000000179052516109829190613b1f565b6000604051808303816000865af19150503d80600081146109bf576040519150601f19603f3d011682016040523d82523d6000602084013e6109c4565b606091505b5050905080610a2f576040517f08c379a000000000000000000000000000000000000000000000000000000000815260206004820152600e60248201527f75706772616465206661696c656400000000000000000000000000000000000060448201526064016108cd565b5050565b60005462010000900473ffffffffffffffffffffffffffffffffffffffff163314610aba576040517f08c379a000000000000000000000000000000000000000000000000000000000815260206004820152600960248201527f6e6f742061646d696e000000000000000000000000000000000000000000000060448201526064016108cd565b60035460405163ffffffff84166024820152600091610b749173ffffffffffffffffffffffffffffffffffffffff909116908390604401604080517fffffffffffffffffffffffffffffffffffffffffffffffffffffffffffffffe08184030181529190526020810180517bffffffffffffffffffffffffffffffffffffffffffffffffffffffff167f1ab971ab0000000000000000000000000000000000000000000000000000000017905260015460009087906133a9565b90503373ffffffffffffffffffffffffffffffffffffffff167fe55e13505decce9f7ba3ff5c145bea70776719c2eb4af7502d6c7a58f8a774a08460025442610bbd9190613cc0565b6040805163ffffffff9093168352602083019190915281018490526060810185905260800160405180910390a2505050565b60405173ffffffffffffffffffffffffffffffffffffffff83166024820152610a2f903090600090604401604080517fffffffffffffffffffffffffffffffffffffffffffffffffffffffffffffffe08184030181529190526020810180517bffffffffffffffffffffffffffffffffffffffffffffffffffffffff167f704b6c0200000000000000000000000000000000000000000000000000000000179052600085613468565b610a2f30600084604051602401610cb191815260200190565b604080517fffffffffffffffffffffffffffffffffffffffffffffffffffffffffffffffe08184030181529190526020810180517bffffffffffffffffffffffffffffffffffffffffffffffffffffffff167f8023dc8100000000000000000000000000000000000000000000000000000000179052600085613468565b60005462010000900473ffffffffffffffffffffffffffffffffffffffff163314610db6576040517f08c379a000000000000000000000000000000000000000000000000000000000815260206004820152600960248201527f6e6f742061646d696e000000000000000000000000000000000000000000000060448201526064016108cd565b610e5230600084604051602401610dcf91815260200190565b604080517fffffffffffffffffffffffffffffffffffffffffffffffffffffffffffffffe08184030181529190526020810180517bffffffffffffffffffffffffffffffffffffffffffffffffffffffff167fdad8a0960000000000000000000000000000000000000000000000000000000017905260015460009086906133a9565b505050565b60045473ffffffffffffffffffffffffffffffffffffffff163314610ed8576040517f08c379a000000000000000000000000000000000000000000000000000000000815260206004820152600c60248201527f6e6f742074696d656c6f636b000000000000000000000000000000000000000060448201526064016108cd565b60035460405160009173ffffffffffffffffffffffffffffffffffffffff16903490610f0a9086908690602401613b3b565b604080517fffffffffffffffffffffffffffffffffffffffffffffffffffffffffffffffe08184030181529181526020820180517bffffffffffffffffffffffffffffffffffffffffffffffffffffffff167f4f1ef2860000000000000000000000000000000000000000000000000000000017905251610f8b9190613b1f565b60006040518083038185875af1925050503d8060008114610fc8576040519150601f19603f3d011682016040523d82523d6000602084013e610fcd565b606091505b5050905080610e52576040517f08c379a000000000000000000000000000000000000000000000000000000000815260206004820152601560248201527f75706772616465416e6443616c6c206661696c6564000000000000000000000060448201526064016108cd565b60005462010000900473ffffffffffffffffffffffffffffffffffffffff1633146110bf576040517f08c379a000000000000000000000000000000000000000000000000000000000815260206004820152600960248201527f6e6f742061646d696e000000000000000000000000000000000000000000000060448201526064016108cd565b6003546040516111759173ffffffffffffffffffffffffffffffffffffffff169084906110f29088908890602401613b3b565b604080517fffffffffffffffffffffffffffffffffffffffffffffffffffffffffffffffe08184030181529190526020810180517bffffffffffffffffffffffffffffffffffffffffffffffffffffffff167f2a6a833b0000000000000000000000000000000000000000000000000000000017905260015460009086906133a9565b5050505050565b60005462010000900473ffffffffffffffffffffffffffffffffffffffff163314611203576040517f08c379a000000000000000000000000000000000000000000000000000000000815260206004820152600960248201527f6e6f742061646d696e000000000000000000000000000000000000000000000060448201526064016108cd565b6111758585858585613468565b60005462010000900473ffffffffffffffffffffffffffffffffffffffff163314611297576040517f08c379a000000000000000000000000000000000000000000000000000000000815260206004820152600960248201527f6e6f742061646d696e000000000000000000000000000000000000000000000060448201526064016108cd565b600480546040517fc4d252f500000000000000000000000000000000000000000000000000000000815291820183905273ffffffffffffffffffffffffffffffffffffffff169063c4d252f590602401600060405180830381600087803b15801561130157600080fd5b505af1158015611175573d6000803e3d6000fd5b60005462010000900473ffffffffffffffffffffffffffffffffffffffff16331461139c576040517f08c379a000000000000000000000000000000000000000000000000000000000815260206004820152600960248201527f6e6f742061646d696e000000000000000000000000000000000000000000000060448201526064016108cd565b60405173ffffffffffffffffffffffffffffffffffffffff83166024820152610e52903090600090604401604080517fffffffffffffffffffffffffffffffffffffffffffffffffffffffffffffffe08184030181529190526020810180517bffffffffffffffffffffffffffffffffffffffffffffffffffffffff167fbdacb3030000000000000000000000000000000000000000000000000000000017905260015460009086906133a9565b60045473ffffffffffffffffffffffffffffffffffffffff1633146114cb576040517f08c379a000000000000000000000000000000000000000000000000000000000815260206004820152600c60248201527f6e6f742074696d656c6f636b000000000000000000000000000000000000000060448201526064016108cd565b60035460405173ffffffffffffffffffffffffffffffffffffffff83811660248301526000921690604401604080517fffffffffffffffffffffffffffffffffffffffffffffffffffffffffffffffe08184030181529181526020820180517bffffffffffffffffffffffffffffffffffffffffffffffffffffffff167f8f28397000000000000000000000000000000000000000000000000000000000179052516115779190613b1f565b6000604051808303816000865af19150503d80600081146115b4576040519150601f19603f3d011682016040523d82523d6000602084013e6115b9565b606091505b5050905080610a2f576040517f08c379a000000000000000000000000000000000000000000000000000000000815260206004820152601460248201527f73657450726f787941646d696e206661696c656400000000000000000000000060448201526064016108cd565b60005462010000900473ffffffffffffffffffffffffffffffffffffffff1633146116ab576040517f08c379a000000000000000000000000000000000000000000000000000000000815260206004820152600960248201527f6e6f742061646d696e000000000000000000000000000000000000000000000060448201526064016108cd565b610e52306000846040516024016116c491815260200190565b604080517fffffffffffffffffffffffffffffffffffffffffffffffffffffffffffffffe08184030181529190526020810180517bffffffffffffffffffffffffffffffffffffffffffffffffffffffff167f8023dc810000000000000000000000000000000000000000000000000000000017905260015460009086906133a9565b60045473ffffffffffffffffffffffffffffffffffffffff1633146117c8576040517f08c379a000000000000000000000000000000000000000000000000000000000815260206004820152600c60248201527f6e6f742074696d656c6f636b000000000000000000000000000000000000000060448201526064016108cd565b60035460405173ffffffffffffffffffffffffffffffffffffffff8084169216907fff9651e81ae7f692ad8df7b6184e00536887c968984c58a568083a1cac82451e90600090a3600380547fffffffffffffffffffffffff00000000000000000000000000000000000000001673ffffffffffffffffffffffffffffffffffffffff92909216919091179055565b60405173ffffffffffffffffffffffffffffffffffffffff83166024820152610a2f903090600090604401604080517fffffffffffffffffffffffffffffffffffffffffffffffffffffffffffffffe08184030181529190526020810180517bffffffffffffffffffffffffffffffffffffffffffffffffffffffff167fbdacb30300000000000000000000000000000000000000000000000000000000179052600085613468565b60405173ffffffffffffffffffffffffffffffffffffffff83166024820152610a2f903090600090604401604080517fffffffffffffffffffffffffffffffffffffffffffffffffffffffffffffffe08184030181529190526020810180517bffffffffffffffffffffffffffffffffffffffffffffffffffffffff167f47c0266100000000000000000000000000000000000000000000000000000000179052600085613468565b60045473ffffffffffffffffffffffffffffffffffffffff163314611a29576040517f08c379a000000000000000000000000000000000000000000000000000000000815260206004820152600c60248201527f6e6f742074696d656c6f636b000000000000000000000000000000000000000060448201526064016108cd565b6000805460405173ffffffffffffffffffffffffffffffffffffffff808516936201000090930416917f7e644d79422f17c01e4894b5f4f588d331ebfa28653d42ae832dc59e38c9798f91a36000805473ffffffffffffffffffffffffffffffffffffffff90921662010000027fffffffffffffffffffff0000000000000000000000000000000000000000ffff909216919091179055565b60405173ffffffffffffffffffffffffffffffffffffffff83166024820152610a2f903090600090604401604080517fffffffffffffffffffffffffffffffffffffffffffffffffffffffffffffffe08184030181529190526020810180517bffffffffffffffffffffffffffffffffffffffffffffffffffffffff167f0900f01000000000000000000000000000000000000000000000000000000000179052600085613468565b60005462010000900473ffffffffffffffffffffffffffffffffffffffff163314611bf2576040517f08c379a000000000000000000000000000000000000000000000000000000000815260206004820152600960248201527f6e6f742061646d696e000000000000000000000000000000000000000000000060448201526064016108cd565b60405173ffffffffffffffffffffffffffffffffffffffff83166024820152610e52903090600090604401604080517fffffffffffffffffffffffffffffffffffffffffffffffffffffffffffffffe08184030181529190526020810180517bffffffffffffffffffffffffffffffffffffffffffffffffffffffff167f704b6c020000000000000000000000000000000000000000000000000000000017905260015460009086906133a9565b60045473ffffffffffffffffffffffffffffffffffffffff163314611d21576040517f08c379a000000000000000000000000000000000000000000000000000000000815260206004820152600c60248201527f6e6f742074696d656c6f636b000000000000000000000000000000000000000060448201526064016108cd565b80600254604051611d55907f726567756c617200000000000000000000000000000000000000000000000000815260070190565b604051908190038120907fd4ec76c9ec44b1200102d7e181ebeff8008a397ea9e4c71b50f9e1dc1a9d5bd390600090a4600255565b6003546040517ff851a4400000000000000000000000000000000000000000000000000000000081526000918291829173ffffffffffffffffffffffffffffffffffffffff16906004015b600060405180830381855afa9150503d8060008114611e10576040519150601f19603f3d011682016040523d82523d6000602084013e611e15565b606091505b509150915081611e2457600080fd5b80806020019051810190611e38919061362b565b9250505090565b6003546040517f5c60da1b0000000000000000000000000000000000000000000000000000000081526000918291829173ffffffffffffffffffffffffffffffffffffffff1690600401611dd5565b60005462010000900473ffffffffffffffffffffffffffffffffffffffff163314611f15576040517f08c379a000000000000000000000000000000000000000000000000000000000815260206004820152600960248201527f6e6f742061646d696e000000000000000000000000000000000000000000000060448201526064016108cd565b60405173ffffffffffffffffffffffffffffffffffffffff83166024820152610e52903090600090604401604080517fffffffffffffffffffffffffffffffffffffffffffffffffffffffffffffffe08184030181529190526020810180517bffffffffffffffffffffffffffffffffffffffffffffffffffffffff167f5c66e3da0000000000000000000000000000000000000000000000000000000017905260015460009086906133a9565b60005462010000900473ffffffffffffffffffffffffffffffffffffffff16331461204a576040517f08c379a000000000000000000000000000000000000000000000000000000000815260206004820152600960248201527f6e6f742061646d696e000000000000000000000000000000000000000000000060448201526064016108cd565b60035460405173ffffffffffffffffffffffffffffffffffffffff84811660248301526000926120ff929116908390604401604080517fffffffffffffffffffffffffffffffffffffffffffffffffffffffffffffffe08184030181529190526020810180517bffffffffffffffffffffffffffffffffffffffffffffffffffffffff167fa42dce800000000000000000000000000000000000000000000000000000000017905260015460009087906133a9565b90508273ffffffffffffffffffffffffffffffffffffffff163373ffffffffffffffffffffffffffffffffffffffff167ffba3e2c833e27f6f78cc221cd889899ecd8c5ccd6be29eb0468f8859334ecaed6002544261215e9190613cc0565b6040805191825260208201869052810186905260600160405180910390a3505050565b610a2f3060008460405160240161219a91815260200190565b604080517fffffffffffffffffffffffffffffffffffffffffffffffffffffffffffffffe08184030181529190526020810180517bffffffffffffffffffffffffffffffffffffffffffffffffffffffff167fdad8a09600000000000000000000000000000000000000000000000000000000179052600085613468565b600054610100900460ff1680612231575060005460ff16155b6122bd576040517f08c379a000000000000000000000000000000000000000000000000000000000815260206004820152602e60248201527f496e697469616c697a61626c653a20636f6e747261637420697320616c72656160448201527f647920696e697469616c697a656400000000000000000000000000000000000060648201526084016108cd565b600054610100900460ff161580156122fc57600080547fffffffffffffffffffffffffffffffffffffffffffffffffffffffffffff0000166101011790555b60005462010000900473ffffffffffffffffffffffffffffffffffffffff163314612383576040517f08c379a000000000000000000000000000000000000000000000000000000000815260206004820152600960248201527f6e6f742061646d696e000000000000000000000000000000000000000000000060448201526064016108cd565b6000805460405173ffffffffffffffffffffffffffffffffffffffff808916936201000090930416917f7e644d79422f17c01e4894b5f4f588d331ebfa28653d42ae832dc59e38c9798f91a36000805473ffffffffffffffffffffffffffffffffffffffff80881662010000027fffffffffffffffffffff0000000000000000000000000000000000000000ffff909216919091178255600380549189167fffffffffffffffffffffffff0000000000000000000000000000000000000000909216821790556040519091907fff9651e81ae7f692ad8df7b6184e00536887c968984c58a568083a1cac82451e908290a3600480547fffffffffffffffffffffffff00000000000000000000000000000000000000001673ffffffffffffffffffffffffffffffffffffffff86169081179091556040516000907f0b16e94338dda95fa1e5c779ff12c1c00489fca89839afd381c4c5faffd6e2a1908290a360018390556040517f637269746963616c00000000000000000000000000000000000000000000000081528390600090600801604051908190038120907fd4ec76c9ec44b1200102d7e181ebeff8008a397ea9e4c71b50f9e1dc1a9d5bd390600090a460028290556040517f726567756c61720000000000000000000000000000000000000000000000000081528290600090600701604051908190038120907fd4ec76c9ec44b1200102d7e181ebeff8008a397ea9e4c71b50f9e1dc1a9d5bd390600090a480156125d757600080547fffffffffffffffffffffffffffffffffffffffffffffffffffffffffffff00ff1690555b505050505050565b60005462010000900473ffffffffffffffffffffffffffffffffffffffff163314612666576040517f08c379a000000000000000000000000000000000000000000000000000000000815260206004820152600960248201527f6e6f742061646d696e000000000000000000000000000000000000000000000060448201526064016108cd565b60405173ffffffffffffffffffffffffffffffffffffffff83166024820152610e52903090600090604401604080517fffffffffffffffffffffffffffffffffffffffffffffffffffffffffffffffe08184030181529190526020810180517bffffffffffffffffffffffffffffffffffffffffffffffffffffffff167f0900f0100000000000000000000000000000000000000000000000000000000017905260015460009086906133a9565b60035460405173ffffffffffffffffffffffffffffffffffffffff84811660248301526127c1921690600090604401604080517fffffffffffffffffffffffffffffffffffffffffffffffffffffffffffffffe08184030181529190526020810180517bffffffffffffffffffffffffffffffffffffffffffffffffffffffff167fa42dce8000000000000000000000000000000000000000000000000000000000179052600085613468565b60405173ffffffffffffffffffffffffffffffffffffffff83169033907f53ac1c5cdda51e6aa0635375b348ae7d51f618deaddadd72fc2860057b1ffd9190600090a35050565b60005462010000900473ffffffffffffffffffffffffffffffffffffffff16331461288f576040517f08c379a000000000000000000000000000000000000000000000000000000000815260206004820152600960248201527f6e6f742061646d696e000000000000000000000000000000000000000000000060448201526064016108cd565b60405173ffffffffffffffffffffffffffffffffffffffff83166024820152610e52903090600090604401604080517fffffffffffffffffffffffffffffffffffffffffffffffffffffffffffffffe08184030181529190526020810180517bffffffffffffffffffffffffffffffffffffffffffffffffffffffff167f47c026610000000000000000000000000000000000000000000000000000000017905260015460009086906133a9565b60045473ffffffffffffffffffffffffffffffffffffffff1633146129be576040517f08c379a000000000000000000000000000000000000000000000000000000000815260206004820152600c60248201527f6e6f742074696d656c6f636b000000000000000000000000000000000000000060448201526064016108cd565b60045460405173ffffffffffffffffffffffffffffffffffffffff8084169216907f0b16e94338dda95fa1e5c779ff12c1c00489fca89839afd381c4c5faffd6e2a190600090a3600480547fffffffffffffffffffffffff00000000000000000000000000000000000000001673ffffffffffffffffffffffffffffffffffffffff92909216919091179055565b60005462010000900473ffffffffffffffffffffffffffffffffffffffff163314612ad3576040517f08c379a000000000000000000000000000000000000000000000000000000000815260206004820152600960248201527f6e6f742061646d696e000000000000000000000000000000000000000000000060448201526064016108cd565b600480546001546040517f8f2a0bb000000000000000000000000000000000000000000000000000000000815273ffffffffffffffffffffffffffffffffffffffff90921692638f2a0bb092612b39928d928d928d928d928d928d928d928d9201613c62565b602060405180830381600087803b158015612b5357600080fd5b505af1158015612b67573d6000803e3d6000fd5b505050506040513d601f19601f82011682018060405250810190612b8b91906138ec565b505050505050505050565b60035460405163ffffffff84166024820152612c479173ffffffffffffffffffffffffffffffffffffffff1690600090604401604080517fffffffffffffffffffffffffffffffffffffffffffffffffffffffffffffffe08184030181529190526020810180517bffffffffffffffffffffffffffffffffffffffffffffffffffffffff167f1ab971ab00000000000000000000000000000000000000000000000000000000179052600085613468565b60405163ffffffff8316815233907fa94ad53bf43f2f6061cd0a2613212f8444ad7b078cfc41699eb70baff751f67b9060200160405180910390a25050565b60005462010000900473ffffffffffffffffffffffffffffffffffffffff163314612d0d576040517f08c379a000000000000000000000000000000000000000000000000000000000815260206004820152600960248201527f6e6f742061646d696e000000000000000000000000000000000000000000000060448201526064016108cd565b6125d785858585856001546133a9565b60045473ffffffffffffffffffffffffffffffffffffffff163314612d9e576040517f08c379a000000000000000000000000000000000000000000000000000000000815260206004820152600c60248201527f6e6f742074696d656c6f636b000000000000000000000000000000000000000060448201526064016108cd565b80600154604051612dd2907f637269746963616c000000000000000000000000000000000000000000000000815260080190565b604051908190038120907fd4ec76c9ec44b1200102d7e181ebeff8008a397ea9e4c71b50f9e1dc1a9d5bd390600090a4600155565b60005462010000900473ffffffffffffffffffffffffffffffffffffffff163314612e8e576040517f08c379a000000000000000000000000000000000000000000000000000000000815260206004820152600960248201527f6e6f742061646d696e000000000000000000000000000000000000000000000060448201526064016108cd565b600480546040517fe38335e500000000000000000000000000000000000000000000000000000000815273ffffffffffffffffffffffffffffffffffffffff9091169163e38335e5913491612ef3918d918d918d918d918d918d918d918d9101613c0e565b6000604051808303818588803b158015612f0c57600080fd5b505af1158015612f20573d6000803e3d6000fd5b50505050505050505050505050565b60035460405173ffffffffffffffffffffffffffffffffffffffff8681166024830152858116604483015263ffffffff85166064830152612ff0921690600090608401604080517fffffffffffffffffffffffffffffffffffffffffffffffffffffffffffffffe08184030181529190526020810180517bffffffffffffffffffffffffffffffffffffffffffffffffffffffff167f8d91634000000000000000000000000000000000000000000000000000000000179052600085613468565b60405163ffffffff8316815273ffffffffffffffffffffffffffffffffffffffff808516919086169033907f2c4ba364085ee54b447db6f054cd4cefd890878196bb741dc447490df29a64a69060200160405180910390a450505050565b60405173ffffffffffffffffffffffffffffffffffffffff83166024820152610a2f903090600090604401604080517fffffffffffffffffffffffffffffffffffffffffffffffffffffffffffffffe08184030181529190526020810180517bffffffffffffffffffffffffffffffffffffffffffffffffffffffff167f5c66e3da00000000000000000000000000000000000000000000000000000000179052600085613468565b60005462010000900473ffffffffffffffffffffffffffffffffffffffff16331461317e576040517f08c379a000000000000000000000000000000000000000000000000000000000815260206004820152600960248201527f6e6f742061646d696e000000000000000000000000000000000000000000000060448201526064016108cd565b60035460405173ffffffffffffffffffffffffffffffffffffffff8681166024830152858116604483015263ffffffff85166064830152600092613247929116908390608401604080517fffffffffffffffffffffffffffffffffffffffffffffffffffffffffffffffe08184030181529190526020810180517bffffffffffffffffffffffffffffffffffffffffffffffffffffffff167f8d9163400000000000000000000000000000000000000000000000000000000017905260025460009087906133a9565b90508373ffffffffffffffffffffffffffffffffffffffff168573ffffffffffffffffffffffffffffffffffffffff163373ffffffffffffffffffffffffffffffffffffffff167fa00a72f457c9f3e2f029eea91af16988e9b48415f9c9985d730652deb40a372e86600254426132be9190613cc0565b6040805163ffffffff9093168352602083019190915281018690526060810187905260800160405180910390a45050505050565b6003546040516133a39173ffffffffffffffffffffffffffffffffffffffff169084906133259088908890602401613b3b565b604080517fffffffffffffffffffffffffffffffffffffffffffffffffffffffffffffffe08184030181529190526020810180517bffffffffffffffffffffffffffffffffffffffffffffffffffffffff167f2a6a833b00000000000000000000000000000000000000000000000000000000179052600085613468565b50505050565b600480546040517f01d5062a00000000000000000000000000000000000000000000000000000000815260009273ffffffffffffffffffffffffffffffffffffffff909216916301d5062a9161340b918b918b918b918b918b918b9101613bbb565b602060405180830381600087803b15801561342557600080fd5b505af1158015613439573d6000803e3d6000fd5b505050506040513d601f19601f8201168201806040525081019061345d91906138ec565b979650505050505050565b600480546040517f134008d300000000000000000000000000000000000000000000000000000000815273ffffffffffffffffffffffffffffffffffffffff9091169163134008d39187916134c7918a9184918a918a918a9101613b72565b6000604051808303818588803b1580156134e057600080fd5b505af11580156134f4573d6000803e3d6000fd5b50505050505050505050565b60008083601f840112613511578182fd5b50813567ffffffffffffffff811115613528578182fd5b6020830191508360208260051b850101111561354357600080fd5b9250929050565b600082601f83011261355a578081fd5b813567ffffffffffffffff8082111561357557613575613d29565b604051601f83017fffffffffffffffffffffffffffffffffffffffffffffffffffffffffffffffe0908116603f011681019082821181831017156135bb576135bb613d29565b816040528381528660208588010111156135d3578485fd5b8360208701602083013792830160200193909352509392505050565b803563ffffffff8116811461360357600080fd5b919050565b600060208284031215613619578081fd5b813561362481613d58565b9392505050565b60006020828403121561363c578081fd5b815161362481613d58565b600080600080600060a0868803121561365e578081fd5b853561366981613d58565b9450602086013561367981613d58565b9350604086013561368981613d58565b94979396509394606081013594506080013592915050565b600080600080608085870312156136b6578384fd5b84356136c181613d58565b935060208501356136d181613d58565b92506136df604086016135ef565b9396929550929360600135925050565b60008060408385031215613701578182fd5b823561370c81613d58565b946020939093013593505050565b6000806040838503121561372c578182fd5b823561373781613d58565b9150602083013567ffffffffffffffff811115613752578182fd5b61375e8582860161354a565b9150509250929050565b6000806000806080858703121561377d578384fd5b843561378881613d58565b9350602085013567ffffffffffffffff8111156137a3578384fd5b6137af8782880161354a565b949794965050505060408301359260600135919050565b600080600080600060a086880312156137dd578081fd5b85356137e881613d58565b945060208601359350604086013567ffffffffffffffff81111561380a578182fd5b6138168882890161354a565b9598949750949560608101359550608001359392505050565b60008060008060008060008060a0898b03121561384a578586fd5b883567ffffffffffffffff80821115613861578788fd5b61386d8c838d01613500565b909a50985060208b0135915080821115613885578788fd5b6138918c838d01613500565b909850965060408b01359150808211156138a9578485fd5b506138b68b828c01613500565b999c989b509699959896976060870135966080013595509350505050565b6000602082840312156138e5578081fd5b5035919050565b6000602082840312156138fd578081fd5b5051919050565b60008060408385031215613916578182fd5b50508035926020909101359150565b60008060408385031215613937578182fd5b61370c836135ef565b60008284526020808501945082825b8581101561398a57813561396281613d58565b73ffffffffffffffffffffffffffffffffffffffff168752958201959082019060010161394f565b509495945050505050565b60008284526020808501808196508560051b8101915084845b87811015613a3357828403895281357fffffffffffffffffffffffffffffffffffffffffffffffffffffffffffffffe18836030181126139ec578687fd5b8701803567ffffffffffffffff811115613a04578788fd5b803603891315613a12578788fd5b613a1f8682898501613a8d565b9a87019a95505050908401906001016139ae565b5091979650505050505050565b60008284527f07ffffffffffffffffffffffffffffffffffffffffffffffffffffffffffffff831115613a71578081fd5b8260051b80836020870137939093016020019283525090919050565b600082845282826020860137806020848601015260207fffffffffffffffffffffffffffffffffffffffffffffffffffffffffffffffe0601f85011685010190509392505050565b60008151808452613aed816020860160208601613cfd565b601f017fffffffffffffffffffffffffffffffffffffffffffffffffffffffffffffffe0169290920160200192915050565b60008251613b31818460208701613cfd565b9190910192915050565b600073ffffffffffffffffffffffffffffffffffffffff8416825260406020830152613b6a6040830184613ad5565b949350505050565b600073ffffffffffffffffffffffffffffffffffffffff8716825285602083015260a06040830152613ba760a0830186613ad5565b606083019490945250608001529392505050565b600073ffffffffffffffffffffffffffffffffffffffff8816825286602083015260c06040830152613bf060c0830187613ad5565b606083019590955250608081019290925260a0909101529392505050565b600060a08252613c2260a083018a8c613940565b8281036020840152613c3581898b613a40565b90508281036040840152613c4a818789613995565b60608401959095525050608001529695505050505050565b600060c08252613c7660c083018b8d613940565b8281036020840152613c89818a8c613a40565b90508281036040840152613c9e81888a613995565b60608401969096525050608081019290925260a0909101529695505050505050565b60008219821115613cf8577f4e487b710000000000000000000000000000000000000000000000000000000081526011600452602481fd5b500190565b60005b83811015613d18578181015183820152602001613d00565b838111156133a35750506000910152565b7f4e487b7100000000000000000000000000000000000000000000000000000000600052604160045260246000fd5b73ffffffffffffffffffffffffffffffffffffffff81168114613d7a57600080fd5b5056fea26469706673582212205525c09cc75ec81716bd3498b616e9dca84e125431087850f832ab992c40d04064736f6c63430008030033",
  "devdoc": {
    "details": "Responsible for enacting decisions related to sensitive TipJar parameters Decisions are made via a timelock contract",
    "kind": "dev",
    "methods": {
      "approveNewAdmin(address,bytes32)": {
        "params": {
          "newAdmin": "new admin address",
          "salt": "salt"
        }
      },
      "approveNewCriticalDelay(uint256,bytes32)": {
        "params": {
          "newDelay": "new delay time",
          "salt": "salt"
        }
      },
      "approveNewFee(uint32,bytes32)": {
        "params": {
          "newFee": "New fee",
          "salt": "salt"
        }
      },
      "approveNewFeeCollector(address,bytes32)": {
        "params": {
          "newFeeCollector": "New fee collector",
          "salt": "salt"
        }
      },
      "approveNewMinerSplit(address,address,uint32,bytes32)": {
        "params": {
          "minerAddress": "Address of miner",
          "salt": "salt",
          "splitPct": "% of tip that splitTo receives",
          "splitTo": "Address that receives split"
        }
      },
      "approveNewProxyAdmin(address,bytes32)": {
        "params": {
          "newAdmin": "new admin address",
          "salt": "salt"
        }
      },
      "approveNewRegularDelay(uint256,bytes32)": {
        "params": {
          "newDelay": "new delay time",
          "salt": "salt"
        }
      },
      "approveNewTimelock(address,bytes32)": {
        "params": {
          "newTimelock": "new timelock address",
          "salt": "salt"
        }
      },
      "approveNewTipJar(address,bytes32)": {
        "params": {
          "newTipJar": "new tip jar address",
          "salt": "salt"
        }
      },
      "approveUpgrade(address,bytes32)": {
        "params": {
          "newImplementation": "new implementation address",
          "salt": "salt"
        }
      },
      "approveUpgradeAndCall(address,bytes,uint256,bytes32)": {
        "params": {
          "data": "Bytes-encoded function to call",
          "newImplementation": "new implementation address",
          "salt": "salt",
          "value": "Amount of ETH to send on call"
        }
      },
      "cancelProposal(bytes32)": {
        "params": {
          "id": "ID of proposal"
        }
      },
      "createProposal(address,uint256,bytes,bytes32,bytes32)": {
        "params": {
          "data": "function call bytes",
          "predecessor": "predecessor function call",
          "salt": "salt used in proposal",
          "target": "target address",
          "value": "ETH value"
        }
      },
      "createProposalBatch(address[],uint256[],bytes[],bytes32,bytes32)": {
        "params": {
          "datas": "function call bytes",
          "predecessor": "predecessor function call",
          "salt": "salt used in proposal",
          "targets": "target address",
          "values": "ETH value"
        }
      },
      "executeProposal(address,uint256,bytes,bytes32,bytes32)": {
        "params": {
          "data": "function call bytes",
          "predecessor": "predecessor function call",
          "salt": "salt used in proposal",
          "target": "target address",
          "value": "ETH value"
        }
      },
      "executeProposalBatch(address[],uint256[],bytes[],bytes32,bytes32)": {
        "params": {
          "datas": "function call bytes",
          "predecessor": "predecessor function call",
          "salt": "salt used in proposal",
          "targets": "target address",
          "values": "ETH value"
        }
      },
      "initialize(address,address,address,uint256,uint256)": {
        "params": {
          "_admin": "Admin address",
          "_timelock": "TimelockController contract address",
          "_tipJar": "TipJar proxy contract address"
        }
      },
      "proposeNewAdmin(address,bytes32)": {
        "params": {
          "newAdmin": "new admin address",
          "salt": "salt"
        }
      },
      "proposeNewCriticalDelay(uint256,bytes32)": {
        "params": {
          "newDelay": "new delay time",
          "salt": "salt"
        }
      },
      "proposeNewFee(uint32,bytes32)": {
        "params": {
          "newFee": "New fee",
          "salt": "salt"
        }
      },
      "proposeNewFeeCollector(address,bytes32)": {
        "params": {
          "newFeeCollector": "New fee collector",
          "salt": "salt"
        }
      },
      "proposeNewMinerSplit(address,address,uint32,bytes32)": {
        "params": {
          "minerAddress": "Address of miner",
          "salt": "salt",
          "splitPct": "% of tip that splitTo receives",
          "splitTo": "Address that receives split"
        }
      },
      "proposeNewProxyAdmin(address,bytes32)": {
        "params": {
          "newAdmin": "new admin address",
          "salt": "salt"
        }
      },
      "proposeNewRegularDelay(uint256,bytes32)": {
        "params": {
          "newDelay": "new delay time",
          "salt": "salt"
        }
      },
      "proposeNewTimelock(address,bytes32)": {
        "params": {
          "newTimelock": "new timelock address",
          "salt": "salt"
        }
      },
      "proposeNewTipJar(address,bytes32)": {
        "params": {
          "newTipJar": "new tip jar address",
          "salt": "salt"
        }
      },
      "proposeUpgrade(address,bytes32)": {
        "params": {
          "newImplementation": "new implementation address",
          "salt": "salt"
        }
      },
      "proposeUpgradeAndCall(address,bytes,uint256,bytes32)": {
        "params": {
          "data": "Bytes-encoded function to call",
          "newImplementation": "new implementation address",
          "salt": "salt",
          "value": "Amount of ETH to send on call"
        }
      },
      "setAdmin(address)": {
        "details": "Can only be executed by Timelock contract",
        "params": {
          "newAdmin": "new admin address"
        }
      },
      "setCriticalDelay(uint256)": {
        "details": "Can only be executed by Timelock contract",
        "params": {
          "newDelay": "new delay time"
        }
      },
      "setProxyAdmin(address)": {
        "params": {
          "newAdmin": "new admin address"
        }
      },
      "setRegularDelay(uint256)": {
        "details": "Can only be executed by Timelock contract",
        "params": {
          "newDelay": "new delay time"
        }
      },
      "setTimelock(address)": {
        "details": "Can only be executed by Timelock contract or anyone if timelock has not yet been set",
        "params": {
          "newTimelock": "new timelock address"
        }
      },
      "setTipJar(address)": {
        "details": "Can only be executed by Timelock contract",
        "params": {
          "newTipJar": "new tip jar address"
        }
      },
      "upgrade(address)": {
        "params": {
          "newImplementation": "new implementation address"
        }
      },
      "upgradeAndCall(address,bytes)": {
        "params": {
          "data": "Bytes-encoded function to call",
          "newImplementation": "new implementation address"
        }
      }
    },
    "title": "TipJarManager",
    "version": 1
  },
  "userdoc": {
    "events": {
      "AdminChanged(address,address)": {
        "notice": "New admin event"
      },
      "DelayChanged(string,uint256,uint256)": {
        "notice": "New delay event"
      },
      "FeeApproval(address,uint32)": {
        "notice": "Fee Approval event"
      },
      "FeeCollectorApproval(address,address)": {
        "notice": "Fee Collector Approval event"
      },
      "FeeCollectorProposal(address,address,uint256,bytes32,bytes32)": {
        "notice": "Fee Collector Proposal event"
      },
      "FeeProposal(address,uint32,uint256,bytes32,bytes32)": {
        "notice": "Fee Proposal event"
      },
      "MinerSplitApproval(address,address,address,uint32)": {
        "notice": "Miner Split Approval event"
      },
      "MinerSplitProposal(address,address,address,uint32,uint256,bytes32,bytes32)": {
        "notice": "Miner Split Proposal event"
      },
      "TimelockChanged(address,address)": {
        "notice": "New timelock event"
      },
      "TipJarChanged(address,address)": {
        "notice": "New tip jar event"
      }
    },
    "kind": "user",
    "methods": {
      "admin()": {
        "notice": "TipJarManager admin"
      },
      "approveNewAdmin(address,bytes32)": {
        "notice": "Approve new admin for this contract"
      },
      "approveNewCriticalDelay(uint256,bytes32)": {
        "notice": "Approve new critical delay for this contract"
      },
      "approveNewFee(uint32,bytes32)": {
        "notice": "Approve a new network fee"
      },
      "approveNewFeeCollector(address,bytes32)": {
        "notice": "Approve a new fee collector"
      },
      "approveNewMinerSplit(address,address,uint32,bytes32)": {
        "notice": "Approve a new miner split"
      },
      "approveNewProxyAdmin(address,bytes32)": {
        "notice": "Approve new admin for TipJar proxy contract"
      },
      "approveNewRegularDelay(uint256,bytes32)": {
        "notice": "Approve new regular delay for this contract"
      },
      "approveNewTimelock(address,bytes32)": {
        "notice": "Approve new timelock contract"
      },
      "approveNewTipJar(address,bytes32)": {
        "notice": "Approve new tip jar contract"
      },
      "approveUpgrade(address,bytes32)": {
        "notice": "Approve new implementation for TipJar proxy"
      },
      "approveUpgradeAndCall(address,bytes,uint256,bytes32)": {
        "notice": "Approve new implementation for TipJar proxy + call function after"
      },
      "cancelProposal(bytes32)": {
        "notice": "Cancel proposal"
      },
      "constructor": {
        "notice": "Construct new TipJarManager contract, setting msg.sender as admin"
      },
      "createProposal(address,uint256,bytes,bytes32,bytes32)": {
        "notice": "Create proposal"
      },
      "createProposalBatch(address[],uint256[],bytes[],bytes32,bytes32)": {
        "notice": "Create batch proposal"
      },
      "criticalDelay()": {
        "notice": "Delay for critical changes"
      },
      "executeProposal(address,uint256,bytes,bytes32,bytes32)": {
        "notice": "Execute proposal"
      },
      "executeProposalBatch(address[],uint256[],bytes[],bytes32,bytes32)": {
        "notice": "Execute batch proposal"
      },
      "getProxyAdmin()": {
        "notice": "Public getter for TipJar Proxy admin address"
      },
      "getProxyImplementation()": {
        "notice": "Public getter for TipJar Proxy implementation contract address"
      },
      "initialize(address,address,address,uint256,uint256)": {
        "notice": "Initialize contract"
      },
      "proposeNewAdmin(address,bytes32)": {
        "notice": "Propose new admin for this contract"
      },
      "proposeNewCriticalDelay(uint256,bytes32)": {
        "notice": "Propose new critical delay for this contract"
      },
      "proposeNewFee(uint32,bytes32)": {
        "notice": "Propose a new network fee"
      },
      "proposeNewFeeCollector(address,bytes32)": {
        "notice": "Propose a new fee collector"
      },
      "proposeNewMinerSplit(address,address,uint32,bytes32)": {
        "notice": "Propose a new miner split"
      },
      "proposeNewProxyAdmin(address,bytes32)": {
        "notice": "Propose new admin for TipJar proxy contract"
      },
      "proposeNewRegularDelay(uint256,bytes32)": {
        "notice": "Propose new regular delay for this contract"
      },
      "proposeNewTimelock(address,bytes32)": {
        "notice": "Propose new timelock contract"
      },
      "proposeNewTipJar(address,bytes32)": {
        "notice": "Propose new tip jar contract"
      },
      "proposeUpgrade(address,bytes32)": {
        "notice": "Propose new implementation for TipJar proxy contract"
      },
      "proposeUpgradeAndCall(address,bytes,uint256,bytes32)": {
        "notice": "Propose new implementation for TipJar proxy contract + call function after"
      },
      "regularDelay()": {
        "notice": "Delay for non-critical changes"
      },
      "setAdmin(address)": {
        "notice": "Set new admin for this contract"
      },
      "setCriticalDelay(uint256)": {
        "notice": "Set new critical delay for this contract"
      },
      "setProxyAdmin(address)": {
        "notice": "Set new admin for TipJar proxy contract"
      },
      "setRegularDelay(uint256)": {
        "notice": "Set new regular delay for this contract"
      },
      "setTimelock(address)": {
        "notice": "Set new timelock contract"
      },
      "setTipJar(address)": {
        "notice": "Set new tip jar contract"
      },
      "timelock()": {
        "notice": "Timelock contract"
      },
      "tipJar()": {
        "notice": "TipJarProxy address"
      },
      "upgrade(address)": {
        "notice": "Set new implementation for TipJar proxy contract"
      },
      "upgradeAndCall(address,bytes)": {
        "notice": "Set new implementation for TipJar proxy contract + call function after"
      }
    },
    "version": 1
  },
  "storageLayout": {
    "storage": [
      {
        "astId": 3126,
        "contract": "contracts/TipJarManager.sol:TipJarManager",
        "label": "_initialized",
        "offset": 0,
        "slot": "0",
        "type": "t_bool"
      },
      {
        "astId": 3129,
        "contract": "contracts/TipJarManager.sol:TipJarManager",
        "label": "_initializing",
        "offset": 1,
        "slot": "0",
        "type": "t_bool"
      },
      {
        "astId": 589,
        "contract": "contracts/TipJarManager.sol:TipJarManager",
        "label": "admin",
        "offset": 2,
        "slot": "0",
        "type": "t_address"
      },
      {
        "astId": 592,
        "contract": "contracts/TipJarManager.sol:TipJarManager",
        "label": "criticalDelay",
        "offset": 0,
        "slot": "1",
        "type": "t_uint256"
      },
      {
        "astId": 595,
        "contract": "contracts/TipJarManager.sol:TipJarManager",
        "label": "regularDelay",
        "offset": 0,
        "slot": "2",
        "type": "t_uint256"
      },
      {
        "astId": 598,
        "contract": "contracts/TipJarManager.sol:TipJarManager",
        "label": "tipJar",
        "offset": 0,
        "slot": "3",
        "type": "t_address"
      },
      {
        "astId": 602,
        "contract": "contracts/TipJarManager.sol:TipJarManager",
        "label": "timelock",
        "offset": 0,
        "slot": "4",
        "type": "t_contract(ITimelockController)2244"
      }
    ],
    "types": {
      "t_address": {
        "encoding": "inplace",
        "label": "address",
        "numberOfBytes": "20"
      },
      "t_bool": {
        "encoding": "inplace",
        "label": "bool",
        "numberOfBytes": "1"
      },
      "t_contract(ITimelockController)2244": {
        "encoding": "inplace",
        "label": "contract ITimelockController",
        "numberOfBytes": "20"
      },
      "t_uint256": {
        "encoding": "inplace",
        "label": "uint256",
        "numberOfBytes": "32"
      }
    }
  }
}